:020000040000FA
:10000000A8260020150200001D0200001F020000AB
:100010002102000023020000250200000000000071
:1000200000000000000000000000000027020000A7
:1000300029020000000000002B0200002D02000039
:100040002F0200002F0200005106000039030000BB
:100050002F0200002F0200002F0200002F020000DC
:100060002F0200002F0200002F0200002F020000CC
:100070002F0200002F0200002F0200002F020000BC
:100080002F0200002F0200002F0200002F020000AC
:100090002F0200002F0200002F0200002F0200009C
:1000A0002F0200002F0200002F0200002F0200008C
:1000B0002F0200002F0200000000000000000000DE
:1000C0002F0200002F0200002F0200002F0200006C
:1000D0002F0200002F0200002F020000000000008D
:1000E0000000000000000000000000000000000010
:1000F0000000000000000000000000000000000000
:1001000000000000000000000000000000000000EF
:1001100000000000000000000000000000000000DF
:1001200000000000000000000000000000000000CF
:1001300000000000000000000000000000000000BF
:1001400000000000000000000000000000000000AF
:10015000000000000000000000000000000000009F
:10016000000000000000000000000000000000008F
:10017000000000000000000000000000000000007F
:10018000000000000000000000000000000000006F
:10019000000000000000000000000000000000005F
:1001A000000000000000000000000000000000004F
:1001B000000000000000000000000000000000003F
:1001C000000000000000000000000000000000002F
:1001D000000000000000000000000000000000001F
:1001E000000000000000000000000000000000000F
:1001F00000000000000000000000000000000000FF
:10020000DFF80CD000F066F80048004789240000B1
:10021000A82600200648804706480047FEE7FEE77C
:10022000FEE7FEE7FEE7FEE7FEE7FEE7FEE7FEE7A6
:10023000850300000102000000487047FC3F0000F9
:1002400040EA01039B0703D009E008C9121F08C058
:10025000042AFAD203E011F8013B00F8013B521ED8
:10026000F9D27047421C10F8011B0029FBD1801AFB
:1002700070472DE9F05F0546002092469B46884670
:100280000646814640241BE0284641464746224612
:1002900000F041F853465A46C01A914110D3114616
:1002A0001846224600F028F82D1A67EB01084F4641
:1002B00022460120002100F01FF817EB00094E41F3
:1002C000201EA4F10104DFDC484631462A4643469D
:1002D000BDE8F09F064C074D06E0E06840F00103E2
:1002E00094E8070098471034AC42F6D3FFF78CFF30
:1002F0001440000034400000202A04DB203A00FAB9
:1003000002F1002070479140C2F1200320FA03F36C
:10031000194390407047202A04DB203A21FA02F06A
:100320000021704721FA02F3D040C2F1200291402F
:100330000843194670470000F8B511480F4D0446B0
:100340004FF48C7102F03DFD002815D00026C4F852
:100350001861D4F818010090A87F2C46FF2801D01E
:1003600002F07CFB66772672D4E9002101B004F12B
:100370000800BDE8F0401047F8BD0000EC04002084
:1003800000300040F0B5A3480023021D017801258C
:10039000101D4FF0805406290BD11678360708D16E
:1003A0000678C6F30316032E06D0042E04D0052EBD
:1003B00002D0062907D00EE0B4F82463964FC6F3A6
:1003C00004263E6002E01678360704D10678C6F3AC
:1003D0000316032E02D0062904D00FE0904F8F4E53
:1003E0007E670EE01678360708D10678C6F3031646
:1003F000032E06D0042E04D0052E02D0062907D0E5
:100400000EE0D4F84462874FC6F342363E6002E005
:100410001678360704D10678C6F30316032E02D0E9
:10042000062906D011E0804E376827F080773760C4
:100430000EE01678360708D10678C6F30316032EA9
:1004400006D0042E04D0052E02D006290AD011E0D1
:100450004FF08046C6F80C31C6F81031714E361F89
:10046000336002E01678360704D10678C6F3031627
:10047000032E02D0062905D00CE06A4F032664370C
:100480003E600AE01678360704D10678C6F30316F4
:10049000032E02D006290DD014E0644F05263E60DD
:1004A000624E78363560614E083633603F263F1D18
:1004B0003E6002E01678360704D10678C6F30316CC
:1004C000052E02D0062957D068E059490968594AD3
:1004D00011605749091D0968121D116054490831FE
:1004E0000968121D116052490C310968121D116012
:1004F0004F4910310968121D11604D4914310968C6
:10050000121D11604A49183109684A4A20321160A7
:1005100047491C310968121D11604549203109689D
:10052000121D1160424924310968121D11604049B1
:1005300028310968121D11603D492C310968121DCE
:1005400011603B49303109683A4A403211603849FC
:1005500034310968121D1160354938310968121D9E
:10056000116033493C310968121D11603049403136
:100570000968121D116002E0117809070ED1007898
:10058000C0F30310032803D0042801D0052805D1A7
:10059000D4F85802284900F04F0008602248743807
:1005A000016841F470010160BFF34F8FBFF36F8F9B
:1005B0004FF01021D1F80002002803DBD1F804022B
:1005C000002822DA1D4A15601D480468002CFCD062
:1005D0001524C1F800420568002DFCD0C1F8044282
:1005E00001680029FCD0136001680029FCD0BFF32A
:1005F0004F8F0D48F0380168124A01F4E061114351
:100600000160BFF34F8F00BFFDE710490E4808603F
:10061000F0BD0000E00F00F0403501400DF0ADBA34
:1006200000C007403C050040FCED00E010560040D3
:100630000404001020C50040E40E004004E5014021
:1006400000E401400400FA050090D00330000020CF
:100650000448017F04480029024901D003F09DBBF2
:1006600003F00CBB10050020002000400FB41CB5A7
:100670000A46521ECDE9000207A9054B6A460698B4
:1006800000F018F8009A002111701CBC5DF814FBF2
:10069000170B000002E008C8121F08C1002AFAD197
:1006A00070477047002001E001C1121F002AFBD1F2
:1006B000704700002DE9FF4F8DB00F46054600261C
:1006C00006E025280BD0DDE90F1290476D1C761C43
:1006D00028780028F5D111B03046BDE8F08F00240D
:1006E000A246A1460122EC4900E0044315F8013F6F
:1006F000203B02FA03F00842F7D128782A2810D0CC
:100700006FF02F022878A0F13001092914D80AEBE4
:100710008A0102EB410144F0020400EB010A6D1C66
:10072000F0E701CF5FEA000A03D544F40054CAF1B0
:10073000000A44F002046D1C28782E2817D115F801
:10074000010F44F004042A280ED06FF02F022878FD
:10075000A0F1300109290AD809EB890102EB410116
:1007600000EB01096D1CF2E757F8049B6D1C28781B
:100770006C280FD006DC4C2817D068280DD06A28CA
:1007800014D104E0742810D07A280FD10DE044F47D
:1007900000140AE044F4801401E044F44014697841
:1007A000814202D104F580146D1C6D1C2A786E2ADA
:1007B0001FD00CDC632A31D004DC002A8BD0582AED
:1007C00011D1A3E0642A68D0692A0CD165E0732AAC
:1007D0002ED004DC6F2A73D0702A04D19BE0752AD6
:1007E0006FD0782A6ED01046DDE90F129047761C44
:1007F00050E1C4F30250022806D0032809D004288F
:1008000001CF09D0066045E101CFF117C0E90061D1
:1008100040E101CF06803DE106703BE117F8040B93
:100820008DF8000000208DF80100EB46012003E068
:1008300057F804BB4FF0FF3061074FF0000102D4BE
:100840000DE008F10101884649450FDA8045F8DBE3
:100850001BF808100029F4D108E008F101018846CE
:100860008142FADB1BF808100029F6D1DDE90F23DD
:10087000AAEB08008146214600F036F9304400EB2F
:10088000080604E0DDE90F121BF8010B9047B8F1F0
:100890000108F7D221464846F7E00A21C4F3025383
:1008A0004FF0000B0891022B04D001CFC117032B8E
:1008B00009D00AE0FF1D27F00707F7E8020108E06A
:1008C00032E01FE020E000B2C117042B01D140B29A
:1008D000C117031E71F1000307DA4FF0000CD0EBD3
:1008E0000C006CEB01012D2302E0230504D52B2322
:1008F0008DF82430012303E0E30701D02023F7E73C
:10090000984658E00A2110E010210EE010204FF028
:10091000000B08900CE010214FF0000B44F0040491
:100920004FF00809089103E008214FF0000B0891EF
:10093000C4F30253022B04D001CF0021032B06D0B5
:1009400006E0FF1D27F00707F7E8020103E080B289
:10095000042B00D1C0B24FF0000823072BD5702A1A
:1009600007D0DDF820C08CF0100C5CEA0B0C05D031
:100970000EE040238DF82430012308E050EA010303
:1009800006D030238DF824308DF825200223984698
:10099000DDF820C08CF0080C5CEA0B0C0BD150EA9F
:1009A000010301D1630706D530238DF824304FF0C1
:1009B0000108A9F10109582A04D038A20B9208AA0B
:1009C0000A920BE03AA2F9E75B46089AFFF751FC5E
:1009D0000B9B9B5C0A9A521E0A92137050EA01020A
:1009E000F2D10A98ADEB000000F1200B600702D5B0
:1009F00024F4803401E04FF00109D94502DDA9EB70
:100A00000B0000E0002000EB0B0141440890AAEB32
:100A1000010AE00306D4DDE90F232146504600F029
:100A200063F806444FF0000908E009A911F809002D
:100A3000DDE90F12904709F10109761CC145F4DB8D
:100A4000E0030CD5DDE90F232146504600F04CF8B9
:100A5000064404E0DDE90F1230209047761C089927
:100A6000481E08900029F5DC08E00A980A990078E9
:100A7000491C0A91DDE90F129047761CBBF1000179
:100A8000ABF1010BF1DC21465046DDE90F2300F00C
:100A900019F806446D1C1BE6092801003031323379
:100AA00034353637383961626364656600000000AA
:100AB0003031323334353637383941424344454694
:100AC000000000002DE9F041044600251E461746AF
:100AD000880404D405E039462020B0476D1C641E0C
:100AE000F9D52846BDE8F0812DE9F04104460025FE
:100AF0001E469046C80301D5302700E02027880411
:100B000004D505E041463846B0476D1C641EF9D552
:100B10002846BDE8F0814A68002A06D00A68531CBE
:100B20000B6010704868401E486070470AA10120A1
:100B300002F01CF90CA1032002F018F9BFF34F8F4B
:100B400010480168104A01F4E06111430160BFF3ED
:100B50004F8F00BFFDE700003A4552524F523A46D0
:100B60006174616C0D0A00003A494E464F3A48697B
:100B700074207765616B2068616E646C65720D0A24
:100B8000000000000CED00E00400FA050EB50021A5
:100B90000091CDE901106A4644F20100FFF7C6FF5B
:100BA0000EBD0000144B10B593F822402CB193F801
:100BB0002240032C03D0112010BD082010BD82B1AB
:100BC000042483F822409C7A240700D44902C3E914
:100BD00003019A820020DA829883012A03D95220E5
:100BE00002E0072010BD5120012202F01BFA08B1DB
:100BF000FFF7CCFF002010BD3005002070B5194B69
:100C0000144693F822202AB193F82220032A03D015
:100C1000112070BD082070BDECB1052283F82220A0
:100C20009A7A150700D44902C3E903019C82002087
:100C3000DC829883012C10D002F0070001284FF0CD
:100C400001020DD02146D72002F0ECF908B1FFF7E0
:100C50009DFF002070BD072070BD01225820F3E7E2
:100C60005920F1E730050020054890F822100329AB
:100C700004D090F8220008B101207047002070478E
:100C800030050020044890F82210032901D3001DEC
:100C9000704700207047000030050020F0B52F4C51
:100CA000054687B094F822000F4610B1082007B01F
:100CB000F0BDEFB3E878FF284DD06978FF294AD01E
:100CC0002978FF2947D0A978FF2944D0002684F845
:100CD00058000122009633461146019601F086FE27
:100CE00094F8580001F0C1FE1D4B0DF1080C0FCB1C
:100CF0008CE80F00A8788DF8080028788DF8090096
:100D000068788DF80A0016480023164A02A90838A8
:100D100001F042FC08B1FFF739FF44F8227B0120C3
:100D200004F81909607820F00F006070A67600E0E2
:100D300011E0FF20E0770A20084B00900848383384
:100D40000122A3F11001083801F0BAFC08B1FFF745
:100D50001DFF0020ABE70720A9E7000030050020B9
:100D6000E83E0000613800007CB50F4D95F8220088
:100D700028B195F82200032803D011207CBD08205B
:100D80007CBD0A4801F0AAFC002495F858000094A4
:100D90002346224621462235019401F027FE6C703D
:100DA0002C7000207CBD000030050020E03E0000DB
:100DB0002DE9F041064608680C46411C4FF0A0475B
:100DC0004FF0010506D005FA00F1C7F808152068B4
:100DD00001F03AFE6068411C02D0002101F021FEC2
:100DE0003079204901EB4010A169007F002830686C
:100DF000C0F8241525D0607D227D31681043C1F8EC
:100E00006C05D4E900123068C0F80C15C0F8142540
:100E100024E0A068411C02D0002101F002FEE0683D
:100E2000411C05D08540C7F80855E06801F00CFE6C
:100E3000D4E902123068C0F80825C0F81015BDE8E2
:100E4000F081607D217D32680843C2F86C05D4E9E9
:100E500000123068C0F81425C0F80C15207D012858
:100E6000D7D0ECE710050020087A0A782AB1012AC9
:100E700003D0022A01D0032A09D100EB4002044822
:100E80004978406800EB820001720021817270474E
:100E90000C000020806970472DE9FE430E46016971
:100EA00084698046B1F5007F02D00620BDE8FE834C
:100EB000134D696809B11120F8E7A660A261686066
:100EC00010491430FFF7EAFE070008D1A6B900BFA9
:100ED000FFF7CAFE0028FBD1287878B10D27002043
:100EE00068604EB1084A07CA8DE80700A069029001
:100EF000A2686946404690473846D7E70027FBE797
:100F00001C000020DD300000283F000019B101293D
:100F100006D0062070470AB10020107000207047EC
:100F200012B1001D1060F9E707207047FEB51C4F95
:100F30000646846978680D46B04202D1FFF794FEF8
:100F400008B11120FEBD95E8070004F10C0383E809
:100F50000700A888296882B2A868FFF723FE050069
:100F600009D1A068C0B900BFFFF77EFE0028FBD101
:100F7000387898B10D25A06870B16DB10948016B42
:100F8000806B029004F10C00CDE90010A069029082
:100F9000A2686946304690472846FEBD0025EAE72C
:100FA0001C000020103F0000FEB5124F044685696A
:100FB0007868A04202D1FFF757FE08B11120FEBDAC
:100FC000FFF7D2FE060000D17860A86878B10A4920
:100FD00007C98DE807000EB1012000E000208DF860
:100FE0000100A8690290AA686946204690473046E9
:100FF000FEBD00001C000020343F0000FEB51C4F69
:101000000646846978680D46B04202D1FFF72CFE8F
:1010100008B11120FEBD95E8070004F10C0383E838
:101020000700A888296882B2A868FFF7E7FD0500D5
:1010300009D1A068C0B900BFFFF716FE0028FBD198
:10104000387898B10D25A06870B16DB10948C16BB1
:10105000406C029004F10C00CDE90010A0690290F0
:10106000A2686946304690472846FEBD0025EAE75B
:101070001C000020103F00000249085C012101F023
:10108000FBBC0000D83E00007CB50024084E25467D
:101090000122305D009500231146019501F070FC9E
:1010A000641C042CF4D3BDE87C4000F003B80000BD
:1010B000D83E000010B500242046FFF7DDFF641C79
:1010C000042CF9D310BD002901DA00207047026812
:1010D000114401600120704710B504460020E07003
:1010E000401EE062204601F000FA08B1042010BD65
:1010F00004F22E2001F0C2F9A0F52A41553901D0A1
:10110000032010BD94F83000E92805D0EB2814D155
:1011100094F83200902810D104F1660001F0A3F990
:101120000749B1EB002F06D004F1820001F09BF9D2
:101130000449884201D1002010BD022010BD0000EA
:1011400000464154464154334269891E921E8A42E8
:1011500001D800207047826A408901FB0020704757
:101160002DE9F04105680F00804606D001F07EF8B9
:10117000022809D20120BDE8F081EE6816B1686945
:10118000B04207D8012605E0411CF4D069698142CC
:10119000F1D83E4634466869641CA04202D8022455
:1011A000022E0AD32146404601F060F838B10128EA
:1011B000E1D0411CDFD0B442EDD10020DBE74FF09D
:1011C000FF3632462146284601F058FE30B957B165
:1011D00022463946284601F051FE20B101280FD0A1
:1011E00001242046C7E7EC60D5E90401891E884246
:1011F00001D2401E2861287940F001002871F0E7F3
:101200003446EEE72DE9F0410E4620300D680446E5
:101210000B22202101F062F90020014608232A5CFC
:10122000401C202A12D92F2A0BD05C2A09D02E2A42
:1012300001D0994214D30B2B37D02E2A35D10CE094
:10124000401C2B5C2F2BFBD05C2BF9D0284430604A
:1012500059B32078E52834D035E008210B23DEE7A8
:10126000A2F181071E2F02D95F3F1C2F13D82F5CDC
:10127000401CA7F1400CBCF13F0F04D3A7F1800C38
:10128000BCF17D0F11D2A3F1010C61450DD2625466
:10129000491C675413E010A700E07F1C97F800C0BA
:1012A000BCF1000F04D09445F7D10620BDE8F081D1
:1012B000A2F16107192F01D8203AD2B26254491C19
:1012C000ADE705202070202A01D8042000E000208E
:1012D000E0720020EAE70000222A2B2C3A3B3C3D3A
:1012E0003E3F5B5D7C7F000020BF70472DE9F041F1
:1012F00004460021056800F008F9002826D1284698
:10130000A16901F0F2F802001FD1E069017899B1FA
:10131000C17A01F03F01A171C17A09070FD404F12C
:1013200020010B2610F8013B11F8017BDB1B761E18
:1013300004D0002BF6D002E0042206E02BB10021FD
:10134000204600F005F80200D9D01046BDE8F08133
:101350002DE9F0470546076904688069894620370A
:1013600010B1B7F5001F02D30420BDE8F087F905DE
:1013700060D1401CA86169694FF0000829B16089FB
:10138000401E10EA572F05D054E02089B0EB571FBC
:101390001DD94FE0284600F069FF064601281BD9F9
:1013A000701C33D06069B0423ED8B9F1000F0ED046
:1013B00028466969FFF7D4FE06000BD0012E0BD03A
:1013C000701C23D0204602F0EFFBF8B906E0C5F808
:1013D0001880C9E70720C8E70220C6E74FF400726B
:1013E000002104F1300001F079F84FF00008314697
:1013F0002046FFF7A9FE4FF00109E0620DE000BFB3
:1014000084F80390204602F0CFFB08B10120ACE73E
:10141000E06A08F10108401CE06261894145EFD8AB
:10142000E16AA1EB0800E062314620466E61FFF7F9
:101430008BFEA861C7F30800204430302F61E861BB
:10144000002092E770B504460E460420256821E08E
:10145000284601F04AF810BBE2691178B1B1D27A9E
:10146000E52902F03F02A2710AD02E2908D00F2AE6
:1014700006D022F0200108290AD00021B14210D064
:1014800000212046FFF764FF20B108E0042006E0B9
:101490000121F3E7A1690029DAD1002801D0002158
:1014A000A16170BD70B504460021066800F02DF8FA
:1014B0000DE03046A16901F018F850B9E0690078F4
:1014C000E52809D040B101212046FFF741FF00285F
:1014D000EFD0042807D007E03046A16901F005F8F5
:1014E000050003D00FE0072005460CE02022002174
:1014F000E06900F0F3FF0B2204F12001E06900F045
:10150000E3FF0120F070284670BD2DE9F041076827
:101510000E460546B1F5001F36D2F00634D12E61D5
:10152000AC6824B93878032805D37C6A1CB1788963
:101530004FEA402812E03889B0EB561F24D9786A68
:1015400012E0284600F092FE0446401C1AD0022CFD
:101550001AD37869A04217D9A6EB0806464521465A
:10156000EFD23846FFF7F0FDC5E9054060B100EB6A
:101570005620A861C6F3080038443030E8610020E6
:10158000BDE8F0810120FBE70220F9E770B51C4CB3
:10159000217888420DD2616800EB400551F8253072
:1015A0003BB101EB85014A7AD20704D04A6822B1E7
:1015B00005E0032070BD487A70BD124A4A600122DE
:1015C0008A7202461868104906681846B04710B17A
:1015D00010E040688047606800EB8500817A002950
:1015E000F7D1616801EB8501097A19B9417A21F0D7
:1015F00001014172606800EB8500407A70BD000017
:101600000C000020E9120000690E000038B51D4DE5
:101610002B78984201D3042038BD00EB400439B147
:1016200018480129406815D002291DD0012038BD75
:1016300001208DF8000068686A46002150F82400F7
:1016400000F06CFF08B1112817D19DF800000028A8
:10165000F1D112E050F8240088B1016814464969BC
:1016600088470068206008E050F8240038B101681D
:1016700014464969884780882080002038BD0320AF
:1016800038BD00000C000020FEB51D4C2578A84296
:101690000DD263B100EB4005606850F8256026B1BB
:1016A00000EB8506777AFF0703D00320FEBD0420F8
:1016B000FEBD0092CDE901310121B17250F82560E3
:1016C0006F46306841693046884700680099884213
:1016D00014D93068394682683046904710B10DE021
:1016E00040688047606800EB8500817A0029F7D167
:1016F000606800EB8500007A0028D9D00120FEBD8B
:101700000C00002006490A78904201D3012070475E
:10171000496800EB400001EB8000407A7047000010
:101720000C000020FEB5204C2578A8420DD263B1F4
:1017300000EB4005606850F8256026B100EB850697
:10174000777AFF0703D00320FEBD0420FEBD777A21
:101750007F0701D50220FEBD0092CDE901310121B4
:10176000B17250F825606F4630684169304688474D
:1017700000680099884214D930683946C2683046FA
:10178000904710B10DE040688047606800EB85002D
:10179000817A0029F7D1606800EB8500007A002883
:1017A000D9D00120FEBD00000C000020014A50608D
:1017B000117070470C00002038B5044600F05EF947
:1017C000002807D16946204602F05FFB002801D1BE
:1017D0000021216038BD000017B581B01446029881
:1017E0000090684600F0D2FD002802DA0B2004B019
:1017F00010BD0B4A002352F8201001B10B70019963
:10180000002900D00B7042F8201001D0012C01D02B
:101810000020ECE7002201A902A800F0C7FBE6E7E0
:10182000180000202DE9F7438CB005000BD002F022
:101830003F06324669460DA800F0B8FB04004FF0A1
:10184000000804D0BFE009200FB0BDE8F083009885
:10185000019001A80D9900F0CFFC040004D19DF87F
:101860002F00000600D5062416F01C0F4CD04CB1FA
:10187000042C03D101A8FFF715FE044646F0080624
:101880005CB1A0E09DF80A0010F0110F01D0072410
:1018900099E0700701D5082495E0300743D54D4FF6
:1018A000089839460E3002F02EF90898394616305D
:1018B00002F029F908992020C8720899009800F0D0
:1018C000BFFD074600220899009802F008F9089821
:1018D00000211C3002F017F900990120C87007B3ED
:1018E000D1F82C900022394601A801F03CFB0400FD
:1018F00069D14946009800F0F8FD04000098A7F16E
:101900000107C7600BD05EE0C4BB9DF80A00C106AA
:1019100001D5042457E0B10701D5C007B7D130077E
:1019200001D546F040060098C16A296208996962AB
:10193000089900F085FDA86008981C3000F093FD20
:10194000E860009828604FF40072C088A8802E7468
:1019500085F81180C5F81C8005F12800002181461A
:10196000C5F8148000F0BAFDB0062ED5EE6866B357
:101970006E610098A968408947020FE023E028467D
:1019800000F074FC0146012800D80224481C02D053
:10199000F61B1CB104E00124F61B01E0BE42EED8A8
:1019A000A96184B9F00510D00098FFF7CDFB70B1A4
:1019B00000EB5622EA610098012349464078FFF780
:1019C00063FE10B10124C5F8008020463CE70224E4
:1019D000F9E700000000214813B582B0040006D0EA
:1019E0000022694603A800F0E1FA18B120E00920BE
:1019F00004B010BD009921602046039900F0FCFB63
:101A000090B994F82B00000607D4A079C00612D52F
:101A1000E169009800F014FDA0600098C188A180E1
:101A200020460021FFF771FD042804D00028DFD0F4
:101A300000212160DCE70520FAE738B50C460546B1
:101A4000694602F022FA002813D1014628468CB1DB
:101A5000FFF7F8FC042801D000280AD121462846C7
:101A600000F063FC00212846FFF772FC042800D137
:101A7000002038BDFFF749FD38BD0000F8B5044629
:101A8000694602F002FA00280ED1217C4A060BD5E5
:101A900008060ED50098E2690123407804F1280178
:101AA000FFF740FE08B10120F8BD207C00F07F0068
:101AB0002074154E216A009800F017FD0028F3D11C
:101AC000656A2946E87A40F02000E872A26820683A
:101AD00002F005F805F11C00E16802F014F8314647
:101AE00005F1160002F00FF8002105F1120002F0D6
:101AF00012F800980121C17002F012F8217C01F067
:101B0000BF012174F8BD0000000021482DE9FE4FFF
:101B100088460021196099461546044602A902F03C
:101B2000B4F9002806D1607C002803D1207C80070E
:101B300002D40720BDE8FE8F6069012742194FF0EB
:101B4000020A04F1280B824200D2C54394E0606986
:101B5000C1056ED102994989491E11EA502612D158
:101B600008B1A16902E0A06828B900212046FFF76A
:101B7000F7FA00287DD001282DD0411C54D0A06157
:101B8000A16801B9A060207C00060BD50298E2692B
:101B9000012340785946FFF7C5FDA0BB207C00F02B
:101BA0007F002074A1690298FFF7CEFA98B1304403
:101BB0000190680A009027D0029932184889824221
:101BC00001D9801B0090DDE9003248784146FFF7DB
:101BD000A9FDC0B903E084F811A00220AAE7E169D9
:101BE0000198081A009988420AD208EB40214FF464
:101BF0000072584600F068FC207C00F07F002074E2
:101C00000098460227E00FE0E169019881420ED07A
:101C1000E168606988420AD20298012359464078F7
:101C2000019AFFF731FD10B16774012082E7019836
:101C3000E061A08AC0F30800C0F50076AE4200D98A
:101C40002E46204432464146283000F03DFC207CA0
:101C500040F0800020746069B04430446061E16805
:101C6000884200D80846E060D9F80000AD1B304437
:101C700000E004E0C9F80000002D7FF468AF207C8C
:101C800040F040002074002054E7000038B50121E6
:101C90004348FFF78BFD43A1032001F067F80324BD
:101CA0000020FFF773FC641E02D00028F8D102E088
:101CB00008B146A159E04F4D4F48696988474068CF
:101CC0004FF48011B1FBF0F469694B488847006814
:101CD0004AA1B0FBF4F2032001F04CF84EA103201E
:101CE00001F044F8012254A15448FFF775FD08B1F2
:101CF00053A13AE059A1032001F038F860A16148EE
:101D0000FFF76AFE08B160A12FE05E4C2C3404F1AD
:101D100009055C495B482C31FFF78FFE08B164A1CF
:101D200023E0607A88B1207AC00605D52A4668A1EA
:101D3000132001F01FF805E02B4669A1132022684B
:101D400001F01FF8607A0028E3D129A1132001F0E7
:101D50000DF866A1032001F009F84A4833226EA16C
:101D60004430FFF75FFD20B16EA1032000F0FEFFBD
:101D700038BD44486B46122278A14430FFF7C6FEB6
:101D800020B17BA1032000F0F1FF04E07FA103203C
:101D9000009A00F0EFFF3B484430FFF70DFD38BDDF
:101DA000000000204150503A494E464F3A496E6972
:101DB0007469616C697A696E67206469736B20303D
:101DC0002028534443292E2E2E0D0A004150503A0C
:101DD000494E464F3A4469736B20696E6974696174
:101DE0006C697A6174696F6E206661696C65642ED6
:101DF0000D0A0000F83E0000BC3E00004150503A81
:101E0000494E464F3A43617061636974793A2025BF
:101E100064204D420D0A00004150503A494E464F51
:101E20003A4D6F756E74696E6720766F6C756D656F
:101E30002E2E2E0D0A0000000000000034000020AD
:101E40004150503A494E464F3A4D6F756E74206678
:101E500061696C65642E0D0A000000004150503A23
:101E6000494E464F3A0D0A204C697374696E6720DB
:101E70006469726563746F72793A202F0D0A0000ED
:101E80002F000000640200204150503A494E464F56
:101E90003A4469726563746F7279206C697374690E
:101EA0006E67206661696C6564210D0A00000000A0
:101EB0004150503A494E464F3A4469726563746FD7
:101EC00072792072656164206661696C65642E00B8
:101ED0002020203C4449523E20202025730D0A003A
:101EE00025396C75202025730D0A00004150503AA9
:101EF000494E464F3A57726974696E6720746F2075
:101F000066696C65204E4F524449432E5458542EF6
:101F10002E2E0D0A000000004E4F524449432E540D
:101F2000585400004150503A494E464F3A556E6160
:101F3000626C6520746F206F70656E206F72206315
:101F400072656174652066696C653A204E4F524433
:101F500049432E5458542E0D0A0000005344206368
:101F6000617264206578616D706C652E0D0A0000E9
:101F70004150503A494E464F3A577269746520664F
:101F800061696C65640D0A2E000000004150503AF2
:101F9000494E464F3A256420627974657320777202
:101FA000697474656E2E0D0A000000002DE9FF4172
:101FB000002790460E460F6000F0E8F9050003D5B3
:101FC0000B2004B0BDE8F081884850F825409CB152
:101FD0003460207808F0FE0620B16078FFF792FBAD
:101FE000C1070BD02770E8B2B8466070FFF7CEFA91
:101FF000C10708D00320E4E70C20E2E70EB1400758
:1020000004D40020DDE71EB1400701D50A20D8E73F
:10201000002631462046FFF75FF8022822D100252E
:102020004FEA0D0704EB051090F8F21100F5F77078
:1020300019B1083000F017FA00E0002047F8250039
:102040006D1C042DEED3002557F8256036B13146BE
:102050002046FFF741F8022801D203E003206D1C5F
:10206000042DF1D3042809D002286DD204F13B00DD
:1020700000F004FAB0F5007F66D101E00120A0E78E
:1020800004F1460000F0FAF918B904F1540000F028
:10209000EAF9A06194F84050A570012D01D0022DFD
:1020A00052D1454394F83D006081E8B3411E084297
:1020B0004AD104F1410000F0E1F92081000743D149
:1020C00004F1430000F0DAF9070004D104F15000F4
:1020D00000F0C9F9074604F13E0000F0CFF9010015
:1020E00032D02389481900EB131297422CD3B81A27
:1020F0006789B0FBF7F0B8B103274FF6F57C604570
:1021000000D8022740F6F57C604500D80127801CE6
:102110003244A26231446061C4E90761032F15D0E3
:1021200013B12944616200E00EE0022F1FD000F0DD
:10213000010100EB400001EB500000BFA16900F27B
:10214000FF10B1EB502F14D20D203AE704F15A00E2
:1021500000F094F90028F7D120890028F4D104F187
:102160005C0000F080F9606260698000E6E7400092
:10217000E4E74FF0FF302061E06080202071032F02
:102180002CD104F1600000F079F9012826D1711CEE
:10219000204600F0AAF908BB84F8048004F22E203F
:1021A00000F06CF9A0F52A41553917D104F130003F
:1021B00000F059F90E49884210D104F5057000F07D
:1021C00052F90C49884209D104F5067000F04BF928
:1021D000206104F5077000F046F9E06003492770BC
:1021E000091F0888401C0880E0800AE718000020CA
:1021F000525261417272416173B50446056801989B
:1022000001E0401C019001782F29FAD05C29F8D018
:102210000021A16001980078202806D2802084F84F
:102220002B002046FFF771F97CBD01A92046FEF77F
:10223000E9FF0028F8D12046FFF758F894F82B1052
:1022400028B10428F0D14907EED405207CBD490708
:10225000FCD4A079C006F8D5208AC0F30800411943
:102260002846303100F0ECF8A060DEE72DE9F041BF
:1022700004680D4602290BD36069A84208D920786A
:102280004FF0FF36012807D002282BD0032839D081
:1022900001263046BDE8F081206A05EB550700EBCA
:1022A0005721204600F021F90028F2D1C7F3080099
:1022B00020447F1C90F83080206A00EB5721204694
:1022C00000F013F90028E4D1C7F30800204490F887
:1022D000301048EA0120E90701D00609D9E7C0F328
:1022E0000B06D6E7206A00EB1521204600F0FDF82A
:1022F0000028CED1E8B204EB4000303000F0BEF848
:102300000646C6E7206A00EBD511204600F0EDF83E
:102310000028BED140F2FF1000EA85002044303092
:1023200000F0A1F820F07046B3E72DE9F04100235A
:1023300005464B7280690C46002825D000210A46CC
:102340002E26E869805C521C20280AD0052800D17E
:10235000E520092A02D16718491C7E726718491CBA
:1023600078720B2AEDD360184372E869C07A207244
:10237000E8691C3000F077F82060E869163000F05A
:1023800072F8E080000CA080BDE8F08110B5044632
:102390004FF0FF302268002A13D0114600E0491C9C
:1023A0000B78212B0ED33A2BF9D112F8013B303B9D
:1023B0000A2B06D28A4204D1002B02D1491C1846AE
:1023C000216010BD002010BD70B50E460446007996
:1023D00018494FF4A27501EB4010017F2068A1B1AC
:1023E0004FF4887100F008FD4FF49071206800F000
:1023F00003FD4FF49271206800F0FEFC294620682E
:1024000000F0FAFC0C49206809E04FF48E7100F0EE
:10241000E2FC2946206800F0DEFC08492068C0F88C
:102420000413206800F0A4F83146BDE8704000F0C5
:1024300083B8000010050020100302008000020095
:1024400070B506460D4601F11A0000F017F8044673
:102450003078032805D105F1140000F00FF844EAA4
:102460000044204670BDC178827842EA012142785A
:10247000007842EA012140EA012070474178007863
:1024800040EA012070470000FEF7FEFD002000F04A
:1024900087FC08B1FEF77AFB03A1032000F066FC7D
:1024A000FFF7F4FB20BFFDE74150503A494E464F3D
:1024B0003A0D0A4641544653206578616D706C654B
:1024C0002E0D0A0D0A000000002A05D011F8013B6C
:1024D00000F8013B521EF9D1704700005FFA81F10C
:1024E00000F8011B521EFBD1704770B50446C06A4C
:1024F0000D460026A8420FD0204601F055FB0600ED
:102500000AD1607801232A4604F13001FFF7BCF8B4
:1025100008B1751E0126E562304670BD03681B696F
:10252000184700F01F02012191404009800000F18E
:10253000E020C0F8801170474907090E002806DA2C
:1025400000F00F0202F1E02282F8141D03E000F116
:10255000E02282F8001400F01F020121914040099E
:10256000800000F1E020C0F88012C0F80011704730
:10257000000B40B270470121B1EB507F01D1012027
:102580007047002070470121B1EB507F01D101203D
:1025900070470020704700002DE9FC5F80464079BD
:1025A0000C4600EBC001454800EB8107387F10B1B5
:1025B0000820BDE8FC9FC7E90023207B4FF0A04B1B
:1025C0004FF0010A012805D822780AFA02F0CBF868
:1025D0000C0502E0207800F041FA4FF00009CDF838
:1025E0000090CDF8049020784B464A46012100F037
:1025F000D9F965784FF0FF36FF2D07D00AFA05F0BC
:10260000CBF80C05284600F015FA00E03546A07816
:10261000FF2809D0002206464B46CDF8009011460F
:10262000CDF8049000F0BEF9E078FF2804D000F067
:1026300015FAE07800F0FEF998F80500E17800EB73
:10264000C0021E4800EB82008177D8F80000217894
:10265000C0F80815C0F80C55C0F81065A168C0F89E
:102660002415227B617B01B10121012A04D0022AB9
:1026700005D0032A08D105E041F0020104E041F051
:10268000040101E041F00601C0F854156179C0F879
:10269000C015396811B14021C0F804130721C0F8F2
:1026A0000015386820B1217998F90400FFF744FF3C
:1026B000484687F81D9087F81CA07AE7EC040020B4
:1026C0001FB5069C00918DF8042002938DF80C40F4
:1026D0000022694600F034F804B010BD2DE9F04145
:1026E0004179164A01EBC10102EB810501222968FB
:1026F00059B190F9041001F01F0302FA03F34909DC
:10270000890001F1E021C1F88031046828680026C1
:1027100070B1701EC4F80803687F48B162614FF45D
:1027200082773946204600F04CFB0028F9D06E77BE
:10273000C4F800652E77BDE8F0810000EC040020AD
:10274000F0B40D4613464179144A01EBC10102EB86
:1027500081014A7F12B1F0BC112070470C68012240
:102760001CB113F0140F00D14A7795E8D0100C314A
:1027700081E8D01011F8154F24F0070401F8214921
:102780008C7FFF2C04D04FF0A046A240C6F80C2549
:1027900000682A46F0BC01F049B90000EC040020B2
:1027A0002DE9F04105460079164F904607EB40149D
:1027B0000E46E07E10B10820BDE8F081707F2077E2
:1027C0002846FEF7F5FA5FEA08006060316921608B
:1027D00003D0317F2846FFF7F7FD287907EB40103B
:1027E000007F0028286801D0082100E00421C0F8FB
:1027F00000150020E0752076A0750121E176A07615
:10280000DAE70000100500202DE9F04705460079C1
:102810003F4E904606EB40140F46207F18B1084605
:10282000FFF7B1FE30B1284600F074F820B1112056
:10283000BDE8F0871020FBE784F81680A76000272A
:10284000A78228794FF0010806EB40143E46207F0E
:102850000028286825D04FF49079494600F0CCFA3A
:102860004FF4AC7A5146286800F0C6FA2868A17D7A
:10287000A268C0F84425C0F848152868C0F8088048
:102880006068F0B94946286800F0B1FA80465146C0
:10289000286800F0ACFA58EA0001F3D058BBA775DD
:1028A0000FE04FF48E7A514600F095FA2868C0F890
:1028B00008802146286801F0BBF961684FF48070F8
:1028C00089B13046B4E75146286800F07FFA10B964
:1028D000A08A4845F7D1A08A484505D021462868F6
:1028E00001F0A6F900E08146A08AA17D8842EAD3E2
:1028F000A08A484501D10F26D1E75146286800F04B
:1029000065FA0028F9D02868C0F80C80C7E70000F5
:10291000100500200079044901EB4010807D00285B
:1029200000D00120704700001005002070B504465B
:1029300000791149002601EB401520682A7FC0F874
:102940000065686888B1207901EB4010007F00289D
:10295000206801D0094901E008498C39C0F8081302
:102960002068FFF705FEFFF7DCFD204600F04AFA7D
:10297000EE766E6070BD00001005002010030200AE
:1029800070B541EA4201DDE904564FF0A04441EA46
:10299000830141EA052104EB800041EA0641C0F8C9
:1029A000001770BD70B541EA4201DDE904564FF0F1
:1029B000A04441EA830141EA052104EB800041EA99
:1029C0000641C0F8001770BD70B541EA4201DDE96B
:1029D00004564FF0A04441EA830141EA052104EB8B
:1029E000800041EA0641C0F8001770BD70B541EAA9
:1029F0004201DDE904564FF0A04441EA830141EA77
:102A0000052104EB800041EA0641C0F8001770BDC3
:102A10001CB5002100910B4601220191FFF7D4FF64
:102A20001CBD1CB500220B46009211460192FFF717
:102A3000CBFF1CBD1CB5002100910B46012201916A
:102A40001146FFF7AFFF1CBD1CB5002100910B46DE
:102A5000012201911146FFF7B7FF1CBD4FF0A042C4
:102A600001218140C2F8081570474FF0A0420121B2
:102A70008140C2F80815704701224FF0A043824000
:102A800011B1C3F808257047C3F80C257047000042
:102A900000487047092B000030B5184C054689B036
:102AA000207828B16078854202D1002009B030BD7D
:102AB000202213496846FDF7C3FB00208DF814005F
:102AC0000620009008200190052003900720029026
:102AD0004FF0EB7006900948001DFFF727FF0DB17E
:102AE000002200E0074A05486946001DFFF758FE2E
:102AF0000028DBD1012020706570D6E7240000207B
:102B0000583F00006D3C00002DE9F04FC1B00D00B2
:102B10004FF0000140914D984B991C46174601EB30
:102B2000000B01D00A2000E00020804600F07CFE6F
:102B300000287CD16E46BCB9409840AA311828467E
:102B400001F05CF8002872D03846FDF78BFBC228F4
:102B500000D9C220054640982A4630443946FDF740
:102B60006FFB4098284440904FF0200A409901EBB9
:102B7000080231320DEB01050DEB0206002002E0E8
:102B800005F801AB401C4045FAD300275C4508D34B
:102B900005F801AB05F801AB05F801AB06F801AB90
:102BA0002DE04B98844202D24A98005D02E0211A3F
:102BB0004C98405C2B46814602460121880022FA4F
:102BC00000F000F00F00092801D9373000E0303064
:102BD000C1F1010C491E03F80C00EFD29D1C05F851
:102BE00001ABFDF729FB016811F8090010F03E0F59
:102BF00001D0484600E02E2006F8010B641C7F1C23
:102C0000102FC3D30D2030700A20707085F800A0FB
:102C10004099684641444331409100F00BFE30B189
:102C200000F002FE18B9002040905C459ED341B0F0
:102C30002046BDE8F08F2DE9F043C7B000251C46C3
:102C4000904689464E9F459500F0EEFD00287AD1CA
:102C5000459805AE311845AA484600F0CFFF002838
:102C600035D0072F27D2DFE807F004121B35424F7B
:102C70005D004046FDF7F6FA054645982918FF29FC
:102C800019D830442A464146FDF7DAFA13E0459850
:102C90002368C0F5807130444246FDF7E7FC09E047
:102CA0006068009045982368C0F5807130444246C2
:102CB000FDF7DCFC0546294645A8FEF704FA4599D0
:102CC00078B3B1F5807F3ED805A800F0B3FD47B0DA
:102CD000BDE8F083D4E90101CDE9000145982368FE
:102CE000C0F5807130444246FDF7C0FCE2E7201D8C
:102CF00007C88DE8070045982368C0F58071304407
:102D00004246FDF7B3FCD5E7201D0FC88DE80F0044
:102D100045982368C0F5807130444246FDF7A6FC13
:102D2000C8E710E004F1080001AD0FC885E80F0006
:102D30006068009045982368C0F580713044424631
:102D4000FDF794FCB6E70020C1E70000004870479B
:102D5000372C000038B50D460093034B00215C6909
:102D600013462A46A04738BD8C06002000231A4689
:102D7000FFF7F0BF08B5012300926A46FFF7EAFFAC
:102D800008BD1CB5CDE9002302236A46FFF7E2FF28
:102D90001CBD0000014AC2E9050170478C060020F5
:102DA00070B50120FFF778FE040008D1FFF7CEFFD1
:102DB0000546FFF76DFE01462846FFF7EBFF20466C
:102DC00070BD4058002800D00120704740580028AE
:102DD00000D00120704708B50022425040580090B2
:102DE00008BDD0F80403084000D0012070474058C7
:102DF000002800D00120704708B5002242504058FA
:102E0000009008BD70B5034600791B4901EB4010E6
:102E10001968027F4FF0FF30002AD1F80C25D1F855
:102E20001465D1F80855D1F8104504D0C1F80C0547
:102E3000C1F8140503E0C1F81405C1F80C051968C0
:102E4000C1F80805C1F81005501C02D01046FFF764
:102E5000DFFD701C02D03046FFF7DAFD601C02D0A7
:102E60002046FFF7D5FD681C04D02846BDE8704019
:102E7000FFF7CEBD70BD0000100500202DE9F04722
:102E8000022617460D460446022969D36069A84206
:102E900066D920784FF00109012804D0022836D0E5
:102EA00003285DD143E0216A05EB550801EB582169
:102EB0002046FFF71AFB060052D1C8F30800204451
:102EC000303008F10108E90704D00178FAB262F362
:102ED0001F1100E03946017084F80390216A2046F2
:102EE00001EB5821FFF701FB060039D1C8F30800B8
:102EF00020443030E90702D0C7F3071105E001781C
:102F0000C7F3032201F0F0011143017026E0206AAB
:102F100000EB15212046FFF7E8FA060020D1E8B2C1
:102F200004EB4000B9B2303000F0F5FD16E0206A45
:102F300000EBD5112046FFF7D8FA060010D140F279
:102F4000FF1000EA8500204430300546FFF78BFA79
:102F500067F31B000146284600F0D5FD84F8039076
:102F60003046BDE8F0872DE9F041056813460E466E
:102F7000074602292DD36869B0422AD93BB14FF0E8
:102F8000FF3219462846FFF779FF00281FD1314646
:102F90003846FFF76BF9040018D0012C19D0601CDB
:102FA00019D0002231462846FFF768FF00280ED1CD
:102FB000D5E90410821E914205D2491C2961297964
:102FC00041F0010129712646B042E0D80020BDE859
:102FD000F0810220FBE70120F9E770B50546C87DC6
:102FE0000C4600284FF4847128460AD0FFF7F3FE00
:102FF000D5F81805627EE1688854607E401C6076D2
:1030000070BDFFF7E8FED5F8180570BD1FB50123A8
:103010008DF800308DF808100192D0E90012684652
:1030200090471FBD2DE9F0412B4B93F8234014B17D
:103030001120BDE8F0810125002783F82350040604
:1030400012D5022483F82340772483F828400024F3
:1030500083F8294083F82A4083F82B40062783F819
:103060002C40FF2483F82D40DC1900F07F0684F803
:1030700028600E0E84F829600E0C84F82A600E0A6F
:1030800084F82B6084F82C10402810D0482810D0E9
:103090005FF0FF0184F82D100521022A0BD0032ACE
:1030A00009D083F82450000608D5012008E09521B6
:1030B000F0E78721EEE783F82410F4E793F8240083
:1030C000054A0E30C3B238320621A2F1100000F0DA
:1030D0008DFB0020ADE7000030050020FEB5214E3D
:1030E00005464078307077682978BC6949B11E4838
:1030F00001291CD002292FD0BDE8FE400320FDF796
:1031000045BDFDF7BFFD006820604FF400706060B2
:1031100070688069806800281DD0002000900190B0
:103120000290687800B101208DF801000DE0A168DF
:10313000002910D007C88DE80700687800B1012089
:103140008DF8010004F10C000190A0690290A268C2
:10315000694638469047FEBDA1680029FBD00C3077
:10316000E8E700001C000020103F00002DE9F84FA8
:10317000A44C1746D0F80120264612BA037922F053
:10318000FF02B6F820C042EA030E8A46A38B06F17E
:10319000480596F80AB001784FF4067804220CF13D
:1031A000010C00261FFA8CF9434578D020DC40F250
:1031B000F315A3F2F31CAB423BD00EDC4FF4F877CF
:1031C0006BB3BB4227D1012200214020FFF72AFF29
:1031D00008B1FDF7DBFCA5836CE08A48BCF1060F63
:1031E000807A20F0070034D0BCF1130F13D14BE0EC
:1031F00040F2412CA3F24128634577D005DC18F159
:1032000014037AD0062B06D186E0B8F10A0F6FD0EE
:10321000B8F10F0F6DD0A6830320BDE8F88F01220F
:1032200000214020FFF7FEFE08B1FDF7AFFCA783A9
:1032300040E0880801D03A70BCE003224FF4D57119
:103240004820FFF7EFFE08B1FDF7A0FC40F2F910AF
:1032500015E04B0703D4C01CA0728808EBD126846C
:10326000A07A00F0070003280BD000210222E920F9
:10327000FFF7D8FE08B1FDF789FC40F20620A083D5
:1032800018E04FF08041F1E74B0736D5401CA072A3
:10329000A4F82090B9F5FA6F02D902207BE00BE088
:1032A000022200214120FFF7BDFE08B1FDF76EFCB0
:1032B000A4F81C800120B0E78808BCD1C807E7D17A
:1032C00032E000BFA4F82090B9F5FA6FE5D80BF012
:1032D000070003280ED000210222E920FFF7A2FEFA
:1032E00008B1FDF753FC40F22D20C8E72CE004E0C4
:1032F0003AE044E04FF08041EEE788089BD1C807F0
:10330000E0D1022200217A20FFF78CFE08B1FDF700
:103310003DFC40F23320B2E788088CD15FEA4E00D2
:1033200002D54BF00800A072A07A00F00700032835
:103330000CD0012251025020FFF774FE08B1FDF7B6
:1033400025FC40F241209AE7880887D10120E560FA
:10335000A082024600214920FFF764FE08B1FDF774
:1033600015FC40F24B208AE78908A6D1AAF1010199
:1033700001F0FF0AE6834FF41471A183401C6B46F1
:103380001022514600F080F8022801D2002044E7C4
:103390009DF8000008B138700CE0287880090CD046
:1033A000012823D0022808D0304660604FF4007016
:1033B00020813E70A68302202FE7287AE9798009D0
:1033C00000EB8100A979AA7A01F0030100EB8120CA
:1033D0006B7A6979D20903F0030301F00F0102EB64
:1033E00043021144401CC91F8840DEE7287A0102CD
:1033F000E87901EB0040697A0844800200F58060BA
:10340000D3E7000030050020F8B51E4C16464FF4F7
:103410001E73A28B002542B19A4210D0A2F5007211
:10342000823A2AD0A5830320F8BD0278920801D001
:10343000042010E0491EE583C9B2A383401C6B46FB
:103440004FF4007200F020F8022801D20020F8BDED
:103450009DF8000008B1307010E0A08A01280CD956
:10346000012200214C20FFF7DDFD08B1FDF78EFBA6
:1034700040F28220A0830120F8BD3570A583022090
:10348000F8BD0000300500202DE9F05F544C9A464D
:103490001646E38B254605F1380240F2B91B283564
:1034A000A3F2B91C4FF000095B455ED004DC73B198
:1034B0001CF1120306D154E0BCF1070F79D0BCF126
:1034C000130F75D0A4F81E900320BDE8F09FA38AC7
:1034D000E3826FE0A4F8209084F82870A4F8189094
:1034E000032384F82330238C44F620675B1C9BB2B3
:1034F0002384BB4204D902210AE0491EC9B2401C00
:1035000059B10378FF2BF8D0DBB2FE2B0FD0052189
:103510008AF80010A4F81E9060E0102301212846CC
:1035200000F064F940F2A710E0830120CDE7491EC6
:103530000423C9B2401C84F82330B14201D9374674
:1035400000E00F46002306E0D4F80C8010F803C01A
:1035500008F803C05B1CBB42F6D32783E3683B44F7
:10356000E36094F82330032BBDD0208BB04213D2FC
:10357000301A86B2F02E00D9F026F3B20121284687
:10358000E26800F033F9E0683044E060208B3044BA
:103590002083A4F81EB0C8E7E08A0223401EE08220
:1035A0000121284600F022F94FF4E070BCE700E06A
:1035B0000EE00021E38AFF27002B8BD184F82870CE
:1035C00002230121284600F011F94FF4E670ABE721
:1035D00084F823908AF80090A4F81E90022074E7E3
:1035E000300500202DE9F05F7F4C16462346074644
:1035F000B4F81C8003F1380203F1280093F82390FB
:103600009D8A00234FF0040A4FF0020E4FF0030C86
:1036100044F6206BB8F5337F74D00EDCB8F1000FA0
:103620001AD0A8F50078B8F1A3082ED0B8F1100F81
:1036300055D0B8F1210F0BD151E0A8F50078B8F1C1
:10364000EA086ED0B8F1160F6CD0B8F1260F6AD028
:10365000A3830320BDE8F09F3978890803D000BF19
:1036600086F800A0ABE0A17A01F0070101290FD094
:10367000012D0DD9012259202169FFF7D3FC08B192
:10368000FDF784FA40F2A32016E039788908E7D1E3
:10369000E5826FE0238384F823A084F82810012DAD
:1036A00001D9FC2100E0FE2184F8291002231946EB
:1036B00000F09CF840F2B320A0836EE0C3F50070E8
:1036C00085B2F02D00D9F025C818E9B2012300F029
:1036D0008DF8208B284420834FF43170ECE7424969
:1036E000238BC968B3F5007FE8D301F50071E16071
:1036F00084F823C00323012100F078F84FF43370DD
:10370000DAE7FFE794F83A1001F01F01052906D027
:103710000B2901D00D29A3D1052030704FE023845F
:1037200022E011E03BE04DE0218C491C89B221846C
:10373000594502D986F800E041E01023012100F04C
:1037400055F840F2EA20B7E74FF0000C0AE000BF5E
:1037500017F80C80B8F1000F02D084F8233006E08F
:103760000CF1010C8C45F3D3B9F1030FDCD0E18AE5
:10377000491EE182E78AFF21002F8BD1012D31D92B
:1037800084F82810FD2184F82910032302211C3419
:1037900000F02CF84FF44070208001205AE7238479
:1037A00084F823C0218C491C89B221845945C1D891
:1037B0001023012100F01AF84FF444707CE7A38332
:1037C000022047E7002508E017F805C0BCF1000F0C
:1037D00002D084F8233005E06D1C8D42F4D3B9F19A
:1037E000030FDFD03370EAE730050020F8B50C4650
:1037F0000B494FF0A04691F858500121A940C6F856
:103800000C1500931346014622460648FEF758FF62
:10381000002803D0BDE8F840FDF7B8B9F8BD0000B6
:1038200030050020E03E00000148FFF773B80000BB
:103830002800002070B50D460A46014601240648BE
:10384000FCF7FEFCEAB204490448FEF7DDFF00B1D4
:103850000024204670BD00008C05002028000020B8
:103860002DE9F04FDFF8BC810746057CC468B8F845
:10387000160087B018B998F85800FFF7F6F898F8CE
:10388000230000264FF0020B4FF003094FF0010A0E
:10389000022801D001284BD17968AD1FA41D0978F9
:1038A000EDB24C2903D15DB16D1EEDB2641C1DB1AA
:1038B0002278FF2AF8D005E04C2901D0002402E04C
:1038C0000125641E5CBB98F82210012927D08DF8D1
:1038D00001A098F822105046012907D0022905D0EE
:1038E00004290DD005290ED0032006E08DF80060D4
:1038F00088F82290FDF738FA38B1FDF747F904E06F
:103900008DF8000001E08DF800B098F85800FFF73E
:10391000ACF888F822906846D8F8001065E00228D4
:1039200004D188F823A02078400814D088F82360B8
:1039300006208DF80C0098F82200012817D00228E4
:1039400019D0042838D0052851D00320FDF71EF9DE
:1039500007B0BDE8F08F98F82400324A0E30C3B2A9
:1039600038320621A2F10A00FFF740FFF0E788F89D
:1039700022B0A8F81C6003AA29462046FFF7F6FBF0
:103980000228E5D38DF808609DF80C008DF8090039
:1039900088F8229098F85800FFF767F89DF80C0017
:1039A00020B1FDF7E1F908B1FDF7F0F81E494FF03D
:1039B0008040C1F8240515E003AA29462046FFF7F8
:1039C00023FD0228C4D38DF808A09DF80C008DF8C3
:1039D000090088F82290A8F81460A8F8166088F802
:1039E000236019E0D8F8001002A88847B0E703AABE
:1039F00029462046FFF7F6FD0228A9D38DF808B026
:103A00009DF80C008DF8090088F8229088F8236052
:103A1000A8F81460A8F8166098F85800FFF725F881
:103A2000E0E7000030050020003000402DE9F843B9
:103A3000044610681E4615460F464FF0000810B1A8
:103A4000FEF799FDF8B1A86810B1FEF794FDD0B16A
:103A500028792968C4F84415C4F84805287BA96862
:103A6000C4F83415C4F838054FF48C754046C4F8D2
:103A70001881D4F818110091F2074FF0010107D016
:103A8000C4F8501506E087F81D801020BDE8F883C3
:103A9000C4F85005B20702D5C4F8401501E0C4F8D7
:103AA0004005300700D42161386848B146F38000F2
:103AB000401C4FF040000FD0C4F804030020E5E79D
:103AC00029462046FFF77DF90028F9D0B87FFF2866
:103AD000F4D0FEF7C3FFF1E7C4F80803EEE770B5D2
:103AE0000C460646154691B204F11A0000F013F890
:103AF0003078032806D1290C04F11400BDE8704089
:103B000000F009B870BD0170090A4170090A81709E
:103B1000090AC17070470170090A417070470000BE
:103B200070B5044600F040F8050036D1207803282F
:103B30002CD12079012829D1420204F13000002142
:103B40000646FEF7CBFC4AF6552104F22E20FFF77D
:103B5000E2FF13493046FFF7D6FF124904F505701E
:103B6000FFF7D1FF04F506702169FFF7CCFF04F5DC
:103B70000770E168FFF7C7FFE2690123521CE262A8
:103B800060783146FDF7CEFD00202071002260787C
:103B90001146FDF73BFD00B10125284670BD000030
:103BA00052526141727241612DE9F0410446C07880
:103BB0000027F8B1E56A04F13001607801232A4654
:103BC0008846FDF7AFFD08B1012713E00020E07043
:103BD000206AA169281A88420CD2A67808E0A06958
:103BE0000123054460782A464146FDF79BFD761E79
:103BF000022EF4D23846BDE8F081000010B514461C
:103C000002004FF001000CD00846136806A24FF4E2
:103C10008071FCF72BFD01462046BDE81040FDF702
:103C200052BA0021216010BD5B253038645D000070
:103C300070B50C4605464FF48E71FFF7CCF8A18A9B
:103C4000A068415CA08A401CA082C5F81C1570BD0C
:103C50001FB500228DF800208DF8081081680191B1
:103C60008275D0E90012684690471FBD0078012890
:103C700001D1014988707047240000202DE9FF47D9
:103C80000C4605464FF40071FFF7ABF801274FF4DF
:103C90000178002618B34FF4927949462846FFF779
:103CA00095F8E0B149462846FFF795F8C5F808832E
:103CB000A07E00B96F6002208DF80000D5F8800466
:103CC000C5F880040390E07D8DF80800E06801905D
:103CD000E6752676D4E900126846904727E004216D
:103CE0002846FFF77EF810B34FF484712846FFF79B
:103CF0006DF8E0B121462846FFF76FF9E07D617E5F
:103D0000884214D1207E38B1617EE268E075206976
:103D1000E0602676667607E0A07E00B96F60C5F8A1
:103D20000883E675617EE2682046FFF76FF94FF47D
:103D30008E7841462846FFF749F888B1A08AA17DD0
:103D4000884204D221462846FFF772FF08E0414628
:103D50002846FFF740F8A17D11B12046FFF778FF14
:103D60004FF4A27841462846FFF730F8002812D0D9
:103D700041462846FFF72FF8A07E00B12F60E07D76
:103D8000002808D0E675617EE26804B02046BDE8F0
:103D9000F047FFF73BB9BDE8FF872DE9FF410C462F
:103DA0004FF4927705463946FFF721F80026C0B157
:103DB00039462846FFF720F802208DF80000D5F894
:103DC0008004C5F880040390D5F83C058DF8080000
:103DD000E0680190E6752676D4E9001268469047BF
:103DE00024E04FF4887739462846FFF700F8E8B119
:103DF00039462846FFF700F8D5F83C05C1B2E07D0A
:103E0000884213D1207E60B1E268D5F8000220F02C
:103E10002000C5F80002207EE0752069E06026766B
:103E200001E0E675E2682046FFF7F0F84FF4A2776C
:103E300039462846FEF7DBFF68B139462846FEF7CB
:103E4000DBFFE07D38B1E675D5F83C05E268C1B22C
:103E50002046FFF7DBF84FF4907631462846FEF710
:103E6000C6FF00280FD031462846FEF7C5FFA07DCB
:103E7000002808D0D5F84C0504B0C1B22046BDE8F2
:103E8000F041FFF7E5BEBDE8FF8170B50D460400C7
:103E90000CD0206850B1017841B1C188A28891420C
:103EA00004D14078FDF72EFCC00703D00020286025
:103EB000092070BD20682860002070BDF83E000019
:103EC0000C4000000840000000400000000200001C
:103ED00017181916D0040020111213140D0E0F100C
:103EE0000030004003000100000000FF07FF000059
:103EF0000000000400000000990E0000A90F00005F
:103F00002D0F0000FD0F00000D0F0000950E0000AA
:103F1000020000000000000000000000030000009C
:103F20000000000000000000000100000000000090
:103F30000000000001000000000000000000000080
:103F4000020100000000000000000000020100006B
:103F50000000000000000000FFFFFFFFFFFFFFFF69
:103F6000FFFFFFFFFFFFFFFF000000000000000059
:103F70000000D601070100000040404040404040A2
:103F8000404041414141414040404040404040402C
:103F900040404040404040404005020202020202D0
:103FA000020202020202020202202020202020201F
:103FB0002020200202020202020290909090909033
:103FC00010101010101010101010101010101010F1
:103FD0001010101002020202020288888888888865
:103FE0000808080808080808080808080808080851
:103FF000080808080202020240000000793F0000A1
:10400000312E303000000000534443004E6F726484
:10401000696300003440000000000020340000000C
:104020009406000068400000340000207426000060
:10403000A4060000BC3E00000000000000010000DB
:104040000000000000000000000000000000000070
:104050000000000000000000000000000020004000
:08406000000000000090D003F5
:0400000500000201F4
:00000001FF
