:020000040000FA
:10000000A8260020150200001D0200001F020000AB
:100010002102000023020000250200000000000071
:1000200000000000000000000000000027020000A7
:1000300029020000000000002B0200002D02000039
:100040002F0200002F0200006D05000039030000A0
:100050002F0200002F0200002F0200002F020000DC
:100060002F0200002F0200002F0200002F020000CC
:100070002F0200002F0200002F0200002F020000BC
:100080002F0200002F0200002F0200002F020000AC
:100090002F0200002F0200002F0200002F0200009C
:1000A0002F0200002F0200002F0200002F0200008C
:1000B0002F0200002F0200000000000000000000DE
:1000C0002F0200002F0200002F0200002F0200006C
:1000D0002F0200002F0200002F0200002F0200005C
:1000E0002F0200002F0200002F0200002F0200004C
:1000F000000000002F0200000000000000000000CF
:1001000000000000000000000000000000000000EF
:1001100000000000000000000000000000000000DF
:1001200000000000000000000000000000000000CF
:1001300000000000000000000000000000000000BF
:1001400000000000000000000000000000000000AF
:10015000000000000000000000000000000000009F
:10016000000000000000000000000000000000008F
:10017000000000000000000000000000000000007F
:10018000000000000000000000000000000000006F
:10019000000000000000000000000000000000005F
:1001A000000000000000000000000000000000004F
:1001B000000000000000000000000000000000003F
:1001C000000000000000000000000000000000002F
:1001D000000000000000000000000000000000001F
:1001E000000000000000000000000000000000000F
:1001F00000000000000000000000000000000000FF
:10020000DFF80CD000F066F80048004795230000A6
:10021000A82600200648804706480047FEE7FEE77C
:10022000FEE7FEE7FEE7FEE7FEE7FEE7FEE7FEE7A6
:10023000850300000102000000487047F03F000005
:1002400040EA01039B0703D009E008C9121F08C058
:10025000042AFAD203E011F8013B00F8013B521ED8
:10026000F9D27047421C10F8011B0029FBD1801AFB
:1002700070472DE9F05F0546002092469B46884670
:100280000646814640241BE0284641464746224612
:1002900000F041F853465A46C01A914110D3114616
:1002A0001846224600F028F82D1A67EB01084F4641
:1002B00022460120002100F01FF817EB00094E41F3
:1002C000201EA4F10104DFDC484631462A4643469D
:1002D000BDE8F09F064C074D06E0E06840F00103E2
:1002E00094E8070098471034AC42F6D3FFF78CFF30
:1002F0000840000028400000202A04DB203A00FAD1
:1003000002F1002070479140C2F1200320FA03F36C
:10031000194390407047202A04DB203A21FA02F06A
:100320000021704721FA02F3D040C2F1200291402F
:100330000843194670470000F8B511480F4D0446B0
:100340004FF48C7102F031FD002815D00026C4F85E
:100350001861D4F818010090A87F2C46FF2801D01E
:1003600002F058FB66772672D4E9002101B004F14F
:100370000800BDE8F0401047F8BD0000EC04002084
:100380000030004030B54FF080500022D0F83011DE
:100390000123082902D1D0F8344114B1082909D029
:1003A0000BE04FF08041C1F80C21C1F810216149E8
:1003B0000A6005E0D0F8344114B1082957D059E05B
:1003C0005D4909685D4C21605B49091D0968241D70
:1003D0002160594908310968241D216056490C31B2
:1003E0000968241D2160544910310968241D2160C9
:1003F000514914310968241D21604F491831096899
:100400004E4C203421604C491C310968241D216068
:10041000494920310968241D216047492431096870
:10042000241D2160444928310968241D2160424966
:100430002C310968241D21603F49303109683F4C47
:10044000403421603C4934310968241D21603A4917
:1004500038310968241D216037493C310968241D61
:100460002160354940310968241D216005E0D0F83C
:10047000344114B1082904D006E0324C30492160DF
:1004800005E0D0F8344114B1082904D006E02E4C20
:10049000FB21216005E0D0F8344114B1082908D0CF
:1004A0000EE090F858422948016864F303010160A6
:1004B00002E0D0F8340118B925494FF40070086003
:1004C0002448016841F470010160BFF34F8FBFF30E
:1004D0006F8F4FF01021D1F80002002803DBD1F814
:1004E0000402002822DA1C4C23601C480368002BFD
:1004F000FCD01223C1F800320568002DFCD0C1F8F1
:10050000043201680029FCD0226001680029FCD077
:10051000BFF34F8F0F487C380168114A01F4E06146
:1005200011430160BFF34F8F00BFFDE70E490D4837
:10053000086030BD380500400404001020C50040AC
:10054000488103008C56004018F50040E40E00403E
:100550004096024088ED00E004E5014000E40140DF
:100560000400FA050090D003300000200448017F09
:1005700004480029024901D003F009BC03F078BB0C
:1005800010050020002000400FB41CB50A46521E82
:10059000CDE9000207A9054B6A46069800F018F855
:1005A000009A002111701CBC5DF814FB330A000096
:1005B00002E008C8121F08C1002AFAD1704770472C
:1005C000002001E001C1121F002AFBD1704700008A
:1005D0002DE9FF4F8DB00F460546002606E0252881
:1005E0000BD0DDE90F1290476D1C761C287800288F
:1005F000F5D111B03046BDE8F08F0024A246A146E7
:100600000122EC4900E0044315F8013F203B02FAC7
:1006100003F00842F7D128782A2810D06FF02F0273
:100620002878A0F13001092914D80AEB8A0102EBDD
:10063000410144F0020400EB010A6D1CF0E701CF18
:100640005FEA000A03D544F40054CAF1000A44F0FA
:1006500002046D1C28782E2817D115F8010F44F0DC
:1006600004042A280ED06FF02F022878A0F1300160
:1006700009290AD809EB890102EB410100EB0109C4
:100680006D1CF2E757F8049B6D1C28786C280FD07E
:1006900006DC4C2817D068280DD06A2814D104E055
:1006A000742810D07A280FD10DE044F400140AE029
:1006B00044F4801401E044F440146978814202D18A
:1006C00004F580146D1C6D1C2A786E2A1FD00CDC7A
:1006D000632A31D004DC002A8BD0582A11D1A3E040
:1006E000642A68D0692A0CD165E0732A2ED004DC14
:1006F0006F2A73D0702A04D19BE0752A6FD0782AB4
:100700006ED01046DDE90F129047761C50E1C4F31D
:100710000250022806D0032809D0042801CF09D0AE
:10072000066045E101CFF117C0E9006140E101CF6A
:1007300006803DE106703BE117F8040B8DF80000E0
:1007400000208DF80100EB46012003E057F804BBC0
:100750004FF0FF3061074FF0000102D40DE008F1C7
:100760000101884649450FDA8045F8DB1BF808107F
:100770000029F4D108E008F1010188468142FADB42
:100780001BF808100029F6D1DDE90F23AAEB0800B9
:100790008146214600F036F9304400EB080604E0BB
:1007A000DDE90F121BF8010B9047B8F10108F7D2F1
:1007B00021464846F7E00A21C4F302534FF0000BEC
:1007C0000891022B04D001CFC117032B09D00AE0F6
:1007D000FF1D27F00707F7E8020108E032E01FE0FD
:1007E00020E000B2C117042B01D140B2C117031E93
:1007F00071F1000307DA4FF0000CD0EB0C006CEB4A
:1008000001012D2302E0230504D52B238DF824308C
:10081000012303E0E30701D02023F7E7984658E0DF
:100820000A2110E010210EE010204FF0000B08907C
:100830000CE010214FF0000B44F004044FF00809C5
:10084000089103E008214FF0000B0891C4F3025314
:10085000022B04D001CF0021032B06D006E0FF1DA0
:1008600027F00707F7E8020103E080B2042B00D16C
:10087000C0B24FF0000823072BD5702A07D0DDF84F
:1008800020C08CF0100C5CEA0B0C05D00EE040236D
:100890008DF82430012308E050EA010306D030230C
:1008A0008DF824308DF8252002239846DDF820C0ED
:1008B0008CF0080C5CEA0B0C0BD150EA010301D15F
:1008C000630706D530238DF824304FF00108A9F1D5
:1008D0000109582A04D038A20B9208AA0A920BE008
:1008E0003AA2F9E75B46089AFFF7C3FC0B9B9B5CB7
:1008F0000A9A521E0A92137050EA0102F2D10A9823
:10090000ADEB000000F1200B600702D524F4803429
:1009100001E04FF00109D94502DDA9EB0B0000E031
:10092000002000EB0B0141440890AAEB010AE00310
:1009300006D4DDE90F232146504600F063F8064453
:100940004FF0000908E009A911F80900DDE90F12CC
:10095000904709F10109761CC145F4DBE0030CD591
:10096000DDE90F232146504600F04CF8064404E030
:10097000DDE90F1230209047761C0899481E089038
:100980000029F5DC08E00A980A990078491C0A91C8
:10099000DDE90F129047761CBBF10001ABF1010BB2
:1009A000F1DC21465046DDE90F2300F019F806443A
:1009B0006D1C1BE6092801003031323334353637DF
:1009C000383961626364656600000000303132339B
:1009D000343536373839414243444546000000003B
:1009E0002DE9F041044600251E461746880404D42C
:1009F00005E039462020B0476D1C641EF9D5284615
:100A0000BDE8F0812DE9F041044600251E469046E0
:100A1000C80301D5302700E02027880404D505E06D
:100A200041463846B0476D1C641EF9D52846BDE8DE
:100A3000F0814A68002A06D00A68531C0B601070C7
:100A40004868401E486070470AA1012002F082F900
:100A50000CA1032002F07EF9BFF34F8F104801680C
:100A6000104A01F4E06111430160BFF34F8F00BFF2
:100A7000FDE700003A4552524F523A466174616CAC
:100A80000D0A00003A494E464F3A4869742077658E
:100A9000616B2068616E646C65720D0A0000000075
:100AA0000CED00E00400FA050EB500210091CDE93F
:100AB00001106A4644F20100FFF7C6FF0EBD0000B8
:100AC000144B10B593F822402CB193F82240032C1C
:100AD00003D0112010BD082010BD82B1042483F87A
:100AE00022409C7A240700D44902C3E903019A8278
:100AF0000020DA829883012A03D9522002E00720DD
:100B000010BD5120012202F081FA08B1FFF7CCFF9D
:100B1000002010BD3005002070B5194B144693F825
:100B200022202AB193F82220032A03D0112070BD7D
:100B3000082070BDECB1052283F822209A7A1507AF
:100B400000D44902C3E903019C820020DC8298831F
:100B5000012C10D002F0070001284FF001020DD047
:100B60002146D72002F052FA08B1FFF79DFF00207E
:100B700070BD072070BD01225820F3E75920F1E72E
:100B800030050020054890F82210032904D090F881
:100B9000220008B101207047002070473005002076
:100BA000044890F82210032901D3001D704700204B
:100BB0007047000030050020F0B52F4C054687B087
:100BC00094F822000F4610B1082007B0F0BDEFB333
:100BD000E878FF284DD06978FF294AD02978FF2985
:100BE00047D0A978FF2944D0002684F85800012274
:100BF000009633461146019601F08BFE94F858009A
:100C000001F01CFF1D4B0DF1080C0FCB8CE80F0001
:100C1000A8788DF8080028788DF8090068788DF894
:100C20000A0016480023164A02A9083801F03AFCC7
:100C300008B1FFF739FF44F8227B012004F81909B5
:100C4000607820F00F006070A67600E011E0FF20D1
:100C5000E0770A20084B0090084838330122A3F1BE
:100C60001001083801F0A8FC08B1FFF71DFF0020B3
:100C7000ABE70720A9E7000030050020DC3E0000BC
:100C8000553800007CB50F4D95F8220028B195F835
:100C90002200032803D011207CBD08207CBD0A4817
:100CA00001F098FC002495F8580000942346224651
:100CB00021462235019401F02CFE6C702C7000202E
:100CC0007CBD000030050020D43E000070B5054614
:100CD00008680C46411C04D001F0A6FE206801F013
:100CE0004DFE6068411C02D0002101F034FE2879DD
:100CF0001F4901EB40102968007F0028A069C1F856
:100D0000240523D0607D227D29681043C1F86C053D
:100D1000D4E900122868C0F80C15C0F8142522E0A8
:100D2000A068411C02D0002101F015FEE068411CC2
:100D300004D001F079FEE06801F020FED4E902124F
:100D40002868C0F80825C0F8101570BD607D217DA9
:100D50002A680843C2F86C05D4E900122868C0F874
:100D60001425C0F80C15207D0128D9D070BD0000D5
:100D700010050020087A0A782AB1012A03D0022A35
:100D800001D0032A09D100EB4002044849784068A9
:100D900000EB820001720021817270470C0000207C
:100DA000806970472DE9FE430E46016984698046DB
:100DB000B1F5007F02D00620BDE8FE83134D6968BF
:100DC00009B11120F8E7A660A261686010491430EB
:100DD000FFF7F2FE070008D1A6B900BFFFF7D2FE69
:100DE0000028FBD1287878B10D27002068604EB12B
:100DF000084A07CA8DE80700A0690290A268694600
:100E0000404690473846D7E70027FBE71C00002004
:100E1000C53000001C3F000019B1012906D0062092
:100E200070470AB1002010700020704712B1001DF9
:100E30001060F9E707207047FEB51C4F064684692D
:100E400078680D46B04202D1FFF79CFE08B1112030
:100E5000FEBD95E8070004F10C0383E80700A888AD
:100E6000296882B2A868FFF72BFE050009D1A068A7
:100E7000C0B900BFFFF786FE0028FBD1387898B1D3
:100E80000D25A06870B16DB10948016B806B0290AF
:100E900004F10C00CDE90010A0690290A268694637
:100EA000304690472846FEBD0025EAE71C0000209A
:100EB000043F0000FEB5124F044685697868A042E1
:100EC00002D1FFF75FFE08B11120FEBDFFF7DAFE89
:100ED000060000D17860A86878B10A4907C98DE892
:100EE00007000EB1012000E000208DF80100A86984
:100EF0000290AA686946204690473046FEBD000031
:100F00001C000020283F0000FEB51C4F06468469E7
:100F100078680D46B04202D1FFF734FE08B11120C7
:100F2000FEBD95E8070004F10C0383E80700A888DC
:100F3000296882B2A868FFF7EFFD050009D1A06813
:100F4000C0B900BFFFF71EFE0028FBD1387898B16A
:100F50000D25A06870B16DB10948C16B406C02905D
:100F600004F10C00CDE90010A0690290A268694666
:100F7000304690472846FEBD0025EAE71C000020C9
:100F8000043F00000249085C012101F061BD00003E
:100F9000CC3E00007CB50024084E25460122305D81
:100FA000009500231146019501F068FC641C042C97
:100FB000F4D3BDE87C4000F003B80000CC3E000054
:100FC00010B500242046FFF7DDFF641C042CF9D384
:100FD00010BD002901DA0020704702681144016049
:100FE0000120704710B504460020E070401EE0620A
:100FF000204601F000FA08B1042010BD04F22E20B2
:1010000001F0C2F9A0F52A41553901D0032010BDE5
:1010100094F83000E92805D0EB2814D194F8320078
:10102000902810D104F1660001F0A3F90749B1EB53
:10103000002F06D004F1820001F09BF90449884298
:1010400001D1002010BD022010BD00000046415417
:10105000464154334269891E921E8A4201D80020BB
:101060007047826A408901FB002070472DE9F041FA
:1010700005680F00804606D001F07EF8022809D2EC
:101080000120BDE8F081EE6816B16869B04207D86A
:10109000012605E0411CF4D069698142F1D83E4641
:1010A00034466869641CA04202D80224022E0AD386
:1010B0002146404601F060F838B10128E1D0411CDA
:1010C000DFD0B442EDD10020DBE74FF0FF363246EF
:1010D0002146284601F0C6FE30B957B122463946AE
:1010E000284601F0BFFE20B101280FD00124204680
:1010F000C7E7EC60D5E90401891E884201D2401E91
:101100002861287940F001002871F0E73446EEE7C5
:101110002DE9F0410E4620300D6804460B222021B7
:1011200001F062F90020014608232A5C401C202AB5
:1011300012D92F2A0BD05C2A09D02E2A01D099422D
:1011400014D30B2B37D02E2A35D10CE0401C2B5C4E
:101150002F2BFBD05C2BF9D02844306059B320787A
:10116000E52834D035E008210B23DEE7A2F1810722
:101170001E2F02D95F3F1C2F13D82F5C401CA7F1F4
:10118000400CBCF13F0F04D3A7F1800CBCF17D0FE4
:1011900011D2A3F1010C61450DD26254491C675470
:1011A00013E010A700E07F1C97F800C0BCF1000F0F
:1011B00004D09445F7D10620BDE8F081A2F1610783
:1011C000192F01D8203AD2B26254491CADE705204C
:1011D0002070202A01D8042000E00020E0720020C6
:1011E000EAE70000222A2B2C3A3B3C3D3E3F5B5D68
:1011F0007C7F000020BF70472DE9F04104460021AC
:10120000056800F008F9002826D12846A16901F0F8
:10121000F2F802001FD1E069017899B1C17A01F0BA
:101220003F01A171C17A09070FD404F120010B26F7
:1012300010F8013B11F8017BDB1B761E04D0002B5C
:10124000F6D002E0042206E02BB10021204600F097
:1012500005F80200D9D01046BDE8F0812DE9F0472D
:1012600005460769046880698946203710B1B7F5DB
:10127000001F02D30420BDE8F087F90560D1401CAF
:10128000A86169694FF0000829B16089401E10EA21
:10129000572F05D054E02089B0EB571F1DD94FE0E0
:1012A000284600F069FF064601281BD9701C33D080
:1012B0006069B0423ED8B9F1000F0ED02846696986
:1012C000FFF7D4FE06000BD0012E0BD0701C23D0EC
:1012D000204602F063FCF8B906E0C5F81880C9E7BB
:1012E0000720C8E70220C6E74FF40072002104F18E
:1012F000300001F079F84FF0000831462046FFF742
:10130000A9FE4FF00109E0620DE000BF84F80390F0
:10131000204602F043FC08B10120ACE7E06A08F186
:101320000108401CE06261894145EFD8E16AA1EB08
:101330000800E062314620466E61FFF78BFEA8612F
:10134000C7F30800204430302F61E861002092E7A5
:1013500070B504460E460420256821E0284601F0B9
:101360004AF810BBE2691178B1B1D27AE52902F0EE
:101370003F02A2710AD02E2908D00F2A06D022F0EF
:10138000200108290AD00021B14210D000212046B6
:10139000FFF764FF20B108E0042006E00121F3E735
:1013A000A1690029DAD1002801D00021A16170BD16
:1013B00070B504460021066800F02DF80DE03046B7
:1013C000A16901F018F850B9E0690078E52809D062
:1013D00040B101212046FFF741FF0028EFD004284B
:1013E00007D007E03046A16901F005F8050003D0F9
:1013F0000FE0072005460CE020220021E06900F004
:10140000F3FF0B2204F12001E06900F0E3FF01206B
:10141000F070284670BD2DE9F04107680E4605467C
:10142000B1F5001F36D2F00634D12E61AC6824B974
:101430003878032805D37C6A1CB178894FEA4028A4
:1014400012E03889B0EB561F24D9786A12E028469A
:1014500000F092FE0446401C1AD0022C1AD3786980
:10146000A04217D9A6EB080646452146EFD23846DA
:10147000FFF7F0FDC5E9054060B100EB5620A8611B
:10148000C6F3080038443030E8610020BDE8F08140
:101490000120FBE70220F9E770B51C4C2178884257
:1014A0000DD2616800EB400551F825303BB101EBEE
:1014B00085014A7AD20704D04A6822B105E00320A8
:1014C00070BD487A70BD124A4A6001228A72024693
:1014D0001868104906681846B04710B110E0406817
:1014E0008047606800EB8500817A0029F7D1616848
:1014F00001EB8501097A19B9417A21F001014172A4
:10150000606800EB8500407A70BD00000C00002090
:10151000F5110000750D000038B51D4D2B7898426F
:1015200001D3042038BD00EB400439B1184801292B
:10153000406815D002291DD0012038BD01208DF84A
:10154000000068686A46002150F8240000F06CFF33
:1015500008B1112817D19DF800000028F1D112E040
:1015600050F8240088B1016814464969884700682A
:10157000206008E050F8240038B101681446496939
:10158000884780882080002038BD032038BD0000B7
:101590000C000020FEB51D4C2578A8420DD263B189
:1015A00000EB4005606850F8256026B100EB850629
:1015B000777AFF0703D00320FEBD0420FEBD009212
:1015C000CDE901310121B17250F825606F463068D4
:1015D00041693046884700680099884214D93068CC
:1015E000394682683046904710B10DE04068804728
:1015F000606800EB8500817A0029F7D1606800EB14
:101600008500007A0028D9D00120FEBD0C00002002
:1016100006490A78904201D301207047496800EBDF
:10162000400001EB8000407A704700000C00002071
:10163000FEB5204C2578A8420DD263B100EB4005E1
:10164000606850F8256026B100EB8506777AFF07C1
:1016500003D00320FEBD0420FEBD777A7F0701D5AD
:101660000220FEBD0092CDE901310121B17250F896
:1016700025606F46306841693046884700680099A8
:10168000884214D930683946C2683046904710B154
:101690000DE040688047606800EB8500817A002992
:1016A000F7D1606800EB8500007A0028D9D00120CE
:1016B000FEBD00000C000020014A50601170704710
:1016C0000C00002038B5044600F05EF9002807D170
:1016D0006946204602F0D3FB002801D10021216099
:1016E00038BD000017B581B01446029800906846D6
:1016F00000F0D2FD002802DA0B2004B010BD0B4A26
:10170000002352F8201001B10B700199002900D07C
:101710000B7042F8201001D0012C01D00020ECE722
:10172000002201A902A800F0C7FBE6E7180000208C
:101730002DE9F7438CB005000BD002F03F0632468E
:1017400069460DA800F0B8FB04004FF0000804D073
:10175000BFE009200FB0BDE8F0830098019001A818
:101760000D9900F0CFFC040004D19DF82F00000675
:1017700000D5062416F01C0F4CD04CB1042C03D11C
:1017800001A8FFF715FE044646F008065CB1A0E08C
:101790009DF80A0010F0110F01D0072499E070079E
:1017A00001D5082495E0300743D54D4F08983946B8
:1017B0000E3002F0A2F908983946163002F09DF971
:1017C00008992020C8720899009800F0BFFD0746CC
:1017D00000220899009802F07CF9089800211C303A
:1017E00002F08BF900990120C87007B3D1F82C9052
:1017F0000022394601A801F0AAFB040069D149463C
:10180000009800F0F8FD04000098A7F10107C760F8
:101810000BD05EE0C4BB9DF80A00C10601D50424CC
:1018200057E0B10701D5C007B7D1300701D546F061
:1018300040060098C16A296208996962089900F017
:1018400085FDA86008981C3000F093FDE8600098C2
:1018500028604FF40072C088A8802E7485F811802B
:10186000C5F81C8005F1280000218146C5F81480C8
:1018700000F0BAFDB0062ED5EE6866B36E61009832
:10188000A968408947020FE023E0284600F074FC75
:101890000146012800D80224481C02D0F61B1CB1C6
:1018A00004E00124F61B01E0BE42EED8A96184B930
:1018B000F00510D00098FFF7CDFB70B100EB562279
:1018C000EA610098012349464078FFF763FE10B1B2
:1018D0000124C5F8008020463CE70224F9E7000017
:1018E0000000214813B582B0040006D000226946EA
:1018F00003A800F0E1FA18B120E0092004B010BDFF
:10190000009921602046039900F0FCFB90B994F8FF
:101910002B00000607D4A079C00612D5E169009813
:1019200000F014FDA0600098C188A180204600212D
:10193000FFF771FD042804D00028DFD000212160CA
:10194000DCE70520FAE738B50C460546694602F0A3
:1019500096FA002813D1014628468CB1FFF7F8FC0F
:10196000042801D000280AD12146284600F063FC53
:1019700000212846FFF772FC042800D1002038BD62
:10198000FFF749FD38BD0000F8B50446694602F08E
:1019900076FA00280ED1217C4A060BD508060ED512
:1019A0000098E2690123407804F12801FFF740FE26
:1019B00008B10120F8BD207C00F07F002074154E96
:1019C000216A009800F017FD0028F3D1656A2946C6
:1019D000E87A40F02000E872A268206802F079F806
:1019E00005F11C00E16802F088F8314605F11600A7
:1019F00002F083F8002105F1120002F086F8009849
:101A00000121C17002F086F8217C01F0BF01217430
:101A1000F8BD0000000021482DE9FE4F8846002156
:101A2000196099461546044602A902F028FA0028D2
:101A300006D1607C002803D1207C800702D40720D7
:101A4000BDE8FE8F6069012742194FF0020A04F1D8
:101A5000280B824200D2C54394E06069C1056ED173
:101A600002994989491E11EA502612D108B1A1698B
:101A700002E0A06828B900212046FFF7F7FA002805
:101A80007DD001282DD0411C54D0A061A16801B99E
:101A9000A060207C00060BD50298E2690123407803
:101AA0005946FFF7C5FDA0BB207C00F07F002074E5
:101AB000A1690298FFF7CEFA98B130440190680A04
:101AC000009027D0029932184889824201D9801BA0
:101AD0000090DDE9003248784146FFF7A9FDC0B922
:101AE00003E084F811A00220AAE7E1690198081A2E
:101AF000009988420AD208EB40214FF40072584600
:101B000000F068FC207C00F07F0020740098460202
:101B100027E00FE0E169019881420ED0E168606939
:101B200088420AD20298012359464078019AFFF769
:101B300031FD10B16774012082E70198E061A08A4D
:101B4000C0F30800C0F50076AE4200D92E4620440E
:101B500032464146283000F03DFC207C40F08000B9
:101B600020746069B04430446061E168884200D804
:101B70000846E060D9F80000AD1B304400E004E006
:101B8000C9F80000002D7FF468AF207C40F04000D1
:101B90002074002054E7000038B501214348FFF7C6
:101BA0008BFD43A1032001F0D5F803240020FFF7AB
:101BB00073FC641E02D00028F8D102E008B146A1EF
:101BC00059E04F4D4F486969884740684FF480118C
:101BD000B1FBF0F469694B48884700684AA1B0FB43
:101BE000F4F2032001F0BAF84EA1032001F0B2F89C
:101BF000012254A15448FFF775FD08B153A13AE002
:101C000059A1032001F0A6F860A16148FFF76AFE20
:101C100008B160A12FE05E4C2C3404F109055C4949
:101C20005B482C31FFF78FFE08B164A123E0607A96
:101C300088B1207AC00605D52A4668A1132001F094
:101C40008DF805E02B4669A11320226801F08DF87C
:101C5000607A0028E3D129A1132001F07BF866A166
:101C6000032001F077F84A4833226EA14430FFF791
:101C70005FFD20B16EA1032001F06CF838BD44482F
:101C80006B46122278A14430FFF7C6FE20B17BA13B
:101C9000032001F05FF804E07FA10320009A01F027
:101CA0005DF83B484430FFF70DFD38BD00000020D3
:101CB0004150503A494E464F3A496E697469616CD9
:101CC000697A696E67206469736B203020285344F9
:101CD00043292E2E2E0D0A004150503A494E464FB0
:101CE0003A4469736B20696E697469616C697A61E1
:101CF00074696F6E206661696C65642E0D0A000060
:101D0000EC3E0000B03E00004150503A494E464F74
:101D10003A43617061636974793A202564204D42C9
:101D20000D0A00004150503A494E464F3A4D6F75EA
:101D30006E74696E6720766F6C756D652E2E2E0D34
:101D40000A00000000000000340000204150503A1A
:101D5000494E464F3A4D6F756E74206661696C65E9
:101D6000642E0D0A000000004150503A494E464F83
:101D70003A0D0A204C697374696E67206469726554
:101D800063746F72793A202F0D0A00002F00000053
:101D9000640200204150503A494E464F3A4469721D
:101DA0006563746F7279206C697374696E672066FD
:101DB00061696C6564210D0A000000004150503AD1
:101DC000494E464F3A4469726563746F7279207266
:101DD000656164206661696C65642E002020203C8A
:101DE0004449523E20202025730D0A0025396C7588
:101DF000202025730D0A00004150503A494E464FAD
:101E00003A57726974696E6720746F2066696C65F1
:101E1000204E4F524449432E5458542E2E2E0D0A14
:101E2000000000004E4F524449432E5458540000C5
:101E30004150503A494E464F3A556E61626C6520AA
:101E4000746F206F70656E206F72206372656174AD
:101E5000652066696C653A204E4F524449432E54C2
:101E600058542E0D0A000000534420636172642010
:101E70006578616D706C652E0D0A00004150503A16
:101E8000494E464F3A5772697465206661696C65C0
:101E9000640D0A2E000000004150503A494E464F52
:101EA0003A25642062797465732077726974746569
:101EB0006E2E0D0A000000002DE9FF41002790461C
:101EC0000E460F6000F0E8F9050003D50B2004B0C2
:101ED000BDE8F081884850F825409CB134602078F6
:101EE00008F0FE0620B16078FFF792FBC1070BD027
:101EF0002770E8B2B8466070FFF7CEFAC10708D085
:101F00000320E4E70C20E2E70EB1400704D40020F0
:101F1000DDE71EB1400701D50A20D8E7002631468B
:101F20002046FFF75FF8022822D100254FEA0D076F
:101F300004EB051090F8F21100F5F77019B10830B4
:101F400000F017FA00E0002047F825006D1C042D72
:101F5000EED3002557F8256036B131462046FFF70D
:101F600041F8022801D203E003206D1C042DF1D3B7
:101F7000042809D002286DD204F13B0000F004FAD5
:101F8000B0F5007F66D101E00120A0E704F1460032
:101F900000F0FAF918B904F1540000F0EAF9A06170
:101FA00094F84050A570012D01D0022D52D1454327
:101FB00094F83D006081E8B3411E08424AD104F123
:101FC000410000F0E1F92081000743D104F1430012
:101FD00000F0DAF9070004D104F1500000F0C9F96B
:101FE000074604F13E0000F0CFF9010032D023890A
:101FF000481900EB131297422CD3B81A6789B0FB2B
:10200000F7F0B8B103274FF6F57C604500D80227FA
:1020100040F6F57C604500D80127801C3244A2625E
:1020200031446061C4E90761032F15D013B129441D
:10203000616200E00EE0022F1FD000F0010100EB12
:10204000400001EB500000BFA16900F2FF10B1EBAE
:10205000502F14D20D203AE704F15A0000F094F901
:102060000028F7D120890028F4D104F15C0000F0A9
:1020700080F9606260698000E6E74000E4E74FF0C5
:10208000FF302061E06080202071032F2CD104F10B
:10209000600000F079F9012826D1711C204600F07B
:1020A000AAF908BB84F8048004F22E2000F06CF931
:1020B000A0F52A41553917D104F1300000F059F943
:1020C0000E49884210D104F5057000F052F90C4910
:1020D000884209D104F5067000F04BF9206104F53F
:1020E000077000F046F9E06003492770091F08886F
:1020F000401C0880E0800AE718000020525261412D
:102100007272416173B504460568019801E0401C94
:10211000019001782F29FAD05C29F8D00021A16024
:1021200001980078202806D2802084F82B002046D1
:10213000FFF771F97CBD01A92046FEF7E9FF0028F1
:10214000F8D12046FFF758F894F82B1028B104284E
:10215000F0D14907EED405207CBD4907FCD4A07915
:10216000C006F8D5208AC0F308004119284630314E
:1021700000F0ECF8A060DEE72DE9F04104680D46C0
:1021800002290BD36069A84208D920784FF0FF36A6
:10219000012807D002282BD0032839D00126304649
:1021A000BDE8F081206A05EB550700EB572120467A
:1021B00000F021F90028F2D1C7F3080020447F1C69
:1021C00090F83080206A00EB5721204600F013F988
:1021D0000028E4D1C7F30800204490F8301048EA02
:1021E0000120E90701D00609D9E7C0F30B06D6E7BD
:1021F000206A00EB1521204600F0FDF80028CED122
:10220000E8B204EB4000303000F0BEF80646C6E706
:10221000206A00EBD511204600F0EDF80028BED171
:1022200040F2FF1000EA85002044303000F0A1F8B1
:1022300020F07046B3E72DE9F041002305464B72CC
:1022400080690C46002825D000210A462E26E86920
:10225000805C521C20280AD0052800D1E520092ADC
:1022600002D16718491C7E726718491C78720B2AC4
:10227000EDD360184372E869C07A2072E8691C30B7
:1022800000F077F82060E869163000F072F8E0801E
:10229000000CA080BDE8F08110B504464FF0FF307F
:1022A0002268002A13D0114600E0491C0B78212B2C
:1022B0000ED33A2BF9D112F8013B303B0A2B06D250
:1022C0008A4204D1002B02D1491C1846216010BD5E
:1022D000002010BD70B50E460446007918494FF431
:1022E000A27501EB4010017F2068A1B14FF4887105
:1022F00000F076FD4FF49071206800F071FD4FF40E
:102300009271206800F06CFD2946206800F068FD9D
:102310000C49206809E04FF48E7100F050FD294609
:10232000206800F04CFD08492068C0F804132068BC
:1023300000F0A4F83146BDE8704000F083B800001A
:1023400010050020100302008000020070B5064650
:102350000D4601F11A0000F017F804463078032802
:1023600005D105F1140000F00FF844EA00442046BE
:1023700070BDC178827842EA01214278007842EA51
:10238000012140EA012070474178007840EA0120AD
:1023900070470000FEF7FEFD002000F0F5FC08B1DC
:1023A000FEF782FB03A1032000F0D4FCFFF7F4FB4F
:1023B00020BFFDE74150503A494E464F3A0D0A467C
:1023C00041544653206578616D706C652E0D0A0D81
:1023D0000A000000002A05D011F8013B00F8013B7B
:1023E000521EF9D1704700005FFA81F100F8011B1D
:1023F000521EFBD1704770B50446C06A0D460026D8
:10240000A8420FD0204601F0C9FB06000AD160782F
:1024100001232A4604F13001FFF7BCF808B1751E0C
:102420000126E562304670BD03681B69184700F05D
:102430001F02012191404009800000F1E020C0F816
:10244000801170474907090E002806DA00F00F02D4
:1024500002F1E02282F8141D03E000F1E02282F88C
:10246000001400F01F02012191404009800000F19A
:10247000E020C0F88012C0F800117047000B40B295
:1024800070470121B1EB507F01D10120704700203E
:1024900070470121B1EB507F01D10120704700202E
:1024A000704700002DE9FC47074640790C46DFF8ED
:1024B00004A100EBC0010AEB8106307F10B10820B7
:1024C000BDE8FC87C6E90023207B0128207802D8DC
:1024D00000F05EFA01E000F09DFA4FF00009CDF83F
:1024E0000090CDF8049020784B464A46012100F038
:1024F000DEF960784FF0FF35FF2806D0804600F007
:1025000047FA404600F030FA00E0A846A078FF28DD
:1025100009D0002205464B46CDF800901146CDF873
:10252000049000F0C4F9E078FF2804D000F072FABB
:10253000E07800F019FA7879E17800EBC0020AEB54
:102540008200817738682278C0F80825C0F80C85A9
:10255000C0F81055A168C0F82415227B617B01B139
:102560000121012A04D0022A05D0032A08D105E05E
:1025700041F0020104E041F0040101E041F00601F4
:10258000C0F854156179C0F8C015316811B1402107
:10259000C0F804130721C0F80015306820B1217974
:1025A00097F90400FFF74EFF484686F81D90012179
:1025B000317785E7EC0400201FB5069C00918DF86B
:1025C000042002938DF80C400022694600F034F894
:1025D00004B010BD2DE9F0414179164A01EBC1016B
:1025E00002EB81050122296859B190F9041001F02C
:1025F0001F0302FA03F34909890001F1E021C1F840
:10260000803104682868002670B1701EC4F8080381
:10261000687F48B162614FF482773946204600F006
:10262000C4FB0028F9D06E77C4F800652E77BDE8AA
:10263000F0810000EC0400202DE9F04105460F4632
:102640004079154900EBC00001EB80041646607F1D
:1026500010B11120BDE8F081206820B116F0140FF0
:1026600001D10120607797E80F0004F10C0888E899
:102670000F0094F8210020F0070084F82100A07FCB
:10268000FF2801D000F084F933463A4621462868F5
:10269000BDE8F04101F0C4B9EC0400202DE9F0419F
:1026A00005460079164F904607EB40140E46E07E33
:1026B00010B10820BDE8F081707F20772846FEF732
:1026C00005FB5FEA080060603169216003D0317F5B
:1026D0002846FFF7FFFD287907EB4010007F002810
:1026E000286801D0082100E00421C0F8001500206E
:1026F000E0752076A0750121E176A076DAE700008A
:10270000100500202DE9F047054600793F4E904620
:1027100006EB40140F46207F18B10846FFF7B9FEBC
:1027200030B1284600F074F820B11120BDE8F087E0
:102730001020FBE784F81680A7600027A78228797D
:102740004FF0010806EB40143E46207F0028286821
:1027500025D04FF49079494600F042FB4FF4AC7A13
:102760005146286800F03CFB2868A17DA268C0F8AB
:102770004425C0F848152868C0F808806068F0B99A
:102780004946286800F027FB80465146286800F03B
:1027900022FB58EA0001F3D058BBA7750FE04FF4B5
:1027A0008E7A514600F00BFB2868C0F8088021465D
:1027B000286801F037FA61684FF4807089B13046BB
:1027C000B4E75146286800F0F5FA10B9A08A4845E8
:1027D000F7D1A08A484505D02146286801F022FAA1
:1027E00000E08146A08AA17D8842EAD3A08A4845BC
:1027F00001D10F26D1E75146286800F0DBFA002806
:10280000F9D02868C0F80C80C7E700001005002048
:102810000079044901EB4010807D002800D00120A0
:10282000704700001005002070B50446007911497A
:10283000002601EB401520682A7FC0F80065686813
:1028400088B1207901EB4010007F0028206801D07A
:10285000094901E008498C39C0F808132068FFF7DE
:102860000DFEFFF7E4FD204600F0C0FAEE766E6044
:1028700070BD000010050020100302002DE9FF418B
:102880001C46DDE90A7815460E46684600F08AF8CF
:1028900046EA450141EA840141EA072242EA084149
:1028A000009A00EB8200C0F80017BDE8FF812DE917
:1028B000FF411C46DDE90A7815460E46684600F0E1
:1028C0007FF846EA450141EA840141EA072242EAEB
:1028D0000841009A00EB8200C0F80017BDE8FF81B4
:1028E0002DE9FF411C46DDE90A7815460E4668468B
:1028F00000F074F846EA450141EA840141EA072202
:1029000042EA0841009A00EB8200C0F80017BDE8D7
:10291000FF812DE9FF411C46DDE90A7815460E4688
:10292000684600F069F846EA450141EA840141EA57
:10293000072242EA0841009A00EB8200C0F8001723
:10294000BDE8FF811CB5002100910B4601220191D9
:10295000FFF7C6FF1CBD1CB500220B4600921146B6
:102960000192FFF7BDFF1CBD1CB5002100910B4675
:10297000012201911146FFF79AFF1CBD1CB50021F1
:1029800000910B46012201911146FFF7A9FF1CBDE2
:1029900001B5684600F014F8009A01219140C0F892
:1029A0000C1508BD0168202902D24FF0A0407047E5
:1029B00001F01F0101600148704700000003005052
:1029C0000168202902D24FF0A040704701F01F019A
:1029D0000160014870470000000300500168202991
:1029E00002D24FF0A040704701F01F010160014882
:1029F00070470000000300500168202902D24FF008
:102A0000A040704701F01F010160014870470000BD
:102A10000003005001B56846FFF7D2FF009A01217C
:102A20009140C0F8081508BD01B56846FFF7D6FF0C
:102A3000009A01219140C0F8081508BD01B568460B
:102A4000FFF7DAFF009A01219140C0F8081508BD90
:102A500038B501240090684631B1FFF7A3FF009913
:102A60008C40C0F8084538BDFFF79CFF00998C40AA
:102A7000C0F80C4538BD000000487047F12A00003E
:102A800030B5184C054689B0207828B16078854269
:102A900002D1002009B030BD202213496846FDF75D
:102AA000CFFB00208DF81400062000900820019034
:102AB00005200390072002904FF0EB700690094824
:102AC000001DFFF7B1FE0DB1002200E0074A0548E6
:102AD0006946001DFFF7E2FD0028DBD101202070D0
:102AE0006570D6E7240000204C3F0000613C0000E8
:102AF0002DE9F04FC1B00D004FF0000140914D980D
:102B00004B991C46174601EB000B01D00A2000E050
:102B10000020804600F082FE00287CD16E46BCB9C1
:102B2000409840AA3118284601F062F8002872D077
:102B30003846FDF797FBC22800D9C22005464098C9
:102B40002A4630443946FDF77BFB409828444090A4
:102B50004FF0200A409901EB080231320DEB0105DC
:102B60000DEB0206002002E005F801AB401C4045D9
:102B7000FAD300275C4508D305F801AB05F801AB93
:102B800005F801AB06F801AB2DE04B98844202D268
:102B90004A98005D02E0211A4C98405C2B46814621
:102BA00002460121880022FA00F000F00F000928F7
:102BB00001D9373000E03030C1F1010C491E03F873
:102BC0000C00EFD29D1C05F801ABFDF735FB016849
:102BD00011F8090010F03E0F01D0484600E02E2009
:102BE00006F8010B641C7F1C102FC3D30D2030701E
:102BF0000A20707085F800A040996846414443312E
:102C0000409100F011FE30B100F008FE18B900202C
:102C100040905C459ED341B02046BDE8F08F2DE941
:102C2000F043C7B000251C46904689464E9F459507
:102C300000F0F4FD00287AD1459805AE311845AA78
:102C4000484600F0D5FF002835D0072F27D2DFE80F
:102C500007F004121B35424F5D004046FDF702FBB2
:102C6000054645982918FF2919D830442A46414677
:102C7000FDF7E6FA13E045982368C0F5807130440B
:102C80004246FDF781FC09E06068009045982368A2
:102C9000C0F5807130444246FDF776FC0546294672
:102CA00045A8FEF796F9459978B3B1F5807F3ED8EF
:102CB00005A800F0B9FD47B0BDE8F083D4E90101F3
:102CC000CDE9000145982368C0F580713044424643
:102CD000FDF75AFCE2E7201D07C88DE8070045987C
:102CE0002368C0F5807130444246FDF74DFCD5E7BE
:102CF000201D0FC88DE80F0045982368C0F580712E
:102D000030444246FDF740FCC8E710E004F10800FB
:102D100001AD0FC885E80F006068009045982368F2
:102D2000C0F5807130444246FDF72EFCB6E7002026
:102D3000C1E70000004870471F2C000038B50D4661
:102D40000093034B00215C6913462A46A04738BD17
:102D50008C06002000231A46FFF7F0BF08B50123B8
:102D600000926A46FFF7EAFF08BD1CB5CDE90023D3
:102D700002236A46FFF7E2FF1CBD0000014AC2E9D8
:102D8000050170478C06002070B50120FFF778FE22
:102D9000040008D1FFF7CEFF0546FFF76DFE0146A0
:102DA0002846FFF7EBFF204670BD4058002800D0B2
:102DB000012070474058002800D00120704708B516
:102DC000002242504058009008BDD0F8040308404B
:102DD00000D0012070474058002800D001207047E3
:102DE00008B5002242504058009008BD70B5034617
:102DF00000791B4901EB40101968027F4FF0FF304A
:102E0000002AD1F80C25D1F81465D1F80855D1F86D
:102E1000104504D0C1F80C05C1F8140503E0C1F851
:102E20001405C1F80C051968C1F80805C1F81005AA
:102E3000501C02D01046FFF785FD701C02D03046B2
:102E4000FFF780FD601C02D02046FFF77BFD681C69
:102E500004D02846BDE87040FFF774BD70BD000087
:102E6000100500202DE9F047022617460D460446BE
:102E7000022969D36069A84266D920784FF0010918
:102E8000012804D0022836D003285DD143E0216A0E
:102E900005EB550801EB58212046FFF7ACFA060078
:102EA00052D1C8F308002044303008F10108E90786
:102EB00004D00178FAB262F31F1100E039460170C4
:102EC00084F80390216A204601EB5821FFF793FA1A
:102ED000060039D1C8F3080020443030E90702D099
:102EE000C7F3071105E00178C7F3032201F0F001F1
:102EF0001143017026E0206A00EB15212046FFF700
:102F00007AFA060020D1E8B204EB4000B9B23030C2
:102F100000F0FBFD16E0206A00EBD5112046FFF71C
:102F20006AFA060010D140F2FF1000EA8500204442
:102F300030300546FFF71DFA67F31B0001462846AF
:102F400000F0DBFD84F803903046BDE8F0872DE902
:102F5000F041056813460E46074602292DD36869DD
:102F6000B0422AD93BB14FF0FF3219462846FFF74D
:102F700079FF00281FD131463846FFF7FDF80400DD
:102F800018D0012C19D0601C19D0002231462846D7
:102F9000FFF768FF00280ED1D5E90410821E914288
:102FA00005D2491C2961297941F001012971264680
:102FB000B042E0D80020BDE8F0810220FBE701200C
:102FC000F9E770B50546C87D0C4600284FF48471BA
:102FD00028460AD0FFF7F3FED5F81805627EE168AF
:102FE0008854607E401C607670BDFFF7E8FED5F81F
:102FF000180570BD1FB501238DF800308DF808103D
:103000000192D0E90012684690471FBD2DE9F041BA
:103010002B4B93F8234014B11120BDE8F08101251A
:10302000002783F82350040612D5022483F8234096
:10303000772483F82840002483F8294083F82A4025
:1030400083F82B40062783F82C40FF2483F82D407B
:10305000DC1900F07F0684F828600E0E84F82960E1
:103060000E0C84F82A600E0A84F82B6084F82C1069
:10307000402810D0482810D05FF0FF0184F82D10B0
:103080000521022A0BD0032A09D083F82450000618
:1030900008D5012008E09521F0E78721EEE783F8C5
:1030A0002410F4E793F82400054A0E30C3B23832F6
:1030B0000621A2F1100000F08DFB0020ADE700001A
:1030C00030050020FEB5214E054640783070776807
:1030D0002978BC6949B11E4801291CD002292FD08A
:1030E000BDE8FE400320FDF7DFBCFDF759FD006899
:1030F00020604FF40070606070688069806800280C
:103100001DD00020009001900290687800B101204D
:103110008DF801000DE0A168002910D007C88DE8E6
:103120000700687800B101208DF8010004F10C005F
:103130000190A0690290A268694638469047FEBD9A
:10314000A1680029FBD00C30E8E700001C0000203B
:10315000043F00002DE9F84FA44C1746D0F8012099
:10316000264612BA037922F0FF02B6F820C042EADE
:10317000030E8A46A38B06F1480596F80AB001783B
:103180004FF4067804220CF1010C00261FFA8CF98A
:10319000434578D020DC40F2F315A3F2F31CAB4298
:1031A0003BD00EDC4FF4F8776BB3BB4227D1012242
:1031B00000214020FFF72AFF08B1FDF775FCA58329
:1031C0006CE08A48BCF1060F807A20F0070034D00A
:1031D000BCF1130F13D14BE040F2412CA3F2412874
:1031E000634577D005DC18F114037AD0062B06D19D
:1031F00086E0B8F10A0F6FD0B8F10F0F6DD0A6833B
:103200000320BDE8F88F012200214020FFF7FEFED9
:1032100008B1FDF749FCA78340E0880801D03A7067
:10322000BCE003224FF4D5714820FFF7EFFE08B150
:10323000FDF73AFC40F2F91015E04B0703D4C01C2F
:10324000A0728808EBD12684A07A00F0070003283A
:103250000BD000210222E920FFF7D8FE08B1FDF7CC
:1032600023FC40F20620A08318E04FF08041F1E7F4
:103270004B0736D5401CA072A4F82090B9F5FA6F20
:1032800002D902207BE00BE0022200214120FFF75F
:10329000BDFE08B1FDF708FCA4F81C800120B0E7D2
:1032A0008808BCD1C807E7D132E000BFA4F820905D
:1032B000B9F5FA6FE5D80BF0070003280ED000210E
:1032C0000222E920FFF7A2FE08B1FDF7EDFB40F274
:1032D0002D20C8E72CE004E03AE044E04FF08041C4
:1032E000EEE788089BD1C807E0D1022200217A20AE
:1032F000FFF78CFE08B1FDF7D7FB40F23320B2E7B1
:1033000088088CD15FEA4E0002D54BF00800A0720D
:10331000A07A00F0070003280CD0012251025020AF
:10332000FFF774FE08B1FDF7BFFB40F241209AE7BA
:10333000880887D10120E560A0820246002149204B
:10334000FFF764FE08B1FDF7AFFB40F24B208AE7C0
:103350008908A6D1AAF1010101F0FF0AE6834FF422
:103360001471A183401C6B461022514600F080F876
:10337000022801D2002044E79DF8000008B138700F
:103380000CE0287880090CD0012823D0022808D02E
:10339000304660604FF4007020813E70A6830220AA
:1033A0002FE7287AE979800900EB8100A979AA7AC8
:1033B00001F0030100EB81206B7A6979D20903F0F7
:1033C000030301F00F0102EB43021144401CC91F2B
:1033D0008840DEE7287A0102E87901EB0040697A4B
:1033E0000844800200F58060D3E70000300500202B
:1033F000F8B51E4C16464FF41E73A28B002542B141
:103400009A4210D0A2F50072823A2AD0A5830320F6
:10341000F8BD0278920801D0042010E0491EE5832F
:10342000C9B2A383401C6B464FF4007200F020F831
:10343000022801D20020F8BD9DF8000008B13070CC
:1034400010E0A08A01280CD9012200214C20FFF7AE
:10345000DDFD08B1FDF728FB40F28220A0830120AA
:10346000F8BD3570A5830220F8BD000030050020AE
:103470002DE9F05F544C9A461646E38B254605F13C
:10348000380240F2B91B2835A3F2B91C4FF00009ED
:103490005B455ED004DC73B11CF1120306D154E02D
:1034A000BCF1070F79D0BCF1130F75D0A4F81E90B2
:1034B0000320BDE8F09FA38AE3826FE0A4F8209088
:1034C00084F82870A4F81890032384F82330238C00
:1034D00044F620675B1C9BB22384BB4204D90221C3
:1034E0000AE0491EC9B2401C59B10378FF2BF8D03D
:1034F000DBB2FE2B0FD005218AF80010A4F81E9035
:1035000060E010230121284600F064F940F2A71082
:10351000E0830120CDE7491E0423C9B2401C84F892
:103520002330B14201D9374600E00F46002306E0C0
:10353000D4F80C8010F803C008F803C05B1CBB4231
:10354000F6D32783E3683B44E36094F82330032BEE
:10355000BDD0208BB04213D2301A86B2F02E00D9E3
:10356000F026F3B201212846E26800F033F9E06862
:103570003044E060208B30442083A4F81EB0C8E7BC
:10358000E08A0223401EE0820121284600F022F951
:103590004FF4E070BCE700E00EE00021E38AFF2773
:1035A000002B8BD184F8287002230121284600F0DB
:1035B00011F94FF4E670ABE784F823908AF8009095
:1035C000A4F81E90022074E7300500202DE9F05F7A
:1035D0007F4C164623460746B4F81C8003F1380298
:1035E00003F1280093F823909D8A00234FF0040AEA
:1035F0004FF0020E4FF0030C44F6206BB8F5337F0A
:1036000074D00EDCB8F1000F1AD0A8F50078B8F12C
:10361000A3082ED0B8F1100F55D0B8F1210F0BD15F
:1036200051E0A8F50078B8F1EA086ED0B8F1160FAD
:103630006CD0B8F1260F6AD0A3830320BDE8F09FB9
:103640003978890803D000BF86F800A0ABE0A17AE2
:1036500001F0070101290FD0012D0DD901225920B8
:103660002169FFF7D3FC08B1FDF71EFA40F2A32051
:1036700016E039788908E7D1E5826FE0238384F882
:1036800023A084F82810012D01D9FC2100E0FE219F
:1036900084F829100223194600F09CF840F2B32068
:1036A000A0836EE0C3F5007085B2F02D00D9F0253F
:1036B000C818E9B2012300F08DF8208B284420833C
:1036C0004FF43170ECE74249238BC968B3F5007FB2
:1036D000E8D301F50071E16084F823C003230121E0
:1036E00000F078F84FF43370DAE7FFE794F83A1017
:1036F00001F01F01052906D00B2901D00D29A3D106
:10370000052030704FE0238422E011E03BE04DE0E3
:10371000218C491C89B22184594502D986F800E0E0
:1037200041E01023012100F055F840F2EA20B7E70C
:103730004FF0000C0AE000BF17F80C80B8F1000F42
:1037400002D084F8233006E00CF1010C8C45F3D351
:10375000B9F1030FDCD0E18A491EE182E78AFF213B
:10376000002F8BD1012D31D984F82810FD2184F848
:103770002910032302211C3400F02CF84FF4407070
:10378000208001205AE7238484F823C0218C491C1F
:1037900089B221845945C1D81023012100F01AF8BB
:1037A0004FF444707CE7A383022047E7002508E03C
:1037B00017F805C0BCF1000F02D084F8233005E0F3
:1037C0006D1C8D42F4D3B9F1030FDFD03370EAE7FB
:1037D00030050020F8B507460E481C46154690F8FF
:1037E000580000900E466846FFF706F90146009A19
:1037F00001209040C1F80C052B4632463946064858
:103800000094FEF7D9FE002803D0BDE8F840FDF78C
:103810004BB9F8BD30050020D43E00000148FEF74A
:10382000F7BF00002800002070B50D460A4601468B
:1038300001240648FCF704FDEAB204490448FEF7F7
:1038400061FF00B10024204670BD00008C050020FF
:10385000280000202DE9F04FDFF8BC810746057CE9
:10386000C468B8F8160087B018B998F85800FFF780
:10387000E5F898F8230000264FF0020B4FF00309FB
:103880004FF0010A022801D001284BD17968AD1F01
:10389000A41D0978EDB24C2903D15DB16D1EEDB2C6
:1038A000641C1DB12278FF2AF8D005E04C2901D014
:1038B000002402E00125641E5CBB98F82210012957
:1038C00027D08DF801A098F822105046012907D082
:1038D000022905D004290DD005290ED0032006E0C9
:1038E0008DF8006088F82290FDF7CCF938B1FDF72B
:1038F000DBF804E08DF8000001E08DF800B098F8E6
:103900005800FFF79BF888F822906846D8F8001016
:1039100065E0022804D188F823A02078400814D05C
:1039200088F8236006208DF80C0098F82200012802
:1039300017D0022819D0042838D0052851D00320E8
:10394000FDF7B2F807B0BDE8F08F98F82400324ACE
:103950000E30C3B238320621A2F10A00FFF73AFF57
:10396000F0E788F822B0A8F81C6003AA2946204690
:10397000FFF7F0FB0228E5D38DF808609DF80C00F6
:103980008DF8090088F8229098F85800FFF756F84B
:103990009DF80C0020B1FDF775F908B1FDF784F82A
:1039A0001E494FF08040C1F8240515E003AA2946BE
:1039B0002046FFF71DFD0228C4D38DF808A09DF80E
:1039C0000C008DF8090088F82290A8F81460A8F877
:1039D000166088F8236019E0D8F8001002A888471C
:1039E000B0E703AA29462046FFF7F0FD0228A9D335
:1039F0008DF808B09DF80C008DF8090088F8229029
:103A000088F82360A8F81460A8F8166098F85800A1
:103A1000FFF714F8E0E70000300500200030004018
:103A20002DE9F843044610681E4615460F464FF030
:103A3000000810B1FEF725FDF8B1A86810B1FEF737
:103A400020FDD0B128792968C4F84415C4F8480588
:103A5000287BA968C4F83415C4F838054FF48C7570
:103A60004046C4F81881D4F818110091F2074FF0BD
:103A7000010107D0C4F8501506E087F81D8010201A
:103A8000BDE8F883C4F85005B20702D5C4F8401564
:103A900001E0C4F84005300700D42161386848B11E
:103AA00046F38000401C4FF040000FD0C4F80403E0
:103AB0000020E5E729462046FFF777F90028F9D0EE
:103AC000B87FFF28F4D0FEF7A5FFF1E7C4F808039C
:103AD000EEE770B50C460646154691B204F11A00A1
:103AE00000F013F83078032806D1290C04F11400F3
:103AF000BDE8704000F009B870BD0170090A41705E
:103B0000090A8170090AC17070470170090A417081
:103B10007047000070B5044600F040F8050036D14B
:103B2000207803282CD12079012829D1420204F1E0
:103B3000300000210646FEF757FC4AF6552104F2F4
:103B40002E20FFF7E2FF13493046FFF7D6FF124958
:103B500004F50570FFF7D1FF04F506702169FFF742
:103B6000CCFF04F50770E168FFF7C7FFE2690123A6
:103B7000521CE26260783146FDF75AFD0020207148
:103B8000002260781146FDF7C7FC00B101252846E8
:103B900070BD000052526141727241612DE9F041E5
:103BA0000446C0780027F8B1E56A04F13001607876
:103BB00001232A468846FDF73BFD08B1012713E0A3
:103BC0000020E070206AA169281A88420CD2A678E9
:103BD00008E0A0690123054460782A464146FDF7C4
:103BE00027FD761E022EF4D23846BDE8F081000093
:103BF00010B5144602004FF001000CD008461368BF
:103C000006A24FF48071FCF7BFFC01462046BDE8D8
:103C10001040FDF7DEB90021216010BD5B25303872
:103C2000645D000070B50C4605464FF48E71FFF7D9
:103C3000C6F8A18AA068415CA08A401CA082C5F891
:103C40001C1570BD1FB500228DF800208DF80810DE
:103C5000816801918275D0E90012684690471FBDC6
:103C60000078012801D101498870704724000020A4
:103C70002DE9FF470C4605464FF40071FFF7A5F804
:103C800001274FF40178002618B34FF49279494682
:103C90002846FFF78FF8E0B149462846FFF78FF82E
:103CA000C5F80883A07E00B96F6002208DF800007F
:103CB000D5F88004C5F880040390E07D8DF80800F5
:103CC000E0680190E6752676D4E9001268469047D0
:103CD00027E004212846FFF778F810B34FF48471E9
:103CE0002846FFF767F8E0B121462846FFF769F953
:103CF000E07D617E884214D1207E38B1617EE26829
:103D0000E0752069E0602676667607E0A07E00B95F
:103D10006F60C5F80883E675617EE2682046FFF7AC
:103D200069F94FF48E7841462846FFF743F888B189
:103D3000A08AA17D884204D221462846FFF772FF5F
:103D400008E041462846FFF73AF8A17D11B1204628
:103D5000FFF778FF4FF4A27841462846FFF72AF88C
:103D6000002812D041462846FFF729F8A07E00B16E
:103D70002F60E07D002808D0E675617EE26804B01F
:103D80002046BDE8F047FFF735B9BDE8FF872DE9CC
:103D9000FF410C464FF4927705463946FFF71BF872
:103DA0000026C0B139462846FFF71AF802208DF8E0
:103DB0000000D5F88004C5F880040390D5F83C05D0
:103DC0008DF80800E0680190E6752676D4E90012C7
:103DD0006846904724E04FF4887739462846FEF736
:103DE000FAFFE8B139462846FEF7FAFFD5F83C0558
:103DF000C1B2E07D884213D1207E60B1E268D5F87F
:103E0000000220F02000C5F80002207EE075206945
:103E1000E060267601E0E675E2682046FFF7EAF802
:103E20004FF4A27739462846FEF7D5FF68B13946E8
:103E30002846FEF7D5FFE07D38B1E675D5F83C059C
:103E4000E268C1B22046FFF7D5F84FF490763146CC
:103E50002846FEF7C0FF00280FD031462846FEF75F
:103E6000BFFFA07D002808D0D5F84C0504B0C1B232
:103E70002046BDE8F041FFF7E5BEBDE8FF8170B523
:103E80000D4604000CD0206850B1017841B1C188C2
:103E9000A288914204D14078FDF7BAFBC00703D055
:103EA00000202860092070BD20682860002070BDB7
:103EB000EC3E000000400000FC3F0000F43F00002A
:103EC000000200002D2E2F2CD00400200D0E0F100C
:103ED0000B0C18190030004003000100000000FF27
:103EE00007FF00000000000400000000A50D000016
:103EF000B50E0000390E0000090F0000190E000079
:103F0000A10D000002000000000000000000000001
:103F1000030000000000000000000000000100009D
:103F20000000000000000000010000000000000090
:103F3000000000000201000000000000000000007E
:103F4000020100000000000000000000FFFFFFFF72
:103F5000FFFFFFFFFFFFFFFFFFFFFFFF000000006D
:103F6000000000000000D6010701000000404040B2
:103F7000404040404040414141414140404040403C
:103F800040404040404040404040404040050202E8
:103F900002020202020202020202020202202020A7
:103FA0002020202020202002020202020202909003
:103FB0009090909010101010101010101010101001
:103FC0001010101010101010020202020202888855
:103FD0008888888808080808080808080808080861
:103FE0000808080808080808020202024000000049
:103FF0006D3F0000312E303000000000534443007C
:104000004E6F7264696300002840000000000020C9
:1040100034000000B00500005C40000034000020C7
:1040200074260000C0050000B03E00000000000043
:10403000000100000000000000000000000000007F
:104040000000000000000000000000000000000070
:0C40500000200040000000000090D003A1
:0400000500000201F4
:00000001FF
