:02000002F0000C
:108000000040002059910F0081910F0083910F00D3
:1080100085910F0087910F0089910F0000000000EB
:108020000000000000000000000000008B910F0025
:108030008D910F00000000008F910F0091910F00B3
:1080400093910F0093910F0093910F0093910F0064
:1080500093910F0093910F004D840F0093910F00A7
:1080600093910F0093910F0093910F0093910F0044
:1080700093910F0093910F0093910F0093910F0034
:1080800093910F0065870F0093910F0093910F005C
:1080900001850F0093910F0093910F0093910F00B2
:1080A00093910F0093910F0093910F0093910F0004
:1080B00093910F0093910F0000000000000000005A
:1080C00093910F0093910F0093910F0093910F00E4
:1080D00093910F0093910F0093910F0093910F00D4
:1080E00093910F0093910F0093910F0093910F00C4
:1080F0000000000093910F0000000000000000004D
:10810000000000000000000000000000000000006F
:10811000000000000000000000000000000000005F
:10812000000000000000000000000000000000004F
:10813000000000000000000000000000000000003F
:10814000000000000000000000000000000000002F
:10815000000000000000000000000000000000001F
:10816000000000000000000000000000000000000F
:1081700000000000000000000000000000000000FF
:1081800000000000000000000000000000000000EF
:1081900000000000000000000000000000000000DF
:1081A00000000000000000000000000000000000CF
:1081B00000000000000000000000000000000000BF
:1081C00000000000000000000000000000000000AF
:1081D000000000000000000000000000000000009F
:1081E000000000000000000000000000000000008F
:1081F000000000000000000000000000000000007F
:1082000010B5054C237833B9044B13B10448AFF3D0
:1082100000800123237010BD7000002000000000CA
:10822000D0910F00084B10B51BB108480849AFF3B7
:1082300000800848036803B910BD074B002BFBD032
:10824000BDE81040184700BF00000000D0910F00AB
:10825000740000206C00002000000000154B002B73
:1082600008BF134B9D46A3F5803A00218B460F466D
:108270001348144A121A00F065F80F4B002B00D077
:1082800098470E4B002B00D0984700200021040097
:108290000D000D48002802D00C48AFF3008000F01C
:1082A0002BF82000290000F00FFB00F011F800BFB0
:1082B0000000080000400020000000000000000056
:1082C00070000020F0050020000000000000000009
:1082D00008B5074B044613B10021AFF30080054BEE
:1082E0001868836A03B19847204600F033F800BF4E
:1082F00000000000C8910F0070B50E4B0E4CE41A40
:10830000A41000251E46A54204D056F825309847F3
:108310000135F8E700F04AFF084C094BE41AA410B5
:1083200000251E46A54204D056F825309847013551
:10833000F8E770BD640000206400002068000020A1
:108340006400002002440346934202D003F8011B5C
:10835000FAE77047FEE700BF38B50C4B0C4C4FF402
:108360000032C3F8802001254FF48033C4F848332D
:10837000C4F80833656000F06DFCA560054C00256D
:10838000256000F067FC257138BD00BF00E100E00A
:10839000001001408C000020BFF34F8F0549064BB1
:1083A000CA6802F4E0621343CB60BFF34F8F00BF93
:1083B000FDE700BF00ED00E00400FA05082910B554
:1083C00001D0FFF7E9FF03684068BDE81040184797
:1083D0000F4B10B50124C3F80445D3F80044002C1A
:1083E000FBD0043900EB82029042094B08D051F8CF
:1083F000044F40F8044BD3F80044002CFBD0F3E7C3
:108400000022C3F80425D3F80024002AFBD010BDB5
:1084100000E001400C4B0222C3F80425D3F80024ED
:10842000002AFBD0084AC2F80805D3F80024002A25
:10843000FBD0054B0022C3F80425034BD3F80034CE
:10844000002BFAD0704700BF00E00140224A13B56C
:1084500000230121104652F8044B012C0CD11F4C73
:10846000D4F8044321421FBF002442F8044C0068A2
:1084700000901CBF00980B43194882424FEA41010B
:10848000E8D1184A116801290DD100211160126844
:108490000192019A4FF0A04243F00043D2F8102518
:1084A000114AD2F8102513F0FF0F13D0012000213C
:1084B00018421EBF8A0002F1804202F5C04201F15B
:1084C00001011CBFD2F81045D2F8102508294FEA47
:1084D0004000EDD102B010BD0061004000600040DE
:1084E000206100407C61004000030050034A136893
:1084F000013B136003B962B6704700BF90040020CF
:108500002DE9F84F924D6B79AA792C689A422CD0BC
:108510000133DBB2022B08BF00236B716B7905EBD3
:108520008303002699680B1923F07F432B602B6986
:108530003046BBB11A68914203D2521A2B611A60BD
:1085400011E0DF68D3F81CE0891A104400221A6099
:1085500037B1021922F07F42DE615A609F601E46E9
:108560007346E6E72B61012701E000263746D5F880
:1085700010804FF0000956B13446F6692EE0D5F868
:1085800010A05346D346002B61D1002323747149B8
:108590004B780A7893420B4665D08C78501CC0B259
:1085A0008442087008BF0E70182101FB02331A794B
:1085B0009C68022AE3D0032A47D0012AE7D1217C14
:1085C0000029E4D1DA6862601A69A2605A69E2603F
:1085D00010339B68A3612B7D03B1616060682A68DA
:1085E000831A23F07F415C4B9942A36801D80B4466
:1085F00006E0121A22F07F4293428CBF9B1A00239E
:1086000029692360012200236360A3602274E3616F
:108610004F4831B122680B689A4204D89A1A0A600E
:10862000E1610461A7E70B461868824205D9121A76
:10863000D869194628B10346F6E7801A186018462B
:108640000B462260E061DC6195E72B6904E0A34200
:1086500062D09B46DB6996E71BB100221A74DB6986
:10866000FAE72B6193E7B9F1000F04D12B69434579
:1086700001D1002F4CD02B69DFF8D490002B45D0CE
:10868000364ED9F80040D6F80485D3F800B099F8F2
:108690000430C4EB080727F07F4703379BB9304A03
:1086A0004FF480334FF400314FF0010AC6F84433E1
:1086B000C6F80433C2F880111160C6F800A000F0BB
:1086C000C9FA89F804A05F452CBFE31904EB0B033A
:1086D00023F07F44C6F84045D6F804351F4AC8EB5E
:1086E000030323F07F43C8EB0404033324F07F44E7
:1086F000A3420DD9D2F80435C2F8403500F0AAFAE9
:10870000174B4FF40032C3F8002101E0FFF724FEBD
:1087100000232B75BDE8F88FA3450BD1DAF81C3088
:108720000B4A2B6133B90D4801218160136011752B
:1087300000F090FAE2692168CBF81C2012B11368AE
:108740000B4413602B699A4518BF4FF001091CE7D1
:108750008C00002064030020FEFF7F000010014019
:1087600000E100E02DE9F743414A424C0025C2F800
:108770004051C2F84451C2F84851C2F84C51C2F8B5
:108780000051C2F804512369002B6ED0D2F80425A1
:108790002768D71B27F07F471A6897424ED3BF1A26
:1087A00015441A7CDE69002A45D000215A691974E3
:1087B0009B690193E38A0092072BDFF8B8E052D956
:1087C00072B62D4A9EF818001368013313609EF8A4
:1087D0001920D3B2BEF81A20934238BF0133C0B279
:1087E00034BFDBB20B4683420AD094F81980637E13
:1087F000DBB293423ABF0133DBB20023637601E080
:108800004FF6FF78FFF772FE4FF6FF7398452AD0B8
:10881000E3691A4A43F83820E08A236A694600FB74
:108820000830082200F0B6FCE3694FEAC809994411
:108830000823A9F804300EB13346ADE76179A37976
:108840000C4A8B4205D10133DBB2022B08BF002357
:108850009371A37904EB8304094BA5604FF4801254
:10886000C3F8002101E0FFF797FD03B0BDE8F083F6
:10887000001001408C00002090040020BD830F00F8
:1088800000E100E070B50F4C237E627E9A4217D063
:10889000237EE269E68A206ADBB219B202EBC105E7
:1088A00006FB030052F83120A9889047237E628B93
:1088B000DBB29A4286BF0133DBB200232376E2E7C4
:1088C00070BD00BF8C0000202DE9F04F002087B064
:1088D000AF4A835C1F2B88BF03F01F03114603F5CB
:1088E000E0738CBFAB4A4FF0A04201300324042850
:1088F00042F82340ECD10023CA5C01201F2A86BF26
:1089000002F01F02A34C4FF0A044034400FA02F20D
:10891000042BC4F80825EFD14FF0A0434FF40042D8
:10892000C3F80C259C4AC3F864279C4D9C4B9D4979
:1089300000221A7028464FF4AE7200F02BFC2C680F
:10894000611C05D0281D582100F0CAF9A0420DD0A5
:10895000924800214FF4AE72FFF7F4FC012300208F
:108960006B6000F04DFA08B1FFF716FDFFF7F4FC5D
:108970008D4A8E4E0B2191708D4900234FF480104B
:10898000E0241370537033617371B371C1F88001C7
:1089900081F81443086000F18040A0F56F20C0F812
:1089A000083581F81143D0F8043533609378002BF3
:1089B000DAD0804B1A7C002AD6D11A745A747E4AB7
:1089C0005A612B69754F012B0CD07B6953B1BC697F
:1089D00004F6FF7424F47F6424F00F0404F5F834E3
:1089E000243702E04FF4F8341837BB68012B02D06B
:1089F000AA2B68D08EE06A69684B012A40F08A8011
:108A0000D3F824B01B6B03F5F838C3EB0B09C8F39C
:108A10000B03002B40F0B1804046FFF7FBFC002C1D
:108A200000F0AB80B8F1000F00F0A78044EA080323
:108A30009A0740F0A280B9F5805F4F4628BF4FF4F7
:108A40008057002F00F09980404621463A46FFF7B4
:108A5000BFFC0323029302A8BB08CDF80C8004944A
:108A6000059300F059FA002840F08780C4F30B0208
:108A7000002A40F0828020460192FFF7CBFC2B6B4E
:108A8000019ADFF818A13B4410462B6300F0B8F9B7
:108A9000B9EB0709B8443C44B9D159464FF4F83012
:108AA00000F01EF9DAF82830984204BF0123CAF812
:108AB0001C00424804BFCAF82030CAF818B000F0C1
:108AC00091F9002014E06A6B3B689B1A04EB0208E2
:108AD0009C080323029302A8394B0393CDF810801E
:108AE000059400F019FA30B9384600F07BF93548A2
:108AF00000F086F90AE002A800211022FFF722FC0C
:108B000002A8CDF80C80049400F006FA041C18BFEB
:108B1000012400E000244FF0A043D3F810359B015E
:108B20000DD5AB6D012B06D11C4B0020986500F0D4
:108B300067F920B118E714B900F0EAF8F8B9224B48
:108B4000F361A83333620823F382142373831F4D28
:108B50001F4B0024ED1A7476ED0834761E46AC42A5
:108B600007D056F83430984700287FF4FDAE013422
:108B7000F5E730BFFFF786FEFBE70124CBE700F007
:108B8000CDF900F0CBF9204607B0BDE8F08F00BF6B
:108B9000CC910F00000300500C00030008020020DD
:108BA0000002002000F00F00640300208C00002071
:108BB00000E100E070040020318C0F002C02002046
:108BC00000800F00398D0F00B000002070000020E1
:108BD00070000020F0B54FF4F833186880F308886F
:108BE0005868FF2464B2EFF30585002D08D1EFF338
:108BF0001481022221EA020181F31488A64600476B
:108C00002546064621273FBAF0B400240025002659
:108C10000027F0B4F92040B2004700BFF0BD034B7D
:108C200001B919705B6803B1184770470002002052
:108C3000BFF34F8F0549064BCA6802F4E062134345
:108C4000CB60BFF34F8F00BFFDE700BF00ED00E03A
:108C50000400FA05204B21491A682F2300BF00BFEA
:108C600000BF00BF00BF00BF00BF00BF8A422FD0BF
:108C700000BF00BF00BF00BF00BF00BF00BF00BFFC
:108C800000BF00BF00BF00BF00BF00BF00BF00BFEC
:108C900000BF00BF00BF00BF00BF00BF00BF00BFDC
:108CA00000BF00BF00BF00BF00BF00BF00BF00BFCC
:108CB00000BF00BF00BF00BF00BF00BF00BF00BFBC
:108CC00000BF00BF00BF00BF00BF00BF00BF00BFAC
:108CD000013BC3D1704700BF600000200024F400B6
:108CE00030B501444FF0FF3388420DD010F8012B0E
:108CF00053400822054D13F0010418BF2C46013AD9
:108D000084EA5303F6D1EFE7D84330BD2083B8EDB2
:108D100010B5084B986A01280AD15C6A4CB1196AEF
:108D20004FF4F830FFF7DCFF031B5842584110BDE9
:108D3000002010BD0002002038B5FFF7E9FF002831
:108D400049D0254B93F86621002A42D0D3F88422DB
:108D5000002A3ED093F88122012A14BF00244FF448
:108D6000A02472B6D3F8902293F866010132C3F8BA
:108D7000902293F86521511CC9B2884208BF002196
:108D800093F8640188421AD0182000FB02320125B2
:108D900082F86851114803F51C75C2F86C51D0F87F
:108DA0000455C2F87051C2F878414FF4A025002450
:108DB000C2F87451C2F87C4183F8651100E00424C4
:108DC000FFF794FB2CB9064B4FF48012C3F8002137
:108DD00038BDFFF7E1FA38BD000200200010014065
:108DE00000E100E008B50C220021FFF7ABFA034BCD
:108DF00000229A63DA639A61DA6108BD00020020FA
:108E0000F0B5054685B03E4C23782746002B42D06E
:108E10003C4B3D491A683D4B00BF00BF00BF00BF3F
:108E200000BF00BF00BF00BF8A422FD000BF00BFFD
:108E300000BF00BF00BF00BF00BF00BF00BF00BF3A
:108E400000BF00BF00BF00BF00BF00BF00BF00BF2A
:108E500000BF00BF00BF00BF00BF00BF00BF00BF1A
:108E600000BF00BF00BF00BF00BF00BF00BF00BF0A
:108E700000BF00BF00BF00BF00BF00BF00BF00BFFA
:108E800000BF00BF00BF00BF00BF00BF013BC3D198
:108E9000FFF7F8FCB7E765601D4D01232370C5F3AC
:108EA0000B0333BB2846FFF7B5FA582104F10C0039
:108EB000FFF716FF04F10801A0604FF4AE7204F54D
:108EC000257000F067F915F0030612D1284604F565
:108ED00025715722FFF77CFA0E4B01936846572302
:108EE00031468DF800600295ADF80C30FFF797FE23
:108EF00002E000233B700326304605B0F0BD00BF02
:108F000000020020600000200024F400A086010080
:108F100000F00F001F8C0F0018DF70471FB50C4BBF
:108F20004FF0FF32C3F88020684610220021FFF77F
:108F300009FA06224FF4F83368468DE80C00FFF773
:108F4000EBFF08B9FFF746FE05B05DF804FB00BF74
:108F500000E100E0724B1A68082A1A4603D1043374
:108F60001B68002B71D01368082B03D16D4B1B6855
:108F7000002B73D06A4B1A68082A04D1694A126818
:108F8000002A00F0B3801B68082B04D1654B1B68D6
:108F9000002B00F0AF80624B1B68082B04D1614BA3
:108FA0001B68002B00F0AB805D4B1B68082B04D1C5
:108FB0005C4B1B68002B00F0AD805B4AD2F8883018
:108FC00043F47003C2F88830BFF34F8FBFF36F8F45
:108FD0004FF01023D3F80022002A03DBD3F8043229
:108FE000002B2EDA514B0122C3F80425D3F80024BC
:108FF000002AFBD04FF010221221C2F80012D3F841
:109000000024002AFBD04FF010231222C3F80422C0
:10901000464BD3F80024002AFAD00022C3F80425D6
:10902000D3F80024002AFBD0BFF34F8F3E49404BBA
:10903000CA6802F4E0621343CB60BFF34F8F00BFF6
:10904000FDE73C4B3C4A1A6070474FF08041C1F845
:109050000C31C1F81031C1F8383584E74FF0805237
:10906000364BD2F80414C3F82015D2F80814C3F80C
:109070002415D2F80C14C3F82815D2F81014C3F82C
:109080002C15D2F81414C3F83015D2F81814C3F8FC
:109090003415D2F81C14C3F84015D2F82014C3F8C4
:1090A0004415D2F82414C3F84815D2F82814C3F88C
:1090B0004C15D2F82C14C3F85015D2F83014C3F85C
:1090C0005415D2F83414C3F86015D2F83814C3F824
:1090D0006415D2F83C14C3F86815D2F84014C3F8EC
:1090E0006C15D2F84424C3F8702543E7144A154997
:1090F000116048E7144BFB22C3F818254BE71349CE
:10910000134A0B68126823F00F0302F00F02134397
:109110000B6049E70F4B4FF400721A604DE700BF38
:10912000300100103401001000ED00E000E00140CB
:109130000400FA05600000200090D00300C0004049
:109140008C5600404881030000F00040E40E0040CF
:1091500058020010409602400649074A074B9B1AE6
:1091600003DD043BC858D050FBDCFFF7F3FEFFF7EC
:1091700075F80000DC910F00000000207000002056
:10918000FEE7FEE7FEE7FEE7FEE7FEE7FEE7FEE7B7
:10919000FEE7FEE710B5431E0A44914204D011F8E1
:1091A000014B03F8014FF8E710BD0000F8B500BF10
:1091B000F8BC08BC9E467047F8B500BFF8BC08BCB8
:1091C0009E46704743000000000000200D0E0F1067
:0491D000000000009B
:0891D40088F0FF7F010000009C
:1091DC000000000000000000000000000000000083
:1091EC000000000000000000000000000000000073
:1091FC00C4910F00000000000000000000000000FF
:10920C000000000000000000000000000000000052
:10921C000000000000000000000000000000000042
:10922C000000000000000000000000000000000032
:10923C000090D00325820F0001820F000000000077
:020000020000FC
:020000041000EA
:0410140000800F0049
:0410180000E00F00E5
:04000003F00091591F
:00000001FF
