:020000040000FA
:1000000000040020E508000079050000C508000094
:10001000830500008D05000097050000000000002A
:1000200000000000000000000000000009090000BE
:10003000A105000000000000AB050000B5050000B0
:10004000BF050000C9050000D3050000DD05000064
:10005000E7050000F1050000FB05000005060000B3
:100060000F06000019060000230600002D06000000
:1000700037060000410600004B0600005506000050
:100080005F06000069060000730600007D060000A0
:1000900087060000910600009B060000A5060000F0
:1000A000AF060000B9060000C3060000CD06000040
:1000B000D7060000E1060000EB060000F506000090
:1000C000FF06000009070000130700001D070000DD
:1000D00027070000310700003B070000450700002C
:1000E0004F07000059070000630700006D0700007C
:1000F00077070000810700008B07000095070000CC
:100100009F0700001FB500F003F88DE80F001FBD2A
:1001100000F0DEBB1FB56FF00100009040100390AF
:10012000029001904FF010208069000B420900F00E
:100130001F045DF822300120A04083434DF8223097
:10014000684600F044F91FBDF0B54FF6FF734FF459
:10015000B4751A466E1E11E0A94201D3344600E080
:100160000C46091B30F8027B641E3B441A44F9D14B
:100170009CB204EB134394B204EB12420029EBD17E
:1001800098B200EB134002EB124140EA0140F0BD8F
:10019000DD4992B00446D1E90001CDE91001FF220A
:1001A0004021684600F03AFB94E80F008DE80F000C
:1001B000684610A902E004C841F8042D8842FAD12B
:1001C00010216846FFF7C0FF1090AA208DF8440068
:1001D000FFF7A0FF00F0F2F84FF01024A069102202
:1001E0006946803000F001F9A069082210A900F0EA
:1001F000FCF800F0D7F84FF080510A6949690068AF
:100200004A43824201D8102070470020704710B541
:10021000D0E900214FF0805002EB8103026944696C
:100220006243934209D84FF01022536903EB8103D4
:100230000169406941438B4201D9092010BD5069D1
:10024000401C01D0002010BD0F2010BD70B501680A
:100250000446AE4D4FF01020062951D2DFE801F0E0
:10026000320318283B1DD4E90265646829463046EC
:1002700000F0CDF82A462146304600F0B6F8AA0034
:100280002146304600F09EFA002800D0032070BDC1
:1002900000F050FB4FF4805007E0201DFFF7ABFF4C
:1002A0000028F4D100F046FB60682860002070BD93
:1002B000241D94E80700920000F084FA0028F6D08C
:1002C0000E2070BD8069401C12D0201DFFF79FFFDB
:1002D0000028F6D109E08069401C09D0201DFFF7F5
:1002E0008AFF0028EDD1606820B12046FFF750FF5B
:1002F000042070BDFFF70EFF00F060F800F052F828
:10030000072070BD10B50C46182802D001200860E7
:1003100010BD2068FFF79AFF206010BD4FF0102439
:10032000A069401C05D0A569A66980353079AA2846
:1003300008D06069401C2DD060690068401C29D03D
:1003400060692CE010212846FFF7FEFE31688142EB
:100350001CD1A16901F18002C03105E030B108CAA9
:1003600051F8040D984201D1012000E000208A429A
:10037000F4D158B1286810B1042803D0FEE728460C
:1003800000F057F861496868086008E000F016F866
:1003900000F008F84FF480500168491C01D000F0CB
:1003A000A3FAFEE7BFF34F8F59480168594A01F499
:1003B000E06111430160BFF34F8FFEE74FF0102063
:1003C0008169491C02D0806900F0ADB87047524A7B
:1003D00001681160121D416811604F4A8168103236
:1003E0001160111DC068086070472DE9F041174683
:1003F0000D460646002406E03046296800F0A6F8BF
:10040000641C2D1D361DBC42F6D3BDE8F08170B5CD
:100410000C4605464FF4806608E0284600F083F855
:10042000B44205D3A4F5806405F58055002CF4D1C1
:1004300070BD4168044609B1012500E000254FF078
:1004400010267069A268920000F0BCF9C8B120467D
:1004500000F01AF89DB17669A56864684FF4002031
:1004600084420AD2854208D229463046FFF7CFFFA0
:100470002A4621463046FFF7B8FFFFF79FFFFFF7F8
:1004800091FFFFF747FEF8E72DE9FF414FF01024F9
:10049000616980680D0B01EB800000F6FF70010BB5
:1004A00000200090019002900246039068460123CC
:1004B0000BE0560902F01F0C50F8267003FA0CFCF2
:1004C00047EA0C0740F82670521CAA42F1D30AE012
:1004D0004A0901F01F0650F8225003FA06F6354388
:1004E00040F82250491C8029F2D3A169090B4A091E
:1004F00001F01F0150F822408B409C4340F82240FD
:10050000FFF765FFBDE8FF815809000000000020EB
:100510000CED00E00400FA050006004014480168F4
:100520000029FCD07047134A0221116010490B6862
:10053000002BFCD00F4B1B1D186008680028FCD056
:100540000020106008680028FCD07047094B10B5E7
:1005500001221A60064A1468002CFCD00160106861
:100560000028FCD00020186010680028FCD010BDC6
:1005700000E4014004E5014008208F49096809585A
:10058000084710208C4909680958084714208A49EF
:100590000968095808471820874909680958084711
:1005A0003020854909680958084738208249096878
:1005B000095808473C2080490968095808474020E5
:1005C0007D4909680958084744207B49096809584A
:1005D0000847482078490968095808474C20764957
:1005E000096809580847502073490968095808479D
:1005F0005420714909680958084758206E4909680C
:10060000095808475C206C49096809580847602068
:100610006949096809580847642067490968095801
:100620000847682064490968095808476C206249EE
:1006300009680958084770205F4909680958084740
:1006400074205D4909680958084778205A490968A3
:10065000095808477C2058490968095808478020EC
:1006600055490968095808478420534909680958B9
:100670000847882050490968095808478C204E4986
:1006800009680958084790204B49096809580847E4
:10069000942049490968095808479820464909683B
:1006A000095808479C204449096809580847A02070
:1006B0004149096809580847A4203F490968095871
:1006C0000847A8203C49096809580847AC203A491E
:1006D000096809580847B020374909680958084788
:1006E000B4203549096809580847B82032490968D3
:1006F00009580847BC203049096809580847C020F4
:100700002D49096809580847C4202B490968095828
:100710000847C8202849096809580847CC202649B5
:10072000096809580847D02023490968095808472B
:10073000D4202149096809580847D8201E4909686A
:1007400009580847DC201C49096809580847E02077
:100750001949096809580847E420174909680958E0
:100760000847E8201449096809580847EC2012494D
:10077000096809580847F0200F49096809580847CF
:10078000F4200D49096809580847F8200A49096802
:1007900009580847FC2008490968095808475FF4C8
:1007A0008070054909680958084700000348044952
:1007B000024A034B70470000000000206809000057
:1007C0006809000040EA010310B59B070FD1042A15
:1007D0000DD310C808C9121F9C42F8D020BA19BA0C
:1007E000884201D9012010BD4FF0FF3010BD1AB171
:1007F000D30703D0521C07E0002010BD10F8013BC6
:1008000011F8014B1B1B07D110F8013B11F8014BEC
:100810001B1B01D1921EF1D1184610BD02F0FF033F
:1008200043EA032242EA024200F005B870477047EB
:1008300070474FF000020429C0F0128010F0030C42
:1008400000F01B80CCF1040CBCF1020F18BF00F8C3
:10085000012BA8BF20F8022BA1EB0C0100F00DB872
:100860005FEAC17C24BF00F8012B00F8012B48BFD0
:1008700000F8012B70474FF0000200B51346944674
:100880009646203922BFA0E80C50A0E80C50B1F1E8
:100890002001BFF4F7AF090728BFA0E80C5048BFFC
:1008A0000CC05DF804EB890028BF40F8042B08BF9A
:1008B000704748BF20F8022B11F0804F18BF00F896
:1008C000012B7047014B1B68DB68184700000020B4
:1008D00009480A497047FFF7FBFFFFF713FC00BD0B
:1008E00020BFFDE7064B1847064A1060016881F3F8
:1008F0000888406800470000680900006809000097
:100900001D030000000000201EF0040F0CBFEFF3D9
:100910000881EFF30981886902380078182803D12B
:1009200000E00000074A1047074A12682C3212689C
:100930001047000000B5054B1B68054A9B589847B7
:1009400000BD000005030000000000205409000065
:1009500004000000001000000000000000FFFFFF86
:040960000090D00330
:10100000F816002011280200F5A200006127020056
:10101000F5A20000F5A20000F5A20000000000000B
:101020000000000000000000000000006D28020029
:10103000F5A2000000000000F5A20000F5A20000EB
:10104000D5280200DB280200F5A20000F5A200006E
:10105000F5A20000F5A20000F5A20000F5A2000034
:10106000E1280200F5A20000F5A20000E728020036
:10107000F5A20000ED280200F3280200F928020082
:10108000F5A20000F5A20000F5A20000F5A2000004
:10109000F5A20000F5A20000F5A20000F5A20000F4
:1010A000FF28020005290200F5A20000F5A20000B9
:1010B000F5A20000F5A20000F5A20000F5A20000D4
:1010C0000B290200F5A20000F5A20000F5A2000025
:1010D000F5A20000F5A20000F5A20000F5A20000B4
:1010E000F5A20000F5A20000F5A20000F5A20000A4
:1010F000F5A20000F5A20000F5A20000F5A2000094
:10110000F5A20000F5A2000000F002F821F05DFB5E
:101110000AA090E8000C82448344AAF10107DA4552
:1011200001D121F052FBAFF2090EBAE80F0013F023
:10113000010F18BFFB1A43F001031847181D0200E6
:10114000381D02000A444FF0000C10F8013B13F068
:10115000070408BF10F8014B1D1108BF10F8015B10
:10116000641E05D010F8016B641E01F8016BF9D103
:1011700013F0080F1EBF10F8014BAD1C0C1B09D15A
:101180006D1E58BF01F801CBFAD505E014F8016BCC
:1011900001F8016B6D1EF9D59142D6D3704700005E
:1011A0000023002400250026103A28BF78C1FBD870
:1011B000520728BF30C148BF0B6070471FB500F011
:1011C000B5F88DE80F001FBD8269034981614FF0BA
:1011D0000100104470470000DD11000001B41EB48E
:1011E00000B502F02BFF01B40198864601BC01B0A6
:1011F0001EBD00001EF0040F0CBFEFF30880EFF3DC
:101200000980014A10470000AF450000F0B4404695
:10121000494652465B460FB402A0013001B506486C
:10122000004700BF01BC86460FBC804689469246F7
:101230009B46F0BC7047000009110000401E00BF33
:1012400000BF00BF00BF00BF00BF00BF00BF00BFA6
:1012500000BF00BF00BF00BF00BF00BF00BF00BF96
:1012600000BF00BF00BF00BF00BF00BF00BF00BF86
:1012700000BF00BF00BF00BF00BF00BF00BF00BF76
:1012800000BF00BF00BF00BF00BF00BF00BF00BF66
:1012900000BF00BF00BF00BF00BF00BF00BF00BF56
:1012A00000BF00BF00BF00BF00BF00BF00BFC5D16F
:1012B00070470000401E00BF00BF00BF00BF00BF5E
:1012C00000BF00BF00BF00BF00BF00BF00BF00BF26
:1012D00000BF00BF00BF00BF00BF00BF00BF00BF16
:1012E00000BF00BF00BF00BF00BF00BF00BF00BF06
:1012F00000BF00BF00BF00BF00BF00BF00BF00BFF6
:1013000000BF00BF00BF00BF00BF00BF00BF00BFE5
:1013100000BF00BF00BF00BF00BF00BF00BF00BFD5
:1013200000BF00BF00BFC5D17047000021F04ABA1E
:10133000404800210170417010218170704770B5E4
:10134000054616460C46022000F0FFF839490120F8
:1013500008703949F01E086038480560001F0460B5
:1013600070BD10B5022000F0F0F83249012008707D
:1013700033480021C0F80011C0F80411C0F808116A
:1013800030494FF40000086010BD2A480178C9B107
:101390002D4A4FF4000111602949D1F80031002293
:1013A000002B1CBFD1F80431002B02D0D1F808115A
:1013B00011B14270102103E00121417023490968F5
:1013C00081700270002000F0C0B81A48017800292E
:1013D00004BF407870471A48D0F80011002904BFB4
:1013E00002207047D0F8001100291CBFD0F804116A
:1013F000002905D0D0F80801002804BF012070475B
:10140000002070470B480178002904BF807870479E
:101410000B48D0F8001100291CBFD0F80411002996
:1014200002D0D0F8080108B11020704707480068C2
:10143000C0B270470800002010F5004008F50040D9
:1014400000F0004004F5014008F5014000F40040C0
:101450003148002101704170704770B5064614464E
:101460000D46012000F071F82B49012008702B482F
:101470000660001D0460001D056070BD2DE9F0418F
:101480000446012000F061F8234901200870244936
:101490000C60244D0026C5F8046123494FF04077C5
:1014A0000F60A1F1040844B1012C18BFFFDFC5F89B
:1014B0000062C8F80070BDE8F081C5F800024FF086
:1014C0008070C8F80000BDE8F0811348017879B158
:1014D000154A4FF0407111601249D1F804210021E2
:1014E000002A08BF417002D0104A12684270017091
:1014F000002000F02AB808480178002904BF40788D
:1015000070470848D0F80401002808BF7047074812
:101510000068C0B2704700000B00002008F50040D2
:1015200004F5004000F0004008F5014000F40040E0
:101530004FF0E0224FF400410020C2F88011204912
:101540000870204990020860704730B51C4D044671
:101550002878A04218BF002C02D0002818BFFFDF57
:101560002878A04208BF30BD2C701749154A0020CA
:10157000ECB1164DDFF858C0131F012C0DD0022C12
:101580001CBFFFDF30BD086003200860CCF80050AE
:101590004FF400001060186030BD08600220086041
:1015A000CCF800504FF040701060186030BD0860FB
:1015B00008604FF06070106030BD00B5FFDF00BD07
:1015C0000D00002008F5014000F5004060020020F9
:1015D00014F5004010B500F00DF802F02CFBFFF7F9
:1015E000A7FF01F0FDF9FFF7A3FEBDE81040FFF7EC
:1015F0002FBF000070B5FE4C0025012665702570D8
:1016000025626572A572E67284F82950256304F19B
:101610003C00A56301F086FD002818BFFFDF84F8B9
:101620002450F44821F08AF9F3480660657770BDCC
:1016300030B4EF490268DFF8C8C34A6142688A6182
:10164000007A08770A7DED4BACF1040401204AB121
:101650000A7E00FA02F21A608D7D002D0CBF226016
:10166000CCF800204A7D002A04BF30BC70474A7E77
:1016700090401860C97D00290CBF2060CCF80000A4
:1016800030BC7047DF4900B50A1D40B101281CBFBE
:10169000FFDF00BDDC480860DC48106000BDDC48AE
:1016A0000860DC48F9E7F0B502264FF0E027012496
:1016B0000025C7F88061D8490D600C60D7490A68D9
:1016C00022F0770242F0880242F000420A60CD49DF
:1016D0000A1DD0B1012818BFFFDF1AD0D04940F24F
:1016E0005B600860091F40F203100860081F046077
:1016F000CC4903200860CC4996200860BC4C94F982
:10170000240010F0030F09D033E0C1480860C1483D
:1017100002E0BD480860BD481060DFE780100A3075
:101720000C2826D2DFE800F021252525251D1915D6
:10173000110D0A06BD49042008601BE0BB48056086
:1017400018E0BA49FC20086014E0B849F8200860A5
:1017500010E0B649F42008600CE0B449F0200860BD
:1017600008E0B249EC20086004E0B049D8200860E5
:1017700000E0FFDF607F002814BF4FF4C020AC48BA
:10178000AC490860AD49AC480860091FAC48086026
:10179000C7F88062AB491020C1F80403F0BD944A39
:1017A0000368C2F802308088D08011727047904878
:1017B00090F8290070478E4A517010707047F0B54C
:1017C0000D46044604EB4501908808841078D2F851
:1017D0000110012740EA012044F8250005F1080026
:1017E00007FA00F6002B04BF206BB04304D0012B96
:1017F00018BFFFDF206B304307FA05F10843206371
:10180000F0BD30B50D460446082988BFFFDF002231
:10181000002D11D954F82210900000F1804000F5FD
:101820008050C0F8001604EB4201098CC0F8201665
:10183000501CC2B29542EDD8206B8349086030BD80
:1018400010B5044610F0030F2BD1A0100A300C285D
:1018500027D2DFE800F022262626261E1A16120EB0
:101860000A067249042008601CE0704900200860E4
:1018700018E06E49FC20086014E06C49F82008600C
:1018800010E06A49F42008600CE06849F020086024
:1018900008E06649EC20086004E06449D82008604C
:1018A00000E0FFDF524880F8244010BD504890F817
:1018B00034007047654AC1781160006864490002CD
:1018C00008607047252808BF02210ED0262808BFCF
:1018D0001A210AD0272808BF502106D00A2894BF11
:1018E0000422062202EB4001C9B25A4A11605A4949
:1018F000086070473E49086270473D498A7A012A6C
:1019000049D0022A18BF70474B7D002B08BF704793
:10191000DFF848C1012A42D0CA7D4B7E002A18BF99
:1019200001227D30CCF80000DFF834C10020CCF873
:101930004C01180282F0010240EA025040F003120A
:10194000087F830003F1804303F5C043C3F81025EB
:10195000444A02EB8002887EC30003F1804303F512
:10196000F833C3F81425DFF800C1C3F810C5C97EE9
:10197000CB0003F1804303F5F833C3F81425304A54
:10198000C3F81025012202FA00F002FA01F108431F
:101990003649086070470B7D002BB9D170478A7DAE
:1019A0000B7E002A18BF01227E30BBE72DE9F84FDD
:1019B00000280CBF012002200D4C224D0322A072F2
:1019C000C5F80022627F002A14BF4FF4C022184AD3
:1019D000264F3A604FF00108002976D0012973D0D4
:1019E00002291CBFFFDFBDE8F88F206A00283FE016
:1019F0008C020020A0020020A00500401805005025
:101A00000C05005014150040050103001F000302DF
:101A10000601020025000302FC1F00403C170040A5
:101A20003815004010150040441500400C150040CA
:101A30000000040408F5014040800040A4F5014086
:101A400010110040001000404016004024150040D6
:101A50001C15004008150040541500404C850040FE
:101A600000800040006000404C81004004F50140CF
:101A700008BFFFDF216A206B0844FE490860FF4968
:101A8000FD480860A17AFE4801290EBF0560FD49A6
:101A90000160A06B40F40020A063D5F800924FF0E5
:101AA000100AC5F808A30026C5F80062F6484FF4EE
:101AB000802BC0F800B0FF208DF80000C5F8106141
:101AC000C5F810803DE000E01CE0012813D0C5F807
:101AD0000480022818BFBDE8F88F607D002808BF89
:101AE000BDE8F88FE948C0F84C80E9480068BDE8D7
:101AF000F84F0A3001E7C5F80080207D0028F1D1B9
:101B0000BDE8F88FE3490128896B07D0022818BF88
:101B1000FFDF09D0BDE8F84F0A20EEE641F480105F
:101B2000A0634FF4801004E041F40010A0634FF470
:101B300000103860EEE700BF9DF80000401E8DF8F1
:101B400000009DF8000018B1D5F810010028F3D06E
:101B50009DF80000002808BFFFDFC5F80C61C5F83C
:101B60001061C5F80461C5F81461C5F81861C5F8BD
:101B70002861C94800680090C5F80092C7F800B015
:101B8000C5F804A34FF400203860216A206BBDE83B
:101B9000F84F08440A30B0E62DE9F847BF4CD4F8B6
:101BA000000220F00309D4F804034FF0100AC0F338
:101BB0000018C4F808A30026C4F80062B54D687F79
:101BC000002814BF4FF4C020B548AF490860A87A78
:101BD0000127012802D0022803D014E0287D10B983
:101BE00011E0687D78B1A87EEA7E07FA00F007FA76
:101BF00002F210430860287F800000F1804000F569
:101C0000C040C0F81065FF208DF80000C4F81061D6
:101C1000276104E09DF80000401E8DF800009DF84B
:101C2000000018B1D4F810010028F3D09DF800008E
:101C3000002808BFFFDFC4F81061C4F828616E7285
:101C4000AE72EF72C4F80092B8F1000F18BFC4F87A
:101C500004A3BDE8F8870068924920F07F4008603F
:101C600070474FF0E0210220C1F8800170474FF02B
:101C7000E0200221C0F88011C0F8801270474FF0B8
:101C8000E0210220C1F800017047874908707047C1
:101C900010B5864801F04EFA002818BFFFDF10BDCE
:101CA000824801F05DBA82490860704730B5794CCE
:101CB0000546206BA84228BFFFDF01202073256165
:101CC000607F40B1A81C20617448D0F8001241F038
:101CD0004001C0F800126D490020C1F84401754967
:101CE00020690860A06B744940F48000A0634FF441
:101CF0008000086030BD674802210173CA2101617C
:101D0000417F41B1CC2101616449D1F8002242F008
:101D10004002C1F800225D4A0021C2F84411026964
:101D2000016B1144634A1160816B41F4800181634E
:101D300061494FF480000860704756490120487798
:101D40005E49022008605F495D480860091F5E48DF
:101D5000086070474F490020487770474A494FF460
:101D6000800008604B48816B21F480018163002171
:101D700001737047454801214160C1600021C0F8EE
:101D800044114C480160434801637047414800B525
:101D9000407F002818BFFFDF4020484908603F48C7
:101DA000D0F8001241F04001C0F8001200BD3948DF
:101DB00000B5407F002818BFFFDF3848D0F8001278
:101DC00021F04001C0F800123C490020086000BD2D
:101DD0003248D0F8001221F01001C0F800120121A1
:101DE000816170472D480021C0F81C11D0F8001205
:101DF00041F01001C0F800127047284981B0D1F8B5
:101E00001C21012A1EBF002001B070472F4A126812
:101E100002F07F02524202700020C1F81C012C48DF
:101E200000680090012001B0704730B50C000546F5
:101E300008BFFFDF14F0010F1CBF012CFFDF002DD6
:101E40000CBF01200220134901284872CC721349AB
:101E500004BFD1F8000240F0040007D0022807BFF9
:101E6000D1F8000240F00800FFDF30BDC1F80002E9
:101E700030BD00004885004048810040A8F5014081
:101E8000ACF501400410004008F50140008000401E
:101E90004C8500408C0200201811004000100040CA
:101EA000000004043C1500400E000020C802002081
:101EB000041500404485004004F5014060150040D1
:101EC000448000409CF50140281100404815004026
:101ED0001C11004070B5EB4C0022E17A11F0020FAA
:101EE00018BF10F0040F16D111F0100F1CBF94F89A
:101EF0003530002B02D094F8363063B111F0080F62
:101F00001CBF94F82830002B05D111F0040F03D02A
:101F100094F8291001B90122657ADB4900234FF0BA
:101F2000010C35B100F00200104314D0BDE8704040
:101F300032E6607F002814BF4FF4C020D348D44A53
:101F40001060D1F8000220F00300C1F80002A37273
:101F500084F80BC070BD012D14D0022D18BFFFDF17
:101F60001CD0A07A01280CBFCA48CB484FF47A7124
:101F700000F2E730B0FBF1F0216BBDE87040081AC9
:101F80008C30BAE4D1F8000220F00400C1F800025D
:101F9000637284F80BC084F80AC0E2E7D1F800024B
:101FA00020F00800C1F80002637284F80BC0022020
:101FB000A072D6E72DE9F84FB84FD7F84C21B14CB5
:101FC000B3494FF00108A07A0026CAB1012802D017
:101FD000022803D014E0227D12B911E0627D7AB1AB
:101FE000A27EE37E08FA02F208FA03F31A430A60BB
:101FF000227F920002F1804202F5C042C2F81065D1
:10200000A26B0A60A663217B19B1D7F8441101299C
:1020100000D000219C4DD5F81021012A0CBF402290
:102020000022012805BFD5F80C31012B0023202305
:102030001A43012805BFD5F80431012B00231023D2
:102040001343974A022804BFD2F800C0BCF1010F25
:1020500007D1D5F80CC1BCF1010F08BF4FF0080C37
:1020600001D04FF0000C4CEA0303022804BF1268B1
:10207000002A05D1D5F80C21012A08BF042200D07E
:1020800000221A43022803D1002918BF022100D1DF
:1020900000211143022804BFD5F80401012805D10D
:1020A000D7F84401012818BF012000D1002040EAE0
:1020B00001097C48016811F0FF0F03D0D5F8141115
:1020C000012900D0002184F83410006810F0FF0FBF
:1020D00003D0D5F81801012800D0002084F835007D
:1020E0007148006818B1FFF770F9012800D000208E
:1020F00084F83600C5F80C61C5F81061C5F80461B4
:10210000C5F81461C5F81861C5F82861674800680A
:102110000090C7F84461664800684D46DFF8949126
:102120000090D9F80000E062617F00291CBF801E8A
:10213000E062614800682063A07ADFF880A102288D
:102140000CD1607850B1DAF8001009780840217895
:1021500031EA000008BF84F8288001D084F82860A4
:10216000DFF85C8115F0010F16D098F80010554A81
:102170004908E06A52F821108847012198F80020A8
:10218000514B5208206B53F82220904798F80000DA
:1021900010F0010F0BD01FE015F0200F18BF022127
:1021A000ECD115F0020F18BF0021E7D1EEE7DAF805
:1021B0000000062200F10901A01C20F0B9F940B985
:1021C000207ADAF800100978B0EBD11F08BF01209F
:1021D00000D0002084F829002846FFF77BFE15F088
:1021E000020F05D0394898F8001050F821008047B8
:1021F00015F00C0F07D0364898F8001050F8211051
:10220000C5F3C000884715F0200F05D0314898F875
:10221000001050F82100804798F80000022805D1EE
:1022200005F06E00402806D105F0B4F998F80000DA
:10223000042828BFFFDFA07A022818BFBDE8F88F66
:10224000207B002808BFBDE8F88FC7F8446102284A
:1022500014D0012818BFFFDF216B2069884298BF86
:10226000FFDF2069C9F80000A06B1B4940F4800023
:10227000A0634FF480000860BDE8F88F2169206BEF
:102280000844EFE78C020020001000400000040426
:1022900008F50140F0FE0100B0F8010000800040A8
:1022A0000014004040160040601500401811004026
:1022B00044810040448500404085004004150040B2
:1022C0000E00002050290200582902006029020057
:1022D000702902008029020004F5014010B504466F
:1022E0000021012000F04CF80021182000F048F8EF
:1022F00000210B2000F044F80421192000F040F8E0
:1023000004210D2000F03CF804210E2000F038F8E4
:1023100004210F2000F034F80421C84300F030F805
:102320000721162000F02CF80721152000F028F8CE
:10233000204607F089FF204608F000F8002010BD75
:1023400085210180704710B507F08EFFBDE8104071
:1023500008F009B812487047124A10B51468114BBA
:10236000114A08331A60C02802D308F0D3FC01E0F8
:1023700007F082FF0B48001D046010BD70477047D6
:102380004907090E002806DA00F00F0000F1E020EE
:1023900080F8141D704700F1E02080F800147047A9
:1023A00003F9004310050240010000012DE9F0414E
:1023B0000C4611490D68104A104908321160A0F10D
:1023C0002001342901D301200CE0482810D040CC52
:1023D0000B4F94E80E0007EB8000241F50F8807C20
:1023E0003046B84720600448001D0560BDE8F08114
:1023F0002046FEF7E9FEF5E7100502400100000166
:102400009029020010B5EFF3108000F0010472B6BD
:10241000EC484178491C41704078012801D100F016
:1024200079FD002C00D162B610BD70B5E54CE078A6
:1024300048B90125E570FFF7E5FF00F073FD20B115
:10244000002000F0A5FB002070BD4FF080406571BA
:10245000C0F80453F7E770B5EFF3108000F0010502
:1024600072B6D84C607800B9FFDF6078401E6070AB
:10247000607808B900F052FD002D00D162B670BD41
:10248000D04810B5C17821B100214171C170FFF76A
:10249000E2FF002010BD10B5044600F043FDC9491D
:1024A000C978084000D001202060002010BD2DE92F
:1024B000F05FDFF810934278817889F806200025D4
:1024C00089F80710064689F8085000782F4620B191
:1024D00001280FD002280FD0FFDF00F030FD98B1A7
:1024E00000F034FDA8420FD1284600F033FD00284B
:1024F000FAD047E00125F0E7FFF784FF00F012FD76
:102500000028FBD00225E8E701208407E060C4F83A
:102510000471AD490D600107D1F84412AA4AC1F314
:10252000423124321160A8494FF0020B3431086067
:10253000C4F804B3A060DFF894A2DAF80010C9432D
:1025400041F3001101F10108DAF8001041F0100127
:10255000CAF8001000E020BFD4F804010028FAD027
:10256000284600F0F7FC0028FAD0B8F1000F05D19A
:10257000DAF8001021F01001CAF80010C4F808B30E
:10258000C4F8047199F807004C4670B1307860B90E
:1025900000F0C8FC064601F06FFD6FF0004116B177
:1025A000C4E9031001E0C4E9030115B12771BDE8D6
:1025B000F09F01202071BDE8F05F00F0E1B810B598
:1025C000040000D1FFDF4FF080414FF0FF30C1F831
:1025D00008030022C1F80021C1F80421C1F80C2130
:1025E000C1F8102100F0A4FC28B176490120C87080
:1025F0004878401C48702046BDE8104057E72DE958
:10260000F0410125AF077D616E4CE079F0B1012802
:1026100003D0217A401E814218DA00F083FC06467E
:1026200001F02AFDE179012902D9217A491C2172A0
:102630000EB1216900E0E168411A022902DA11F1C4
:10264000020F0EDC0EB1206100E0E060FFF7DAFE61
:1026500000F068FC10B13D61A57000E0257000201D
:102660002072BDE8F0812DE9F05F5948D0F800B044
:10267000574A5849083211608406D4F8080110B14D
:102680004FF0010801E04FF00008D4F8000100B15C
:1026900001208146D4F8040108B1012600E000269B
:1026A000D4F80C0100B101208246D4F8100108B121
:1026B000012700E0002748EA090126EA010020EA94
:1026C0000A00B84300D0FFDF0025B8F1000F04D0A6
:1026D000C4F80851012000F05BFADFF8E880B9F196
:1026E000000F13D0C4F8005198F8050020B188F805
:1026F0000550002000F04CFA98F8000030B100F0CE
:1027000011FC18B1012088F8020020610EB1C4F854
:102710000451BAF1000F0AD0C4F80C5198F8020025
:10272000464600B9FFDFB5703570FFF794FE37B14C
:10273000C4F8105198F8040008B1FFF760FF24496D
:10274000091DC1F800B032E770B51E4DE87808B930
:1027500000F0E4FB01208407A061A87858B100BF15
:10276000D4F80C0120B9002000F0F4FB0028F7D1C8
:102770000020C4F80C014FF0FF30C4F8080370BD0E
:102780002DE9F0411926B507C5F808630124AC61AD
:102790000020C5F80001C5F80C01C5F8100100F0D3
:1027A000C1FB084F10B1BC702C6100E03C70FFF71A
:1027B00029FE0549B87920310860C5F804636C61C9
:1027C0004FE70000100000201805004010ED00E069
:1027D0001005024001000001F0B5734AD2F8003242
:1027E000724D002401212E7856B9714E3460704F1D
:1027F00003263F1D3E606E4F04260C373E60297055
:10280000C2F80042D1601160694C4834D164256837
:102810008542FBD35160D160C2F80032F0BD2DE992
:10282000F041044680074FF000054FF0010604D543
:1028300060480560066024F00204E0044FF0FF37B2
:1028400005D55D484660C0F8087324F480546000E4
:1028500003D55A48056024F08044E0050FD552485E
:10286000C0F80052C0F8087351490D60091D0D6091
:102870004F4A04210C321160066124F48074A004D4
:1028800009D54F484660C0F80052C0F808734D485B
:10289000056024F40054C4F38030C4F3C03188428E
:1028A00000D0FFDF14F4404F14D047484660C0F812
:1028B000087346488660C0F80052C0F8087344495F
:1028C0000D600A1D16608660C0F808730D60166002
:1028D00024F4404420050AD53E4846608660C0F88E
:1028E0000873C0F848733C48056024F4006400F0A5
:1028F000E5FE3A48044200D0FFDFBDE8F08170B544
:10290000202500224FEA020320FA02F1C90719D05C
:1029100051B201F01F060124B4404E09B60006F181
:10292000E026C6F88041C6F88042002906DA01F0A8
:102930000F0101F1E02181F8143D03E001F1E021F4
:1029400081F80034521CAA42DED370BD70B5174C1A
:102950000D466060FFF763FF6068FFF7D0FF284611
:10296000FFF72DFE00F03CF801F065F900F0A6FE3F
:1029700000F0F4FD01F0D0FABDE8704000F020B99D
:1029800010B50A4C6068FFF74AFF6068FFF7B7FFB1
:1029900000F094FEFFF7D8FE0020606010BD0348F1
:1029A00040687047032070470080004024000020EA
:1029B00004850040FC1F004000C0004004E50140C9
:1029C00000D0004004D5004000E0004000F000408E
:1029D00000F5004000B0004008B50040FEFF0FFCCD
:1029E00010B5524800F09EFB00B1FFDF4F48401C7D
:1029F00000F098FB002800D0FFDF10BD2DE9F14F5B
:102A00004B4ED6F800B00127484800F093FBDFF8A2
:102A10001C8128B95FF0000708F1010000F0A0FB5D
:102A2000444C00254FF0030901206060C4F80051B8
:102A3000C4F80451009931602060DFF8FCA018E070
:102A4000DAF80000C00614D50E2000F064F8EFF3A9
:102A5000108010F0010072B600D00120C4F8049379
:102A6000D4F8001119B9D4F8041101B920BF00B984
:102A700062B6D4F8000118B9D4F804010028DFD0F8
:102A8000D4F804010028CFD137B1C6F800B008F15E
:102A9000010000F04FFB11E008F1010000F04AFBDB
:102AA0000028B9D1C4F80893C4F80451C4F80051FF
:102AB0000E2000F030F81D4800F052FB0020BDE869
:102AC000F88F2DE9F0438DB00D46064600240DF138
:102AD00010090DF1200817E004EB4407102255F807
:102AE000271068461FF06FFD05EB87071022484648
:102AF00079681FF068FD6846FFF780FF10224146A5
:102B0000B8681FF060FD641CB442E5DB0DB0002026
:102B1000BDE8F08372E700F01F02012191404009F7
:102B2000800000F1E020C0F8801270472C000020E7
:102B300004E5004000E0004010ED00E070B51F49E2
:102B40000A68BAB100231D4601244A68521C4A6033
:102B5000092A00D34D600E7904FA06F20E68164277
:102B60000AD072B60B6893430B6062B64968016085
:102B7000002070BD052070BD5B1C092BE5D3FFDF75
:102B8000F8E74FF0E0214FF48000C1F800027047F1
:102B9000EFF3108111F0010F72B64FF0010202FA4B
:102BA00000F20648036842EA0302026000D162B6FE
:102BB000E7E70248002101604160704730000020D3
:102BC000C948002101708170704770B5C74D01235D
:102BD0002B60C74B1C68002CFCD0002407E00E685B
:102BE00006601E68002EFCD0001D091D641C944266
:102BF000F5D30020286018680028FCD070BD70B59F
:102C0000B94E0446BB4D3078022800D0FFDFAC42FD
:102C100000D3FFDF7169B848012903D847F2305269
:102C2000944201DD03224271491C7161291BC1607C
:102C3000B1497078BDE8704002F052BB70B5AA4C43
:102C40000D466178884200D0FFDFAA4E092D4FD291
:102C5000DFE805F04E0522314E4E4E4E3C00207806
:102C6000022800D0FFDF03202070A078022802D0C5
:102C7000012804D008E0A06800F07CF904E004F129
:102C8000080007C8FFF7A1FF052020700020A070F2
:102C9000BDE8704001F005BE01F0D2FE014660685B
:102CA00003F016F9B04202D2616902290BD3032066
:102CB000FFF76EFF12E001F0C3FE0146606803F00B
:102CC00007F9B042F3D2BDE8704098E720780228B7
:102CD0000AD0052806D0FFDF04202070BDE8704030
:102CE00000F0F8B8022000E00320FFF751FFF3E7FF
:102CF000FFDF70BD70B5054601F0A2FE7A4C606042
:102D00002078012800D0FFDF7B49022008700022D4
:102D10000A718D6004224A71764ACA602070607818
:102D2000BDE8704002F0DCBA10B56F4CA07808B96D
:102D3000207808B1112010BD704801F01CFE6070B1
:102D4000607820B1012020700020606110BD032058
:102D500010BD0246010B0120B2F5003F02D28840AF
:102D600000F00CBAB2F5802F03D22039884000F071
:102D70000DBAB2F5C02F03D24039884000F00FBA27
:102D8000B2F5002F03D26039884000F011BA00205C
:102D900070472DE9F041144600EB84070E460546C6
:102DA0003F1F00F0FAF84FF080510A69504306EBDC
:102DB0008402121FB24201D2012200E000221CB1A3
:102DC0000969B4EB910F02D90920BDE8F0814C49A3
:102DD0008D421AD3AF4218D3854201D2874203D322
:102DE000484828447C2803D845EA0600800701D0DB
:102DF0001020EAE78E4208D33AB92846FFF7A9FF28
:102E000018B93846FFF7A5FF08B10F20DDE73E48A7
:102E10003E490068884205D0224631462846FFF7E1
:102E2000D4FE10E0FFF780FF0028CED12E4801210C
:102E30008560C0E9036481704FF4A97104FB01F05F
:102E40001830FFF757FF0020BFE770B54FF08055EF
:102E5000044628692A49B1FBF0F084420AD300F005
:102E60009CF8A04201D8102070BD28696043FFF78C
:102E700070FF08B10F2070BD2348244900688842C4
:102E800004D02869604300F075F80CE0FFF74CFFB0
:102E90000028F0D1296914486143816002218170C2
:102EA0001B48FFF727FF002070BD1548010B0120CC
:102EB0008840401E704770B50D460446FFF7F5FF89
:102EC000204201D00F2070BD29462046BDE8704049
:102ED00000F077B910B5044C607801F09BFD00203C
:102EE0002070A07010BD00003800002004E50140F3
:102EF00000E40140105C0C00CC0200203D2C0000DE
:102F00000070020080EFFFEF00010020BEBAFECA91
:102F10007C5E010001208107086070470120810765
:102F20004860704712480068C00700D00120704711
:102F30000F48001F0068C00700D0012070470C48F0
:102F400008300068C00700D00120704708481030E2
:102F50000068704706490C310A68D20306D5096833
:102F600001F00301814201D1012070470020704728
:102F70000C0400400B4A022111600B490B68002B26
:102F8000FCD0084B1B1D186008680028FCD00020EE
:102F9000106008680028FCD070474FF080504069EE
:102FA0007047000004E5014000E40140094810B505
:102FB00004680A490848086002F0D2FC0848046026
:102FC00010BD0849002008604FF0E0210220C1F840
:102FD0008002704710050240010000011805024000
:102FE00014050240FC1F004070B50C46054619F060
:102FF0001BFE21462846BDE870401AF0F8BD704718
:1030000010FFFFFFDBE5B151007002008500FFFFFC
:1030100010B50D2000F06FF8C4B26FF0040000F09E
:103020006AF8C0B2844200D0FFDF3A49012008604C
:1030300010BD70B50D2000F048F8374C0020C4F8E2
:1030400000010125C4F804530D2000F049F8256063
:103050004FF0E0216014C1F8000170BD10B50D20E3
:1030600000F033F82C48012141600021C0F8001124
:10307000BDE810400D2000F033B8284810B50468B2
:1030800026492748083108602349D1F80001012862
:1030900004D0FFDF2148001D046010BD1D48001D45
:1030A00000680022C0B2C1F8002100F07CFEF1E708
:1030B00010B51948D0F800110029FBD0FFF7DDFF4B
:1030C000BDE810400D2000F00BB800F01F020121F8
:1030D00091404009800000F1E020C0F88011704765
:1030E00000F01F02012191404009800000F1E02022
:1030F000C0F880127047002806DA00F00F0000F1D7
:10310000E02090F8140D03E000F1E02090F80004B6
:103110004009704704D5004000D00040100502402F
:10312000010000010021017008467047014600209F
:1031300008707047EFF3108101F0010172B6027858
:10314000012A01D0012200E000220123037001B90D
:1031500062B60AB1002070474FF400507047E9E7AB
:10316000EFF3108111F0010F72B64FF00002027000
:1031700000D162B600207047F2E700001F490968DD
:10318000014201D001207047002070471B49091DF2
:103190000968014201D0012070470020704717499B
:1031A00010310968014201D00120704700207047AA
:1031B000124914310968014201D0012070470020F2
:1031C000704710B50D4C2060201D01600B48103079
:1031D0000260001D0360002010BD09490A6848F222
:1031E00002139A4302430A607047054A116848F285
:1031F000021301EA03009943116070470006004082
:10320000C8060240082808D238B1042805D0012891
:1032100003D0052801D0012070470020704710B569
:10322000044600F0F6F880B1204600F0E3F8FFF71E
:10323000E9FF68B17E4A04F01F010120137888403D
:103240004BB15168084350600BE042F2010010BDE1
:1032500042F2020010BD6109890001F1E021C1F8CC
:103260000001002010BD10B5044600F0D2F850B1A6
:103270006F4A04F01F0101201378884033B1516870
:103280008143516008E042F2010010BD61098900EC
:1032900001F1E021C1F88001002010BD70B50D469C
:1032A000044600F0B6F878B16009800000F1E02033
:1032B000D0F8000204F01F0201219140084000D024
:1032C00001202860002070BD42F2010070BD10B5E1
:1032D000044600F09EF858B104F01F010120884018
:1032E0006109890001F1E021C1F80002002010BD50
:1032F00042F2010010BD10B5044600F08AF858B142
:1033000004F01F01012088406109890001F1E021DA
:10331000C1F88002002010BD42F2010010BD70B55E
:103320000D46044600F075F870B12846FFF76AFFB5
:1033300068B16807000E002C0CDA04F00F0101F1EF
:10334000E02181F8140D09E042F2010070BD42F263
:10335000020070BD04F1E02484F80004002070BD78
:1033600070B50C46054600F054F830B1284600F020
:1033700041F8C0B22060002070BD42F2010070BD73
:10338000BFF34F8F2B4801682B4A01F4E0611143D2
:103390000160BFF34F8F00BFFDE770B5054601F038
:1033A00077F908B1072070BD214C0120217889B937
:1033B000207072B6FFF7F3FA4FF0E026D6F88011CE
:1033C00006F5C07681436160FFF7E9FAC0433060DB
:1033D00062B600202870002070BD15490A783AB105
:1033E00030B94FF0E0224868C2F8000100200870B0
:1033F00000207047002806DA00F00F0000F1E020FE
:1034000090F8140D03E000F1E02090F8000440096A
:10341000704710B50446642807DAFFF7C0FA0121A7
:10342000A140084201D1012010BD002010BD0000C4
:10343000500000200CED00E00400FA054E49096838
:103440000160002070474C4908600020704701214E
:103450008A0720B1012804D042F204007047916726
:1034600000E0D1670020704744490120086042F223
:103470000600704708B50423404A1907103230B1DE
:10348000C1F80433106840F0010010600BE01068D0
:1034900020F001001060C1F808330020C1F80801D5
:1034A000374800680090002008BD3449103140B111
:1034B00001280CD0022812D0032816D042F20500B1
:1034C0007047086820F01E0040F0100004E0086813
:1034D00020F01E0040F014000860002070470868CB
:1034E00020F01E0040F01800F6E7086820F01E00EB
:1034F00040F01C00F0E7214924310A6802430A60C9
:10350000002070471D4924310A6882430A60002068
:1035100070471A4924310968016000207047174933
:103520001C310A6802430A600020704713491C31AD
:103530000A6882430A600020704710491C310968FC
:1035400001600020704702000E494FF0000003D0D8
:10355000012A01D0072070470A6070474FF0804170
:103560000020C1F808014FF0E020802180F800140D
:103570000121C0F800117047000400400005004020
:1035800008010040780500406249634B0A686349BE
:103590009A42096801D1C1F310010160002070470F
:1035A0005C495D4B0A685D49091D9A4201D1C0F32F
:1035B00010000860002070475649574B0A68574969
:1035C00008319A4201D1C0F3100008600020704712
:1035D00030B5504B504D1C6842F20803AC4202D04B
:1035E000142802D203E0112801D3184630BDC300CD
:1035F0004B481844C0F81015C0F81425002030BD01
:103600004449454B0A6842F209019A4202D0062811
:1036100002D203E0042801D308467047404A012142
:1036200042F83010002070473A493B4B0A6842F29A
:1036300009019A4202D0062802D203E0042801D3ED
:1036400008467047364A012102EBC0004160002065
:10365000704770B52F4A304E314C156842F209035D
:1036600004EB8002B54204D0062804D2C2F8001848
:1036700007E0042801D3184670BDC1F31000C2F85A
:103680000008002070BD70B5224A234E244C1568F6
:1036900042F2090304EB8002B54204D0062804D2AA
:1036A000D2F8000807E0042801D3184670BDD2F80C
:1036B0000008C0F310000860002070BD174910B565
:1036C0000831184808601120154A002102EBC00398
:1036D000C3F81015C3F81415401C1428F6D30020A5
:1036E00006E0042804D302EB8003C3F8001807E0C7
:1036F00002EB8003D3F80048C4F31004C3F8004879
:10370000401C0628EDD310BD044906480831086066
:103710007047000000010020BEBAFECA00F501405B
:1037200000F001400000FEFF10B54FF000040B4612
:103730000200204621461ED0012A04D0022A04D0CD
:10374000032A1DD103E0012002E0022013E0032040
:10375000072B15D2DFE803F0140406080A0C0E004C
:10376000012108E0022106E0032104E0042102E037
:10377000052100E0062101F017F908B1204610BD2F
:103780000724FBE7FE48052181700021017041708C
:10379000C17081607047FB490A78022A06D0CA6866
:1037A0001044C860C868323802F04DBB8A681044C3
:1037B00088608868F7E70378F349F44A13B1012B6E
:1037C0000ED011E00379012B00D06BB943790BB116
:1037D000012B09D18368643B8B4205D2C0680EE09F
:1037E0000379012B02D00BB10020704743790BB154
:1037F000012BF9D1C368643B8B42F5D280689042BB
:10380000F2D8012070472DE9F0470446022601F066
:10381000CAFF006800B1FFDFD94D01273CB1207815
:10382000B0B1012805D0022810D0032813D02F7181
:103830000CE06068C82807D302F075FB20B160680F
:10384000FFF7A9FF012603E0002601E000F0AFF931
:103850003046BDE8F08728780028F7D16068FFF788
:10386000AAFF0028E3D06068DFF81883007810B35F
:10387000A878042800D0FFDF0020474688F8000021
:1038800060680079C0B30020387160684079A0B3E7
:103890000420787160688168E86801F093FBB86083
:1038A0006068C0683230F8600320A870B549E878D5
:1038B00001F016FDCAE74FF00209404688F8009073
:1038C00061680979D1B10021017161684979B9B1A3
:1038D0000421417161688968323181606168C96819
:1038E000C160C068A64C1434606001F0A9F8206083
:1038F0006F7085F80290A9E704E005E00321E3E793
:103900000321E6E70120BFE70320C2E72DE9F047E6
:103910009B4C8846E178884200D0FFDFDFF8609258
:1039200000250127974E09F11409B8F1090F76D245
:10393000DFE808F0050D2A3D646A769E7E00A078D7
:10394000032886D0A078022883D0FFDF81E7A07803
:10395000032803D0A078022800D0FFDF0420A07045
:103960002571207800285FD1FFF715FF30780228F5
:1039700006D0B068E060FFF738FC2061002048E026
:10398000E07801F03DFBF5E7A078032803D0A078AC
:10399000022800D0FFDF207878BBA078032812D15E
:1039A000042026E00420FFF7F3F8A57051E7A07883
:1039B000032803D0A078022800D0FFDF2078E0B9E8
:1039C000A078032814D001F03BF801464F46D9F8FF
:1039D000000002F07DFA0028E4DB79688142E1DB37
:1039E000081AF0606749E078BDE8F04701F078BC5C
:1039F0000520FFF7CDF8A7702BE724E0A078042876
:103A000000D0FFDF022004E0A078042800D0FFDF10
:103A10000120A1688847FFF7F6FE05462EE027E063
:103A2000A078042800D0FFDFBDE8F04700F0BFB861
:103A3000A078042805D0607810B1A078022800D0C2
:103A4000FFDF207818B1BDE8F04700F0B9B8207961
:103A500020B10620FFF79CF82571CCE7607828B1EB
:103A60004849E07801F03CFC6570F2E60720C0E7C9
:103A7000FFDFEEE63DB1012D03D0FFDF022DF9D1CE
:103A8000E7E60420C5E70320C3E770B5050005D0CD
:103A90003B4CA078052803D0112070BD102070BDCC
:103AA0003B4800F068FFE070E07818B1A5600020A6
:103AB000A07070BD032070BD314810B5017809B108
:103AC000112010BD817805290CD0817801290BD0F7
:103AD000817849B1012101708178012904D0807871
:103AE00010B103E00F2010BD00F06AF8002010BDF7
:103AF0002DE9F041224E0446B07808B101280AD1E0
:103B000064B12046FFF757FE50B120781D4D48B1F3
:103B1000B078012822D00F20BDE8F0811020FBE70B
:103B20000720F9E702272F70207998B1002028712B
:103B3000607988B104206871A0683230A860E068BC
:103B4000E860E8680E4C1434606000F079FF206093
:103B5000B77022E00320EAE70320ECE7002028709A
:103B6000207900B3002028716079F0B104206871D9
:103B7000A168F06801F026FAA860E068323009E038
:103B800058000020DC0200203D860100FF1FA10735
:103B90000D390000E8600320B0701049F07801F0A2
:103BA0009FFB0020B8E70320DDE70320DFE70C4898
:103BB00010B50069FFF711FBBDE8104000F071BEC1
:103BC00010B5074CE07800F025FF0820FEF7E0FF75
:103BD0000520A07000202070607010BDDC02002065
:103BE00058000020C84911F8210F4978884201D3B4
:103BF000401A02E0C1F121010844C0B27047C24935
:103C0000233111F8210F4978884201D3401A02E08C
:103C1000C1F121010844C0B27047BB49463111F8D7
:103C2000210F4978884201D3401A02E0C1F12101F5
:103C30000844C0B27047B54910B5802081F800042F
:103C4000B1490020233101F8210F4870AE4901F835
:103C5000210F4870AC49463101F8210F4870AC483B
:103C6000FFF760FAAA48401CFFF75CFAFFF7D0F9AB
:103C7000BDE8104000F03DB920207047B2E770B5B4
:103C80000C4605460026FFF7ADFF01469E48A142BF
:103C900012D30022641EE4B20DD390F82210435CCC
:103CA000491CC9B205F8013B80F822102129F1D145
:103CB00080F82220EEE7012600F01BF9304670BDA7
:103CC000202070479BE770B50C4605460026FFF79D
:103CD00096FF01468C482330A14212D30022641E75
:103CE000E4B20DD390F82210435C491CC9B205F828
:103CF000013B80F822102129F1D180F82220EEE743
:103D0000012600F0F6F8304670BD20210170002039
:103D1000704710B50446FFF780FF2070002010BDEB
:103D200070B50C460546FFF778FF014676484630E9
:103D3000A14213D30022641EE4B20DD390F82210E6
:103D4000435C491CC9B205F8013B80F822102129C7
:103D5000F1D180F82220EEE7002401E042F20704CE
:103D600000F0C7F8204670BD70B50C460546212905
:103D700000D9FFDF67480068103840B200F0A0F8B3
:103D8000C6B20D2000F09CF8C0B2864204D2FFDF1C
:103D900002E000BFFFF78CF921462846FFF76FFFCE
:103DA0000028F7D070BD2DE9F047DFF86481564C4C
:103DB000A8F101080746233498F80000DFF848917D
:103DC000002604F1230A38B994F8221094F821004F
:103DD000212200F084F890B14D4699F8221099F80C
:103DE0002100212200F07BF8B8B155469AF8221044
:103DF0009AF82100212200F072F848B335E094F8D7
:103E00002100275494F82100401CC0B284F82100FE
:103E100021282AD184F8216027E095F821002F5429
:103E200095F82100401CC0B285F82100212801D15D
:103E300085F8216098F800004746B0B195F8221047
:103E400095F82100212200F04AF870B13E700CE094
:103E500095F821002F5495F82100401CC0B285F838
:103E60002100212801D185F8216094F8221094F8CE
:103E70002100212200F033F800281FD099F82210E9
:103E800099F82100212200F02AF8002816D09AF88B
:103E900022109AF82100212200F021F800280DD0EC
:103EA000FFF7DCF81A48FFF745F9B0F5005F00D0DE
:103EB000FFDFBDE8F0471648FFF752B9BDE8F087CD
:103EC000002806DA00F00F0000F1E02090F8140D51
:103ED00003E000F1E02090F8000440097047401C26
:103EE000884204D0904200D109B1002070470120DF
:103EF000704710B50648FFF71DF9002803D1BDE84B
:103F00001040FFF796B810BDEC0200200DE000E075
:103F10007500002004ED00E04FF0E0214FF000704C
:103F2000C1F88001C1F88002384B802283F8002458
:103F3000C1F80001704700B502460620344903E08D
:103F400001EBC0031B792BB1401EC0B2F8D2FFDFDA
:103F5000FF2000BD41F8302001EBC00100224A7172
:103F60008A7101220A7100BD294A002102EBC000BA
:103F70000171704710B50446062800D3FFDF2448BE
:103F800000EBC4042079012800D0FFDF6079A1791B
:103F9000401CC0B2814200D060714FF0E0214FF070
:103FA0000070C1F8000210BD2DE9F0411948056804
:103FB00018491948083108601448062690F800048A
:103FC000134F4009154C042818D0FFDF16E0217864
:103FD00007EBC1000279012A08D1427983799A421C
:103FE00004D04279827157F8310080472078401C14
:103FF000C0B22070062801D300202070761EF6B2D1
:10400000E5D20448001D0560BDE8F08119E000E03C
:104010005803002010050240010000017700002035
:10402000134908784A78401CC0B2904205D0114B21
:1040300001221A60BFF34F8F0870704770B54FF0C0
:10404000E0250B4C00F0AEFA20BF40BF20BF6078E7
:1040500021786170D5F8001229B9D5F8041211B988
:1040600021788142EED000F098FA002070BD000067
:1040700078000020180502402DE9F04101252803B1
:104080004FF0E0210026C1F880011E4CC4F8006109
:104090000C2000F02CF81C4801680268C94341F369
:1040A000001142F010020260C4F804532560491C5C
:1040B00000E020BFD4F80021002AFAD019B9016825
:1040C00021F010010160114807686560C4F80853C9
:1040D000C4F800610C2000F00AF83846BDE8F08111
:1040E00010B50446FFF7C8FF2060002010BD00F0A7
:1040F0001F02012191404009800000F1E020C0F83A
:104100008012704700C0004010ED00E008C500407C
:104110002DE9F047F84C0646FF21606800EB0612D7
:1041200011702178FF2916D04FF0080909EB011111
:1041300009EB06174158C059491E21F07F4100F094
:10414000DDF918B194F80080454614E061682078E4
:1041500001EB061108702670BDE8F087626809EB74
:104160000510D159105800F0C9F930B96068A84657
:1041700000EB08100578FF2DF0D1606800EB061108
:1041800000EB08100D700670E6E7F0B5DA4B044658
:10419000002001255A680C261B7A0BE005EB00175E
:1041A000D75DA74204D106EB0017D7598F4204D040
:1041B000401CC0B28342F1D8FF20F0BD70B501F0C1
:1041C000B0FECD4C014608252278606805EB02124E
:1041D000805800F093F9012808D92178606805EB30
:1041E00001114058BDE8704001F092BE01F0DEFAC6
:1041F000BDE87040FFF7BEBE2DE9F041BE4C25780A
:1042000001F08FFE0146FF2D6FD04FF00808626865
:1042100008EB0516905900F071F90228606801D981
:1042200080595EE000EB051109782170022101EB55
:104230000511425C5AB1521E4254815901F50001E8
:1042400021F07F4181512846FFF762FF34E00423CB
:10425000012203EB051302EB051250F803C0875C43
:10426000BCF1000F10D0BCF5806F10D9CCF309025F
:1042700050F806C00CEB423C2CF07F4C40F806C0D6
:10428000C3589A1A920A09E0FF2181540AE0825920
:1042900002EB4C3222F07F428251002242542846E7
:1042A000FFF736FF0C21606801EB05114158E0680B
:1042B00050F82720384690472078FF2815D001F085
:1042C00030FE01462278606808EB021245468058AD
:1042D00000F014F9012891D92178606805EB0111EB
:1042E0004058BDE8F04101F013BEBDE8F081F0B5E3
:1042F0001D4614460E460746FF2B00D3FFDFA007DE
:1043000000D0FFDF7C48FF210022C76044600572B7
:104310000674017042701046012204E002EB0013A3
:10432000401CE154C0B2A842F8D3F0BD70B5724C45
:1043300006466578207C854200D3FFDFE06840F8C0
:1043400025606078401C6070284670BD2DE9FF5FD5
:104350001D468B460746FF2401F0E3FDDFF89891E8
:10436000064699F80100B84200D8FFDF00214FF05F
:1043700001084FF00C0A99F80820D9F804000EE063
:1043800008EB0113C35CFF2B27D0BB4205D10AEB1E
:10439000011350F803C0DC4521D0491CC9B28A4240
:1043A000EED8FF2C1BD008EB04110AEB0412475483
:1043B00040F802B00421029B0022012B01EB041102
:1043C00011D042504FF4806808234FF0020C45454D
:1043D00019D9A905890D08D008E00C46DDE7FF20B2
:1043E00004B0BDE8F09F4550ECE7414606EB413292
:1043F00003EB041322F07F42C250691A0CEB041243
:10440000890A81540BE005B9012506EB453103EB20
:10441000041321F07F41C1500CEB0411425499F870
:1044200000502046FFF774FE99F80000A84201D022
:10443000FFF7C4FE3846D3E770B50C46054601F0D9
:1044400070FD064621462846FFF79FFE0446FF28DA
:1044500017D0294D082101EB0411686840583146F6
:1044600000F04CF800F58050400B02216A6801EB27
:104470000411515C09B100EB8120002800D101201A
:1044800070BD002070BD2DE9F0410F468046FFF75A
:104490007CFEFF281BD0184E357871682A462C46C2
:1044A00005E0844206D0254601EB05131C78FF2C5D
:1044B000F7D10CE0FF2C0AD0A5420CD101EB021081
:1044C00000783070FF2804D0FFF778FE03E000206A
:1044D0000BE701F023FD39464046FFF7ADFFFF2211
:1044E0000123716803EB0413CA5401EB041201EBBE
:1044F000051112780A70F8E688030020401A20F0AF
:104500007F40B0F5000F00D90020704710B5202083
:1045100000F075F8202000F07DF84449202081F853
:104520000004434900060860091D42480860FDF781
:1045300011FF3F49C83108603F48D0F8041341F0EB
:104540000101C0F80413D0F8041341F08071C0F8E1
:104550000413364901201C39C1F8000110BD10B503
:10456000202000F04CF8324800210160001D01605D
:104570002F4A481EE83A10602F4AC2F808032C4B15
:10458000C8331960C2F80001C2F860012B49086005
:10459000BDE81040202000F03DB825492848EC39FE
:1045A0000860704722492648E8390860704770B5AE
:1045B0001F4A8069E83A224911601F49D1F8006119
:1045C0000023204D1D4A5C1E1EB1A84206D30021C7
:1045D0000FE0D1F8606186B1A84209D2C1F800317C
:1045E000C1F860311460BDE87040202000F012B8BE
:1045F0001168BDE870401EF0B2B8FFDF70BD00F07A
:104600001F02012191404009800000F1E020C0F824
:104610008011704700F01F02012191404009800085
:1046200000F1E020C0F880127047000020E000E0B8
:10463000000602407C1700200000024000040240F7
:10464000010000010070020070B50446A0F50000F2
:104650002C4EB0F1786F02D23444A4F500042A48FD
:10466000844201D2012500E0002500F041F830B17C
:10467000B4420BD32548006804E0284370BDB4421F
:1046800004D32348844201D20120F6E70020F4E756
:1046900010B50446A0F50000B0F1786F03D21948B8
:1046A0000444A4F5000400F023F84FF0804130B139
:1046B0001648006804E08C4204D2012003E014484C
:1046C0008442F8D2002080F0010010BD10B520B166
:1046D000FFF7DEFF08B1012010BD002010BD10B5AE
:1046E00020B1FFF7B1FF08B1012010BD002010BDBF
:1046F000084809490068884201D10120704700201C
:10470000704700000000002000700200100100202F
:104710000800002000010020BEBAFECA2DE9F041C9
:10472000FE4CA07E617E884208BFBDE8F081012674
:10473000FB4D0027607E215C01EB810205EB8200CE
:10474000037C052B10D0037C062B1BD0037C072B8E
:1047500027D0437C012B18BFFFDF30D0A07E617EC5
:104760008842E7D1BDE8F0810674607E18281ABF40
:10477000607E401C00206076481CC0B255F82220A4
:1047800002210CE00674607E18281ABF607E401C6F
:1047900000206076481C55F82220C0B203219047C3
:1047A000DCE70674607E18281ABF607E401C00207B
:1047B0006076481CC0B255F822200821EFE7477404
:1047C000607E18280EBF0020607E401C6076481C6A
:1047D000C0B255F822200721E1E770B5D14E002480
:1047E0000D2086F82900A6F54A70254680F8F54187
:1047F00080F8F44100F504708476447606F12C00CC
:10480000FEF790FCA6F59870057586F82B50601E93
:10481000B06086F8255086F8225086F8235086F836
:10482000245086F82150C04805704570A6F1FC0060
:1048300004EB840100EB81010D74611CCCB20C2CE3
:10484000F6D3012001F0EAFC002001F0E7FC012092
:1048500086F82600FFF760FBB448FFF76CFBB44C0A
:104860002070B448FFF767FB6070BDE8704001F04E
:1048700069BC10B501F094FCAD4C2078FFF774FBD7
:104880006078FFF771FBA74C94F82800002808BF58
:1048900010BDFDF7E0FD002084F8280010BD0C20BD
:1048A000704770B501F05FFD9E4C054694F82600F8
:1048B00000281CBFFFDF70BD94F82B00002808BF44
:1048C000FFDF6FF07F4260690026291AB1F5800F83
:1048D00024BF431BB3F5800F0DD38A4203D2101AB5
:1048E0002844411C07E09A4228BFFFDF05D2511B34
:1048F0000844401C4142002900DBFFDF012584F809
:10490000265084F82B6094F829100420844A01EB87
:10491000810102EB81010874A068B0F1FF3F04D06F
:10492000A81EA060012001F079FC002001F076FCB7
:1049300001F05AFCFEF7E8FE01F09EFD7E4806609D
:1049400006604FF0E0214FF40040C1F88002FEF70E
:1049500038FB75480078022804D0032805D194F864
:10496000230010B184F8225001E084F82260BDE8F1
:10497000704001F065BD034669490C2000EB8002E0
:1049800001EB820212F8042C22B1401E10F0FF004D
:10499000F4D1704700EB800201EB8201012241F863
:1049A000143C01F8042C7047012804D0032808BFE8
:1049B000002926D000E021B35A4B4FF0000C83F8B9
:1049C00021C0594A0028907014BF022882F803C001
:1049D0000BD0072915D2DFE801F01404060C0E10E5
:1049E00012001B2000E03A20D070012083F8210043
:1049F00070475820F8E77720F6E79620F4E7B520CF
:104A0000F2E700207047484810B5407801F03DFDBE
:104A100080B210BD421E10B5414900EB800001EB91
:104A200080040B2A02D814F8040C00B9FFDF14F834
:104A3000040C012818BFFFDF002004F8040C10BD8F
:104A400070B53E4C94F8F50194F8F41188420CBF0F
:104A50000125002501F087FC01F017FD94F8F51100
:104A600094F8F42191420CBF01210021A942E9D11F
:104A700070BD2DE9F05F80464B1E1746DCB228481A
:104A800004EB840200EB82052E1D287CDFF88C905D
:104A900007282DD199F81900002299F81AC08445E9
:104AA00024D000BF19F800C0A44508BF012200D0DF
:104AB0004AB118280CBF4FF0000C00F1010C19F896
:104AC0000CC009F800C018280CBF0020401CC0B260
:104AD00099F81AC08445E5D142B199F81A204846A0
:104AE000002A0EBF1822827E521E82760120287470
:104AF0000B2B10D80A4801EB810100EB810010F864
:104B0000040C40B1287C012806D0287C012802D062
:104B1000B87A012816D0FFDFB87A11E0AC05002082
:104B2000C8050020C40600207C000020F9410000D8
:104B30007A0000201D47000000F500409C03002083
:104B400001284AD1FE49287C022816D099F81A007B
:104B500018284AD099F81A0099F81910401C884270
:104B600000D1FFDF0120687499F81A0009F80040AD
:104B700099F81A0018283DD03EE0DFF8C8C39CF829
:104B800029000246A04207D0024600EB820001EB5A
:104B90008000807CA042F7D19CF8293083420CD160
:104BA0009CF8292002EB820201EB8202927C8CF8B5
:104BB000292001228CF82A2009E000EB800301EB78
:104BC000830302EB820201EB82029B7C937400EB75
:104BD000800001EB80000D228274387A062825D2ED
:104BE000DFE800F012211E1B181599F819000028A3
:104BF000B8D1B6E7002002E099F81A00401C89F805
:104C00001A000020BDE8F09F4FF0000A11E04FF0BD
:104C1000B40A0EE04FF0730A0BE04FF0320A08E0DE
:104C20004FF00A0A05E04FF0060A02E0FFDF4FF0FE
:104C3000000A3868A0EB0A003060397A00290CBFFE
:104C400004210221401A20F07F423260D7E900019E
:104C5000084420F07F407060B87A022818BF387B83
:104C60007ED1387A00280CBF0420022000EB0A0312
:104C70007868591D00EB010BB3484078504503D9C3
:104C8000B04991F8231011B10BF1060003E0A0EB3D
:104C90000A005844801DAB4991F829C0BCF10D0FA2
:104CA00024D08E4691F8291001EB810CA44901EB28
:104CB0008C0CDCF804C0624518D0DFF890C29EF876
:104CC000292002EB820201EB82014A688968A2EB8B
:104CD000080222F07F42A1EB080121F07F419042BF
:104CE00098BFB2F5800F49D28C4547D34044A0EB22
:104CF0000B0020F07F4131601944F86821F07F41BA
:104D00000A1A6FF07F43B2F5800F24BFA0EB010CAD
:104D1000BCF5800F0DD3934203D2181A0844421CED
:104D200007E0634528BFFFDF1FD2591A0844401C23
:104D30004242002A19DD0520287499F81A00182823
:104D40002DD099F81A0099F81910401C884200D10A
:104D5000FFDF99F81A0009F8004099F81A0000E0FE
:104D60000BE018287FF448AF44E73068ABF1050149
:104D7000084420F07F407060002030727068401D51
:104D800020F07F407060787AB072387A06277072AF
:104D900003280DD260B1FEF7C5F828B108E099F8F4
:104DA00019000028D5D1D3E7CAF138074FF0320AED
:104DB00065480178012918BF03290AD14078504578
:104DC00007D9604991F82310002904BFA0EB0A001D
:104DD00007445E4B3068A0EB0802706822F07F4108
:104DE000A0EB080020F07F4C8F4298BFB1F5800FF8
:104DF0001CD263451AD3534991F829300D2B32D078
:104E000091F829704FF00D0B4FEA0B0A4C4907EB54
:104E1000870301EB8303D3F808C0ACEB080C94457F
:104E200031D8BB469F7C0D2FF0D199E00520287426
:104E300099F81A00182811D099F81A0099F8191041
:104E4000401C884200D1FFDF99F81A0009F80040A1
:104E500099F81A0018287FF4CFAECBE699F819001C
:104E60000028F1D1EFE70220287491F829000D28DD
:104E700018BF91F82900A87481F82940012081F811
:104E80002A00BDE8F09F0D2F1CBFBA46002267D054
:104E90000AEB8A0301EB8303D3F804C0ACEB080CE4
:104EA000844528D29A7B96F80AC094451CD30520E5
:104EB000287499F81A00182811D099F81A0099F84E
:104EC0001910401C884200D1FFDF99F81A0009F838
:104ED000004099F81A0018287FF48EAE8AE699F8F7
:104EE00019000028F1D1EFE793F812A00122BAF1DE
:104EF0000D0FCDD103E0002A08BFBA4630D03E46A0
:104F00000F4806EB860200EB8208062188F8101095
:104F100099F81A00182836D099F81A0099F819103B
:104F2000401C884200D1FFDF99F81A0009F80060A0
:104F300099F81A0018280CBF002099F81A0007E009
:104F4000C8050020C40600207C000020FFFF3F00B1
:104F500018BF401C89F81A0098F81260B245CFD1EA
:104F60000220FE4E287406F1FC0090F82910B94288
:104F70000ED185F812A080F82940012180F82A106E
:104F80000120BDE8F09F99F819000028CCD1CAE7AC
:104F90000D2F0BD0BBF10D0F08BFFFDF0BEB8B000C
:104FA00006EB8000847485F812A0E9E7BBF10D0FD1
:104FB00008BFFFDF0BEB8B0006EB800084740D2035
:104FC000A874DDE730B50D46E54A44190021101AF2
:104FD00071EB010038BFFFDFE2488542C8BFFFDF49
:104FE000E1488542B8BFFFDFE0488442A8BFE048FF
:104FF00004DA002CAABF2046DC4830BD201830BDA2
:10500000401E70B5C0B200EB8001D44800EB8104B3
:10501000607B062810D2DFE800F0030D0B090705BE
:10502000002033E0B4200BE0732009E0322007E0D9
:105030000A2005E0062003E0FFDF617B002029B3A2
:10504000022108446168084420F07F4001F01DFA05
:1050500094F90C50C24A44190021101A71EB010056
:1050600038BFFFDFBF488542C8BFFFDFBE4885426B
:10507000B8BFFFDFBD488442A8BFBD4804DA002C9A
:10508000AABF2046B94870BD201870BD0421D8E7DA
:105090002DE9F04F0646B74885B00068C005C00D41
:1050A00011D0103840B20028B8BF00F00F0000F156
:1050B000E020B4BF90F8140D90F80004400908BF38
:1050C0004FF0010B01D04FF0000B3078002817BFD4
:1050D00001283079002005B018BFBDE8F08F062800
:1050E00010D2DFE800F0030D0B090705002015E0E2
:1050F000B4200BE0732009E0322007E00A2005E02D
:10510000062003E0FFDF3179002039B15FF00201B2
:1051100000EB010ABBF1000F06D101E00421F7E723
:105120009549002081F827006C4602AA2146B06804
:1051300001F0B8F99DF90820F068211D1044012202
:10514000C01C1F28B8BF019208DB03AA01F0AAF90E
:105150009DF80C0010B10198401C0190DDE9001091
:105160000844401D20F07F400190A1EB0A0020F090
:105170007F40009070798DF80A000098039001F04C
:10518000F2F8009A019B121A181A7C4922F07F4209
:1051900020F07F40B2F5800F10D281420ED37648C6
:1051A00090F82950009CA846191B21F07F496FF008
:1051B0007F41091BA0F1FC07049108E0002080E07A
:1051C0006D48A846957C90F8270000286DD10D2DDC
:1051D0001DD005EB850007EB80026FF07F43506820
:1051E000011BB1F5800F10D3A4EB000CBCF5800FB0
:1051F0000BD38B4203D204990844411C05E063455C
:105200001DD2181A2044401C41420029D8DB4545D4
:1052100027D008EB880007EB80026FF07F4390688F
:10522000011BB1F5800F14D3A4EB000CBCF5800F6B
:105230000FD38B4205D204990144491C09E0FFDFDA
:10524000E5E7634528BFFFDF0BD21B1A1919491C7C
:105250004942002905DD9DF80A10927B914228BF42
:1052600004460D2D1CBF9DF80A10434A14D000BF00
:1052700005EB850007EB800043681B1B23F07F4391
:105280004B4509D2837B994228BF8468857C92F87C
:10529000270050B90D2DEBD10098A04205D004EBAA
:1052A000090020F07F40009401900099039881420A
:1052B00006D001EB0A0020F07F4001F0E6F8B06074
:1052C00001202D4991F82710002904BF05B0BDE841
:1052D000F08FBBF1000F3FF423AF05B0BDE8F08FB6
:1052E0002DE9F04F814687B00C462548FDF722FF97
:1052F000244901274FF0000801EB090600287DD062
:10530000A1F5927898F81400002818BFFFDF2078E4
:10531000012800F0238200BF88F81090207802282E
:1053200008BFFFDF184D207905F10C022872607963
:1053300068722946A06801F0B5F895F90C000F28AD
:1053400004DD1F3828732868401C286095F90C007C
:10535000E1682E1D0844C01C1F2817E0C805002066
:10536000FF7F841E0020A10700E05EF80080841EFD
:1053700000807BE104ED00E0C4060020FFFF3F0059
:10538000F0060020B806002094050020B8BF376062
:1053900009DB6A46314601F085F89DF8000010B13E
:1053A0003068401C30602078A87288F81470F64C81
:1053B00094F8F50194F8F411884204BF07B0BDE8F1
:1053C000F08FF24890F829500D2D00F0CF8100F0B9
:1053D000CAFFEF4905EB850201EB82010A7C042A32
:1053E00019BF0A7C032A07B0BDE8F08FE94B4A6871
:1053F0008968121A22F07F42081A00E01BE020F0B0
:105400007F40062A3CBF07B0BDE8F08FB2F5800FA1
:1054100024BF07B0BDE8F08F83423CBF07B0BDE8B2
:10542000F08F94F8F50194F8F411884240F0A781C8
:1054300007B0BDE8F08FD44D95F8F501182855D088
:1054400095F8F50195F8F411401C884200D1FFDF72
:10545000207801284FD0CC4890F8F51101EB81015C
:1054600000EB810080F81090207802284BD0C648CD
:1054700090F8F51101EB810100EB8105207928728C
:105480006079687205F10C022946A06801F00AF8FB
:1054900095F90C000F2804DD1F3828732868401C7C
:1054A000286095F90C00E1682E1D0844C01C1F28D7
:1054B000B8BF376009DB6A46314600F0F3FF9DF85C
:1054C000000010B13068401C30602078A872AE48EF
:1054D00090F8F51118290EBF002190F8F511491C1C
:1054E00080F8F511AC48FDF73BFE60E795F8F40154
:1054F0000028ADD1ABE716F8010C002818BFFFDF7C
:1055000006F8017CA7E7A5480068C005C00D0FD0CC
:10551000103840B20028B8BF00F00F0000F1E020C2
:10552000ACBF90F8000490F8140D400908BFFFDFED
:10553000954890F8F51101AA01EB810100EB810675
:10554000E068CDF800808DF80480694600F0AAFF7D
:105550009DF904000F28CCBF012000200099351DC3
:10556000084401900220B072207930726079707224
:10557000A068C01C1F28B8BF2F6009DB6A462946F7
:1055800000F090FF9DF8000010B12868401C2860D2
:10559000307A062810D2DFE800F0030D0B0907056A
:1055A00000200BE0B42009E0732007E0322005E082
:1055B0000A2003E0062001E0FFDF00202179002916
:1055C0000CBF04210221084402907168401D084468
:1055D0000199009001440298081A05906B4C002034
:1055E00084F8270000F0BFFE8046306001984044F8
:1055F00020F07F40F06094F829000D287ED02046EE
:1056000090F8291001EB8102A0F1FC0101EB82026C
:105610005768009A3A4422F07F42039296F809B004
:1056200090F829503C46121B22F07F4A6FF07F42CF
:10563000D21BA946049206E05448A9469D7C90F8E6
:10564000270000286ED10D2D1ED0514805EB850195
:1056500000EB81036FF07F425868011BB1F5800FAA
:1056600024BFA4EB000CBCF5800F0BD38A4203D2FD
:1056700004990844411C05E062451FD2111A08191B
:10568000401C41420029D7DB4D4527D0404809EB5B
:10569000890100EB81026FF07F439068011B814616
:1056A000B1F5800F24BFA4EB000CBCF5800F0FD325
:1056B0008B4205D204990844411C09E0FFDFE3E76F
:1056C000634528BFFFDF09D2191A0819401C41425F
:1056D000002903DD907B834528BF4C460D2D1CBF60
:1056E0002A4BA3F1FC0015D005EB850100EB8101ED
:1056F0004A68121B22F07F42524500E026E009D2A0
:105700008A7B934528BF8C688D7C93F8271049B914
:105710000D2DE9D1A74205D004EB0A0020F07F400F
:1057200027460390039AA7EB080121F07F41A2EBE3
:105730000802059822F07F42B1F5800F06D2904210
:1057400004D30298384420F07F4030600F4890F82E
:10575000270000287FF442AFB9E600BF16F8010C1D
:10576000002818BFFFDF06F8017CD5E594F8F501A5
:1057700094F8F411884204BF07B0BDE8F08F07B079
:10578000BDE8F04F00F05CBE9C030020C406002082
:10579000C8050020FFFF3F00F006002004ED00E0F8
:1057A000002000F02BBD012000F028BDFD4800784E
:1057B00070472DE9F041054602282DD0FA4C94F8A7
:1057C00029000D2808BFFFDF002784F82670012676
:1057D00084F82B6094F829100320DFF8D08301EBC4
:1057E000810108EB8101087400F031FED5B1012D73
:1057F00039D0032D1CBFFFDFBDE8F08194F82900EC
:1058000094F82910401CC0B201EB810158F8212006
:10581000BDE8F04105211047E2480078BDE8F041BD
:10582000FEF7A8BB207F002818BFFFDF84F82560A3
:105830000020276000F0F2FCA168B1F1FF3F04D026
:1058400001230022184600F02DFD94F8290094F859
:105850002910401CC0B201EB810158F82120BDE89D
:10586000F04101211047012000F0D8FC94F82500F8
:1058700000281CBFA068B0F1FF3F0DD094F82900AC
:1058800094F82910401CC0B201EB810158F8212086
:10589000BDE8F04106211047207F012815D00228DD
:1058A0001FD0032833D004281CBFFFDFBDE8F081E0
:1058B00094F8201060680123411A0022184600F075
:1058C000F1FC94F82800B8BB37E094F8240028B124
:1058D00084F8247000F0C2FD84F823602777BDE8C7
:1058E000F08194F8280018B9FCF78CFD84F8286042
:1058F00094F8290094F82910401CC0B201EB8101F2
:1059000058F82120002190472777BDE8F081217BBE
:1059100060680123411A0022184600F0C3FC94F885
:10592000240028B184F8247000F098FD84F82360E6
:1059300002202077BDE8F08103E0FCF763FD84F8E6
:10594000286094F8290094F82910401CC0B201EB9B
:10595000810158F82120002190472677BDE8F08189
:1059600010B5914C94F829000D2808BFFFDF94F87A
:10597000290094F82910401CC0B28C4A01EB810127
:1059800052F82120BDE81040042110472DE9F05FB6
:1059900000F0E9FC844C81464FF00D0B94F829008F
:1059A0000026A4F1FC084FF0010A0D282CD094F831
:1059B0002910204601EB810108EB8101097C0429B3
:1059C00022D090F8291001EB810108EB8101097CBC
:1059D000032908BFBDE8F09F754922696069A2EB01
:1059E000090222F07F42A0EB090020F07F40062A46
:1059F00038BFBDE8F09FB2F5800F28BFBDE8F09F2B
:105A0000814238BFBDE8F09FA068B0F1FF3F18BFEA
:105A1000FFDF84F8256094F82900664F0D2806D131
:105A200094F8210018B1F8787870B87838705E482A
:105A300090F829000D281ED05B4890F8291001EB42
:105A4000810108EB8101097C042914D190F829B067
:105A500090F8291001EB810108EB810181F810A079
:105A600090F8291001EB810108EB8101897C80F815
:105A7000291080F82AA0504C94F8F50194F8F411FC
:105A800004F21B3588424ED094F8F40100EB8000FC
:105A900004EB8000007C405D012894F8F40100EBE9
:105AA000800004EB800004D0007C405D022878D0A8
:105AB00018E0807A01280DD094F8F411022001EB4F
:105AC000810104EB8101097C485594F8F401182800
:105AD00020D01BE094F8F40100EB800004EB800080
:105AE000007C465594F8F40100EB800004EB800242
:105AF00094F8F40100EB800004EB8000017C484640
:105B0000FEF7B7FF94F8F401182803D094F8F401D5
:105B1000401C00E0002084F8F40194F8F50194F8AA
:105B2000F4118842B0D1254C207D70B1207C415DBC
:105B3000012966D0405D02286BD0207D28B1217CF0
:105B40001E4A4846FEF795FF2675BBF10D0F06D09D
:105B50000BEB8B0008EB8000017C012961D0124C1B
:105B600094F829000D2800F0388194F82A000028C4
:105B700000F0428184F82A6094F8290000EB80004C
:105B800008EB8003A4F54A70D3E90112DB68C0F882
:105B90004033C0E9CE12607E00280CBF04250225E8
:105BA0000EE01CE07A000020C4060020C80500209A
:105BB000FFFF3F007C0000209C0300209405002094
:105BC00094F82900C34600EB800108EB8100407B7C
:105BD00006284DD2DFE800F0404A4846444294F897
:105BE000F40100EB800004EB8000807A012818BFEC
:105BF000FFDF94F8F40100EB800004EB8000867274
:105C000068E7A17A01291DBF022141552675465535
:105C100093E7A07A012818BFFFDFA672207C4655C3
:105C20008BE707210174FE4CA07E182810D0A07EBF
:105C3000617E401C884200D1FFDFA07E04F800B0E6
:105C4000A07E18280EBF0020A07E401CA07686E70C
:105C5000607E0028F1D1EFE700200BE0B42009E0DE
:105C6000732007E0322005E00A2003E0062001E06F
:105C7000FFDF00202073617E022918BF012911D1A6
:105C800021690144A1EB090222F07F42382A09D997
:105C900003206076A1F1320020F07F4020613220A5
:105CA000207309E0322807D294F8280058B9FCF78D
:105CB000A9FB84F828A006E094F8280018B1FCF7A6
:105CC000CAFB84F82860797884F820103878062296
:105CD000012818BF032806D184F824A0207B814224
:105CE00084BF081A821D94F82230002B18BF921C22
:105CF00094F82400002808BF002B6AD0D4F8108044
:105D00006069A8EB0908DFF81CC328F07F48A0EB06
:105D1000090020F07F40424598BFB8F5800F41D27E
:105D200084453FD3207B884215D22369A1EB000232
:105D3000A3EB020222F07F421144294421F07F416B
:105D40002261616000280CBF01200320207710F041
:105D5000FF0F36D114E00AD92269002910442844E3
:105D600020F07F4060600CBF02200420EEE7002B93
:105D700008BFFFDF2069284420F07F40606026775D
:105D8000012000F04BFA00BF94F82900012300EB3A
:105D900080010BEB8100616890F90C20002000F07D
:105DA00081FA29E084F8246084F82260207B0028AE
:105DB000E0D021690844284420F07F406060022040
:105DC00020772069012341190022184600F06AFA61
:105DD000DAE7207B0028ECD1CCE7012000F01EFAA6
:105DE000002000F01BFA00F0FFF994F8280018B129
:105DF000FCF731FB84F8286094F8220028B100F009
:105E00002DFB84F8236084F8226094F8210018B1F7
:105E1000F8787870B878387094F8240030B184F845
:105E200023603878002808BF84F824607C48817E8D
:105E3000407E814203D07C484078FEF79BF884F88E
:105E400027A0BDE8F09F70B5784C054682B094F865
:105E500029000D2808BFFFDF94F8290000EB80001F
:105E6000734E06EB8000007C032818BFFFDFA0689C
:105E7000B0F1FF3F18BFFFDF94F82900002100EBCD
:105E8000800006EB800001AA90F90C0000918DF8CB
:105E900004102844694600F005FB9DF904000F2812
:105EA000CCBF01200020009908446168084420F01C
:105EB0007F41A16094F82500002804BF02B070BDA6
:105EC000012302B00022BDE87040184600F0EAB994
:105ED000584A0B1A02F1010CB3EB9C0F3CBF184659
:105EE000704710B5441AB4EB9C0F3CBF184610BD68
:105EF0009A4203D2101A0844401C10BD94429EBF1F
:105F0000FFDF002010BD511A0844401C404210BD64
:105F1000012300220146022000F0C4B9022000F053
:105F20007DB900F020BAF0B5404C054683B094F836
:105F30002B00002808BFFFDF642D50D33E4900200E
:105F4000491B80414BD33D4890F8F51190F8F4017E
:105F5000814244D13A48007D002840D194F829007C
:105F6000334F00EB800007EB8006206801AA28442D
:105F7000694600F097FA9DF90400002802DD0098B8
:105F8000401C0090B268009973685018C01A20F045
:105F90007F40B0F5800F22D2B07C0D2809D000EBF5
:105FA000800007EB80004068801A20F07F40884224
:105FB00015D3A068B0F1FF3F05D0012000F02EF905
:105FC0004FF0FF30A060206828442060B06800993E
:105FD000084420F07F40606103B00120F0BD03B0B1
:105FE0000020F0BD2DE9F0410646401EC5B2104824
:105FF00005EB850100EB8104207C002808BFFFDF52
:106000000E4A92F8F41192F8F501814221D000BFB6
:1060100001EB810302EB83031B7CB34220D011E030
:10602000AC050020FFFF3F007A000020C4060020DE
:10603000C8050020FF7F841EFF1FA1079C030020CE
:106040009405002018290CBF0021491CC9B28142C7
:10605000DED13A48017D002962D0007CB0425FD198
:106060000020BDE8F081217C05291FBF217C062985
:10607000217C07292CD12774427E0023817E914206
:1060800018BF014624D000BF11F80280A84508BF00
:10609000012300D04BB1182A0CBF4FF0000802F1C9
:1060A000010811F8088001F80280182A0CBF0022AC
:1060B000521CD2B291F81A809045E5D143B18A7E44
:1060C000002A08BF81F81AC002D08A7E521E8A7642
:1060D000617C21B36674427E0021837E934224D08A
:1060E000835CAB4208BF012100D029B1182A0CBF44
:1060F0000023531CC35C8354182A0CBF0022521C7B
:10610000D2B2837E9342EBD149B1827E0146002A0E
:1061100008BF81F81AC008D08A7E521E8A7604E031
:106120000127074800264FF0180C217C012904BFE5
:10613000617C002997D10120BDE8F0819405002001
:10614000AC05002030B44FF0E02001234FF4006C88
:106150000021C0F880C11D02C0F880511C06C0F8A3
:106160008041E54A82F80014D21E82F80014E34A06
