:020000040000FA
:1000000000040020E508000079050000C508000094
:10001000830500008D05000097050000000000002A
:1000200000000000000000000000000009090000BE
:10003000A105000000000000AB050000B5050000B0
:10004000BF050000C9050000D3050000DD05000064
:10005000E7050000F1050000FB05000005060000B3
:100060000F06000019060000230600002D06000000
:1000700037060000410600004B0600005506000050
:100080005F06000069060000730600007D060000A0
:1000900087060000910600009B060000A5060000F0
:1000A000AF060000B9060000C3060000CD06000040
:1000B000D7060000E1060000EB060000F506000090
:1000C000FF06000009070000130700001D070000DD
:1000D00027070000310700003B070000450700002C
:1000E0004F07000059070000630700006D0700007C
:1000F00077070000810700008B07000095070000CC
:100100009F0700001FB500F003F88DE80F001FBD2A
:1001100000F0DEBB1FB56FF00100009040100390AF
:10012000029001904FF010208069000B420900F00E
:100130001F045DF822300120A04083434DF8223097
:10014000684600F044F91FBDF0B54FF6FF734FF459
:10015000B4751A466E1E11E0A94201D3344600E080
:100160000C46091B30F8027B641E3B441A44F9D14B
:100170009CB204EB134394B204EB12420029EBD17E
:1001800098B200EB134002EB124140EA0140F0BD8F
:10019000DD4992B00446D1E90001CDE91001FF220A
:1001A0004021684600F03AFB94E80F008DE80F000C
:1001B000684610A902E004C841F8042D8842FAD12B
:1001C00010216846FFF7C0FF1090AA208DF8440068
:1001D000FFF7A0FF00F0F2F84FF01024A069102202
:1001E0006946803000F001F9A069082210A900F0EA
:1001F000FCF800F0D7F84FF080510A6949690068AF
:100200004A43824201D8102070470020704710B541
:10021000D0E900214FF0805002EB8103026944696C
:100220006243934209D84FF01022536903EB8103D4
:100230000169406941438B4201D9092010BD5069D1
:10024000401C01D0002010BD0F2010BD70B501680A
:100250000446AE4D4FF01020062951D2DFE801F0E0
:10026000320318283B1DD4E90265646829463046EC
:1002700000F0CDF82A462146304600F0B6F8AA0034
:100280002146304600F09EFA002800D0032070BDC1
:1002900000F050FB4FF4805007E0201DFFF7ABFF4C
:1002A0000028F4D100F046FB60682860002070BD93
:1002B000241D94E80700920000F084FA0028F6D08C
:1002C0000E2070BD8069401C12D0201DFFF79FFFDB
:1002D0000028F6D109E08069401C09D0201DFFF7F5
:1002E0008AFF0028EDD1606820B12046FFF750FF5B
:1002F000042070BDFFF70EFF00F060F800F052F828
:10030000072070BD10B50C46182802D001200860E7
:1003100010BD2068FFF79AFF206010BD4FF0102439
:10032000A069401C05D0A569A66980353079AA2846
:1003300008D06069401C2DD060690068401C29D03D
:1003400060692CE010212846FFF7FEFE31688142EB
:100350001CD1A16901F18002C03105E030B108CAA9
:1003600051F8040D984201D1012000E000208A429A
:10037000F4D158B1286810B1042803D0FEE728460C
:1003800000F057F861496868086008E000F016F866
:1003900000F008F84FF480500168491C01D000F0CB
:1003A000A3FAFEE7BFF34F8F59480168594A01F499
:1003B000E06111430160BFF34F8FFEE74FF0102063
:1003C0008169491C02D0806900F0ADB87047524A7B
:1003D00001681160121D416811604F4A8168103236
:1003E0001160111DC068086070472DE9F041174683
:1003F0000D460646002406E03046296800F0A6F8BF
:10040000641C2D1D361DBC42F6D3BDE8F08170B5CD
:100410000C4605464FF4806608E0284600F083F855
:10042000B44205D3A4F5806405F58055002CF4D1C1
:1004300070BD4168044609B1012500E000254FF078
:1004400010267069A268920000F0BCF9C8B120467D
:1004500000F01AF89DB17669A56864684FF4002031
:1004600084420AD2854208D229463046FFF7CFFFA0
:100470002A4621463046FFF7B8FFFFF79FFFFFF7F8
:1004800091FFFFF747FEF8E72DE9FF414FF01024F9
:10049000616980680D0B01EB800000F6FF70010BB5
:1004A00000200090019002900246039068460123CC
:1004B0000BE0560902F01F0C50F8267003FA0CFCF2
:1004C00047EA0C0740F82670521CAA42F1D30AE012
:1004D0004A0901F01F0650F8225003FA06F6354388
:1004E00040F82250491C8029F2D3A169090B4A091E
:1004F00001F01F0150F822408B409C4340F82240FD
:10050000FFF765FFBDE8FF815809000000000020EB
:100510000CED00E00400FA050006004014480168F4
:100520000029FCD07047134A0221116010490B6862
:10053000002BFCD00F4B1B1D186008680028FCD056
:100540000020106008680028FCD07047094B10B5E7
:1005500001221A60064A1468002CFCD00160106861
:100560000028FCD00020186010680028FCD010BDC6
:1005700000E4014004E5014008208F49096809585A
:10058000084710208C4909680958084714208A49EF
:100590000968095808471820874909680958084711
:1005A0003020854909680958084738208249096878
:1005B000095808473C2080490968095808474020E5
:1005C0007D4909680958084744207B49096809584A
:1005D0000847482078490968095808474C20764957
:1005E000096809580847502073490968095808479D
:1005F0005420714909680958084758206E4909680C
:10060000095808475C206C49096809580847602068
:100610006949096809580847642067490968095801
:100620000847682064490968095808476C206249EE
:1006300009680958084770205F4909680958084740
:1006400074205D4909680958084778205A490968A3
:10065000095808477C2058490968095808478020EC
:1006600055490968095808478420534909680958B9
:100670000847882050490968095808478C204E4986
:1006800009680958084790204B49096809580847E4
:10069000942049490968095808479820464909683B
:1006A000095808479C204449096809580847A02070
:1006B0004149096809580847A4203F490968095871
:1006C0000847A8203C49096809580847AC203A491E
:1006D000096809580847B020374909680958084788
:1006E000B4203549096809580847B82032490968D3
:1006F00009580847BC203049096809580847C020F4
:100700002D49096809580847C4202B490968095828
:100710000847C8202849096809580847CC202649B5
:10072000096809580847D02023490968095808472B
:10073000D4202149096809580847D8201E4909686A
:1007400009580847DC201C49096809580847E02077
:100750001949096809580847E420174909680958E0
:100760000847E8201449096809580847EC2012494D
:10077000096809580847F0200F49096809580847CF
:10078000F4200D49096809580847F8200A49096802
:1007900009580847FC2008490968095808475FF4C8
:1007A0008070054909680958084700000348044952
:1007B000024A034B70470000000000206809000057
:1007C0006809000040EA010310B59B070FD1042A15
:1007D0000DD310C808C9121F9C42F8D020BA19BA0C
:1007E000884201D9012010BD4FF0FF3010BD1AB171
:1007F000D30703D0521C07E0002010BD10F8013BC6
:1008000011F8014B1B1B07D110F8013B11F8014BEC
:100810001B1B01D1921EF1D1184610BD02F0FF033F
:1008200043EA032242EA024200F005B870477047EB
:1008300070474FF000020429C0F0128010F0030C42
:1008400000F01B80CCF1040CBCF1020F18BF00F8C3
:10085000012BA8BF20F8022BA1EB0C0100F00DB872
:100860005FEAC17C24BF00F8012B00F8012B48BFD0
:1008700000F8012B70474FF0000200B51346944674
:100880009646203922BFA0E80C50A0E80C50B1F1E8
:100890002001BFF4F7AF090728BFA0E80C5048BFFC
:1008A0000CC05DF804EB890028BF40F8042B08BF9A
:1008B000704748BF20F8022B11F0804F18BF00F896
:1008C000012B7047014B1B68DB68184700000020B4
:1008D00009480A497047FFF7FBFFFFF713FC00BD0B
:1008E00020BFFDE7064B1847064A1060016881F3F8
:1008F0000888406800470000680900006809000097
:100900001D030000000000201EF0040F0CBFEFF3D9
:100910000881EFF30981886902380078182803D12B
:1009200000E00000074A1047074A12682C3212689C
:100930001047000000B5054B1B68054A9B589847B7
:1009400000BD000005030000000000205409000065
:1009500004000000001000000000000000FFFFFF86
:040960000090D00330
:10100000D011002035DB0100852F0000A3DA01009C
:10101000852F0000852F0000852F000000000000B4
:101020000000000000000000000000008DDB010057
:10103000852F000000000000852F0000852F000094
:10104000F5DB0100FBDB0100852F0000852F000090
:10105000852F0000852F0000852F0000852F0000C0
:1010600001DC0100852F0000852F000007DC010056
:10107000852F00000DDC010013DC010019DC0100EC
:10108000852F0000852F0000852F0000852F000090
:10109000852F0000852F0000852F0000852F000080
:1010A000852F00001FDC0100852F0000852F000028
:1010B000852F0000852F0000852F0000852F000060
:1010C00025DC0100852F0000852F0000852F000002
:1010D000852F0000852F0000852F0000852F000040
:1010E000852F0000852F0000852F0000852F000030
:1010F000852F0000852F0000852F0000852F000020
:10110000852F0000852F000000F002F81CF0FFFC86
:101110000AA090E8000C82448344AAF10107DA4552
:1011200001D11CF0F4FCAFF2090EBAE80F0013F085
:10113000010F18BFFB1A43F0010318475CD00100F0
:101140007CD001000A4410F8014B14F00F0508BFD1
:1011500010F8015B240908BF10F8014B6D1E05D083
:1011600010F8013B6D1E01F8013BF9D1641E03D05C
:10117000641E01F8015BFBD19142E4D3704700008B
:101180000023002400250026103A28BF78C1FBD890
:10119000520728BF30C148BF0B6070471FB500F031
:1011A0003DF88DE80F001FBD1EF0040F0CBFEFF3DC
:1011B0000880EFF30980014A104700003B9D0000C2
:1011C0008269034981614FF00100104470470000BB
:1011D000D511000001B41EB400B510F061FF01B4D8
:1011E0000198864601BC01B01EBD0000F0B4404627
:1011F000494652465B460FB402A0013001B506488D
:10120000004700BF01BC86460FBC80468946924617
:101210009B46F0BC70470000091100001CF074BC34
:1012200070B51A4C054608202070A01C00F05FF82D
:101230005920A08029462046BDE8704007F0EDBB4C
:1012400007F0F6BB70B50C461149097829B1A0F139
:101250006001512908D3012013E0602804D06928D7
:1012600002D043F201000CE020CC0A4E94E80E00BC
:1012700006EB8000A0F58050241FD0F8806E284631
:10128000B047206070BD01207047000008000020BA
:101290002400002070DC010010B50446002101206C
:1012A00000F03BF800210B2000F037F80421192052
:1012B00000F033F804210D2000F02FF804210E2057
:1012C00000F02BF804210F2000F027F80421C84378
:1012D00000F023F80721162000F01FF80721152041
:1012E00000F01BF82046FFF79BFF002010BD922165
:1012F00001807047FFF7A4BF10487047104A10B52F
:1013000014680F4B0F4A08331A60FFF79BFF0C4815
:10131000001D046010BD704770474907090E002882
:1013200006DA00F00F0000F1E02080F8141D70478D
:1013300000F1E02080F800147047000003F900423B
:10134000100502400100000130B5FF4D0446102891
:101350000AD0112C06D02846122CC17806D0132CA6
:1013600008D0FFDFEC7030BDFFDFFBE71129F9D0BB
:10137000FFDFF7E71129F5D0FFDFF3E770B50FF0D6
:1013800035FC044610F054FC201AC4B206200DF0BF
:10139000E1FD054606200DF0E5FD2E1A07200DF0B3
:1013A000D9FD054607200DF0DDFDE749281A321862
:1013B000C87812280DD000231A4413280BD000201F
:1013C00002440878022808D000201044201AC0B235
:1013D00070BD0123F0E70120F2E70120F5E7DA48CC
:1013E00000B58079D849420897B051F8070F89882D
:1013F0000CD017228DF80020CDF80200ADF80610B1
:101400000BA968460AF0CAFE17B000BD4022F1E7FA
:1014100002210DF0F5BD2DE9F04196B01D46904634
:101420000E460746FFF7F4FF04000BD02078222871
:1014300004D3A07FC0F34010A84206D1082016B004
:10144000BDE8F08143F20200F9E745208DF8000085
:10145000ADF802703DB101208DF804008DF80560F3
:101460008DF8068002E000208DF804000BA9684684
:101470000AF094FEA07F65F34510A0770020DEE718
:1014800030B50446A1F120000D460A284AD2DFE813
:1014900000F005070C1C2328353A3F44FFDF42E0EB
:1014A000207820283FD1FFDF3DE0A74801780329BD
:1014B00039D0C078132836D02078242833D0252876
:1014C00031D023282FD0FFDF2DE0207822282AD00A
:1014D000232828D8FFDF26E02078222823D0FFDF2A
:1014E00021E0207822281ED024281CD026281AD0BB
:1014F000272818D0292816D0FFDF14E020782528C7
:1015000011D0FFDF0FE0207825280CD0FFDF0AE0A4
:101510002078252807D0FFDF05E02078282802D092
:10152000FFDF00E0FFDF257030BD30B50B8840F6EF
:101530007B444FF6FF72022801D0934204D09D1FD6
:10154000A54224D2022802D04D88954203D04D886E
:10155000AD1FA5421BD24C88A34218D88B88B3F587
:10156000FA7F14D2022802D0C888904205D0C888D9
:1015700040F677450A38A84209D2C888904208D078
:10158000944206D05B1C6343B3EB800F01DB072062
:1015900030BD002030BD70B514460D46064610F033
:1015A000EDFF60B90DB1A54201D90C2070BD00243A
:1015B00009E000BF56F8240010F0E0FF08B1102049
:1015C00070BD641CE4B2AC42F4D3002070BDF0B531
:1015D0000024059D10B1A94203D850E009B90020AC
:1015E000F0BD0920F0BD055DD5B1071997F801C020
:1015F000BCF1150F2DD03BDCBCF1150F38D2DFE864
:101600000CF037122020262628282F2F373737377F
:101610003737373737372000025D22BB641CE4B20E
:101620008C42F9D3DBE7022DDBD1BD781D70072D8D
:1016300001D26D0701D40A20F0BD157845F00105EF
:1016400015E0EF43FF0707E0012D07D010E006206B
:10165000F0BD2F07A7F18057002FF5D03046F0BD21
:101660001578AF0701D50B20F0BD45F002051570C8
:10167000055D641C2C44E4B28C4202D9B1E74FF4FE
:1016800048568C42AFD3AAE710B50278540809D067
:10169000012243F20223012C07D0022C0DD0032C8F
:1016A00013D10FE00020087005E080790324B4EB2B
:1016B000901F0AD10A70002010BD8079B2EB901FF4
:1016C00003D1F7E780798009F4D0184610BD1E4A8F
:1016D000117C39B1517C022908D0032908D043F28A
:1016E000022070470146901D01F090BB032100E0ED
:1016F000012101700020704738B50C460546694647
:1017000001F084FB00280DD19DF80010207861F3D2
:101710004700207055F8010FC4F80100A888A4F80C
:101720000500002038BD38B51378E8B102281BD079
:1017300006A46D46246800944C7905EB9414247833
:1017400064F34703137003E0BC0100200302FF01B0
:1017500003280ED003F0FE0010700868C2F80100E4
:101760008888A2F8050038BD23F0FE031370022814
:10177000E9D1D8B240F00100EEE730B50C46097867
:1017800097B0222902D2082017B030BD28218DF849
:101790000010ADF80200132A03D03B2A01D0072025
:1017A000F2E78DF804200BA968460AF0F7FC050063
:1017B00003D121212046FFF763FE2846E4E700B568
:1017C00097B023218DF80010ADF802001088ADF815
:1017D00004005088ADF80600D088ADF80A00908863
:1017E000ADF808000020ADF80C00ADF80E000BA914
:1017F00068460AF0D3FC07E62DE9FF470220F84EC1
:101800008DF804000027B08AADF80600B84643F210
:1018100002094DE001A80DF05CFB050006D0B08A7E
:10182000A8B3A6F81480ADF806803FE0039CA07F23
:1018300001072DD504F125000090E28EBDF80800C7
:10184000214604F1380301F0E6FF050005D04D45BF
:101850002BD0112D3DD0FFDF3BE0A07F20F0080012
:10186000A077E07F810861F30000C10861F34100C7
:10187000E07794F8210000F01F0084F82000207821
:10188000282827D129212046FFF7FAFD22E015E07C
:1018900040070BD5BDF80800214604F10E02FFF702
:1018A0008EFF05000DD04D4510D100257F1CFFB2E5
:1018B00002200DF04FFB401CB842ABD8052D12D0D2
:1018C00008E0A07F20F00400A07703E0112D00D0F5
:1018D000FFDF0025BDF80600B082052D05D02846A3
:1018E00004B0BDE8F087A6F814800020F8E72DE9E1
:1018F000FE43040000D1FFDF2078002720F00F0016
:10190000801C20F0F000703020706068B44E0178C8
:10191000091F14290CD2DFE801F0FE0A0B48FD0B69
:101920000DFDFD35FE0B0BFE6AFE0B0BFEFEFFDF11
:10193000BDE8FE8385882846FFF76AFD040000D1D4
:10194000FFDF07F021F9F07C212140F00400F07462
:101950002046FFF795FD28460AF014FE284604F0BD
:101960009AF8284605F034FA2946022010F0C3FD03
:10197000A07F20F01000A077FFF73EFF0028D7D00F
:10198000FFDFD5E785882846FFF742FD00B9FFDF76
:1019900060688078012800D0FFDF6068817903B03B
:1019A0002846BDE8F0430AF051BF86883046FFF76D
:1019B0002FFD050000D1FFDF07F0E6F86068314633
:1019C000C088288160680089688160684089A88132
:1019D000022010F090FDAF75A87F00F003000228F0
:1019E000A6D1FFF709FF0028A2D0FFDFA0E780788B
:1019F0003C281BD0002502280ED08DF8007000B1C5
:101A0000FFDF07F0C1F8F07C40F00800F0748DB102
:101A1000B07801F0DFF901208DF800009DF800009A
:101A2000012879D0022878D0FFDF81E701258DF8E1
:101A30000070E6E76568B5F80490A879AD1C012848
:101A400006D03079804606F06CFE070003D101E035
:101A5000B078F7E7FFDF0022022148460DF0C7FA11
:101A6000040000D1FFDF22212046FFF709FD28797D
:101A7000012800D002208DF80000A17F6A4660F3A3
:101A80000101A177288B2081688B6081A88BA081C0
:101A900084F82280032148460DF0A9FA00B9FFDF3F
:101AA000B888ADF80800B8788DF80A0002AA0521B8
:101AB00048460DF09CFA00B9FFDFB888ADF8040085
:101AC000F8788DF8060001AA042148460DF08FFA37
:101AD00000B9FFDF062105F1120001F0CEF928B3AD
:101AE0006879800700D5FFDF6979E07D61F3470001
:101AF000E075D5F80600A0616889A083062105F18C
:101B00000C0001F0BAF9D8B1B0794108607861F3FE
:101B1000470003E03BE03FE021E02CE06070D6F8B6
:101B20000700C4F80200B6F80B0012E0E07D20F0D8
:101B3000FE00801CE075D5F81200A061E88ADCE7A1
:101B4000607820F0FE00801C6070E868C4F8020035
:101B5000288AE0802348007884F823005EE7307804
:101B6000032800D0FFDF0021084610F0C4FC01204C
:101B700001F0FFF8DCE6F078132800D0FFDF002149
:101B8000072010F0B8FC1120FFF7DEFBD0E620465E
:101B9000BDE8FE4302F000B9BDE8FE4306F0F4BF25
:101BA0002DE9F05F054600780C4600270109DFF8B3
:101BB00030A091463E46012975D0B8464FF6FF70D9
:101BC000022971D007290FD00A296ED0FFDF00BF8C
:101BD000A9F800600CB1278066800020BDE8F09F66
:101BE000BC0100200E000020D5F804C004F108025A
:101BF00004F1180B9CF8001011297DD008DC042991
:101C00007BD0072947D00A290BD00E2976D157E07F
:101C100012295ED0132972D0162947D01729F5D181
:101C2000E0E011270926002C7FD0BCF80480404654
:101C3000FFF7EEFB90F822B0A4F804806868807982
:101C400020729AF81310404621F004018AF813100C
:101C500004210DF0E7F9052140460DF0E3F90021DC
:101C600040460DF0DFF9012140460DF0DBF903217C
:101C700040460DF0D7F9022140460DF0D3F9062178
:101C800040460DF0CFF9072140460DF0CBF95846FC
:101C900001F0A0F89CE712271026BCF804002146AA
:101CA00001F0CCF894E7C9E0F4E0C1E01C27092674
:101CB00034B3BCF80200A08068680079207287E71E
:101CC0001B270926E4B10420207268684088A080A0
:101CD0007EE79CF802003C282AD0102718260CF139
:101CE000020C6CB1BCF80200A080BCF81800608245
:101CF000BCF81800208204E051E024E097E082E084
:101D000013E0BCF81A00A082BCF81C00E0829CF82A
:101D100005000CF10601FFF706FD9CF8040010B168
:101D20000120E0730AE00220FBE7A9F8006054E715
:101D30001B270926002CF8D084F808809AF8131085
:101D400021F00801BAE01D273726002CEDD0A08035
:101D50006968481D0B7901461846FFF7E4FC68687E
:101D600090F82B00A0756868C0780428E07D13D037
:101D700020F00100E07569681F22C97861F3420014
:101D8000E0756968C97A61F3C700E075696858460B
:101D90000C311BF0B9FD1BE740F00100EAE71D27FD
:101DA0003726002CC1D0A0806968481D0B790146F8
:101DB0001846FFF7B8FC696804F10F02C87A0C31C5
:101DC000FFF7B1FC6868807CA0756868C178E07D29
:101DD00061F3420020F0F900E0751F2158461BF026
:101DE00034FEF5E620271026002C9ED0A0806868DF
:101DF00004F10902407A20726968CB1C8878194680
:101E0000FFF791FCE4E603271026002C8DD0BCF8E8
:101E10000200A0806868808820816868C08860812E
:101E200068680089A08168684089E081D0E64A46F8
:101E300021462846BDE8F05F02F048B9287A01281B
:101E400003D0022814D0FFDFC2E61F271026002C83
:101E5000A8D06888A08068892081A8896081E889E5
:101E6000A081288AE0819AF8131021F0200125E052
:101E7000122710266888214600F0E0FF002C91D040
:101E8000687800F00700052885D19AF8131021F032
:101E9000020113E0297A062924D2DFE801F00412B6
:101EA00012030303C3E71B270926002C9DD0A08043
:101EB00084F808809AF8131021F001018AF81310B1
:101EC00086E61B270926002C8FD0A080287A0128BF
:101ED00006D0032020729AF8131021F01001EDE7CC
:101EE0000220F7E7FFDF73E630B5FF4D97B0E878E3
:101EF000132801D0082047E422208DF800000BA908
:101F000068460AF04BF9040002D1287900F062FF1C
:101F10000021072010F0EFFA204635E400B5F24822
:101F200097B0C078122801D0082064E41E208DF8F4
:101F3000000000208DF802008DF803000BA9684610
:101F40000AF02CF90028F0D10021072010F0D3FA74
:101F50001120FFF7F9F900204DE410B5E24C96B0DE
:101F60002078012813D01B208DF8000000208DF868
:101F700002000BA968460AF011F9002808D10021D7
:101F8000084610F0B8FA2078032803D005E00820AE
:101F900016B010BDA07800F01DFF012000F0E9FE92
:101FA0000020F5E72DE9F041CF4C002740B1022891
:101FB0001DD0072842D0082800D0FFDFBDE8F081FF
:101FC000FFF7CBFF0028F9D106F0DBFD0028F5D0A4
:101FD000017821F00F01891C21F0F00120310170FE
:101FE000077206F0D1FDE07C40F001001DE08EB2EA
:101FF0003046FFF70DFA050000D1FFDF28782128D1
:10200000DCD006F0BEFD90B1017821F00F01891CF3
:1020100021F0F00110310170022101724680AF758C
:1020200006F0B2FDE07C40F00200E074C6E729460D
:102030003046BDE8F0411322FFF79FBBE578122D33
:1020400003D0132D04D0FFDFB8E7FFF767FF01E0EF
:10205000FFF74AFF0028B1D106F093FD0028ADD06C
:10206000017821F00F01891C21F0F001203101706D
:10207000122D07D00221017206F086FDE07C40F0AF
:102080001000D2E70121F6E72DE9F04116460C00D9
:10209000074600D1FFDF307820F00F00801C20F0D1
:1020A000F000103030702078012803D0022817D0BB
:1020B000FFDF83E73846FFF7ABF9050000D1FFDF0C
:1020C0000220A87506F060FD2068B0606068F060CE
:1020D000208930828448C17C41F02001C1746DE7C1
:1020E0003846FFF795F9050000D1FFDF61884FF60C
:1020F000FF70814209D1A288824206D12946384622
:10210000BDE8F0411322FFF738BB814201D1A0881E
:1021100048B106F039FD2068B0606068F060208941
:102120003082002006E0782300223946022010F099
:1021300045F90120A87541E730B5054697B00C4632
:10214000084610F01BFA78BB00200121203D072D26
:102150006DD2DFE805F004254044505C66000021A4
:10216000082010F0A1F908B11120C4E624208DF850
:102170000000D4F80200CDF80200A0798DF8060026
:102180000BA968460AF00AF8050056D10823002278
:102190001146184610F012F908284ED0FFDF4CE027
:1021A000606810F02DFA08B11020A4E648208DF8E0
:1021B00000002088ADF802006088ADF804000BA98B
:1021C000684609F0EBFF050037D1606880B3BDF8C1
:1021D0003010018031E0206802F019FA09E049224C
:1021E0000AE000BF8DF802100CE000BF8DF802007D
:1021F00008E0054621E042228DF800202278D2072F
:10220000F4D0EFE70BA9684609F0C8FFF1E73820E2
:102210008DF800002088ADF802006088ADF8040059
:10222000F0E7207828B1A0F11B01E12902D30725AE
:1022300003E01B202D490025087028465BE630B5D9
:10224000054697B00C46084610F0BCF908B11020BE
:1022500051E6202D07D0212D25D0222D23D0232D4E
:1022600021D0072047E62088FFF7D2F820B1007878
:10227000222804D208203EE643F202003BE6252055
:102280008DF800002088ADF802000BA9684609F01F
:1022900085FF0028DCD1DDF83210C4F802109DF86B
:1022A0003610A17127E6062025E60F48801D7047ED
:1022B0000D49887470470C48807C00F0010070471D
:1022C00038B5162108481BF09EFB012000F051FD97
:1022D0001120FFF739F80549FB20034C0870E11D78
:1022E000684606F0AEFB03E0BC0100200E000020B3
:1022F0009DF80010A07961F3470020F00100A07163
:10230000002020744FF46170E08102206074FFF7B8
:1023100066F800B1FFDF00F07FFE01F0F8FC38BD89
:1023200010B50C46402120461BF06DFBA07F20F02D
:102330000300A077202020700020A07584F82400DE
:1023400010BD70477CB5054610F018F908B1102093
:102350007CBDFE4CA11DD4F806000090D4F80A0004
:1023600001902846FFF7C8F90028F1D1FFF737F8A8
:102370000028EDD00099C4F80610BDF80410618162
:102380009DF8061021737CBD10B5044610F01AF9B3
:1023900008B1102010BDED4922468879C91D4008BA
:1023A000FFF7C1F9002010BD2DE9F0479CB00D46A4
:1023B00004004FF0000812D00822FFF7ECF80028C4
:1023C0001CD1002609E000BF54F8260004A9FFF73D
:1023D0005BF9002812D1761CF6B2AE42F4D32F4638
:1023E0000A2006AD0DF1440A8DF818002646514624
:1023F000284609F0D3FE20B143F203201CB0BDE80B
:10240000F0874046DFF8448388F805002EB30024A7
:102410004FF00B091DE000BF56F8240005A9FFF797
:1024200033F900B1FFDF9DF81400A87056F82400BE
:1024300050F8011FC5F803108088A5F8070085F83B
:1024400000905146284609F0A9FE00B1FFDF641C48
:10245000E4B2BC42E0D388F805700020CEE72DE955
:10246000F0479EB01546894604001ED00F4608224C
:102470002946FFF790F8002811D1002613E000BF8D
:1024800054F8260005A9103000F0C0FC002806D141
:102490003FB157F8260010F071F810B110201EB0AF
:1024A000ADE7761CF6B2AE42EAD30026A5F10108EC
:1024B0001CE000BF06F1010A0AF0FF0712E000BFAE
:1024C00054F82600017C4A0854F827100B7CB2EB24
:1024D000530F05D10622113011311BF0E9F9C0B1BB
:1024E0007F1CFFB2AF42EBD30AF0FF064645E1DBAB
:1024F000C8462F46342007AD0DF148098DF81C0061
:1025000026464946284609F049FE28B143F20420F0
:10251000C5E743F20520C2E796B300242CE000BFD4
:1025200056F82400A91C103000F070FC00B1FFDF49
:1025300056F82400102250F8111FC5F803108088A7
:10254000A5F8070056F8241005F109001BF0DCF986
:10255000B8F1000F15D058F82410102205F1190019
:102560001BF0D2F9322028704946284609F016FEA1
:1025700000B1FFDF641CE4B2BC42D1D3012206E00B
:1025800004E005F1190002F036F8EBE700224946B5
:10259000284600F066FC002081E770B596B004463E
:1025A0000FF0ECFF18B9606810F033F810B110208C
:1025B00016B070BD60884AF2B811884205D82078FC
:1025C000624D6E4618B1012804D00720F0E7FEF7EF
:1025D00006FF1AE06078022804D0032802D043F2F4
:1025E0000220E5E7687417208DF80000697C002060
:1025F000CDF80200ADF80600022932D003292DD013
:10260000FFDF0BA9684609F0C9FD0028D0D160683A
:1026100001F0E4FF207870B101208DF80200F01C79
:1026200001F0E9FF4B208DF800000BA9684609F086
:10263000B5FD00B1FFDF6088A8B1E88180B2ADF8D8
:10264000020030208DF800000BA9684609F0A6FDB5
:1026500000B1FFDF207828740020A9E78DF807007B
:10266000CFE74020FAE74FF46170E6E710B5044683
:102670000FF0A8FF20B9606838B10FF0C1FF08B1B2
:10268000102010BD606801F0B6FF3048C18961803C
:10269000417C6170007C2070002010BD2DE9F0416C
:1026A0009CB0054600208DF864008DF860008DF820
:1026B00030008DF868001E461446884628460FF004
:1026C000A8FF18B920460FF0A4FF10B110201CB0CD
:1026D00074E455EA040018D01F270CAB19AA414630
:1026E00028460097FEF773FF0028F0D11AAB18AA0E
:1026F000314620460097FEF76AFF0028E7D19DF893
:102700006000C00703D00A20E1E70720DFE701AF40
:102710007DB11A208DF804008DF8068042462946C6
:10272000F81C1BF0F1F80DA901A809F037FD0028ED
:10273000CDD194B120208DF804008DF8066032468A
:102740002146F81C1BF0E0F80DA901E0BC010020B7
:1027500001A809F023FD0028B9D1FF499DF83000F8
:1027600048700020B3E72DE9F0479CB08A464FF04F
:102770000008FAA104468DF83480D1E90001CDE9C2
:10278000190120460FF0FAFE90B92078012803D1F4
:1027900060680FF0F3FE58B9EF4D4FF00109287C47
:1027A00040B1687C022805D160680FF032FF08B1A3
:1027B000102023E62878012801D008201EE60720F3
:1027C0000CF0D0FB18B9207848B1012807D0FEF7EB
:1027D000D5FD30B1E87C10F00C0F08D103E01220D9
:1027E0000CE613200AE6C10701D1800701D51120AC
:1027F00004E6608943F6E172A0F12001914221785C
:1028000007D301297ED100287CD1A189002979D163
:102810000FE0022901D0032901D1A02872D3012998
:1028200007D06978C90704D0A18900296AD0B429E2
:1028300068D8217831B1012908D0022904D00329B0
:1028400060D10AE0002609E0022607E008B9A08965
:1028500008B1042609E0012607E00326287C50B1D0
:10286000687C022807D1606828B10DA96068FEF76E
:102870000BFF00289DD1207A30B1012806D0022814
:1028800006D0032878D105E0002704E0012702E004
:10289000022700E003270EB1022E0ED16FB1687936
:1028A00080B36878800702D043F20120A6E5022EAB
:1028B00003D1022F60D0032F5ED0207808B1012809
:1028C00006D1504600F069FA002889D185F802A0A7
:1028D00018208DF838006089ADF83A006089ADF8AD
:1028E0003C008DF83E600DF13F00FEF7F0FE00B1B8
:1028F000FFDF9DF834008DF840002078012808D0D3
:10290000287C00E038E058B1687C022808D1606873
:1029100030B1606850F8011FCDF84110808802E0A6
:102920004046CDF84180ADF845008DF84870A07B59
:10293000C0F34002014662F35F01C0F3800041EA48
:10294000800019A9085C8DF84700A8B169460EA857
:1029500009F024FC0028A9D11B208DF838008DF83F
:102960003A9069460EA809F019FC00289ED19DF8FE
:1029700001001B281CD101E007203FE5052E0CD2E9
:10298000DFE806F0030308080300A87800F015FA52
:10299000032000E0022000F0ECF9012E0AD0A0890B
:1029A00040B100228300114610460FF007FD08B128
:1029B000032023E5002021E52DE9FC4107460D46D3
:1029C000032608460FF025FE002864D13846FEF79E
:1029D0001FFD040005D02078222805D20820BDE87C
:1029E000FC8143F20200FAE7A07F00F0030C2DB156
:1029F00029466046FEF799FD0600F0D15648BCF125
:102A0000010F05D0BCF1020F17D0FFDF3046E6E71B
:102A1000A27D2946012A02D0C07C800701D5112061
:102A2000DDE729B9684600F004FC0028D7D16946E3
:102A3000384609F0B9FE0646E8E7A17D022914D11F
:102A4000C07C800611D425B1A07F40070BD40021A3
:102A500000E00121384609F0D2FE0600D6D1A0756B
:102A6000002DD3D002E01126D0E7A5B12A46214699
:102A70003846FEF7A4FE06461128C7D1A07F4107BD
:102A8000C4D4296844F80E1F6968616040F00400EE
:102A900020740026BAE71020A1E770B50C46054661
:102AA000FEF7B6FC010005D022462846BDE870407E
:102AB000FEF763BE43F2020070BD00B597B03F2140
:102AC0008DF800108DF802000BA9684609F066FB2E
:102AD00017B000BD0123FEF79EBC00231A4619461D
:102AE000FEF799BC30B597B004460FF047FD10B122
:102AF000102017B030BD204600F076F90028F8D13C
:102B0000154DE878112801D00820F2E7FEF736FCD1
:102B100020B1E87CC00603D51120EAE71320E8E7DE
:102B20002078800701D56879F0B31D208DF800006A
:102B30002078022200F001008DF802006088ADF8D4
:102B40000400A088ADF806002078C0F3400102EA36
:102B50005000014306E00000BC0100200706050408
:102B6000030201008DF8091002A8FEF7B0FD00B1C4
:102B7000FFDF0BA9684609F011FB0028B9D11E2020
:102B80008DF8000001208DF8020000208DF8030070
:102B90000BA9684609F002FB0028AAD1E08800F0E2
:102BA0003FF90400A5D100E004E01220FEF7CCFBC1
:102BB00020469EE707209CE72DE9F041B64C0746EA
:102BC00096B0E078984616460D46122803D1FFF7D6
:102BD000A5F900280FD128460FF0D0FC50B928786D
:102BE000800703D438460FF0C9FC18B930460FF0FF
:102BF000C5FC18B1102016B0BDE8F081E07C10F0E3
:102C0000180F01D1400701D51120F4E7284600F044
:102C1000EBF80028EFD131460220FEF786FC0028B1
:102C2000E9D1E078112801D00820E4E706200CF073
:102C300099F950B12878800701D5607938B1FEF74D
:102C40009DFB022805D21320D5E71220D3E70720E9
:102C5000D1E7404600F0A1F80028CCD184F80480E8
:102C600021208DF800006888ADF80200A888ADF832
:102C700004002878C0F340008DF80600287880070B
:102C800016D43878420808D0012A18D043F202211D
:102C9000022A18D0032A18D115E0C00700D002205C
:102CA0008DF8070057F8010F0290B888ADF80C00B6
:102CB0000DF10E00FEF70BFD58B103209BE7C00796
:102CC00005D00320ECE7C00701D0084693E70120B8
:102CD000E6E73088ADF810007088ADF81200B088D3
:102CE000ADF81400F088ADF816000020ADF818001B
:102CF000ADF81A000BA9684609F050FA002884D1F3
:102D0000207900F05AF8E88800F08AF804008CD1A5
:102D10001320FEF719FB20466DE730B5054697B046
:102D20000C4608460FF04EFC08B11020E1E628469C
:102D3000FEF76EFB38B10178222902D3807F80062E
:102D400004D40820D5E643F20200D2E613208DF821
:102D50000000ADF802500BA9684609F01FFA0028E0
:102D6000E4D19DF932107F2901D02170C1E6052000
:102D7000BFE630B5484D040008D0012C04D0022C29
:102D800006D0032C04D0FFDF2C7030BDFFDFFBE743
:102D900028780128F8D0FFDFF6E710B5044605F0E3
:102DA000C0FC30B1407830B1204605F0A6FF0020CD
:102DB00010BD072010BD122010BD10B505F0B1FCEC
:102DC000040000D1FFDF607800B9FFDF6078401EAB
:102DD000607010BD10B505F0A4FC040000D1FFDF49
:102DE0006078401C607010BD418843F6FD730A1F77
:102DF0009A4209D28088042806D3B0F5804F03D8C0
:102E0000884201D800207047072070470278520896
:102E100004D0012A02D043F202207047FEF734BCEE
:102E200010B548B183000022114607200FF0C6FA02
:102E3000072801D0032010BD002010BD70B50C0084
:102E400006460DD0FEF7E4FA050000D1FFDFA680AC
:102E500028892081288960816889A081A889E081EA
:102E600070BD10B502F0010282703122027009F0CB
:102E700095F9002800D0FFDF10BD10B500231A46D9
:102E800003E0845C2343521CD2B28A42F9D30BB1D3
:102E9000002010BD012010BDBC0100204FF0E02239
:102EA0004FF400410020C2F88011204908702049E9
:102EB00090020860704730B51C4D04462878A04247
:102EC00018BF002C02D0002818BFFFDF2878A042CE
:102ED00008BF30BD2C701749154A0020ECB1164DC3
:102EE000DFF858C0131F012C0DD0022C1CBFFFDFD0
:102EF00030BD086003200860CCF800504FF400009B
:102F00001060186030BD086002200860CCF80050E6
:102F10004FF040701060186030BD086008604FF0DE
:102F20006070106030BD00B5FFDF00BD20000020E4
:102F300008F5014000F500400803002014F50040AA
:102F40000A4810B5046809490948083108600EF0BC
:102F50000EFC0648001D046010BD064900200860F4
:102F60004FF0E0210220C1F88002704710050240B6
:102F700001000001FC1F00400F4A12680D498A42FF
:102F80000CD118470C4A12680A4B9A4206D101B577
:102F90000FF078F806F0C7FEBDE801400749096860
:102FA0000958084706480749054A064B704700007C
:102FB00000000000BEBAFECAB000002004000020DD
:102FC000D0110020D011002070B50C46054607F046
:102FD00056FB21462846BDE8704008F040BC10B5BD
:102FE0000FF074FCFFF75AFF0FF044FBBDE81040F0
:102FF0000FF0F6BB704770477047704770477047D7
:1030000018FFFFFFDBE5B15100F001009200FFFF68
:103010008400000000000000FE48002101604160C3
:1030200070472DE9F743044692B091460120FFF71F
:103030003FF960680FF0E4FA58B160680FF0E9FA00
:1030400038B9607800F00300022802D10020FFF7B1
:103050002FF94D4648460FF091FA18B1102015B0DF
:10306000BDE8F08329460120FEF75FFA0028F6D17B
:1030700001258DF842504FF4C050ADF840000022B9
:1030800010A9284604F087F90028E8D18DF84250AD
:103090004FF42850ADF8400000261C2168460796E2
:1030A0001AF0D3FC9DF81C0007AF20F00F00401C65
:1030B00020F0F00010308DF81C0020788DF81D00F5
:1030C00061789DF81E000DF1400861F3420040F068
:1030D00001008DF81E009DF8000008AA40F00200D3
:1030E0008DF800002089ADF83000ADF832606089BD
:1030F000ADF834000B9760680E900AA9CDF82880CF
:10310000684603F03BFF0028A9D1C24CBDF820005F
:1031100008AA20808DF8425042F60120ADF8400008
:103120009DF81E000AA920F00600801C20F0010076
:103130008DF81E000220ADF83000ADF8340013A861
:103140000E90684603F01AFF002888D1BDF82000D1
:103150006080211D484600F032F9002887D18DF8A3
:10316000425042F6A620ADF840001C216846079662
:103170001AF06BFC9DF81C00ADF8345020F00F00E5
:10318000401C20F0F00010308DF81C009DF81D0050
:1031900008AA20F0FF008DF81D009DF81E000AA966
:1031A00020F0060040F00100801C8DF81E009DF804
:1031B00000008DF8445040F002008DF80000CDE989
:1031C0000A8711A80E90ADF83050684603F0D6FE7D
:1031D000002899D1BDF82000E08000203FE73EB5EF
:1031E00004460820ADF8000020460FF0C7F908B1EA
:1031F00010203EBD21460120FEF797F90028F8D1A6
:103200002088ADF804006088ADF80600A088ADF80D
:103210000800E088ADF80A007E4801AB6A46808865
:10322000002104F0B7FABDF800100829E1D003200E
:103230003EBD1FB50446002002900820ADF80800EE
:10324000CDF80CD020460FF099F910B1102004B041
:1032500010BD704802AA81884FF6FF7004F036FD59
:103260000028F4D1BDF80810082901D00320EEE7AA
:10327000BDF800102180BDF802106180BDF8041077
:10328000A180BDF80610E180E1E701B582B002201F
:10329000ADF800005F4802AB6A464088002104F0A8
:1032A00079FABDF80010022900D003200EBD1CB52C
:1032B000002100910221ADF8001001900FF082F979
:1032C00008B110201CBD53486A4641884FF6FF7074
:1032D00004F0FCFCBDF800100229F3D003201CBD53
:1032E000FEB514460E460746FEF7E5FF28B1304608
:1032F0000FF044F918B11020FEBD0F20FEBDF82CD0
:1033000001D90C20FEBD38460FF038F9414D18BBED
:10331000288801A903F037FB0028F3D138788DF80D
:103320000500288801A904F013FA0028EAD10090CA
:103330009DF800009DF8051040F002008DF8000097
:10334000090703D040F008008DF80000288869467E
:1033500004F09BF90028D5D1ADF808402888334601
:1033600002AA002104F016FABDF80810A142C9D043
:103370000320FEBD7CB50546002000900190088822
:10338000ADF800000C46284601950FF039F918B940
:1033900020460FF017F908B110207CBD15B1BDF81B
:1033A000000050B11B486A4601884FF6FF7004F0D8
:1033B0008DFCBDF8001021807CBD0C207CBD30B59B
:1033C00093B0044600200D460090142101A81AF085
:1033D0003CFB1C2108A81AF038FB9DF80000CDF832
:1033E00008D020F00F00401C20F0F00010308DF8C5
:1033F00000009DF8010020F0FF008DF801009DF80D
:10340000200040F002008DF8200001208DF84600D9
:1034100002E000001000002042F60420ADF8440055
:1034200011A801902088ADF83C006088ADF83E00FE
:10343000A088ADF84000E088ADF842009DF8020099
:1034400006AA20F00600801C20F001008DF8020082
:103450000820ADF80C00ADF810000FA8059001A9E8
:1034600008A803F08BFD002803D1BDF818002880C0
:10347000002013B030BD00002DE9F041884606461B
:103480000188408815460C181F46AC4200D3641BC7
:103490003844A84200D9FFDFE019A84200D9FFDF75
:1034A00070883844708008EB0400BDE8F08110B5E6
:1034B00004460FF063F808B1102010BD2078C0F367
:1034C0000210042807D86078072804D3A1781029AF
:1034D00001D8814201D2072010BDE078410706D40F
:1034E00021794A0703D4000701D4080701D5062033
:1034F00010BD002010BD10B513785C08C37F64F3C5
:103500000003C3771478A40864F34103C3771078E9
:10351000C309487863F34100487013781C090B789D
:1035200064F347130B701378DB0863F300004870F3
:103530005078487110BD10B5C4780B7864F300035F
:103540000B70C478640864F341030B70C478A4085A
:1035500064F382030B70C478E40864F3C3030B7054
:103560000379117863F30001117003795B0863F349
:103570004101117003799B0863F382011170007996
:10358000C00860F3C301117010BD70B514460D463C
:10359000064605F0F6FA80B10178142221F00F01F9
:1035A000891C21F0F001A03100F8081B21461AF017
:1035B000F0F9BDE8704005F0E7BA29463046BDE8AD
:1035C00070401322FEF7D9B870B514460E46054672
:1035D00005F0D7FA70B1017821F00F01891C21F0B4
:1035E000F00120310170458021688160BDE87040A4
:1035F00005F0CABA31462846BDE870401322FEF7EE
:10360000BCB810B5FE4C94F8300000280CD104F181
:1036100020014FF6FF72A1F110000DF0E4F800B1A7
:10362000FFDF012084F8300010BD2DE9F047064689
:1036300008A8894690E830041F4690461421284681
:103640001AF003FA0021CAF80010B8F1000F03D0F5
:10365000B9F1000F03D114E03878C00711D0206809
:103660000EF0B0FFF0BBB8F1000F07D120681230A8
:1036700028602068143068602068A8602168CAF853
:1036800000103878800728D560680EF0B9FF48BB75
:10369000B9F1000F2DD0FEF708FE0168C6F8C81179
:1036A0008188A6F8CC11807986F8CE01FFF7A9FFB2
:1036B000DFF84C8308F12008C5F80C80626862B11D
:1036C00096F8C80106F2C91140081032FEF72BF82F
:1036D0001022414660681AF017F93878400712D571
:1036E000A06800E002E00EF06DFF50B11020BDE8D0
:1036F000F08760680028F9D0E8606068C6F8C40107
:10370000EBE7A06828610020F1E730B505460878AE
:103710000C4620F00F00401C20F0F0011031217009
:103720000020607095F8240030B104280FD00528DF
:1037300011D0062814D0FFDF20780121B1EB101F33
:1037400004D295F8200000F01F00607030BD21F019
:10375000F000203002E021F0F00030302070EBE784
:1037600021F0F0004030F9E710B510B190F8BD40FD
:1037700044B1A34890F83540002064B1086010605F
:10378000186010BD00F1BC040C6000F1E40100F50C
:1037900086701160F4E79A4C34340C60EFE700B5A2
:1037A0008BB00723CDE902128DF8013001919449C5
:1037B000002364310591099301468DF81030684665
:1037C0000CF0E9FF002800D0FFDF0BB000BD70B5A2
:1037D00090B015460C4602220646ADF80820082196
:1037E00003AB08F0F2FD0490002812D00C208DF8F5
:1037F000010004208DF8040004F59A7409960594DC
:103800008DF818500AA968460CF0C5FF00B1FFDF1B
:10381000012010B070BD30B597B00C462C251A9918
:103820008DF80050ADF80200B3B1186801905868E7
:103830000290ADF80C2010220DF10E001AF064F881
:103840000BA9684608F0AAFC002803D1A17F41F02B
:103850001001A17717B030BD00200190E8E72DE9F5
:10386000F0470646008A8CB080B20D468246FDF7CE
:10387000CFFD0446624F3078283FDFF884814FF057
:103880000009122873D2DFE800F072EF35093677AD
:103890007E98A5F0EDECEBEAE95BE9E9A07F00F0AA
:1038A0000300012806D0002150460BF0A9FB0500BB
:1038B00003D101E00121F7E7FFDF98F85C1009066A
:1038C00002D5D8F860000BE0032105F121000EF0CD
:1038D00001FBD5F821004B49B0FBF1F201FB1200CE
:1038E000C5F821007068A867B068E86720782528C7
:1038F00000D0FFDFEAE0A07F00F00300012806D03F
:10390000002150460BF07CFB060003D101E00121B1
:10391000F7E7FFDF3078810702D52178252904D029
:1039200040F0010030700CB0E1E60220287096F8FB
:103930002000287106F121003136C5E90206F2E7C0
:10394000A07F00F00300012806D0002150460BF0B4
:1039500057FB040003D101E00121F7E7FFDF2078E6
:10396000C10605D51320287041346C60DBE7CCE13B
:1039700040F008002070D6E72148082128380EF0D2
:10398000A9FA032016E02A208DF8000010220DF17C
:103990000200716819F0B8FF10220DF11200B16831
:1039A00019F0B2FF164968462C3908F0F7FB00B150
:1039B000FFDF042028706F60B5E7E07FC00600D508
:1039C000FFDFB0680090B38806220821504608F057
:1039D0000BFEA8E704B9FFDF716821B1102204F1E2
:1039E000250019F091FF28212046FDF749FDA07F11
:1039F00000F00300022813D104F12500002303E0A6
:103A00000002002040420F0000901A462146504616
:103A1000FFF701FF112807D029212046FDF730FDCF
:103A2000307A84F820007EE7A07F000700D5FFDF12
:103A3000A07F40F00800A077A4F83690C4F8389032
:103A4000C4F83C90E17F084661F38200410861F3CD
:103A5000C300E077307A84F8210064E728E050E181
:103A60008CE082E05AE000E037E0A07F00F0030045
:103A7000012806D0002150460BF0C2FA040003D101
:103A800001E00121F7E7FFDF022104F189000EF0D8
:103A900021FA1020287004F5E4706860B4F88910E9
:103AA000298204F18000FE496861C5E902813AE794
:103AB000A07F00F00300012805D0002150460BF044
:103AC0009FFA18B901E00121F8E7FFDF0CB0324698
:103AD00021465046BDE8F04757E504B9FFDF20789E
:103AE0002128A0D93079012802D002280AD103E088
:103AF000E07F40F01000E07798F85C1041F00101A1
:103B000088F85C10324621465046FFF73EFD0CB067
:103B10002046BDE8F0472321FDF7B2BC3279AA80E8
:103B200005F108030821504608F04FFCE86008B191
:103B3000112021E0A07F00F00300012806D0002121
:103B400050460BF05DFA040003D101E00121F7E7D4
:103B5000FFDF04F1660102231022081FFFF78CFC2F
:103B600080F8009031794170DDE60821504608F078
:103B70000BFF00289BD112202870D4E6A07F00F014
:103B80000300012806D0002150460BF039FA050049
:103B900003D101E00121F7E7FFDF95F8880000F08D
:103BA0000300012878D1A07F00F00307E07FC0F375
:103BB000400616B1012F04D02BE095F8A400C007F1
:103BC0002AD0D5F8C01119B395F88720087C62F384
:103BD00087000874E27FD5F8C01162F341000874D1
:103BE000D5F8C01166F300000874AEB1D5F8C00175
:103BF000102204F125018C3519F086FE287E40F054
:103C000001002876287820F0010005F88C0900E0F2
:103C100016B1022F04D02CE095F88C00C00726D0F6
:103C2000D5F8BC1119B395F88720087C62F387009A
:103C30000874E27FD5F8BC1162F341000874D5F82E
:103C4000BC1166F3000008748EB1D5F8BC011022D7
:103C500004F125018C3519F057FE287840F0010059
:103C600005F8180B287820F0010005F8A409022FA8
:103C700043D0002000EB400005EBC00090F88C0022
:103C8000800709D595F88000D5F8C421400805F1D2
:103C900081011032FDF747FD05208DF8000095F8F1
:103CA00088006A4600F003008DF8010095F88C103A
:103CB0008DF8021095F8A4008DF8030021465046B7
:103CC000FFF782FC2078252805D0212807D0FFDFC8
:103CD0002078222803D922212046FDF7D1FBA07F9E
:103CE00000F0030001280AD0002150460BF09AF999
:103CF00000283FF424AEFFDF15E60120BAE70121DA
:103D0000F3E7716881F801900DE6FFDF0BE670B50F
:103D1000634C0025103C14F85C0F20F080002070EC
:103D200065600CF000FD5E49A1F1100004F0BBFEDF
:103D300004F82C5C0620607259487C3020615030B9
:103D4000A0611030E06170BD70B50D46FDF760FBFD
:103D5000040000D1FFDF4FF4E871284619F075FE2A
:103D60004F485430686104F125002861A07F00F0BD
:103D70000300012808D0022105F59A700CF0D4FC4C
:103D8000002800D0FFDF70BD0121F5E70A4601469B
:103D900002F59A700CF0E8BC70B5054640689CB01E
:103DA000017808290DD00B2903D00C2936D1012127
:103DB0008171686886883046FDF72AFB040033D19C
:103DC00031E046883046FDF723FB040000D1FFDFD9
:103DD0002078212822D0282822D1686802210C309E
:103DE00001F0C5F9E0B168680821001D01F0BFF9D4
:103DF000B0B12D208DF80000ADF80260102204F162
:103E0000250101A819F080FD0BA9684608F0C6F944
:103E100000B1FFDF29212046FDF732FB1CB070BD49
:103E200004F0B2FEFAE7FFDFA07F00F003010229F1
:103E300002D120F01000A077207821280AD06868ED
:103E4000817909B1807880B1A07F00F00300022859
:103E500059D0FFDFA07F00F003000228DED1FDF77C
:103E6000CBFC0028DAD0FFDFD8E704F08DFEE07F3E
:103E7000C10723D0800701D5062000E0052084F883
:103E80002400207829281BD02428E3D1314606209D
:103E90000EF031FB22212046FDF7F2FAA07F01E06F
:103EA0001002002000F0030001282AD00021304633
:103EB0000BF0B8F80028CDD0FFDFCBE70420DEE719
:103EC000A07F00F00300012806D0002130460BF04F
:103ED00097F8050003D101E00121F7E7FFDF252175
:103EE0002046FDF7CDFA0F208DF8580016A905F5EC
:103EF0009A700CF030FC0228ACD00028AAD0FFDF6A
:103F0000A8E70121D3E704F03FFEA3E72DE9F04342
:103F10008BB09946154688460646FDF779FA0400A7
:103F20004FD0207822284CD323284AD0E07FC006E7
:103F300047D4A07F00F00300012806D000213046BE
:103F40000BF05EF8070002D00CE00121F7E7A07F3C
:103F500000F00300012805D10121002230460BF0BA
:103F600046F8074601AB02AA03A93846FFF7FCFB57
:103F7000039800B9FFDF4FB1039807F59A7787617F
:103F80002078222806D0242804D007E003990020B6
:103F9000886103E025212046FDF772FA03980B2182
:103FA000417046628580C0E90289029901610199E8
:103FB000416104A90CF0EFFB022802D0002800D0D8
:103FC000FFDF0BB0BDE8F083F0B587B00746FDF723
:103FD0001FFA017822291CD9807F00F003000128F4
:103FE00006D0002138460BF00BF804003ED101E06A
:103FF0000121F7E7FFDF39E0B4F8621004F1660051
:1040000008440178427831B121463846FFF7DFFB9A
:10401000B8B907B0F0BDADF804200821384602ABAE
:1040200008F0D3F903900028F3D011208DF8000098
:10403000694604F59A700CF08EFB022801D000B19D
:10404000FFDF04F162052E88B01C80B228801028A2
:1040500001D3103828806888022800D2FFDFB61C00
:10406000102E00D9FFDF6888801E6880B4F86400D5
:104070000028C1D1CDE730B587B00546FDF7C8F9B6
:104080000446007822281FD90821284608F07CFC25
:10409000002819D1A07F00F00300012806D00021DC
:1040A00028460AF0ADFF040003D101E00121F7E743
:1040B000FFDF12208DF80000694604F59A700CF0BD
:1040C0004AFB002800D0FFDF07B030BD2DE9F05FCC
:1040D00005460C4600270078904601093E46BB463F
:1040E00004F1080A02297CD0072902D00A2909D143
:1040F00042E068680178082905D00B292CD00C29EA
:104100002AD0FFDFC6E114271C26002C6AD0408885
:10411000A080FDF77DF95FEA000900D1FFDF99F883
:1041200017005246400809F11801FDF7FCFA6868CB
:104130008089208268684168C4F812108068C4F8D9
:104140001600A07E20F0060040F00100A07699F84D
:104150001E0040F040014DE01A270A26002CD5D061
:104160008088A080FDF754F9050000D1FFDF51469B
:104170002846FFF7CAFA8DE10CB1288BA080287A77
:104180000E287CD006DC01287AD0022808D003282B
:1041900004D135E0102874D0112873D0FFDF79E105
:1041A0001E270926002CB1D0A088FDF731F95FEA5F
:1041B000000900D1FFDF287B00F003000128207AEE
:1041C0001BD020F001002072297B890861F3410097
:1041D0002072297BC90861F382002072297B0909BA
:1041E00001E04CE119E161F3C300207299F81E006F
:1041F00040F0800189F81E104CE140F00100E2E738
:1042000013270D26002CAAD0A088FDF701F98146BE
:10421000807F00F00300012806D00021A0880AF06A
:10422000EFFE050003D101E00121F7E7FFDF99F878
:104230001E0000F00302012A59D0E86F817801F0D6
:1042400003010129217A54D021F0010121728378E0
:104250009B0863F3410121728378DB0863F38201D9
:10426000217283781B0963F3C3012172037863F31E
:1042700006112172437863F3C711217203E060E0F5
:10428000A6E08EE09EE084F809B0C178A172012A10
:1042900032D04279E17A62F30001E1724279520848
:1042A00062F34101E1724279920862F38201E172A4
:1042B0004279D20862F3C301E1720279217B62F391
:1042C000000121730279520862F3410121730279DE
:1042D000920862F3820121730079C00860F3C30180
:1042E000217399F8000023285AD9262168E0A86F85
:1042F000A4E741F00101A9E70279E17A62F3000144
:10430000E1720279520862F34101E1720279920886
:1043100062F38201E1720279D20862F3C301E172B1
:104320004279217B62F3000121734279520862F3E2
:10433000410121734279920862F38201217340792D
:10434000CBE718271026002C67D0A088FDF760F86F
:104350008246807F00F00300012807D00021A0885A
:104360000AF04EFE5FEA000903D101E00121F6E701
:10437000FFDFE868A06099F8000040F0040189F8C8
:10438000001099F80100800708D5012020739AF8E1
:10439000000023287ED92721504663E084F80CB022
:1043A00078E015270F26C4B3A088FDF731F88146C1
:1043B00006225146E86807F059FF0120A073AEE0DD
:1043C00048464FE0162709263CB3287B207261E05F
:1043D000297BFE4802290CD019270E26ECB10129B1
:1043E0000DD003291AD004291BD0052919D0FFDFCD
:1043F00023E01B270926BCB30121217205E001211E
:104400002172617A21F00301617210F85C1F4A0881
:10441000520062F3060101700FE02BE002202072CF
:1044200007E0687B052900F00F0040F08000207253
:104430001BD0607A20F003006072A088FCF7E8FFD0
:1044400005460078212825D0232800D0FFDFA87F4B
:1044500000F00300012810D00021A0880AF0E2FD3E
:1044600022212846FDF70CF814E0607A20F00300C2
:10447000401CE1E7A8F8006011E00121EDE70CB174
:104480006888A080287A03282BD004280AD0052821
:104490004BD0FFDFA8F800600CB1278066800020B9
:1044A000BDE8F09F15270F26002CE3D0A088FCF76D
:1044B000AFFF807F00F00300012806D00021A08814
:1044C0000AF09EFD050003D101E00121F7E7FFDFBF
:1044D000D5F821000622514607F0C8FE84F80EB038
:1044E000D8E717270926002CC4D0A088FCF790FF36
:1044F0008146807F00F00300012806D00021A088BB
:104500000AF07EFD050003D101E00121F7E7FFDF9E
:104510006878800701D5022000E00120207299F818
:1045200000002328B6D927214AE719270E26002C98
:10453000A0D0A088FCF76CFF5FEA000900D1FFDF84
:10454000C4F808B0A4F80CB084F808B0A07A40F021
:104550000300A07299F81F1061F38200A07299F80D
:104560001F1001EA510161F3C300A072687A00F0E4
:10457000030001288ED1607A40F00400607299F83F
:104580001E00E97A00F00300012813D0607B61F37C
:1045900000006073AA7A217B62F300012173EA7A3A
:1045A000520862F341006073A87A400860F3410149
:1045B00021736FE7207B61F300002073AA7A617B8F
:1045C00062F300016173EA7A520862F341002073DA
:1045D000A87A400860F3410161735BE710B57B4C3A
:1045E00030B10146102204F1200019F08DF90120AC
:1045F00084F8300010BD10B50446FFF702F8734987
:1046000020461022BDE81040203119F07DB970B568
:104610006E4C06004FF0000514D00DF0AFFF08B14E
:1046200010250DE00621304607F007FE411C06D09C
:10463000206614F85C0F40F08000207000E0072531
:10464000284670BD14F85C0F20F08000F5E7007874
:1046500010F00F0204D0012A05D0022A0CD110E07C
:10466000000909D10AE00009012807D0022805D075
:10467000032803D0042801D00720704708700020C9
:1046800070470620704705282AD2DFE800F00307AC
:104690000F171F00087820F0FF001EE0087820F0B8
:1046A0000F00401C20F0F000103016E0087820F0D9
:1046B0000F00401C20F0F00020300EE0087820F0C1
:1046C0000F00401C20F0F000303006E0087820F0A9
:1046D0000F00401C20F0F0004030087000207047B0
:1046E000072070472DE9F041804688B00D4600272D
:1046F00008460DF08EFFA8B94046FCF789FE04007D
:1047000003D02078222815D104E043F2020008B03B
:10471000BDE8F08145B9A07F010603D500F0030094
:10472000022801D01020F2E7A07FC10601D40107C2
:1047300002D50DB10820EAE7244991F85C10C907B9
:1047400001D01120E3E7E17FC90601D50D20DEE7A6
:1047500000F00300022805D125B12846FEF7A7FE88
:104760000700D4D1A07F00F00300012806D000216B
:1047700040460AF045FC060002D00DE00121F7E7B3
:10478000A07F00F0030001280CD000210022404649
:104790000AF02DFC060007D0A07F00F003000228DD
:1047A00004D009E00121F1E70420B0E725B12A4651
:1047B00031462046FEF79FFE07AB1A466946304653
:1047C000FEF7D2FF009800B9FFDF01E000020020F1
:1047D00000990C20487006F59A70C1F82480486151
:1047E00000200881A07F00F00300012828D0EDB34D
:1047F00002200871301D8861307840090877707890
:10480000C0F340004877287800F00102887F62F307
:1048100001008877E27F62F382008877E27F5208A6
:1048200062F3C3008877727862F304108877A878FF
:10483000C87701F1210228462031FEF77CFE22E0F4
:1048400001200871287800F00102087E62F301005F
:1048500008762A78520862F3820008762A7892084D
:1048600062F3C30008762A78D20800E007E062F31A
:104870000410087624212046FCF702FE0BE00320FA
:1048800008710520087625212046FCF7F9FDA07F58
:1048900020F08000A07701A900980BF07CFF02288F
:1048A00001D000B1FFDF384631E72DE9FF4FF94A6B
:1048B0000D4699B09A4607CA14AB002783E8070053
:1048C0001998FCF7A5FD060006D03078262806D0FA
:1048D00008201DB0BDE8F08F43F20200F9E7B07F79
:1048E00000F00309B9F1010F03D0B9F1020F07D0AD
:1048F00008E03DB91B98FEF7DAFD0028E9D101E098
:104900001B9878BBB07F00F00300012806D000217F
:1049100019980AF075FB040003D101E00121F7E7C3
:10492000FFDF852D25D007DCD5B1812D1BD0822D51
:104930001BD0832D08D11AE0862D1CD0882D1CD0C9
:10494000892D1CD08A2D1CD00F2020710F281AD041
:1049500001208DF83400201D0E902079A8B158E177
:104960000020F2E70FE00120EFE70220EDE703204F
:10497000EBE70520E9E70620E7E70820E5E709205F
:10498000E3E70A20E1E70720A3E7B9F1010F17D019
:10499000D4E91E5080460220019001200090A878A2
:1049A00098F80210C0F3C000C1F3C00108405FEAEC
:1049B000000B5DD050460DF0E1FD00286CD12DE0DC
:1049C000D4E91E8501200190022000902146304646
:1049D0001B9AFEF790FD1B98007800F00101A87863
:1049E00061F30100A870F17F61F38200A870F17F8C
:1049F000490861F3C300A870617861F30410A870DE
:104A00002078400928706078C0F3400068701B98D7
:104A10008078E870002068712871C0E7DAF80C002F
:104A20000DF0ACFDC0BBDAF81C000DF0A7FD98BB83
:104A3000DAF80C00A060DAF81C00E06098F80100D9
:104A4000617800F0010041EA4000607098F80210BF
:104A5000C0B2C1F30011891E08406070002084F8C4
:104A60002000009906F1170002290BD001210AE06D
:104A700098F80110607801F00101FD2242EA41013D
:104A80000840E2E7002104EB810188610199701C74
:104A9000022902D0012101E028E0002104EB81017C
:104AA0008861A87800F00300012849D198F8020035
:104AB00000F00300012843D1B9F1010F04D12A1DF0
:104AC000691D1B98FEF737FD297998F8040001400D
:104AD0008DF82C10687998F8052010408DF830007A
:104AE00001432DD050460DF049FD08B11020F0E6ED
:104AF0000AF1100004F5DE7104F190020490B9F19E
:104B0000020F3CD00090CDE9012100210BAB5A46A9
:104B10002046FEF78AFD0028E9D104F5E07104F192
:104B2000A802B9F1010F30D004980090CDE901211D
:104B300000210CAB5A462046FEF777FD0028D6D15F
:104B40006078800740D4A87898F80210C0F38000FD
:104B5000C1F38001084337D0297898F8000014AADF
:104B6000B9F1010F17D032F810204B00DA4012F0E3
:104B7000030718D0012F1ED0022F12D11DE0CDF84F
:104B800000A0CDE901210121C0E7CDF800A0CDE9C9
:104B900001210121CDE732F811204300DA4002F073
:104BA0000307032F07D0BBF1000F0DD0012906D05A
:104BB000042904D008E00227F5E70127F3E70128DC
:104BC00001D0042800D10427F07F40F001006BF3EE
:104BD0004100F077607881074FF003000CD5A07199
:104BE000BBF1000F15D100BF8DF85C0017AA31464C
:104BF0001998FEF7E9FC0CE00221022F18D0012FD2
:104C000018D0042F22D00020A071F07F20F00100E6
:104C1000F07725213046FCF733FC0DA904F59A7096
:104C20000BF099FD10B1022800D0FFDF002050E604
:104C3000A171D9E7A1710D2104F1240018F005FF3D
:104C4000207840F0020020700420CDE70120A07100
:104C5000DFE72DE9F04387B0914688460446FCF72C
:104C6000D7FB070006D03878272806D0082007B0E1
:104C7000BDE8F08343F20200F9E7B87F00F00300DB
:104C8000012809D0002120460AF0BAF9040006D113
:104C900004E00000B4DD01000121F4E7FFDFA679A4
:104CA000012E08D0B8F1000F0FD048460DF066FC79
:104CB000B8B11020DBE7B9F1000F25D1B8F1000F32
:104CC00009D0B8F1010F1FD120E0022E05D0032E2C
:104CD00005D0FFDF28E00C2526E0012524E0022591
:104CE00022E0B8F1020F03D0B8F1010F0AD00BE0B7
:104CF000032E09D100251022494604F1210018F0A5
:104D000003FE11E0022E01D00720B0E7002510219C
:104D100004F1210018F077FE5FEA090004D00621B3
:104D200007F08BFAC4F821002078252140F002001A
:104D300020703846FCF7A4FB2078C10714D020F07F
:104D40000100207002208DF8000004F12100029083
:104D50008DF80450694604F59A700BF0FCFC0228AB
:104D600004D018B1FFDF01E084F8205000207EE776
:104D700030B587B00D460446FCF74AFB88B1807F0A
:104D800000F0030001280FD0002120460AF038F976
:104D900004000ED028460DF0F1FB38B1102007B00A
:104DA00030BD43F20200FAE70121EEE72078400728
:104DB00001D40820F3E7294604F1410020220546EA
:104DC00018F0A2FD207840F01000207001070FD5E8
:104DD00020F00800207013208DF80000694604F5CB
:104DE0009A7001950BF0B7FC022801D000B1FFDFEB
:104DF0000020D4E770B50D460646FCF709FB18B154
:104E0000017827291FD102E043F2020070BD807FA4
:104E100000F00300012806D0002130460AF0F0F827
:104E2000040003D101E00121F7E7FFDFA0790228A8
:104E300009D16078C00706D02A4621463046FEF7E1
:104E4000C6FC10B10FE0082070BDB4F864000E2855
:104E50000BD204F1660102231022081FFEF70CFB9F
:104E6000012101704570002070BD112070BD70B52A
:104E7000064686B014460D4608460DF07FFB18B96D
:104E800020460DF09FFB10B1102006B070BDA6F5B6
:104E90007F40FF380ED03046FCF7BAFA38B141787F
:104EA00022464B08811C1846FCF73DFC07E043F204
:104EB0000200EAE72046FDF767FA0028E5D1102155
:104EC000E01D0DF007F8E21D29466846FEF767FC75
:104ED000102204F11700019918F016FD0020D4E704
:104EE0002DE9F041044690B0154688460027084653
:104EF0000DF08FFB18B928460DF08BFB10B1102078
:104F000010B005E42046FCF783FA060003D03078A1
:104F1000272818D102E043F20200F1E7B07F00F049
:104F20000300012806D0002120460AF069F8040099
:104F300003D101E00121F7E7FFDF2078400702D528
:104F40006078800701D40820DAE7B07F00F0030022
:104F5000012818D0D4E91E01407800B1B5B14878D5
:104F600010B1B8F1000F11D0C5B1EA1D02A8E16877
:104F7000FEF715FC102205F11700039918F098FCB4
:104F800030B104270AE0D4E91E10E5E70720B7E7AF
:104F90001022E91D04F1310018F0B6FCB8F1000F41
:104FA00006D0102208F1070104F1210018F0ACFC32
:104FB0002078252140F0020020703046FCF760FA8E
:104FC0002078C10716D020F00100207002208DF853
:104FD000200004F121000A9010300B908DF824700D
:104FE00008A904F59A700BF0B6FB022804D018B19A
:104FF000FFDF01E084F82070002081E7F8B5154656
:105000000E460746FCF704FA040004D02078222854
:1050100004D00820F8BD43F20200F8BDA07F00F0E4
:105020000300022802D043F20400F8BD30460DF020
:10503000A5FA18B928460DF0A1FA08B11020F8BD5C
:1050400000953288B31C21463846FEF7E4FB112850
:1050500014D00028F3D1297C4A08E17F62F30001D3
:10506000E1772A7C62F34101E177297C890884F8A1
:105070002010A17F21F08001A177F8BDA17F090751
:10508000FBD4D6F80200A063D6F80600E0633088AF
:10509000E0861022294604F1250018F035FC287C12
:1050A0004108E07F61F38200E077297C61F3C3006F
:1050B000E077287C800884F82100A07F40F0080079
:1050C000A0770020D5E770B596B00D46064613B11F
:1050D000072016B070BDFCF79BF9040007D02078BC
:1050E000222802D3A07F400604D40820F1E743F22F
:1050F0000200EEE7C5B12D208DF80000ADF802608A
:105100001022294601A818F0FFFB287C4108E07F07
:1051100061F30000E077297C61F34100E077287CAF
:10512000800884F8200004E02E208DF80000ADF8FF
:1051300002600BA9684607F031F8A17F21F0400119
:10514000A177C6E770B50D46FCF762F9040005D0FB
:1051500028460DF037FA20B1102070BD43F202004E
:1051600070BD29462046FEF7D0FA002070BD04E04D
:1051700010F8012B0AB100207047491E89B2F7D2FE
:1051800001207047F0B5007B059F1E4614460D4672
:10519000012800D0FFDF0C2030803A203880002C1E
:1051A00008D0287A052806D0287B012800D0FFDF08
:1051B00017206081F0BDA889FBE72DE9F04786B094
:1051C000144691F80C900E9A0D46B9F1010F0BD0D0
:1051D0001021007B2E8A8846052807D0062833D068
:1051E000FFDF06B0BDE8F0870221F2E7E8890C2175
:1051F00000EB400001EB4000188033201080002CB1
:10520000EFD0E889608100271AE00096688808F1ED
:10521000020301AA696900F0EDFF06EB0800801C9B
:1052200007EB470186B204EB4102BDF80400908110
:105230000DF1060140460E320BF04EFB7F1CBFB253
:105240006089B842E1D8CCE734201080E889B9F110
:10525000010F11D0122148430E301880002CC0D00D
:10526000E88960814846B9F1010F00D0022020731F
:1052700000270DF1040A1FE00621ECE7009668887C
:1052800008F1020301AA696900F0B4FF06EB080007
:10529000801C86B2B9F1010F12D007EBC70004EBF6
:1052A0004000BDF80410C18110220AF10201103043
:1052B00018F02AFB7F1CBFB26089B842DED890E7A5
:1052C00007EB470104EB4102BDF80400D0810AF16D
:1052D0000201404610320BF0FFFAEBE72DE9F047F0
:1052E0000E4688B090F80CC096F80C80378AF58985
:1052F0000C20109902F10C044FF0000ABCF1030FCE
:1053000008D0BCF1040F3ED0BCF1070F7DD0FFDF09
:1053100008B067E705EB850C00EB4C0018803120E6
:105320000880002AF4D0A8F1060000F0FF0955819A
:1053300025E0182101A818F088FB009770884346E3
:1053400001AA716900F056FFBDF804002080BDF885
:105350000600E080BDF808002081A21C0DF10A01C2
:1053600048460BF0B9FAB9F1000F00D018B184F833
:1053700004A0A4F802A007EB080087B20A346D1E4F
:10538000ADB2D6D2C4E705EB850C00EB4C0018801B
:1053900032200880002ABBD0A8F1050000F0FF09E8
:1053A000558137E000977088434601AA716900F083
:1053B00021FF9DF80600BDF80410E1802179420824
:1053C00060F3000162F34101820862F38201C208C6
:1053D00062F3C301020962F30411420962F3451149
:1053E000820962F386112171C0096071BDF807005E
:1053F000208122460DF1090148460BF06DFA18B1E3
:1054000084F802A0A4F800A000E007E007EB080081
:1054100087B20A346D1EADB2C4D279E7A8F102009A
:1054200084B205FB08F000F10E0CA3F800C0352390
:105430000B80002AA6D055819481009783B2708892
:105440000E32716900F0D6FE62E72DE9F84F1E4674
:105450000A9D0C4681462AB1607A00F58070D080A2
:10546000E089108199F80C000C274FF000084FF0EC
:105470000E0A0D2873D2DFE800F09E070E1C2830BC
:105480003846556A73737300214648460095FFF706
:1054900079FEBDE8F88F207B9146082802D00328CA
:1054A00000D0FFDF378030200AE000BFA9F80A8073
:1054B000EFE7207B9146042800D0FFDF37803120C2
:1054C0002880B9F1000FF1D1E3E7207B9146042851
:1054D00000D0FFDF37803220F2E7207B91460228A0
:1054E00000D0FFDF37803320EAE7207B1746022811
:1054F00000D0FFDF3420A6F800A02880002FC8D0FD
:10550000A7F80A80C5E7207B1746042800D0FFDFF4
:105510003520A6F800A02880002FBAD04046A7F872
:105520000A8012E0207B1746052802D0062800D00A
:10553000FFDF1020308036202880002FA9D0E0899E
:105540007881A7F80E80B9F80E00B881A1E7207B1A
:105550009146072800D0FFDF37803720B0E72AE0E8
:105560004FF0120018804FF038001700288090D0BC
:10557000E0897881A7F80E80A7F8108099F80C00D0
:105580000A2805D00B2809D00C280DD0FFDF80E7B2
:10559000207B0C2800D0FFDF01200AE0207B0D28B3
:1055A00000D0FFDF042004E0207B0E2800D0FFDFC6
:1055B000052038736DE7FFDF6BE770B50C460546D5
:1055C000FBF726FF20B10078222804D2082070BD06
:1055D00043F2020070BD0521284609F011FD20604C
:1055E00008B1002070BD032070BD38B50546DDE967
:1055F00005011446049A72B10B460090042221461C
:10560000284606F0F1FF032C06D121462846BDE8C6
:10561000384007F0B9B9198038BD2DE9FF4F85B082
:1056200000200390089890468946123004F08BFCC5
:10563000401D20F00306089828B908A90598FFF72F
:10564000BCFF002863D1B9F1000F06D00898017B98
:10565000002961D1052504682BE098F8000009288D
:1056600003D00F2822D0FFDF26E0089A03255068D8
:10567000527B418872438A4248D900F1040B00886A
:1056800094B247181FFA86FAA74200D33F1B01EBDA
:105690000A00A04200D9FFDF07EB0A00A04200D9B0
:1056A000FFDF0BEB07040020208002E0089C0425AC
:1056B00008340CB1208810B1032D27D02CE00898B5
:1056C0000121123004F077FCADF81000024603AB64
:1056D0002946059806F079FE070001D1A01C039029
:1056E00008983A461230C8F804000598A8F8020055
:1056F00004A94046039B04F06BFCC0B1072814D2F8
:10570000DFE800F0080A1313110C0E00132009B093
:10571000BDE8F08F0020FAE71120F8E70820F6E74F
:1057200043F20300F3E70720F1E70320EFE7BDF8BA
:10573000100003990097CDE9011023462A460899E5
:105740000598FFF752FFC7B9032D16D10898B7B2D5
:105750004568407B704384B2298868880E18A64249
:1057600000D3361B3844A04200D9FFDFF019A04215
:1057700000D9FFDF688838446880B9F1000FC9D0CC
:10578000089981F80C90C5E72DE9FF4791461A88E2
:105790001C468A4680460AB303AB494606F015FE0E
:1057A00005001BD04046A61C278809F046FD32465E
:1057B000072629463B46009609F0CAF92088039936
:1057C0000095CDE9011023464A4651464046FFF771
:1057D0000CFF00202080012004B003E50020FBE73F
:1057E00010B586B01C46AAB104238DF8003013888A
:1057F000ADF808305288ADF80A208A788DF80E206E
:105800000988ADF80C1000236A462146FFF705FF12
:1058100006B010BD1020FBE770B50D46052109F05C
:10582000EFFB040000D1FFDF294604F11200BDE8C0
:10583000704004F0A9BB70B596B00C460646FFF761
:10584000EBFF05462146304601F0CDFF01213046F1
:1058500001F0D8FF002D25D13046FBF7D9FD05001A
:1058600000D1FFDF95F823001B281BD9172C19D96D
:105870003A208DF80000ADF8026095F82300211D54
:10588000884201D9241D00E00446ADF8044040F6EA
:105890004800ADF806000BA9684606F07FFC00281A
:1058A00000D0FFDF16B070BD2DE9F8430D468046ED
:1058B000002603F066F90446287812287AD2DFE839
:1058C00000F07954543C35563232133232320932B8
:1058D000323232322879001FC0B2022801D010289B
:1058E00010D114BBFFDF35E004B9FFDF05214046CE
:1058F00009F086FB007B032806D004280BD007287C
:1059000028D0FFDF072656E02879801FC0B2022882
:1059100020D050B1F6E72879401FC0B2022819D034
:10592000102817D0EEE704B9FFDF13E004B9FFDF5A
:10593000287901280ED1172138E00521404609F0C9
:105940005FFB070000D1FFDF07F11201404604F0C2
:10595000F2FA2CB12A462146404600F05BFC2AE0D0
:1059600013214046FDF799F825E0FFDF23E004B955
:10597000FFDF0521404609F043FB070000D1FFDFB0
:10598000694607F1120004F0E0FA00B1FFDFA988D0
:10599000172901D2172200E00A46BDF80000824212
:1059A00002D9014602E005E01729C4D34046FFF7BB
:1059B00042FFCFE7FFDF3046BDE8F883401D20F00F
:1059C0000300021D01FB0020704708B1FE4A106071
:1059D00008F0BCBC2DE9F0470E46154624213046A0
:1059E00018F033F805B9FFDFA87870732888DFF85E
:1059F000D8A3401D20F0030195F802900C46DAF878
:105A0000000008F0BAFC070000D1FFDF4FF00008EB
:105A10003760A7F8008004FB09F4211DDAF80000C4
:105A200008F0ABFC040000D1FFDF7460C4F8008014
:105A3000298806F11200BDE8F04704F06EBA2DE99E
:105A4000F047804601F112000D46814604F07BFAD2
:105A5000401DDD4E20F003046F7B2246296830682C
:105A600008F0B4FC7C43221D6968306808F0AEFC85
:105A7000052009F06FFA0446052009F073FA201A90
:105A8000012802D1306808F069FC49464046BDE86B
:105A9000F04704F057BA70B50546052109F0B0FA91
:105AA000040000D1FFDF04F112012846BDE8704078
:105AB00004F041BA2DE9F04F91B04FF0000BADF872
:105AC00034B0ADF804B047880C460546924605212F
:105AD000384609F095FA060000D1FFDF24B1A7800F
:105AE000A4F806B0A4F808B0297809220B20B2EB7C
:105AF000111F297A7DD104F110023827C91E4FF0F9
:105B00000C094FF0010803920F2973D2DFE801F06E
:105B1000F4F3F28108D48A8FA13DDDF5F0B8B80026
:105B2000307B022800D0FFDFA88909EBC001ADF867
:105B300004103021ADF83410002C25D06081B5F868
:105B40000E9000271DE004EBC708317C88F80E108A
:105B5000F189A8F80C10CDF800906888042304AAF5
:105B6000296900F047FBBDF81010A8F8101009F1E2
:105B70000400BDF812107F1C1FFA80F9A8F812105B
:105B8000BFB26089B842DED80CE1307B022800D079
:105B9000FFDFE98909EBC100ADF804003020ADF862
:105BA0003400287B0A90001FC0B20F90002CEBD06D
:105BB0006181B5F81090002727E000BFCDF8009074
:105BC0006888696903AA0A9B00F014FB0A9904EB30
:105BD000C70809EB01001FFA80F908F10C0204A9BB
:105BE0000F980AF079FE18B188F80EB0A8F80CB03A
:105BF00001E0D4E0D1E0BDF80C10A8F81010BDF819
:105C00000E107F1CA8F81210BFB26089B842D5D818
:105C1000C8E00DA8009001AB224629463046FFF7A8
:105C2000CCFABFE0307B082805D0FFDF03E0307BF3
:105C3000082800D0FFDFE8891030ADF804003620D6
:105C4000ADF83400002C3FD0A9896181F189A18190
:105C500027E0307B092800D0FFDFA88900F10C0184
:105C6000ADF804103721ADF83410002C2CD0608131
:105C7000E8890090AB89688804F10C02296956E034
:105C8000E8893921103080B2ADF80400ADF8341045
:105C9000002C74D0A9896181287A10280AD00221A9
:105CA0002173E989E181288A0090EB896888696914
:105CB000039A3CE00121F3E70DA8009001AB2246D6
:105CC00029463046FFF70AFB6CE0307B0A2800D0FB
:105CD000FFDF1220ADF80400ADF834704CB3A98991
:105CE0006181A4F810B0A4F80EB084F80C8059E0DB
:105CF00020E002E031E039E042E0307B0B2800D0C8
:105D0000FFDF288AADF834701230ADF8040084B19A
:105D100004212173A9896181E989E181298A21828C
:105D2000688A00902B8A688804F11202696900F081
:105D300061FA37E0307B0C2800D0FFDF1220ADF88D
:105D40000400ADF834703CB305212173A4F80AB007
:105D5000A4F80EB0A4F810B024E00DA8009001AB98
:105D6000224629463046FFF70DFA1BE00DA80090A9
:105D700001AB224629463046FFF767FB12E035E0CB
:105D80003B21ADF80400ADF834107CB3A4F80680D4
:105D9000A4F808B084F80AB004E0FFDF02E00129AB
:105DA0001BD0FFDFBDF80400AAF8000094B1BDF8D5
:105DB00034002080BDF804006080BDF8340039282C
:105DC00008D03B2806D001E0180000203C2801D074
:105DD00086F80CB0002011B09AE43C21ADF8040024
:105DE000ADF8341014B1697AA172DBE7FFE7AAF8C5
:105DF0000000EFE72DE9F84356880F468046154628
:105E00000521304609F0FCF8040000D1FFDF123410
:105E100000943B46414630466A6804F093FACBE56D
:105E200070B50D46052109F0EBF8040000D1FFDF45
:105E3000294604F11200BDE8704004F091B870B535
:105E40000D46052109F0DCF8040000D1FFDF2946EA
:105E500004F11200BDE8704004F0B5B870B5054615
:105E6000052109F0CDF8040000D1FFDF04F108039B
:105E700021462846BDE87040042285E470B50546F9
:105E8000052109F0BDF8040000D1FFDF21462846B6
:105E90002368BDE87040052276E42DE9F04782468C
:105EA000052109F0ADF8040000D1FFDF04F1120074
:105EB00004F049F8401D20F0030626E0011D00888B
:105EC0000322431821465046FFF75EFC002820D0ED
:105ED000607B656870431FFA80F82888B7B28146F6
:105EE00010FA86F080B22880404502D3A0EB08006B
:105EF00028806888B84200D2FFDF09EB07014145DE
:105F000000D9FFDF6888C01B68806068418800296D
:105F1000D4D1BDE8F08770B50E46054602F031FEDB
:105F2000040000D1FFDF01202072667265802078B6
:105F300020F00F00C01C20F0F00030302070BDE8D1
:105F4000704002F021BE2DE9F0438BB00D4614469F
:105F5000814606A9FFF731FB002814D14FF6FF76E2
:105F600001274FF420588CB103208DF80000102039
:105F7000ADF8100007A8059007AA204604A90AF06A
:105F8000CAFC78B107200BB0BDE8F0830820ADF85B
:105F900008508DF80E708DF80000ADF80A60ADF86D
:105FA0000C800CE00698A17801742188C1818DF8DD
:105FB0000E70ADF80850ADF80C80ADF80A606A4676
:105FC00002214846069BFFF728FBDCE708B50122C3
:105FD0008DF8022042F60202ADF800200A460323A3
:105FE0006946FFF7FDFB08BD08B501228DF80220C8
:105FF00042F60302ADF800200A4604236946FFF783
:10600000EFFB08BD00B587B079B102228DF8002002
:106010000A88ADF808204988ADF80A1000236A46BE
:106020000521FFF7FAFA07B000BD1020FBE711B118
:106030000723FFF7D5BB0720704770B588B00D4622
:106040001446064606A9FFF7B8FA00280ED17CB11F
:106050000620ADF808508DF80000ADF80A40069B08
:106060006A460821DC813046FFF7D7FA08B070BDD8
:1060700005208DF80000ADF80850F0E700B587B0B6
:1060800059B107238DF80030ADF8082003910023A3
:106090006A460921FFF7C1FAC5E71020C3E770B5CA
:1060A00088B00C460646002506A9FFF786FA0028A8
:1060B000DCD106980121123003F07DFF9CB12178DC
:1060C000062921D2DFE801F0200505160318801EFD
:1060D00080B2C01EE28880B20AB1A3681BB18242BE
:1060E00003D90C20C2E71020C0E7042904D0A088FF
:1060F00050B901E00620B9E7012913D0022905D0E3
:1061000004291CD005292AD00720AFE709208DF8E3
:1061100000006088ADF80800E088ADF80A00A068CB
:10612000039023E00C208DF800006088ADF8080093
:10613000E088ADF80A00A0680A25039016E00D205B
:106140008DF800006088ADF80800A088ADF80A005E
:10615000E088ADF80C00A0680B25049006E00E2046
:106160008DF8000060788DF808000C256A462946F5
