:020000040000FA
:100000000848022081030000890300004D0300001E
:100010008D0300008F03000091030000000000002A
:10002000000000000000000000000000930300003A
:1000300095030000000000009703000099030000F2
:100040009F0700009B0300004D0A00000508000008
:100050009B0300009B0300001D0500009B030000A4
:100060009B0300009B0300009B0300009B03000018
:100070009B0300009B0300009B0300009B03000008
:100080009B030000E10700009B0300009B030000AE
:10009000610800009B0300009B0300009B0300001D
:1000A0009B0300009B0300009B0300009B030000D8
:1000B0009B0300009B030000000000000000000004
:1000C0009B0300009B0300009B0300009B030000B8
:1000D0009B0300009B0300009B030000690A0000D3
:1000E0009B030000AD0700009B0300009B03000082
:1000F000000000009B030000000000000000000062
:1001000000000000000000000000000000000000EF
:1001100000000000000000000000000000000000DF
:1001200000000000000000000000000000000000CF
:1001300000000000000000000000000000000000BF
:1001400000000000000000000000000000000000AF
:10015000000000000000000000000000000000009F
:10016000000000000000000000000000000000008F
:10017000000000000000000000000000000000007F
:10018000000000000000000000000000000000006F
:10019000000000000000000000000000000000005F
:1001A000000000000000000000000000000000004F
:1001B000000000000000000000000000000000003F
:1001C000000000000000000000000000000000002F
:1001D000000000000000000000000000000000001F
:1001E000000000000000000000000000000000000F
:1001F00000000000000000000000000000000000FF
:10020000DFF80CD000F078F9004800476952000090
:100210000848022030B4044654E8000F0D4644E874
:100220000053002BF8D1156030BC704730B4044641
:1002300054E8000F40EA010544E80053002BF7D1D1
:10024000156030BC704730B4044654E8000F00EA33
:10025000010544E80053002BF7D1156030BC70470E
:1002600030B4044654E8000F80EA010544E8005326
:10027000002BF7D1156030BC704730B4044654E809
:10028000000F00EB010544E80053002BF7D1156087
:1002900030BC704730B4044654E8000FA0EB0105B1
:1002A00044E80053002BF7D1156030BC70470000C4
:1002B00030B4044654E8000F0D4644E80053002BC8
:1002C000F8D1156030BC704730B4044654E8000FD4
:1002D00040EA010544E80053002BF7D1156030BC1B
:1002E000704730B4044654E8000F00EA010544E8C2
:1002F0000053002BF7D1156030BC704730B4044672
:1003000054E8000F80EA010544E80053002BF7D1C0
:10031000156030BC704730B4044654E8000F00EB61
:10032000010544E80053002BF7D1156030BC70473D
:1003300030B4044654E8000FA0EB010544E8005334
:10034000002BF7D1156030BC70470000094B1EF040
:10035000040F1CBFEFF309801847EFF3088006492C
:10036000064A884201D8904202D88D464FF00000DC
:1003700018470000E1060000084802200828022073
:100380000648804706480047FEE7FEE7FEE7FEE72F
:10039000FEE7FEE7FEE7FEE7FEE7FEE76508000092
:1003A000010200002DE9F05F0546002092469B46C1
:1003B00088460646814640241BE02846414647467B
:1003C000224600F089F853465A46C01A914110D38C
:1003D00011461846224600F016F82D1A67EB010860
:1003E0004F4622460120002100F00DF817EB0009CE
:1003F0004E41201EA4F10104DFDC484631462A4666
:100400004346BDE8F09F202A04DB203A00FA02F1BF
:10041000002070479140C2F1200320FA03F31943F2
:100420009040704700487047F89A00000649074A14
:100430000868504343F2390210440860400870478E
:100440000149086070470000BC0000206D4EC641A5
:1004500040EA01039B0703D009E008C9121F08C046
:10046000042AFAD203E011F8013B00F8013B521EC6
:10047000F9D27047D2B201E000F8012B491EFBD23D
:1004800070470022F6E710B513460A46044619469F
:10049000FFF7F0FF204610BD10B5044604E00B78CE
:1004A00000F8013B03B1491C521EF8D2204610BD92
:1004B000421C10F8011B0029FBD1801A704730B58F
:1004C00004460020034600E05B1C934203D2E05C3C
:1004D000CD5C401BF8D030BD202A04DB203A21FA45
:1004E00002F00021704721FA02F3D040C2F120024D
:1004F0009140084319467047064C074D06E0E068F6
:1005000040F0010394E8070098471034AC42F6D35A
:10051000FFF77AFE3C9E00005C9E00002DE9F04F44
:1005200000268FB0DFF8B081B14602964FF4807597
:10053000012437460396284606F0CAFF38B1D8F89A
:100540000403204203D0284606F0B8FF26432D1DA1
:1005500064007F1CADB2082FEDD34FF4BE7420466B
:1005600006F0B6FF48B1204606F0A8FF46F0004668
:1005700002AA0221002006F067FF584C16F0FF0F78
:1005800015D00127002537420DD008EB8501D1F8A1
:100590001005D1F81015C0F3052054F82520C1F33B
:1005A000014102B190477F006D1C082DEBD3002E56
:1005B0007DDA0020CDF82890411E0DF1080B08AA25
:1005C000CDF82C9042F82010401C91460228F9D317
:1005D00000252E46A01910F8607F90F9000027F042
:1005E000C008401C49D008A9404605F060F988B30E
:1005F0004FEA971A404602F077FB54F820701FB17B
:10060000BAF1030F03D00FE0BAF1030F35D10AA8F6
:100610004FEAD80208F00703815C4FF0010C0CFA96
:1006200003FC41EA0C01815406A8CDF8188006F0BD
:1006300047FE069900EB8100D0F8000702A9C0F33D
:1006400001400690404605F032F90028069802D095
:10065000022802D011E003280FD1BAF1030F08D10C
:100660000698022832D00221404606F0DDFD6D1CBE
:10067000EDB217B151464046B847761C042EA9D3B7
:10068000002D20D004AA0221002006F0DDFE00206B
:100690005A4604A952F8206051F82030B34217D0CE
:1006A00000200AAE4FEA090351F8207000E00AE08A
:1006B00042F8207056F8207043F82070401C022841
:1006C000F2D3002D84D10FB0BDE8F08F0321CBE72A
:1006D000401C0228DED3F6E700600040D01E022056
:1006E0000446826909A1012007F028F907F05AF8A9
:1006F00007F05CF80028FBD10D4804600D48006845
:10070000C00700D000BE204600F016F84841524411
:100710004641554C543A4552524F523A48617264E0
:100720006661756C742050433A25780D0A0000000C
:10073000A0000020F0ED00E0BFF34F8F05480168F6
:10074000054A01F4E06111430160BFF34F8F00BF20
:10075000FDE700000CED00E00400FA0500F01F02C8
:10076000012191404009800000F1E020C0F8801292
:10077000704700F01F02012191404009800000F104
:10078000E020C0F80011704700F01F0201219140E5
:100790004009800000F1E020C0F80012704710B559
:1007A00005F03AFABDE8104005F0DABA10B50A4C87
:1007B0004FF48071204607F045F900280AD0074819
:1007C00000214171C4F8001102688168BDE8104041
:1007D0000020104710BD000000900240381F02208A
:1007E00007480021C0F84011C0F84411C0F8481172
:1007F000C0F84C11C0F80011C0F8041108F006BB95
:1008000000100140F8B51448124C05464FF48C71A5
:1008100007F02CF900281BD00026C5F81861D5F880
:1008200018010090206820B90C4940F2A92001F07D
:1008300017FDA07FFF2801D006F0DEFD6677267247
:10084000D4E9002101B004F10800BDE8F0401047F0
:10085000F8BD0000441F022000300040789C0000DA
:1008600008F046BA30B54FF080500022D0F8301171
:100870000123082902D1D0F8344114B1082909D044
:100880000BE04FF08041C1F80C21C1F81021614903
:100890000A6005E0D0F8344114B1082957D059E076
:1008A0005D4909685D4C21605B49091D0968241D8B
:1008B0002160594908310968241D216056490C31CD
:1008C0000968241D2160544910310968241D2160E4
:1008D000514914310968241D21604F4918310968B4
:1008E0004E4C203421604C491C310968241D216084
:1008F000494920310968241D21604749243109688C
:10090000241D2160444928310968241D2160424981
:100910002C310968241D21603F49303109683F4C62
:10092000403421603C4934310968241D21603A4932
:1009300038310968241D216037493C310968241D7C
:100940002160354940310968241D216005E0D0F857
:10095000344114B1082904D006E0324C30492160FA
:1009600005E0D0F8344114B1082904D006E02E4C3B
:10097000FB21216005E0D0F8344114B1082908D0EA
:100980000EE090F858422948016864F303010160C1
:1009900002E0D0F8340118B925494FF4007008601E
:1009A0002448016841F470010160BFF34F8FBFF329
:1009B0006F8F4FF01021D1F80002002803DBD1F82F
:1009C0000402002822DA1C4C23601C480368002B18
:1009D000FCD01223C1F800320568002DFCD0C1F80C
:1009E000043201680029FCD0226001680029FCD093
:1009F000BFF34F8F0F487C380168114A01F4E06162
:100A000011430160BFF34F8F00BFFDE70E490D4852
:100A1000086030BD380500400404001020C50040C7
:100A2000488103008C56004018F50040E40E004059
:100A30004096024088ED00E004E5014000E40140FA
:100A40000400FA050090D003B80000200448017F9C
:100A500004480029024901D008F017BB08F086BA03
:100A6000681F0220002000402DE9F05F5248D0F8B6
:100A7000045300242E464FF0010913E096FAA6F025
:100A8000B0FA80F7B80000F58070804607F0AEF944
:100A900028B1404607F0B2F909FA07F0044309FA11
:100AA00007F08643002EE9D1444A9078F0BBA002BB
:100AB00064D5434940F2A978C1F80080081D036855
:100AC00013F0FF0C02D0036803EA0C0C40F2AA7A80
:100AD000C1F800A0036813F0FF0301D0066833409B
:100AE00040F2AB7BC1F800B0066816F0FF0601D0FB
:100AF00007683E4040F2AC770F60076817EA0C07C2
:100B000009D0D2F810C04CEA070CC2F810C0C1F8E6
:100B100000800760076840F2AD770F6007681F40EC
:100B200009D0136943EA0743136100E026E0C1F8E6
:100B300000A00760036840F2AE730B6003683340A7
:100B40000BD0DE0701D044F40004DE0601D544F0EA
:100B50000104C1F800B003600068106930F00111B1
:100B600002D005F080710C4310F0011F06D069051A
:100B700004D520F0011044F480641061C4F3C05621
:100B800024F400044F46DFF83C8009E094FAA4F016
:100B9000B0FA80F558F82500804707FA05F084433D
:100BA000002CF3D108F08EFB002E03D0BDE8F05FDF
:100BB00000F05CB8BDE8F09F0070024074000020B7
:100BC00000780240B09800007047000070B51449EA
:100BD00008680860BFF36F8FBFF34F8FBFF36F8F4D
:100BE000BFF34F8F0F490A6922F00114044302F04A
:100BF0000110012608610CE094FAA4F0B0FA80F527
:100C0000284601F038FB06FA05F18C43294608F026
:100C1000F1FC002CF0D1BDE8704008F053BB00009F
:100C20006C74024074000020F8B50D48046820463A
:100C300007F0F0F8BFF36F8FBFF34F8F094D0A4EE7
:100C4000E00504D5686A0090716868468847A00589
:100C500004D5A86A0090716868468847F8BD00000E
:100C6000007402408098000074000020F8B51E480F
:100C7000D0F8001221F00401C0F800121B480068EF
:100C80001B4DC6B2687803F0C9F8012404FA00F1DC
:100C90002889EA68C04380B21043014202D06878D4
:100CA00008F026FC06F080006870002003F0B6F81B
:100CB00004FA00F6802003F0B1F804FA00F00643CD
:100CC0000B48F1430C3004F0ECFD802003F0A6F853
:100CD0008440A86804430748AC60006A00906968D3
:100CE00068468847F8BD00000070024080740240EA
:100CF000740000208098000010B5054C607803F067
:100D00008DF801466078BDE8104008F073BC000023
:100D10007400002038B5002000900B480068ADF842
:100D20000200882003F07AF8012505FA00F4082073
:100D300003F074F8054985402C43886804438C60AF
:100D400049686846884738BD207502407400002015
:100D500070B50B4804680460BFF36F8FBFF34F8F0B
:100D6000012609E094FAA4F0B0FA80F5284601F0D3
:100D700082FA06FA05F08443002CF3D170BD00001E
:100D80006874024038B5064C0020607008F012FC10
:100D900004484068009061686846884738BD000094
:100DA00074000020809800000C4910B50020887065
:100DB000802003F079F8817B03290ED00068002899
:100DC0000BD1802003F02AF8012181400348C94358
:100DD000BDE810400C3004F064BD10BD740000206C
:100DE000812006F0C7BE822006F0C4BE832006F034
:100DF000C1BE842006F0BEBE852006F0BBBE8620A4
:100E000006F0B8BE872006F0B5BE882006F006BF03
:100E100038B50F4C0020A07003F046F8817B032901
:100E200001D0006818B1BDE8384006F0ACB8002029
:100E300002F0F4FF012181400548C9430C3004F061
:100E400030FD0448C068009061686846884738BD36
:100E50007400002080980000012006F017BF0220D7
:100E600006F014BF032006F011BF042006F00EBFE9
:100E7000052006F00BBF062006F008BF072006F08D
:100E800005BF000038B5104D00200824A87020468A
:100E900003F00AF8817B032914D00068002811D1DF
:100EA000204602F0BBFF01218140C94305F10C003F
:100EB00004F0F7FC0548406900908DF8024069682D
:100EC0006846884738BD0000740000208098000004
:100ED0000FB41CB50A46521ECDE9000207A9054B06
:100EE0006A46069800F018F8009A002111701CBCA0
:100EF0005DF814FB7B13000002E008C8121F08C154
:100F0000002AFAD170477047002001E001C1121F8A
:100F1000002AFBD1704700002DE9FF4F8DB00F462E
:100F20000546002606E025280BD0DDE90F12904784
:100F30006D1C761C28780028F5D111B03046BDE82C
:100F4000F08F0024A246A1460122EC4900E00443B0
:100F500015F8013F203B02FA03F00842F7D1287848
:100F60002A2810D06FF02F022878A0F1300109292B
:100F700014D80AEB8A0102EB410144F0020400EBB1
:100F8000010A6D1CF0E701CF5FEA000A03D544F4C3
:100F90000054CAF1000A44F002046D1C28782E287F
:100FA00017D115F8010F44F004042A280ED06FF071
:100FB0002F022878A0F1300109290AD809EB89010C
:100FC00002EB410100EB01096D1CF2E757F8049BAD
:100FD0006D1C28786C280FD006DC4C2817D06828A8
:100FE0000DD06A2814D104E0742810D07A280FD1CB
:100FF0000DE044F400140AE044F4801401E044F4E9
:1010000040146978814202D104F580146D1C6D1C76
:101010002A786E2A1FD00CDC632A31D004DC002A27
:101020008BD0582A11D1A3E0642A68D0692A0CD148
:1010300065E0732A2ED004DC6F2A73D0702A04D1A5
:101040009BE0752A6FD0782A6ED01046DDE90F122A
:101050009047761C50E1C4F30250022806D00328C2
:1010600009D0042801CF09D0066045E101CFF1176E
:10107000C0E9006140E101CF06803DE106703BE13F
:1010800017F8040B8DF8000000208DF80100EB46E6
:10109000012003E057F804BB4FF0FF3061074FF029
:1010A000000102D40DE008F10101884649450FDA3C
:1010B0008045F8DB1BF808100029F4D108E008F19E
:1010C000010188468142FADB1BF808100029F6D19D
:1010D000DDE90F23AAEB08008146214600F036F92E
:1010E000304400EB080604E0DDE90F121BF8010BA9
:1010F0009047B8F10108F7D221464846F7E00A21A7
:10110000C4F302534FF0000B0891022B04D001CF1F
:10111000C117032B09D00AE0FF1D27F00707F7E8E6
:10112000020108E032E01FE020E000B2C117042B0A
:1011300001D140B2C117031E71F1000307DA4FF06D
:10114000000CD0EB0C006CEB01012D2302E0230519
:1011500004D52B238DF82430012303E0E30701D0CD
:101160002023F7E7984658E00A2110E010210EE00E
:1011700010204FF0000B08900CE010214FF0000BF6
:1011800044F004044FF00809089103E008214FF0EF
:10119000000B0891C4F30253022B04D001CF0021AD
:1011A000032B06D006E0FF1D27F00707F7E8020132
:1011B00003E080B2042B00D1C0B24FF00008230737
:1011C0002BD5702A07D0DDF820C08CF0100C5CEA1B
:1011D0000B0C05D00EE040238DF82430012308E0ED
:1011E00050EA010306D030238DF824308DF82520F5
:1011F00002239846DDF820C08CF0080C5CEA0B0C4A
:101200000BD150EA010301D1630706D530238DF8D5
:1012100024304FF00108A9F10109582A04D038A25E
:101220000B9208AA0A920BE03AA2F9E75B46089AE9
:10123000FFF7B8F80B9B9B5C0A9A521E0A92137038
:1012400050EA0102F2D10A98ADEB000000F1200B48
:10125000600702D524F4803401E04FF00109D9453C
:1012600002DDA9EB0B0000E0002000EB0B01414484
:101270000890AAEB010AE00306D4DDE90F2321461A
:10128000504600F063F806444FF0000908E009A951
:1012900011F80900DDE90F12904709F10109761CE8
:1012A000C145F4DBE0030CD5DDE90F2321465046B0
:1012B00000F04CF8064404E0DDE90F1230209047BE
:1012C000761C0899481E08900029F5DC08E00A9869
:1012D0000A990078491C0A91DDE90F129047761CA3
:1012E000BBF10001ABF1010BF1DC21465046DDE919
:1012F0000F2300F019F806446D1C1BE609280100B5
:10130000303132333435363738396162636465667B
:10131000000000003031323334353637383941423D
:1013200043444546000000002DE9F04104460025F5
:101330001E461746880404D405E039462020B047ED
:101340006D1C641EF9D52846BDE8F0812DE9F041F9
:10135000044600251E469046C80301D5302700E00C
:101360002027880404D505E041463846B0476D1C67
:10137000641EF9D52846BDE8F0814A68002A06D0E7
:101380000A68531C0B6010704868401E4860704724
:1013900070B50D460646144608A1012006F0A8FACD
:1013A00006F000FA06F002FA0028FBD12246294690
:1013B0003046BDE8704000F015B800003A45525282
:1013C0004F523A466174616C0D0A00000EB5ADF8DB
:1013D0000010CDE901206A46002144F20100FFF728
:1013E000D7FF0EBD08B501238DF800309DF8003001
:1013F000144B186059609A606FF48041401807D010
:1014000001280FD1DA60D86800889861D86807E0B1
:101410001A611869806858611869008898611869AC
:101420004068D861186858689868D8681869586919
:101430009869D86972B600BF9DF800000028FBD1FA
:1014400062B608BDC021022070B505460648046892
:1014500007E02946204601F087FC204600F02AF9E3
:101460000446002CF5D170BD2C00002070B5064656
:101470000948062504680AE03146204601F074FC5C
:101480000546062805D1204600F014F90446002C34
:10149000F2D1284670BD00002C000020F8B50400F1
:1014A00004D138A140F2012000F0DAFE606820B9D2
:1014B00034A140F2022000F0D3FE6068006820B939
:1014C00030A140F2032000F0CBFE2068006820B17C
:1014D0002CA14FF4017000F0C3FE05F029FD10B9F6
:1014E00005F030FD20B927A14FF4027000F0B8FEDE
:1014F00000250FE0002705E0007800F0DFFB08B1D1
:101500001120F8BD3946781CC7B2304600F082F889
:101510000028F1D12946681CC5B2204600F0A2F887
:101520000600E7D100250DE0002703E00078214602
:1015300000F0CAFB3946781CC7B2304600F06AF8A2
:101540000028F3D12946681CC5B2204600F08AF86D
:101550000600E9D1194D40F22E2607E0A04203D142
:1015600008A1304600F07CFE28680568286800283D
:10157000F4D113482C606946C0680090204601F001
:10158000F3FBF8BD2E2E5C2E2E5C2E2E5C2E2E5CD8
:101590002E2E5C2E2E5C636F6D706F6E656E747395
:1015A0005C6C69627261726965735C757362645CBC
:1015B0006170705F757362642E6300002C00002000
:1015C000949700002DE9F0410E461D461746194636
:1015D00001F002FC020014D0002421462B680EE02A
:1015E000101990F801C0B44507D18F4203D101789A
:1015F0002960BDE8F081491CC9B200780444A342C7
:10160000EED80020F5E700000148006870470000B0
:101610002C00002070B50D46040003D10649C220FD
:1016200000F01EFE6078A84201D8002070BDA078AE
:101630002044284470BD0000F09B000070B50D46AA
:10164000040003D10649C22000F00AFE6078A842D7
:1016500001D8002070BDA0782044284470BD00004F
:10166000F09B000070B50D46040003D106498F20A1
:1016700000F0F6FD207AA84201D8002070BD05EBED
:1016800045000934204470BDF09B000070B50D4644
:10169000040003D106498F2000F0E2FD207AA84221
:1016A00001D8002070BD05EB45000934204470BD11
:1016B000F09B000010B5040004D1044940F217105B
:1016C00000F0CEFD2068006810BD0000301E000054
:1016D00010B5040004D104A140F2171000F0C0FDC1
:1016E0002068006810BD00002E2E5C2E2E5C2E2E71
:1016F0005C2E2E5C2E2E5C2E2E5C636F6D706F6EDA
:10170000656E74735C6C69627261726965735C7535
:101710007362645C6170705F757362642E68000050
:1017200070B5040004D11CA140F2962000F098FD91
:10173000606820B918A140F2972000F091FD606820
:10174000006820B914A14FF4267000F089FD05F05F
:10175000EFFB10B905F0F6FB20B90FA140F29A207B
:1017600000F07EFD2068406820B10BA140F29D2072
:1017700000F076FD164D4FF4297608E0A04203D123
:1017800005A1304600F06CFD286805682D1D28680D
:101790000028F3D12C6070BD2E2E5C2E2E5C2E2ED8
:1017A0005C2E2E5C2E2E5C2E2E5C636F6D706F6E29
:1017B000656E74735C6C69627261726965735C7585
:1017C0007362645C6170705F757362642E630000A5
:1017D0003000002010B5040004D111A140F2AF2068
:1017E00000F03EFD05F0A4FB10B905F0ABFB20B9FD
:1017F0000BA140F2B12000F033FD17480BE0A142ED
:1018000007D12168496801602068002141600846CD
:1018100010BD0868001D01680029F0D1052010BD29
:101820002E2E5C2E2E5C2E2E5C2E2E5C2E2E5C2EF2
:101830002E5C636F6D706F6E656E74735C6C696245
:101840007261726965735C757362645C6170705F0C
:10185000757362642E63000030000020044A127821
:1018600022F01002052A01D00820704705F03AB98D
:10187000380000202DE9F843474C0E4602460B780D
:1018800006250321022720784FF000080A2B73D287
:10189000DFE803F0720507112A5A3038424A2170F6
:1018A0006AE020B93DA14FF4577000F0D9FC2078D0
:1018B00040F0100015E038480021001D6A46FEF790
:1018C000C2FC10B15C2006F0AFFA207830F01000B6
:1018D00004D132A14FF45A7000F0C2FC207800F01D
:1018E000EF002070002547E03146104600F0CCF8AC
:1018F000054641E020B129A14FF45D7000F0B0FC35
:101900000120EEE7012804D024A140F27B3000F052
:10191000A7FC84F80080E5E72F482770006810F0E6
:10192000010FDFD02170DDE720F01000022804D87D
:101930001AA14FF4637000F093FC2078C00601D523
:101940001220CEE72770CDE7B07830B1802804D0E0
:1019500012A14FF4677000F083FC0F49F078083152
:101960000A6832B1C1F8008049689047050006D086
:1019700000E00E2505F03CFB2846BDE8F88307F0A3
:1019800017FC10B105F0FFFAF6E7B0780028F3D1A4
:1019900005F0F6FAF0E70000380000202E2E5C2E4D
:1019A0002E5C2E2E5C2E2E5C2E2E5C2E2E5C636FFB
:1019B0006D706F6E656E74735C6C69627261726972
:1019C00065735C757362645C6170705F757362648B
:1019D0005F636F72652E630038040040024A01465F
:1019E000D2E9000210470000241E022070B50C4608
:1019F000054605F0BFFAA84201D0102070BD03488B
:101A0000D4E90012C0E90212002070BD38000020A5
:101A100070B504460D46000704D00BA140F2F93022
:101A200000F01EFC1748007820F01002052A05D0AF
:101A3000042A03D0032A01D0082070BD294620467D
:101A4000BDE8704005F04EB82E2E5C2E2E5C2E2E7A
:101A50005C2E2E5C2E2E5C2E2E5C636F6D706F6E76
:101A6000656E74735C6C69627261726965735C75D2
:101A70007362645C6170705F757362645F636F72E0
:101A8000652E6300380000203EB5054604208DF821
:101A9000000003240DF1010005F082FA9DF8010019
:101AA00010F01F0006D0012815D0022820D00328EE
:101AB0002FD10CE06946284606F080FC04469DF8CC
:101AC0000100062CC0F3411022D1022821D1684622
:101AD000FFF7CCFC1BE09DF80500694600F0C4F957
:101AE00004001AD0062C14D1684600F04FFA0EE01C
:101AF0009DF8050040B1802806D0694600F09AF8AC
:101B000004000AD0062C04D1684600F05DF80446B3
:101B10001CB105F06DFA20463EBD07F049FB10B13F
:101B200005F031FAF7E705F02BFAF4E7FEB5C088C7
:101B300014460E46A04201D2054600E015468442F6
:101B400007D2802004F006FFB4FBF0F100FB114047
:101B500068B100200096CDE90150002000F0BEFAE7
:101B600069468020FFF754FF040002D006E0012000
:101B7000F0E705498020FFF739FF0446002000F018
:101B8000DBFA2046FEBD0000AC97000008B1402102
:101B900001600148704700006C1E022010B505F07E
:101BA000D9F908B100F074FABDE8104004F060BD46
:101BB00010B504F09FFD03480168C1F340010029FE
:101BC000FAD010BD38040040F8B504464579807855
:101BD00020B1012817D0032818D10DE06846FFF77F
:101BE000D5FF0646284604F021FF30800222314608
:101BF000601CFFF79BFFF8BDB4F8030030B928461E
:101C000004F0FAFE14E0B4F8030008B10620F8BDB1
:101C1000284605F04DFF012803D00121284605F094
:101C200053FF05F00F00082802D2284604F006FFF3
:101C30000020F8BD10B50C4600F00AF8006820B18D
:101C40002146BDE8104001F08FB8102010BD000003
:101C500010B5010600F00F0407D5092C03D308A125
:101C6000D42000F0FDFA144807E0092C03D304A1A6
:101C7000DA2000F0F5FA1048483000EBC40010BD3F
:101C80002E2E5C2E2E5C2E2E5C2E2E5C2E2E5C2E8E
:101C90002E5C636F6D706F6E656E74735C6C6962E1
:101CA0007261726965735C757362645C6170705FA8
:101CB000757362642E630000DC1D022010B5FFF70F
:101CC000C7FF006810BD000070B50D460646FFF75F
:101CD000BFFF0446056015B16868006807E00EB1F3
:101CE000802E03D103A1FE2000F0BAFA002060602C
:101CF00070BD00002E2E5C2E2E5C2E2E5C2E2E5CD7
:101D00002E2E5C2E2E5C636F6D706F6E656E74731D
:101D10005C6C69627261726965735C757362645C44
:101D20006170705F757362642E63000070B5314C32
:101D30000546206820B930A140F21D1000F090FA4D
:101D40002878062851D2DFE800F0031D241D272B38
:101D500064683CB140F233162946204601F004F88D
:101D60005CB906E024A140F2251000BF00F078FA2B
:101D700036E02FA1304600F073FA20684468002C4A
:101D8000EAD12DE02846FFF729FE2846FFF75CFB45
:101D900026E02846FFF758FB2846FFF71FFE1FE006
:101DA000A878FFF755FF0446006820B912A140F259
:101DB0004B1000F055FA606820B90FA14FF4A670DF
:101DC00000F04EFAD4E900022946904740B1A878C5
:101DD000010705D000F00F01082901D204F00CFE24
:101DE0002878BDE8704007F041BC03A14FF4AE7005
:101DF000BCE700002C0000202E2E5C2E2E5C2E2E28
:101E00005C2E2E5C2E2E5C2E2E5C636F6D706F6EC2
:101E1000656E74735C6C69627261726965735C751E
:101E20007362645C6170705F757362642E6300003E
:101E30002E2E5C2E2E5C2E2E5C2E2E5C2E2E5C2EDC
:101E40002E5C636F6D706F6E656E74735C6C69622F
:101E50007261726965735C757362645C6170705FF6
:101E6000757362642E6800002DE9F041144C07463A
:101E70008846206820B913A140F23B3000F0F0F909
:101E8000256817E02E7A00240EE021462846FFF749
:101E9000E9FB0078B84205D141462846BDE8F0414B
:101EA00000F062BF641CE4B2B442EED32846FFF7F0
:101EB00001FC0546002DE5D11020BDE8F0810000B1
:101EC0002C0000202E2E5C2E2E5C2E2E5C2E2E5CE6
:101ED0002E2E5C2E2E5C636F6D706F6E656E74734C
:101EE0005C6C69627261726965735C757362645C73
:101EF0006170705F757362642E6300002DE9F843B2
:101F000004461D4804F0C8FF002832D11B4E1C486F
:101F100084B1216881600021016041604821194835
:101F2000FEF7AFFA174848214830FEF7AAFA164DD7
:101F300000240FE07169EDE7002703E000782946EF
:101F4000FFF7C2FE3946781CC7B24046FFF762FB76
:101F50000028F3D12146641CE4B22846FFF782FB37
:101F60005FEA0008E8D1306800906946284600F032
:101F7000FBFEBDE8F88300002D1D000094970000D3
:101F80002C000020DC1D0220E097000038B504463C
:101F9000807808B1062038BD6846FFF7F7FD014696
:101FA000002008800222601CFFF7C0FD38BD000041
:101FB00070B504460D46000704D00BA140F2134053
:101FC00000F04EF91748007820F01002052A05D0DD
:101FD000042A03D0032A01D0082070BD29462046D8
:101FE000BDE8704004F054BC2E2E5C2E2E5C2E2ECC
:101FF0005C2E2E5C2E2E5C2E2E5C636F6D706F6ED1
:10200000656E74735C6C69627261726965735C752C
:102010007362645C6170705F757362645F636F723A
:10202000652E63003800002038B51648164D01248F
:102030004068009055F8340018B144F0800004F076
:10204000ABFB641CE4B2092CF4D30F4D01244835DA
:1020500055F8340010B1204604F09EFB641CE4B235
:10206000092CF5D36846FFF7B9FC6846FFF7ECF991
:10207000082007F0FBFA0548406800B1012004F091
:10208000BBFF38BD94970000DC1D02202C0000200F
:10209000074808B58068009004F0F0FF6846FFF735
:1020A000D3F96846FFF79AFC092007F0DFFA08BD6C
:1020B00094970000074918B1052803D30020704702
:1020C00008687047044A105C0028FAD051F82000D4
:1020D00070470000500000206C98000010B505F01B
:1020E00055FF012803D004A1282000F0B9F8BDE86D
:1020F000104000F04FB800002E2E5C2E2E5C2E2ECD
:102100005C2E2E5C2E2E5C2E2E5C636F6D706F6EBF
:10211000656E74735C6C69627261726965735C751B
:1021200074696C5C6170705F7574696C5F706C6110
:1021300074666F726D2E630010B505F027FF0128DD
:1021400003D004A1362000F08BF8BDE8104000F069
:1021500029B800002E2E5C2E2E5C2E2E5C2E2E5CBE
:102160002E2E5C2E2E5C636F6D706F6E656E7473B9
:102170005C6C69627261726965735C7574696C5CD0
:102180006170705F7574696C5F706C6174666F729A
:102190006D2E630072B602480168491C01607047E9
:1021A0009C00002003490868401E086000D162B608
:1021B000704700009C00002070B5054608680C467A
:1021C000411C04D005F022F9206805F023F860686E
:1021D000411C02D0002105F014F828791F4901EBB9
:1021E00040102968007F0028A069C1F8240523D089
:1021F000607D227D29681043C1F86C05D4E9001286
:102200002868C0F80C15C0F8142522E0A068411C0D
:1022100002D0002104F0F5FFE068411C04D005F075
:10222000F5F8E06804F0F6FFD4E902122868C0F877
:102230000825C0F8101570BD607D217D2A6808430F
:10224000C2F86C05D4E900122868C0F81425C0F85B
:102250000C15207D0128D9D070BD0000681F022018
:102260001CB56A46ADF800000191002144F202005D
:10227000FFF78EF81CBD102802D31038C0B270478B
:1022800040F080007047000010B5040003D10349FE
:10229000A720FFF7E5FFA06910BD0000489D0000E2
:1022A000FEB516460D46040003D10C491D20FFF76C
:1022B000D7FFA0692169416061690160C0E90256E8
:1022C0004DB10021009101910291C1680291826893
:1022D0006946204690470020FEBD0000489D000052
:1022E00019B1012906D0062070470AB100201070EC
:1022F0000020704712B1001D1060F9E707207047F9
:10230000FEB50D46060003D10F495320FFF7A8FF85
:102310001DB90D495420FFF7A3FFB46968686168CF
:102320004143A868FEF7ADF8A06858B10748C168F6
:1023300040690091CDE90150E0680290A2686946C9
:10234000304690470020FEBD489D0000889900005F
:102350003EB5050003D10B493A20FFF781FFAC6978
:10236000A06848B1084A07CA8DE80700E0680290F3
:10237000A268694628469047002020606060A060FF
:10238000E0603EBD489D0000889900003EB50D46C6
:10239000040003D10C496D20FFF762FF1DB90A4903
:1023A0006E20FFF75DFFA069816859B1074A916906
:1023B000126ACDE900150292C168029182686946ED
:1023C0002046904700203EBD489D000088990000AF
:1023D00070B50E4D0E7A0C462878864203D30CA1B8
:1023E0002320FFF73DFF207828B1012803D00228E1
:1023F00001D0032808D16A6806EB460002EB800092
:10240000617801720021817270BD00001C00002003
:102410002E2E5C2E2E5C2E2E5C2E2E5C2E2E5C2EF6
:102420002E5C65787465726E616C5C66617466734F
:102430005C706F72745C6469736B696F5F626C6B04
:102440006465762E630000002DE9FE4F846A0E4617
:102450008346A0684FF48052B2FBF0F13368B2FBC0
:10246000F0F2B3FBF1F501FB1531571A00FB01F552
:102470007168B94200D20F4600FB07F8D6F8089001
:102480005FEA887004D0384940F2D510FFF7E8FEC3
:10249000DBF8281048464A194FF0000A4FEA980323
:1024A0004FF0010912F13802D0F80080D2F800C0D4
:1024B000C44510D0BCF1FF3F01D04FF0010AD1F864
:1024C00008C0B5FBFCF809FA08FCD1F834804CEAE6
:1024D000080CC1F834C050F804CB42F804CB5B1EA2
:1024E00005F10405E0D1BAF1000F01D084F82E9077
:1024F0007068C01B7060306838443060B068A16894
:1025000007FB0100B06094F82E00B8B1A0684FF44A
:102510008051B1FBF0F109FA01F0616B401E0843F4
:10252000606310B194F82D0018B1E06808B17068CC
:1025300030B15846BDE8FE4F00F000BA606BF0E7DE
:102540000A49C86A496B009004F11400CDE9010101
:102550002069029084F80090E268694658469047E6
:102560000020BDE8FE8F0000989D0000C499000087
:1025700010B5040004D104494FF43270FFF770FE27
:10258000A06A001D10BD0000989D00002DE9F047D5
:1025900086B092468946040004D13F494FF48270C8
:1025A000FFF75EFE2169A56A04F1180011F0FF0F24
:1025B0004ED14FF48056B6FBF1F201FB1261E1BB44
:1025C000364F396819B1112006B0BDE8F0872246B0
:1025D000334903F04FFD0028F6D132490022D1E9FA
:1025E0000001CDE900011146684603F069FC0028AE
:1025F000EAD199208DF8000000221146684603F0C8
:102600005FFC0028E0D180469F20CDF814808DF833
:10261000000004208DF8010005AA4146684603F039
:102620004FFC0028D0D105A805F012FA28B1816826
:10263000B1420DD12169406800E009E0B0FBF1F042
:1026400030B1B6FBF1F2B0FBF2F302FB13020AB1B8
:102650000620B9E7C5E901015FEA0900C5E9030AF7
:102660004FF0010129704FF0FF312963217D01F006
:10267000010185F82D103C600BD0CDF80880CDF815
:102680000C80CDF8108028690490EA6802A92046E1
:102690009047002098E70000989D0000A4000020CB
:1026A00091800000C499000070B514460E460500E4
:1026B00004D1154940F28F20FFF7D2FD2846AD6ABC
:1026C0001EB1012E1AD0062070BD2978012901D033
:1026D000112070BD95F82D1059B1696B49B100F00A
:1026E0002DF90028F5D1012104B1217085F82C10B5
:1026F00070BD0CB100202070002070BD14B1001D11
:102700002060F9E7072070BD989D0000F0B4816A51
:102710004C698B680D6B04FB03F0070B8869261866
:1027200006FB03F24FEA123CBD4239D3654537D868
:102730004FF48052BD4213D1B2FBF3F5B4FBF5F672
:10274000B2FBF3F205FB1645541B5D43A04200D2D9
:10275000044603FB04F24B19C86903F1380114E085
:10276000654515D1B2FBF3F7B2FBF3F2B6FBF7FC0C
:102770006A4307FB1C66141B5C43B04200D206464A
:10278000C86903FB06F220443831F0BCFDF760BE97
:10279000B2FBF3F06843001B5843CB691844F3E7DE
:1027A000F0BC70472DE9F0410E46050004D11E49EA
:1027B00040F2A110FFF754FD26B91B494FF4D17028
:1027C000FFF74EFD1948AC6A0068A84202D1207894
:1027D000012802D01120BDE8F081D6E9011032684D
:1027E0002262C4E90910C8CE04F1140888E8C800C0
:1027F000022304F120062370A3685A43594303F0CF
:1028000093FC070002D0012020700AE00020B06095
:102810007060E06828B92078012802D0284606F0C8
:1028200046FF3846D7E70000989D0000A40000202E
:10283000FEB5050004D113494FF4BC70FFF710FD3D
:10284000114EAC6A3068A84202D12078012801D02C
:102850001120FEBDE06848B10C4A07CA8DE80700A8
:1028600020690290E2686946284690470025257055
:1028700003F0A0FC41F238012046FDF702FE0020E3
:102880003560FEBD989D0000A4000020E499000082
:1028900070B50E46050004D1264940F24A20FFF7E4
:1028A000DFFC26B9234940F24B20FFF7D9FC224830
:1028B000AC6A0068A84202D12078012801D011201A
:1028C00070BD96E8070004F1200304F1140C83E8BE
:1028D000070096E80E008CE80E00A26804F12001C3
:1028E0005043226B000B824203D12846FFF7ACFD18
:1028F00010E094F82D1019B1284600F01FF809E0F7
:1029000003212063217002034FF4805104F1380049
:1029100003F00AFC060002D00120207007E0E06806
:1029200028B92078012802D0284606F0C0FE30469B
:1029300070BD0000989D0000A400002030B4836AA0
:1029400093F82E20196B42B109030420187000205F
:1029500083F82E0030BC03F055BB586B90FAA0F002
:10296000B0FA80F4986800FB04F202EB013203F144
:10297000380104FB001005211970996830BC03F080
:1029800057BC000010B5040003D10349A120FFF794
:1029900067FCE06910BD0000E49D0000FEB516462E
:1029A0000D46040003D10D491B20FFF759FCE069D7
:1029B000216941602269A169B1FBF2F10160C0E9BE
:1029C00002564DB10021009101910291C16802911E
:1029D00082686946204690470020FEBDE49D0000C5
:1029E00019B1012906D0062070470AB100201070E5
:1029F0000020704712B1001D1060F9E707207047F2
:102A0000022200F001B80000FEB516460C46050093
:102A100003D114495120FFF723FC1CB9114952205E
:102A2000FFF71EFCEF69686921687A68022E01FBD6
:102A3000020014D0A16863685A43FDF709FDB86825
:102A400058B10020009002908DF800600194F86861
:102A50000290BA686946284690470020FEBD0146AC
:102A6000A068E8E7E49D00003EB5050003D10B49EE
:102A70003820FFF7F5FBEC69A06848B1084A07CA9F
:102A80008DE80700E0680290A268694628469047F2
:102A9000002020606060A060E0603EBDE49D00001A
:102AA000149A00000322FFF7AFBF000038B50446B8
:102AB000042803D30AA16720FFF7D2FB1448005D66
:102AC0000090684604F0C8FBD0F810050099C84093
:102AD00010F0010000D0012080F0010038BD00009E
:102AE0002E2E5C2E2E5C2E2E5C2E2E5C2E2E5C2E20
:102AF0002E5C636F6D706F6E656E74735C626F6178
:102B00007264735C626F617264732E630000000014
:102B1000749700007CB50024064E25460022305DE7
:102B2000032300951146019504F030FB641C042C2E
:102B3000F4D37CBD7497000010B50446042803D379
:102B400005A12820FFF78CFB0F480121005DBDE89F
:102B5000104004F065BC00002E2E5C2E2E5C2E2E44
:102B60005C2E2E5C2E2E5C2E2E5C636F6D706F6E55
:102B7000656E74735C626F617264735C626F6172C4
:102B800064732E63000000007097000010B50446C7
:102B9000042803D305A12220FFF762FB0F48002180
:102BA000005DBDE8104004F03BBC00002E2E5C2E02
:102BB0002E5C2E2E5C2E2E5C2E2E5C2E2E5C636FD9
:102BC0006D706F6E656E74735C626F617264735C5E
:102BD000626F617264732E630000000070970000E2
:102BE0007CB50024084E25460122305D0095002367
:102BF0001146019504F0CAFA641C042CF4D3BDE814
:102C00007C4000F003B800007097000010B500246D
:102C10002046FFF791FF641C042CF9D310BD002956
:102C200001DA0020704702681144016001207047FA
:102C300070B5461C0D4601240020FFF74FFA114ADB
:102C400010682860D2E900109568081A2B1A701CC9
:102C50005B1C98420FD963B10B480C4B29400068AC
:102C60001B6802EB810163F39F20C8601068401C61
:102C70001060002401E0881910600020FFF75CFA62
:102C8000204670BDEC230220509A0000B4000020C2
:102C9000034803C8814201D10120704700207047DA
:102CA000EC2302203EB5054602F0D0FD02F0C8FC40
:102CB0000446284601F0EFF805461F212046FDF79F
:102CC000E0FB0849D1E901010094CDE90101694621
:102CD0002846FEF7C3FD002802D1022184F82C10FB
:102CE0003EBD0000589900000249084490F93000A8
:102CF00070470000D01E022010B504460020E0708E
:102D0000401EE062204602F066FB08B1042010BDC0
:102D100004F22E2002F027FAA0F52A41553901D0FD
:102D2000032010BD94F83000E92805D0EB2814D119
:102D300094F83200902810D104F1660002F008FAED
:102D40000749B1EB002F06D004F1820002F000FA2F
:102D50000449884201D1002010BD022010BD0000AE
:102D6000004641544641543370B50D46040003D12A
:102D70000BA17F20FFF774FA606818B908A18020C2
:102D8000FFF76EFA6068006818B905A18120FFF7A7
:102D900067FA6068294602682046BDE8704010471F
:102DA0002E2E5C2E2E5C2E2E5C2E2E5C2E2E5C2E5D
:102DB0002E5C636F6D706F6E656E74735C6C6962B0
:102DC0007261726965735C757362645C6170705F77
:102DD000757362642E63000070B50D46040003D164
:102DE0000BA19F20FFF73CFA606818B908A1A0204A
:102DF000FFF736FA6068406818B905A1A120FFF70F
:102E00002FFA6068294642682046BDE870401047A6
:102E10002E2E5C2E2E5C2E2E5C2E2E5C2E2E5C2EEC
:102E20002E5C636F6D706F6E656E74735C6C69623F
:102E30007261726965735C757362645C6170705F06
:102E4000757362642E63000070B5084C050009D0EC
:102E500010342168002907D0086820604968284696
:102E60008847F6E70834F4E770BD0000BC1E022076
:102E70004269891E921E8A4201D800207047826AE8
:102E8000408901FB00207047F8B50646507C144687
:102E90000D4618B9607B696A884203D3304606F054
:102EA00071F9F8BD04F1080006F067F920662428DE
:102EB00000D32420206670B3002784F8647080203B
:102EC00084F86500062084F86600122084F8670004
:102ED000202084F86800617B286A6A4650F8210047
:102EE0000121009702F026FD0098D0B10168082268
:102EF00004F16C00FDF7D0FA00981022416804F14B
:102F00007400FDF7C9FA00980422816804F1840076
:102F1000FDF7C2FA0EE0FFE70021304600F002FBA9
:102F2000F8BDE76627676767A767E767C4F880703B
:102F3000C4F88470032304F164013046226E05F066
:102F4000B9FFF8BD2DE9F0478046907B14460E4648
:102F500002F10F050A280CD3607B716A884208D2FF
:102F600004F10800814606F008F938B1207B00061C
:102F70000AD44046BDE8F04706F004B94046BDE833
:102F8000F047012100F0CEBA607B316A51F8207021
:102F900084F83000D5F80200697900BA20F0FF000B
:102FA00008436063484606F0E8F8A063384602F03C
:102FB00099FC4068E0632146304602F066FC2064DC
:102FC000B5F8070045BA484606F0D7F80246E06B68
:102FD00000FB05F18A4201D2012200E0002284F8C0
:102FE0003120A26B8A4202D900FB15206064224680
:102FF00031464046BDE8F04700F040B82DE9F041C9
:103000008046907B14460E4602F10F05062803D336
:10301000607B716A884204D34046BDE8F04106F007
:10302000B1B8316A51F8207084F830006888697846
:1030300040BA01F01F0140EA0140606304F108005A
:1030400006F09BF8A063384602F04CFC4068E06351
:103050002146304602F019FC20642879E16BA26B0E
:1030600001FB00F3934202D201FB10206064224670
:1030700031464046BDE8F041AFF300800EB5537BCA
:10308000086A50F82300002382F84830D3640123F3
:1030900082F85030536B0093136C01938969D26CA2
:1030A00011440291694602F05BFC0EBD70B5064604
:1030B000907B14460D460A2803D3607B696A8842D8
:1030C00004D33046BDE8704006F05CB804F1080057
:1030D00006F053F82066082800D308202066A8B11F
:1030E000617B286A50F8210002F0FCFB0168491E50
:1030F00009BA6166406804F1640100BAA06630460E
:10310000226EBDE87040032305F0D4BE3046BDE812
:103110007040002100F006BA70B50546907B144659
:10312000062803D3607B496A884204D32846BDE859
:10313000704006F027B804F1080006F01EF820667B
:10314000122800D31220206698B104F164001221E5
:103150000646FDF796F9F02084F864000B2084F809
:103160006B0031462846226EBDE87040032305F00F
:10317000A1BE2846BDE87040002100F0D3B92DE97A
:10318000F0478046907B14460E4602F10F050A2850
:103190000CD3607B716A884208D204F10800814632
:1031A00005F0EBFF38B1207B00060AD54046BDE8AC
:1031B000F04705F0E7BF4046BDE8F047012100F0C9
:1031C000B1B9607B316A51F8207084F83000D5F8CD
:1031D0000200697900BA20F0FF00084360634846A6
:1031E00005F0CBFFA063384602F07CFB4068E0634B
:1031F0002146304602F049FB2064B5F8070045BA85
:10320000484605F0BAFF0246E06B00FB05F18A4232
:1032100001D2012200E0002284F83120A26B8A4210
:1032200002D900FB15206064224631464046BDE8C5
:10323000F04700F03BB82DE9F0418046907B144602
:103240000E4602F10F05062803D3607B716A88429F
:1032500004D34046BDE8F04105F094BF316A51F80F
:10326000207084F83000688840BA606304F1080078
:1032700005F083FFA063384602F034FB4068E0634A
:103280002146304602F001FB20642879E16BA26BF5
:1032900001FB00F3934202D201FB1020606422463E
:1032A00031464046BDE8F041AFF3008070B50D46B1
:1032B00002F1380114460EC95A43914200D80A4619
:1032C000A969E36C1944062305F00FFE00280ED10E
:1032D000002184F8511014F8502F012142F001020E
:1032E00004F80829EB6962685A406260217070BD79
:1032F0002DE9F05F26484168F1B3DFF898B00E6819
:103300008146DBF8004087688078E11B21F07F452B
:10331000ED1CB0B9DFF880804FF48030C8F844036A
:10332000C8F804031120FDF719FA1120FDF721FA5E
:103330004FF0010AC8F800A02F2002F079FB89F8AD
:1033400002A0B54200D23546124BE8193C3320F0BA
:103350007F401860DBF800105A46091B21F07F41BE
:10336000001B20F07F40C91C81420FD910681860F3
:103370002F2002F05DFB00E004E0BDE8F05F1120CB
:10338000FDF702BABDE8F05F04F0B6BFBDE8F09FFC
:103390008800002004150140001001402DE9F04193
:1033A00005680F00804606D001F0CAFD022809D248
:1033B0000120BDE8F081EE6816B16869B04207D817
:1033C000012605E0411CF4D069698142F1D83E46EE
:1033D00034466869641CA04202D80224022E0AD333
:1033E0002146404601F0ACFD38B10128E1D0411C36
:1033F000DFD0B442EDD10020DBE74FF0FF3632469C
:103400002146284604F0CFFD30B957B1224639464F
:10341000284604F0C8FD20B101280FD00124204621
:10342000C7E7EC60D5E90401891E884201D2401E3D
:103430002861287940F001002871F0E73446EEE772
:103440002DE9F0410E4620300D6804460B22202164
:1034500001F0BAFF0020014608232A5C401C202A04
:1034600012D92F2A0BD05C2A09D02E2A01D09942DA
:1034700014D30B2B37D02E2A35D10CE0401C2B5CFB
:103480002F2BFBD05C2BF9D02844306059B3207827
:10349000E52834D035E008210B23DEE7A2F18107CF
:1034A0001E2F02D95F3F1C2F13D82F5C401CA7F1A1
:1034B000400CBCF13F0F04D3A7F1800CBCF17D0F91
:1034C00011D2A3F1010C61450DD26254491C67541D
:1034D00013E010A700E07F1C97F800C0BCF1000FBC
:1034E00004D09445F7D10620BDE8F081A2F1610730
:1034F000192F01D8203AD2B26254491CADE70520F9
:103500002070202A01D8042000E00020E072002072
:10351000EAE70000222A2B2C3A3B3C3D3E3F5B5D14
:103520007C7F0000FEB50F46054602F08FF902F0E1
:1035300087F80446284600F0A5FC064604F11F0063
:103540000D210546FCF79DFF0DA00F490068C4F84A
:103550001F006068C4F82300606CC4F8270084F87A
:103560002B70D1E904010095CDE90101694630468F
:10357000FEF774F9002802D1082184F82C10FEBD52
:1035800055534253000000005899000020BF704777
:103590002DE9F04104460021056800F008F90028F3
:1035A00026D12846A16901F016FF02001FD1E0696B
:1035B000017899B1C17A01F03F01A171C17A09077F
:1035C0000FD404F120010B2610F8013B11F8017B08
:1035D000DB1B761E04D0002BF6D002E0042206E0AE
:1035E0002BB10021204600F005F80200D9D010468A
:1035F000BDE8F0812DE9F047054607690468806958
:103600008946203710B1B7F5001F02D30420BDE86A
:10361000F087F90560D1401CA86169694FF0000886
:1036200029B16089401E10EA572F05D054E0208947
:10363000B0EB571F1DD94FE0284601F081FC06462C
:1036400001281BD9701C33D06069B0423ED8B9F153
:10365000000F0ED028466969FFF7A0FE06000BD0C8
:10366000012E0BD0701C23D0204605F017FBF8B9B3
:1036700006E0C5F81880C9E70720C8E70220C6E7BA
:103680004FF40072002104F1300001F09DFE4FF074
:10369000000831462046FFF7EBFB4FF00109E062DE
:1036A0000DE000BF84F80390204605F0F7FA08B15A
:1036B0000120ACE7E06A08F10108401CE062618982
:1036C0004145EFD8E16AA1EB0800E06231462046AF
:1036D0006E61FFF7CDFBA861C7F3080020443030CE
:1036E0002F61E861002092E770B504460E46042081
:1036F000256821E0284601F06EFE10BBE2691178D2
:10370000B1B1D27AE52902F03F02A2710AD02E2986
:1037100008D00F2A06D022F0200108290AD0002163
:10372000B14210D000212046FFF764FF20B108E02D
:10373000042006E00121F3E7A1690029DAD100287D
:1037400001D00021A16170BD70B50446002106685A
:1037500000F02DF80DE03046A16901F03CFE50B9B3
:10376000E0690078E52809D040B101212046FFF743
:1037700041FF0028EFD0042807D007E03046A169B8
:1037800001F029FE050003D00FE0072005460CE0FC
:1037900020220021E06901F017FE0B2204F1200134
:1037A000E06901F007FE0120F070284670BD2DE9A8
:1037B000F04107680E460546B1F5001F36D2F00607
:1037C00034D12E61AC6824B93878032805D37C6ADB
:1037D0001CB178894FEA402812E03889B0EB561FB7
:1037E00024D9786A12E0284601F0AAFB0446401C5E
:1037F0001AD0022C1AD37869A04217D9A6EB080672
:1038000046452146EFD23846FFF732FBC5E9054071
:1038100060B100EB5620A861C6F308003844303090
:10382000E8610020BDE8F0810120FBE70220F9E714
:103830002DE9F041234C0546606818B922A13D20CE
:10384000FEF70EFD207885420DD2606805EB450736
:1038500050F827603EB100EB8700417AC90705D0D8
:10386000416829B106E00320BDE8F081407AFBE71A
:1038700023494160012181723068DFF88880006847
:1038800018B92149D520FEF7EBFC30682A4641469D
:1038900003683046984710B110E040688047606880
:1038A00000EB8700817A0029F7D1616801EB87017D
:1038B000097A19B9417A21F001014172606800EB7F
:1038C0008700D3E71C0000202E2E5C2E2E5C2E2EAF
:1038D0005C2E2E5C2E2E5C2E2E5C65787465726ECE
:1038E000616C5C66617466735C706F72745C646951
:1038F000736B696F5F626C6B6465762E63000000AA
:103900008D350000D1230000AC9B0000F8B51F4CA2
:103910000646154660680F4618B91DA1F420FEF74B
:103920009FFC2078864201D30420F8BD06EB4606B2
:103930002FB1012F15D0022F1CD00120F8BD01207E
:103940008DF8000060686A46002150F8260001F0FA
:10395000DBFF08B1112815D19DF800000028F1D136
:1039600010E0606850F8260070B101F0A9FF00680F
:10397000286007E0606850F8260028B101F0A0FF39
:10398000808828800020F8BD0320F8BD1C0000209E
:103990002E2E5C2E2E5C2E2E5C2E2E5C2E2E5C2E61
:1039A0002E5C65787465726E616C5C6661746673BA
:1039B0005C706F72745C6469736B696F5F626C6B6F
:1039C0006465762E630000002DE9FE432A4D04460F
:1039D0001E4668681746884618B928A1A220FEF737
:1039E0003FFC287884420ED26EB1686804EB440430
:1039F00050F8241021B100EB84014A7AD20704D098
:103A00000320BDE8FE830420FBE7CDE90076012218
:103A1000CDF808808A7250F824606F46306880685C
:103A200018B92449F720FEF71BFC3068406918B923
:103A30002049F820FEF714FC306841693046884779
:103A400000680099884214D9306839468268304647
:103A5000904710B10DE040688047686800EB840033
:103A6000817A0029F7D1686800EB8400007A002889
:103A7000C7D00120C5E700001C0000202E2E5C2EC0
:103A80002E5C2E2E5C2E2E5C2E2E5C2E2E5C6578EF
:103A90007465726E616C5C66617466735C706F7283
:103AA000745C6469736B696F5F626C6B6465762EBE
:103AB00063000000AC9B000070B50A4D04466868C6
:103AC00018B909A19720FEF7CBFB2878844201D3CF
:103AD000012070BD696804EB440001EB8000407A6E
:103AE00070BD00001C0000202E2E5C2E2E5C2E2EA1
:103AF0005C2E2E5C2E2E5C2E2E5C65787465726EAC
:103B0000616C5C66617466735C706F72745C64692E
:103B1000736B696F5F626C6B6465762E6300000087
:103B200070B5214C0546606818B920A16A20FEF7DF
:103B300097FB207885420CD2616805EB450551F86A
:103B4000250030B101EB85014A7AD20703D0487ACB
:103B500070BD032070BD0022114601F0D5FE6068E3
:103B600050F825603068406818B91E49E220FEF719
:103B700077FB30684168304688471128EFD010B194
:103B800007E040688047606800EB8500817A002983
:103B9000F7D1606800EB8500017A19B9417A41F0EC
:103BA00001014172407A70BD1C0000202E2E5C2E57
:103BB0002E5C2E2E5C2E2E5C2E2E5C2E2E5C6578BE
:103BC0007465726E616C5C66617466735C706F7252
:103BD000745C6469736B696F5F626C6B6465762E8D
:103BE00063000000AC9B00002DE9FE432D4D044610
:103BF0001E4668681746884618B92BA1C920FEF7EB
:103C00002FFB287884420ED26EB1686804EB44041E
:103C100050F8241021B100EB84014A7AD20704D075
:103C20000320BDE8FE830420FBE74A7A520701D552
:103C30000220F6E7CDE900760122CDF808808A72ED
:103C400050F824606F463068C06820B9244940F2BB
:103C50001310FEF705FB3068406920B920494FF486
:103C60008A70FEF7FDFA306841693046884700687F
:103C70000099884214D930683946C2683046904766
:103C800010B10DE040688047686800EB8400817ADD
:103C90000029F7D1686800EB8400007A0028C0D0C2
:103CA0000120BEE71C0000202E2E5C2E2E5C2E2E46
:103CB0005C2E2E5C2E2E5C2E2E5C65787465726EEA
:103CC000616C5C66617466735C706F72745C64696D
:103CD000736B696F5F626C6B6465762E63000000C6
:103CE000AC9B000070B50C46050004D104A14FF454
:103CF0009670FEF7B5FA10484560047070BD00007C
:103D00002E2E5C2E2E5C2E2E5C2E2E5C2E2E5C2EED
:103D10002E5C65787465726E616C5C666174667346
:103D20005C706F72745C6469736B696F5F626C6BFB
:103D30006465762E630000001C0000200E4910B55B
:103D40000A784C780023A24212D0521CD2B20A70D8
:103D5000022A00D10B70084A0B780C3252F823204B
:103D600002608868104420F07F408860012010BD08
:103D70000360002010BD00008800002070B50D46D3
:103D8000064601F063FD01F05BFCE978002401299F
:103D90000ED0032918D002291AD090F82C00801ECA
:103DA000082831D2DFE800F019301D302330352EDD
:103DB00090F82C0006282CD0082801D0012828D102
:103DC0003046FEF76FFF10E0012180F82C1002E072
:103DD000A87803F091F9002070BD304604F08AFD08
:103DE00003E000213046FFF79DFB044611E0002070
:103DF000FEF774F9304604F0B3FE04460020FEF7E7
:103E00009BF906E0062404E0034940F22E60FEF729
:103E100027FA204670BD0000009D000010B5044642
:103E2000010600F00F00092804D306A140F29920F2
:103E3000FEF716FA6FEA0460C10F204661F31F1007
:103E400010BD00002E2E5C2E2E5C2E2E5C2E2E5CC5
:103E50002E2E5C2E2E5C636F6D706F6E656E7473AC
:103E60005C647269766572735F6E72665C757362AC
:103E7000645C6E72665F6472765F757362642E63F3
:103E80000000000010B50021FDF700FC0021FDF747
:103E9000D5FB007810BD10B50021FDF7F7FB01211F
:103EA000FDF7CCFB007810BD70B50546000605F0A7
:103EB0000F0402D5092C09D301E0092C08D307A16E
:103EC00040F28620FEF7CCF9280601D5134801E020
:103ED0001248903800EB041070BD00002E2E5C2EAE
:103EE0002E5C2E2E5C2E2E5C2E2E5C2E2E5C636F96
:103EF0006D706F6E656E74735C64726976657273F3
:103F00005F6E72665C757362645C6E72665F64722B
:103F1000765F757362642E63000000001820022033
:103F200010B50446010600F00F00092804D3034928
:103F300040F26920FEF794F9204610BDA8940000D5
:103F400038B5044600F008FC002807D16946204631
:103F500005F094FB002801D10021216038BD00004C
:103F60002DE9FF4F91B01D4614464FF4007611A87D
:103F7000DDF8788001F074F8002803DA0B2015B022
:103F8000BDE8F08FFE4951F8201009B100220A70F7
:103F9000C0B20690FFF74CFCC10701D00320EEE74A
:103FA000400701D50A20EAE70CAA03210698FFF78B
:103FB000ADFC38B90C9828B1B0F5004F02D8411EBD
:103FC000084201D001200C90B24624B154453AD3A6
:103FD000B4F1807F37D8601E044234D1B8FBFAFBBD
:103FE000B4FBFAF75FEA4B202C4610907DD009AA6B
:103FF00001210698FFF78AFC002877D11298000764
:104000006FEAA0104FEA9069099848456DD3A0EB7C
:10401000090086460990802867D3802F13D812980C
:104020004FF6F5728007129840F6F57307D500F049
:10403000070002287ED01298C0077BD001E0C0079D
:1040400001D002269AE0132099E73D000ED100200E
:104050004FEA5E4C0125CB4901E06D00401C31F870
:104060001080B8F1000F01D0E045F6D9BEFBF5F0A5
:104070000AEB8001C91DB1FBFAF820210391002150
:104080000E91904231D9C04988422ED82BE000BF12
:10409000DFF8F0C200204FEA1E310125ACF10E0C12
:1040A00001E06D00401C3CF81080B8F1000F01D019
:1040B0008845F6D9BEFBF5F0984203D9042101EBFF
:1040C000400006E0012600EB40000321401C01EB0C
:1040D00050005044401EB0FBFAF8012081030390C9
:1040E000B1FBFAF00E90039901E05AE034E109EBDC
:1040F000010000EB080104900E9808440C9900EBB5
:10410000010C491EACF1010C2CEA010CACEB0001D6
:10411000032E1AD008EB010800EB0511A1EB0901F1
:1041200071453ED803990E98AEEB0101A1EB080151
:10413000081A00E028E0B0FBF5F00790032E0ED03F
:10414000022E13D0012E2AD02DE0DDF80CC08C44B5
:10415000CDF80CC0DDF810C061440491DCE790425A
:1041600021D8F7B96F087FF470AF1AE0904211D9E7
:104170003FB94020B0EB450F03D36F003D0099D10C
:1041800086E71298800707D503265EE76F00802F29
:10419000F4D906E0984206D8002FF7D001E0984203
:1041A00001D90E20EBE652460021204601F00CF921
:1041B0000B2276A1204601F0FDF8514604F10B00D8
:1041C00004F094FB6573039881B204F10E0004F0CF
:1041D0008DFB01202074032E0ED0514604F11100F6
:1041E00004F084FB0999B1F5803F07D289B204F14C
:1041F000130004F07BFB05E00021EFE704F1200051
:1042000004F06CFBF82060753F2104F1180004F005
:104210006DFBFF2104F11A0004F068FB494604F12C
:104220001C0004F05BFB5C498027032E24D004F1C2
:10423000270004F053FB1FFA88F104F1160004F084
:1042400055FB84F82470292084F82600132253A1FA
:1042500004F12B0001F0AEF804F5FF704AF6552189
:104260000B9004F043FB01234A4621460698FFF7D2
:10427000BBFC002870D121E004F1430004F02EFBC8
:10428000414604F1240004F029FB022104F12C0032
:1042900004F024FB012104F1300004F027FB062187
:1042A00004F1320004F022FB292084F8407084F8E5
:1042B000420013223EA104F14700CBE7032E32D186
:1042C000012309F1060221460698FFF78DFC5246AC
:1042D0000021204601F078F83A49204604F0FEFA21
:1042E000394904F5F27004F0F9FA079904F5F4700D
:1042F000491E04F0F3FA022104F5F67004F0EEFA18
:104300004AF655210B9804F0F1FA012309F107024E
:1043100021460698FFF768FC012309F101022146B6
:104320000698FFF761FC00212046109A01F04CF836
:104330006FF00701032E02D0012E0ED00EE02046B2
:1043400004F0CCFA4FF0FF31201D04F0C7FA6FF0F3
:10435000704104F1080002E03AE01C49204604F0F4
:10436000BDFA474658465F4500D838468046034662
:104370002146049A0698FFF737FC48BB524628E0CE
:104380002800002086970000F5FFFF0FEBFE904D00
:1043900053444F53352E3000000021484E4F204EDD
:1043A000414D45202020204641542020202020003F
:1043B0004E4F204E414D452020202046415433325F
:1043C000202020005252614172724161F8FFFF00CB
:1043D00058E00021204600F0F7FF0498B7EB0807EB
:1043E00040440490BED1032E00D00E9D58465D453A
:1043F00001D9074600E02F463B462146049A06981D
:10440000FFF7F2FBF0BB0498ED1B38440490EDD1AC
:10441000032E05D00998B0F5803F03D3062604E0AB
:104420000C2602E0022E38D001261298000736D45E
:1044300052460021204600F0C7FF4AF655210B984E
:1044400004F054FA04F5DF7500202870012169702A
:10445000A970E8702E71099909EB010043F6C1615A
:10446000B0FBF1F0FE2169713F2141EA9001A97191
:10447000E871494605F1080004F030FA05F10C0036
:10448000099900E013E004F029FA012300222146F3
:104490000698FFF7A9FB50B901E00426C5E7002202
:1044A00011460698FFF732FA00283FF478AD012054
:1044B00065E5000017B581B0144602980090684683
:1044C00000F0CEFD002802DA0B2004B010BD0B4A2C
:1044D000002352F8201001B10B700199002900D07F
:1044E0000B7042F8201001D0012C01D00020ECE725
:1044F000002201A902A800F0C3FBE6E72800002083
:104500002DE9F7438CB005000BD002F03F06324690
:1045100069460DA800F0B4FB04004FF0000804D079
:10452000BFE009200FB0BDE8F0830098019001A81A
:104530000D9900F0CBFC040004D19DF82F0000067B
:1045400000D5062416F01C0F4CD04CB1042C03D11E
:1045500001A8FFF7F9F8044646F008065CB1A0E0B0
:104560009DF80A0010F0110F01D0072499E07007A0
:1045700001D5082495E0300743D54D4F08983946BA
:104580000E3004F0ABF908983946163004F0A6F95D
:1045900008992020C8720899009800F0C6FD0746C7
:1045A00000220899009804F085F9089800211C3031
:1045B00004F094F900990120C87007B3D1F82C9049
:1045C0000022394601A803F05DFE040069D1494686
:1045D000009800F000FF04000098A7F10107C760F1
:1045E0000BD05EE0C4BB9DF80A00C10601D50424CF
:1045F00057E0B10701D5C007B7D1300701D546F064
:1046000040060098C16A296208996962089900F019
:104610008CFDA86008981C3000F09AFDE8600098B6
:1046200028604FF40072C088A8802E7485F811802D
:10463000C5F81C8005F1280000218146C5F81480CA
:1046400000F0C2FEB0062ED5EE6866B36E6100982B
:10465000A968408947020FE023E0284600F070FC7B
:104660000146012800D80224481C02D0F61B1CB1C8
:1046700004E00124F61B01E0BE42EED8A96184B932
:10468000F00510D00098FEF7F3FB70B100EB562256
:10469000EA610098012349464078FFF795F910B187
:1046A0000124C5F8008020463CE70224F9E7000019
:1046B0000000214813B582B0040006D000226946EC
:1046C00003A800F0DDFA18B120E0092004B010BD05
:1046D000009921602046039900F0F8FB90B994F806
:1046E0002B00000607D4A079C00612D5E169009816
:1046F00000F01BFDA0600098C188A1802046002129
:10470000FFF755F8042804D00028DFD000212160ED
:10471000DCE70520FAE738B50C460546694604F0A3
:10472000ADFF002813D1014628468CB1FEF7DCFF0F
:10473000042801D000280AD12146284600F05FFC59
:1047400000212846FEF756FF042800D1002038BD7E
:10475000FFF72DF838BD0000F8B50446694604F0AF
:104760008DFF00280ED1217C4A060BD508060ED5F8
:104770000098E2690123407804F12801FFF734FA38
:1047800008B10120F8BD207C00F07F002074154E98
:10479000216A009800F01FFE0028F3D1656A2946BF
:1047A000E87A40F02000E872A268206804F082F8FD
:1047B00005F11C00E16804F091F8314605F116009E
:1047C00004F08CF8002105F1120004F08FF8009835
:1047D0000121C17004F01EFA217C01F0BF01217497
:1047E000F8BD00000000214800B51F48ADF50F7D61
:1047F000007810B11D49012033E0FBF717FE034696
:104800001BA210218AA8FCF763FB8AAA1BA1032024
:1048100003F094F802F0CAFF0028FBD10A228AA90B
:104820006846FFF76DFE02000BD01EA1012003F0C9
:1048300085F800BF02F0BAFF0028FBD10DF50F7D0F
:1048400000BD6846FFF77CFB020008D021A10120D3
:1048500003F074F802F0AAFF0028FBD1EEE727A1CD
:10486000132003F045F8E9E70C000020689B0000E6
:10487000253038782E747874000000004150503A8A
:10488000494E464F3A4372656174696E67207261A2
:104890006E646F6D2066696C653A202573202E2E3C
:1048A0002E0000004150503A4552524F523A0D0AE4
:1048B000556E61626C6520746F206F70656E206F3D
:1048C00072206372656174652066696C653A2025A3
:1048D000750D0A004150503A4552524F523A0D0A56
:1048E000556E61626C6520746F20636C6F73652018
:1048F00066696C653A2025750D0A0000646F6E6567
:104900000D0A000010B54FF40C711548FBF7B9FD06
:1049100001211448FFF7E6F913A1032002F0E8FF94
:104920000020FEF785FF08B11AA113E023A10320A0
:1049300002F0DEFF012216A10948FFF7BBFD0200CD
:104940000CD00D2A05D025A1012002F0F7FF002090
:1049500010BD2A49012002F0CBFFF8E7012010BD6D
:10496000C0020220100000204150503A494E464FEC
:104970003A496E697469616C697A696E6720646925
:10498000736B2030202851535049292E2E2E0D0AAA
:10499000000000004150503A4552524F523A44698B
:1049A000736B20696E697469616C697A6174696F8F
:1049B0006E206661696C65642E0D0A004150503AA4
:1049C000494E464F3A4D6F756E74696E6720766F2B
:1049D0006C756D652E2E2E0D0A0000004150503A68
:1049E0004552524F523A4D6F756E74206661696C34
:1049F00065643A2025750D0A00000000209B000028
:104A000030B5224895B0007828B12149012002F044
:104A10006FFF15B030BD1FA1032002F069FF26A172
:104A200009A8FFF747FE020001D024A109E00024F5
:104A30000DF10D0501A909A8FFF76DFE020004D0D4
:104A400029A1012002F07AFFE3E79DF80D0078B17B
:104A50009DF80C00C00605D52A462DA1132002F0B2
:104A60006DFF05E02B462EA11320019A02F092FF64
:104A700014F1010402F09AFE0028FBD19DF80D000C
:104A80000028D7D1224629A10320DBE70C00002013
:104A9000689B00004150503A494E464F3A0D0A4C2F
:104AA000697374696E67206469726563746F727983
:104AB0003A202F0D0A0000002F0000004150503A0C
:104AC0004552524F523A4469726563746F7279204D
:104AD0006C697374696E67206661696C65643A20FD
:104AE00025750D0A000000004150503A4552524FC2
:104AF000523A4469726563746F72792072656164B9
:104B0000206661696C65643A2025750D0A00000015
:104B10002020203C4449523E20202025730D0A00CD
:104B200025396C75202025730D0A00004150503A3C
:104B3000494E464F3A456E747269657320636F75CE
:104B40006E743A2025750D0A00000000144808B55F
:104B5000007808B113490EE013A1032002F0C8FE4B
:104B60004FF4007042000090184B012118A0FFF78D
:104B7000F7F910B117A101200DE01DA1032002F0EB
:104B8000B7FE012212A12248FFF794FC08B121A12F
:104B9000F1E727A10320BDE8084002F0A9BE00000C
:104BA0000C000020689B00004150503A494E464F8F
:104BB0003A0D0A4372656174696E672066696C65B7
:104BC00073797374656D2E2E2E0D0A00C0000020BF
:104BD000000000004150503A4552524F523A4D6B3E
:104BE0006673206661696C65642E0D0A0000000022
:104BF0004150503A494E464F3A4D6F756E74696E4A
:104C00006720766F6C756D652E2E2E0D0A000000E4
:104C1000C00202204150503A4552524F523A4D6F15
:104C2000756E74206661696C65642E0D0A00000063
:104C30004150503A494E464F3A446F6E650D0A0056
:104C400010B504A1032002F053FEBDE8104000207F
:104C5000FEF766BF4150503A494E464F3A556E2DC9
:104C6000696E697469616C697A696E6720646973D9
:104C70006B2030202851535049292E2E2E0D0A002A
:104C80002DE9FF41002790460E460F6000F0E8F93D
:104C9000050003D50B2004B0BDE8F081884850F82A
:104CA00025409CB13460207808F0FE0620B1607881
:104CB000FEF702FFC1070BD02770E8B2B84660705C
:104CC000FEF7B6FDC10708D00320E4E70C20E2E7B9
:104CD0000EB1400704D40020DDE71EB1400701D526
:104CE0000A20D8E7002631462046FEF705F80228BC
:104CF00022D100254FEA0D0704EB051090F8F211C0
:104D000000F5F77019B1083000F022FA00E0002039
:104D100047F825006D1C042DEED3002557F82560BB
:104D200036B131462046FDF7E7FF022801D203E005
:104D300003206D1C042DF1D3042809D002286DD264
:104D400004F13B0000F00FFAB0F5007F66D101E0FE
:104D50000120A0E704F1460000F005FA18B904F1BB
:104D6000540000F0F5F9A06194F84050A570012DB1
:104D700001D0022D52D1454394F83D006081E8B343
:104D8000411E08424AD104F1410000F0ECF92081B3
:104D9000000743D104F1430000F0E5F9070004D116
:104DA00004F1500000F0D4F9074604F13E0000F091
:104DB000DAF9010032D02389481900EB1312974227
:104DC0002CD3B81A6789B0FBF7F0B8B103274FF6B8
:104DD000F57C604500D8022740F6F57C604500D898
:104DE0000127801C3244A26231446061C4E907613A
:104DF000032F15D013B12944616200E00EE0022FA9
:104E00001FD000F0010100EB400001EB500000BF9B
:104E1000A16900F2FF10B1EB502F14D20D203AE738
:104E200004F15A0000F09FF90028F7D120890028EA
:104E3000F4D104F15C0000F08BF9606260698000DD
:104E4000E6E74000E4E74FF0FF302061E0608020BB
:104E50002071032F2CD104F1600000F084F90128A7
:104E600026D1711C204600F0B6FA08BB84F80480F5
:104E700004F22E2000F077F9A0F52A41553917D118
:104E800004F1300000F064F90E49884210D104F5B5
:104E9000057000F05DF90C49884209D104F50670EF
:104EA00000F056F9206104F5077000F051F9E06058
:104EB00003492770091F0888401C0880E0800AE722
:104EC00028000020525261417272416173B504465C
:104ED0000568019801E0401C019001782F29FAD063
:104EE0005C29F8D00021A16001980078202806D222
:104EF000802084F82B002046FEF759FC7CBD01A9D8
:104F00002046FEF79DFA0028F8D12046FEF740FB28
:104F100094F82B1028B10428F0D14907EED40520CD
:104F20007CBD4907FCD4A079C006F8D5208AC0F31F
:104F3000080041192846303100F0F7F8A060DEE79C
:104F40002DE9F04104680D4602290BD36069A8429F
:104F500008D920784FF0FF36012807D002282BD03F
:104F6000032839D001263046BDE8F081206A05EBE0
:104F7000550700EB5721204600F02DFA0028F2D10A
:104F8000C7F3080020447F1C90F83080206A00EBB3
:104F90005721204600F01FFA0028E4D1C7F308008B
:104FA000204490F8301048EA0120E90701D00609B2
:104FB000D9E7C0F30B06D6E7206A00EB152120469F
:104FC00000F009FA0028CED1E8B204EB40003030FE
:104FD00000F0C9F80646C6E7206A00EBD511204666
:104FE00000F0F9F90028BED140F2FF1000EA850078
:104FF0002044303000F0ACF820F07046B3E72DE9E3
:10500000F041002305464B7280690C46002825D0EC
:1050100000210A462E26E869805C521C20280AD00E
:10502000052800D1E520092A02D16718491C7E72A3
:105030006718491C78720B2AEDD360184372E8692F
:10504000C07A2072E8691C3000F082F82060E869BC
:10505000163000F07DF8E080000CA080BDE8F08103
:1050600010B504464FF0FF302268002A13D01146D5
:1050700000E0491C0B78212B0ED33A2BF9D112F802
:10508000013B303B0A2B06D28A4204D1002B02D1CD
:10509000491C1846216010BD002010BD70B50E4699
:1050A0000446007918494FF4A27501EB4010017FC6
:1050B0002068A1B14FF4887102F0F3FC4FF49071B5
:1050C000206802F0EEFC4FF49271206802F0E9FCD7
:1050D0002946206802F0E5FC0C49206809E04FF4FD
:1050E0008E7102F0CDFC2946206802F0C9FC084907
:1050F0002068C0F80413206800F0EEFD3146BDE8DA
:10510000704000F0C1BD0000681F022010030200C3
:10511000800002000268134602E08A4204D012684E
:10512000002AFAD10B600160704770B506460D4643
:1051300001F11A0000F017F804463078032805D171
:1051400005F1140000F00FF844EA0044204670BD59
:10515000C178827842EA01214278007842EA01214E
:1051600040EA012070474178007840EA012070470A
:105170002DE9F047394E002780463D46DFF8E090A4
:10518000D6F804A057E003D00446D0F81C8035E0E0
:1051900099F8002002EB4201521CD2B289F800209B
:1051A00009EBC10199F80230091D9A4201D189F831
:1051B000005048680A780446012A12D0022A02D018
:1051C000032A3BD108E003F0F1FD00B1012725746B
:1051D00034E00574C06900E070680028F9D170609F
:1051E0002CE0207C50BB88686060C868A0600869BB
:1051F000E0604869A061F07800B165606268B168FC
:10520000184B501A20F07F40984202D2A1680844FF
:1052100006E0881AA16820F07F40814202D9081A6E
:10522000206000E0256065600120A56020742046B4
:10523000E56103F09DFDB8F10000A4D199F80010DC
:1052400099F801008142A3D117B97168514502D084
:105250000120BDE8F0870020FBE700008800002067
:10526000E0210220FFFF7F0000F0B4FC20B140A24B
:105270004FF4F371FCF7AAF8002000F049FD20B1CB
:105280003BA24FF4F471FCF7A1F8002002F0BEFB42
:1052900020B137A240F2EB11FCF798F838A10320B7
:1052A00002F026FB3C4900204FF400320854401C19
:1052B0009042FBD3FDF794FCFDF72CFCFFF722FB9B
:1052C00018B1FFF79DFBFFF78FFAFFF7B9FC3348E2
:1052D000FCF714FE20B126A24FF40071FCF776F81B
:1052E0002E480830FCF7DAF820B121A24FF4017102
:1052F000FCF76CF829480024001D00F0C3FD20B124
:1053000027A240F2C111FCF761F8294D28788442A8
:105310000AD0041E04D0FFF793FCFCF785FE03E0DF
:10532000FCF73CFCFFF7EEFA0020FDF7BFFB30B1C5
:10533000FFF75AFA0020FDF7B9FB0028FAD1012047
:10534000FDF7B4FB30B1FFF75BFB0120FDF7AEFBCF
:105350000028FAD10220FDF7A9FB30B1FFF7F6FBD8
:105360000220FDF7A3FB0028FAD102F01FFACDE7D7
:105370002E2E5C2E2E5C2E2E5C6D61696E2E6300CF
:105380004150503A494E464F3A48656C6C6F205533
:105390005342210D0A000000C00200203C9700008B
:1053A0002E2E5C2E2E5C2E2E5C6D61696E2E63009F
:1053B0000C000020002A05D011F8013B00F8013B49
:1053C000521EF9D1704700005FFA81F100F8011B0D
:1053D000521EFBD1704770B50446C06A0D460026C8
:1053E000A8420FD0204603F059FC06000AD160788D
:1053F00001232A4604F13001FEF7E6FA08B1751ED2
:105400000126E562304670BD70B5054608780C4649
:10541000002819D0012817D002280DD0032813D155
:105420000020FCF75BFE2146284600F07CF8BDE832
:1054300070400020FCF780BE0020FCF74FFE2146A4
:10544000284600F002F8F2E770BD2DE9FE4FD1F8D2
:1054500008A083460E46504600F0F8F9804600F05A
:10546000EFF80446C06CD4E90F5100B10120736815
:10547000074604F154090DCB89E80D00002684F895
:105480004960606B05FB01F208446063A06B9042C9
:1054900003D905FB1100A06300E0A6632146404646
:1054A00000F0F3F9206494F848004FF00109A0B926
:1054B00084F85170A26D04F154076A4305235046E5
:1054C000E16D03F0F7FC18B1504603F05BFE04E019
:1054D0003E607E60BE6084F8489094F850000328D7
:1054E0001FD0216C00291CD0E26CD8F81C305A4027
:1054F000E26400D0012209FA02F3184384F8500054
:10550000606BCDE90001D8F81800E16C0844029006
:105510006946584600F024FA002802D0504603F0AD
:1055200031FEBDE8FE8F2DE9FE43D1F8089080469C
:105530000F46484600F08AF9064600F081F87A687E
:105540000446B369D4E90F059168994201D001235B
:1055500000E00023D2E900726765C4E9162194F8DF
:1055600050C0012707FA03F12CEA010C84F850C05F
:10557000002184F84910636B5A196263A26B00FB27
:1055800005F39A4221D900FB1522A263F2B105FB73
:1055900000F18A4224D8E06CBCF1030F01D0F1691C
:1055A0004840616B0091216C0191B16908440290FF
:1055B00084F849706946404600F0F6F9002802D0A8
:1055C000484603F0DFFDBDE8FE83A163E16361634C
:1055D00094F8311003B04846BDE8F043FDF7A2BF90
:1055E00094F84830002BEED105FB1028414500D23D
:1055F0008846B8F1000FE6D02146304600F045F964
:105600002064B069E16C062301444246484603F039
:105610006CFC20B14846BDE8FE4303F0B3BD14F86E
:10562000510F80F0010004F8090907FA00F0217A0F
:10563000014321726068F169484060602770C2E7E9
:1056400010B5040003D106496420FCF709FE206868
:1056500018B903496520FCF703FE2068083010BD27
:10566000009D00002DE9F0470E465FEA000804D1D6
:10567000734940F23E60FCF7F3FD26B9704940F2F1
:105680003F60FCF7EDFD404600F0E0F80546FFF70F
:10569000D7FF0746307800244FF001090A2834D29A
:1056A000DFE800F0CCCC3CCC050A4A6B6FA7314652
:1056B000404602F0C5FE5EE0B078000629D54546BA
:1056C000404600F0C3F8FFF7BBFFF1784FF000044D
:1056D000002919D190F82C00C01E072817D2DFE846
:1056E00000F0041609AD16AD140000212846FDF7A0
:1056F00019FF40E00020FCF7F1FC284603F0C4F954
:1057000004460020FCF718FD98E0062496E00324E8
:1057100094E031464046FEF731FB2CE0002607E0DE
:10572000286A0022114650F8260000F003F9761C82
:10573000686AB042F4D881E000210320FCF7BAFC8B
:1057400005000FD0287846080D2E0BD301240DE05C
:10575000FAF768FE006835F81410405C80EA8000B3
:10576000000602D40620BDE8F087641CB442EFD3E3
:105770004046FBF7D5FF044660E04046FCF72AF8B8
:10578000F9E7686A102804D92D494FF4D260FCF774
:1057900067FD002629E0286ADFF8A8A050F82680D7
:1057A0004446D8F80000006818B92749D520FCF70E
:1057B00057FD20682A465146036820469847040052
:1057C00012D1B7F8881009FA06F00143A7F888103B
:1057D000404600F087F84068E969884204D91849D2
:1057E00040F29B60FCF73CFD761C686AB042D2D860
:1057F00024E0686A102804D9114940F2A460FCF73B
:105800002FFD002617E0286A50F8264020684068DF
:1058100018B90D49E220FCF723FD206841682046B5
:105820008847040006D1B7F8881009FA06F08143CA
:10583000A7F88810761C686AB042E4D8204692E740
:10584000009D000009540000AC9B000010B504004E
:1058500003D103495820FCF703FD204610BD00008A
:10586000009D000070B50C00054604D1054940F2CA
:10587000C160FCF7F5FC2846FFF7E8FF41692160AD
:10588000006970BD009D00007047CA6BC069896BDC
:10589000B0FBF2F0B1FBF2F3834201D2B1FBF2F0C4
:1058A000704708B56A46FAF71CFD009808BDC208A3
:1058B00000F007030120895C984008407047000011
:1058C00010B504460068406920B9054940F2391016
:1058D000FCF7C6FC206841692046BDE81040084737
:1058E000AC9B000010B504460068406920B905492A
:1058F00040F23910FCF7B4FC206841692046BDE84D
:1059000010400847AC9B000070B50446006815467F
:105910000E46006920B9064940F22B10FCF7A0FCA6
:1059200020682A46314603692046BDE87040184782
:10593000AC9B000070B50446006815460E46006931
:1059400020B9064940F22B10FCF78AFC20682A4651
:10595000314603692046BDE870401847AC9B000003
:1059600070B5044600680D46806818B90D49F720E7
:10597000FCF776FC2068406918B90A49F820FCF762
:105980006FFC206841692046884700682968884282
:1059900001D8072070BD2068294682682046BDE8EE
:1059A00070401047AC9B000070B5044600680D467F
:1059B000C06820B90E4940F21310FCF751FC206872
:1059C000406920B90A494FF48A70FCF749FC206805
:1059D00041692046884700682968884201D8072025
:1059E00070BD20682946C2682046BDE87040104757
:1059F000AC9B000000F180400068002800D001202E
:105A0000704708B500F180400021016000680090F7
:105A100008BD00000549096840F4803001F001111B
:105A2000814201D101207047002070470C040040E2
:105A300000283ED01F49204A096800BF00BF00BFB0
:105A400000BF00BF00BF00BF00BF91422FD000BF0A
:105A500000BF00BF00BF00BF00BF00BF00BF00BF4E
:105A600000BF00BF00BF00BF00BF00BF00BF00BF3E
:105A700000BF00BF00BF00BF00BF00BF00BF00BF2E
:105A800000BF00BF00BF00BF00BF00BF00BF00BF1E
:105A900000BF00BF00BF00BF00BF00BF00BF00BF0E
:105AA00000BF00BF00BF00BF00BF00BF00BF401E5F
:105AB000C3D17047B80000200024F400064810B598
:105AC000007820B905A140F24D10FCF7C9FBBDE8F4
:105AD00010400120FFF79EBFBC1E02202E2E5C2E20
