:10000000000004207D300000A5300000A730000073
:10001000A9300000AB300000AD300000000000004F
:10002000000000000000000000000000AF300000F1
:10003000B130000000000000B3300000B530000017
:1000400091170000F92A02007D1C0200B730000061
:10005000B7300000B7300000D11B0000B7300000FF
:10006000B7300000B7300000B7300000B7300000F4
:10007000B7300000511A0200B7300000B73000005E
:10008000B7300000590C0000B7300000B730000056
:10009000F90C0000B7300000B7300000B7300000A6
:1000A000B7300000B7300000B7300000B7300000B4
:1000B000B7300000B7300000000000000000000072
:1000C000B7300000B7300000B7300000B730000094
:1000D000E1130200B7300000B7300000B730000075
:1000E000B7300000B7300000B7300000B730000074
:1000F00000000000B7300000000000000000000019
:1001000000000000000000000000000000000000EF
:1001100000000000000000000000000000000000DF
:1001200000000000000000000000000000000000CF
:1001300000000000000000000000000000000000BF
:1001400000000000000000000000000000000000AF
:10015000000000000000000000000000000000009F
:10016000000000000000000000000000000000008F
:10017000000000000000000000000000000000007F
:10018000000000000000000000000000000000006F
:10019000000000000000000000000000000000005F
:1001A000000000000000000000000000000000004F
:1001B000000000000000000000000000000000003F
:1001C000000000000000000000000000000000002F
:1001D000000000000000000000000000000000001F
:1001E000000000000000000000000000000000000F
:1001F00000000000000000000000000000000000FF
:1002000010B5054C237833B9044B13B10448AFF350
:1002100000800123237010BD600900200000000051
:1002200094D80300084B10B51BB108480849AFF338
:1002300000800848036803B910BD074B002BFBD0B2
:10024000BDE81040184700BF0000000094D803002C
:1002500064090020C400002000000000154B002BA2
:1002600008BF134B9D46A3F5803A00218B460F46ED
:100270001348144A121A00F065F80F4B002B00D0F7
:1002800098470E4B002B00D0984700200021040017
:100290000D000D48002802D00C48AFF3008000F09C
:1002A0002BF82000290002F0E7FC00F011F800BF55
:1002B0000000080000000420000000000000000012
:1002C00060090020A8C1002000000000000000001C
:1002D00008B5074B044613B10021AFF30080054B6E
:1002E0001868836A03B19847204600F033F800BFCE
:1002F00000000000F844030070B50E4B0E4CE41AE9
:10030000A41000251E46A54204D056F82530984773
:100310000135F8E734F0E2F8084C094BE41AA41070
:1003200000251E46A54204D056F8253098470135D1
:10033000F8E770BDBC000020BC000020C000002019
:10034000BC00002002440346934202D003F8011B84
:10035000FAE77047FEE700BF2DE9F04F1546C7B03A
:100360001C46002900F01C81002B00F0EF800A23BE
:1003700001930023194606AE519B539A519F03EBFC
:10038000020B019B013B059320258C4601980CEB49
:10039000000304933133F318029306EB0C03002897
:1003A0005FD05A4202F00302824228BF024606286A
:1003B00000F2EC80019A06F80C50012A03F10101C9
:1003C00000F0E280022A5D7003F1020100F0DC809F
:1003D000032A9D7003F1030100F0D680042ADD702A
:1003E00003F1040100F0D080062A1D7103F105011C
:1003F00040F0D3805D71991D9646019890422ED0B1
:10040000C2EB0009A9F104008008013003900598AF
:10041000C2EB000A0398BAF1020F4FEA800812D922
:10042000624401284FF0203C06EB020A46F802C065
:1004300005D00228CAF804C001D0CAF808C0C845CF
:100440004144C6440BD001980D700EF10102904258
:1004500005D90EF1020E70454D7000D98D70019ACC
:100460001344534A0299D2F80080DDF84891DA1C0F
:10047000481C03F1330C0CE002F8035C02F8025C48
:1004800002F8015C0332624500F8015C00F10100F2
:1004900033D0A345F0D9A74295BFE11B509919F875
:1004A0000110095D02F8015C4FEA211E5FFA8EFA25
:1004B000BEF1090F01F00F0ED4BF0AF1300A0AF1A4
:1004C000370ABEF1090F02F803AC94BF0EF1300EEB
:1004D0000EF1370E08EB010A02F802EC9AF801E07F
:1004E00003321EF0970F08BF2E21624500F8011C51
:1004F00004F1010400F10100CBD1029804990D220E
:100500004FF00A0801F14309027480F8118083F862
:10051000305023464FF0000A4C46994606EB0A013C
:100520002246002002F036FC8244241A10B9B8F1A9
:10053000010801D0002CF1D1CB454C464FF0000C06
:100540003FF624AF204647B0BDE8F08F06AE0B68FB
:10055000184A30464FF4807133F01AF80028F1DB66
:100560000A2307460193284633F064F8C22828BFBF
:10057000C220804629460246F01932F077FC08EB8B
:10058000070300241946F7E6964636E7002A7FF46B
:1005900012AF19469646019832E74FF0050E2CE748
:1005A00013B1019106AEE7E60194274606AEDAE7FD
:1005B000B8000020FC4403002DE9F0419046C6B08D
:1005C0001F46C1B106AE0B68564A30464FF48071E3
:1005D00032F0DEFF00280ADB4C9B0546062B00F2BA
:1005E0009F80DFE803F042525D6A798A14000020A0
:1005F00046B0BDE8F0814C9B062B00F28F80DFE80F
:1006000003F033424D5A697A0400002506AE07F123
:100610000C017A683B68D7F808C092C9701900923B
:10062000029103944246CDF804C00497C5F5807149
:1006300032F0AEFF0446002CD9DB2C44B4F5807FA9
:10064000D5D80A27002506AE71192246002002F0EF
:10065000A1FB0544241A08B9013F01D0002CF3D1B5
:10066000012046B0BDE8F0810025404632F0E2FFAF
:100670004319FF2B0446DED806AE414670192246C8
:1006800032F0F4FBD7E7002506AE701942463B680E
:10069000C5F5807132F07CFF0446CCE7002506AE3C
:1006A0007A683B68009270194246C5F5807132F055
:1006B0006FFF0446BFE7002506AE7A68B9683B685D
:1006C0000092019170194246C5F5807132F060FFC9
:1006D0000446B0E7002506AE7A68BC68F9683B6856
:1006E00000920194029170194246C5F5807132F072
:1006F0004FFF04469FE7002506AE07F108017A6820
:100700003B6892C970190092019102944246039786
:10071000C5F5807132F03CFF04468CE7002490E779
:1007200000248AE7FC44030070B5074C074D23788A
:10073000064613B12B78834204D002F06BFC0123F0
:100740002E702370002070BD7D0900207C090020E0
:1007500000487047B9050000004870475903000081
:1007600038B50120FFF7E0FF044638B9FFF7F0FF86
:100770000546FFF7F1FF024B5D619861204638BDE9
:100780008009002010B5054C82B00A46002164693A
:1007900000910B46A04702B010BD00BF80090020A9
:1007A00030B585B004AB054C43F8042D01250A464D
:1007B000646900950021A04705B030BD8009002084
:1007C00030B5064C85B00225029203930A4664694F
:1007D0000095002102ABA04705B030BD8009002084
:1007E000084B1B5C1F2B8ABF074A4FF0A04203F047
:1007F0001F03D2F80405D84000F0010080F001008A
:10080000704700BF0445030000030050074B1B5C0A
:100810001F2B86BF03F01F0305494FF0A0410122A3
:1008200002FA03F3C1F80C35704700BF044503001A
:1008300000030050064B1A5C1F2A86BF02F01F02FD
:1008400004494FF0A04101239340C1F80835704797
:1008500004450300000300504FF0A04310B44FF4D0
:1008600080404FF400544FF400414FF48032C3F8FD
:100870000845C3F80805C3F80815C3F808255DF84E
:10088000044B70474FF0A04310B44FF480404FF436
:1008900000544FF400414FF48032C3F80C45C3F8C4
:1008A0000C05C3F80C15C3F80C255DF8044B704714
:1008B0000A4B195C1F298ABF09484FF0A04001F07C
:1008C0001F01D0F8043501228A4022EA03011340B7
:1008D000C0F80815C0F80C35704700BF0445030088
:1008E0000003005030B44FF0A04303224FF40055F2
:1008F0004FF480444FF400404FF48031C3F8342764
:10090000C3F83827C3F83C27C3F84027C3F8085575
:10091000C3F80845C3F80805C3F8081530BC70478C
:100920000B2809D00C2809D0182809D0192814BF81
:100930004FF0FF30032070470020704701207047C0
:10094000022070474B4B1978002900F091802DE967
:10095000F04F87B0DFF828C104910024012504E09E
:100960000134049BE4B29C4265D227B2DCF80060FB
:1009700016F83700A0F1200305FA03F93E4BC0F149
:10098000200ED3E9002325FA0EFE49EA0E0905FAE6
:1009900000F808EA020A09EA030B06EBC7015AEA63
:1009A0000B0E0591DCD03449CDF810C022EA0802C4
:1009B00023EA0903C1E9002301F0FAF816F83760C9
:1009C000DDF810C0A6F1200205FA02F201920199A9
:1009D000C6F120035FFA80FA25FA03F3A6F120029C
:1009E00019430AFA02F30393019105FA06F1009103
:1009F000C6F120070399214B2AFA07F739430391DF
:100A00000AFA06F1D3E900230291DDE90001104062
:100A1000194002460B46DDE902018B4208BF8242C3
:100A20004FF0000B0AD0134B1B7804930134049B46
:100A3000E4B29C4299D307B0BDE8F08F059A57689D
:100A400052780023A2F10102B2FA82F25209002F79
:100A5000E9D05B4506BF5245012100213046CDF863
:100A600014C0B847034BDDF814C01B78049377E734
:100A7000704700BFA4090020D0090020C809002049
:100A8000A00900202DE9F8430746204800F06CFD3E
:100A9000D0B91F4E0123A7F1200103FA01F5C7F1D8
:100AA0002002D6E9000123FA02F2154303FA07F403
:100AB00004EA000205EA0103134307D020EA040414
:100AC00021EA0505C6E90045BDE8F883384601F08E
:100AD0006FF8104FD7E9002398B144EA020845EABD
:100AE0000309D6E9002314431D43C7E90089C6E979
:100AF00000450949054809680022BDE8F84300F0AF
:100B0000DFBC22EA040823EA0509EAE7A809002075
:100B1000D0090020C80900209C090020F0B5042A53
:100B200083B0164602D8072003B0F0BD05460F4635
:100B300000F0DEFE002836D01D4BDFF88CC0DFF859
:100B40008CE01C481C491D60002200237C1E8CF890
:100B50000070CEF80060C0E90023C1E90023E4B2D0
:100B6000DFB10327002600E01C4623B205EBC302D9
:100B700015F833009378114A8DF8053001A98DF8E6
:100B800004708DF806608DF8076000F0BBFE631EF0
:100B90000028C9D1DBB2002CE6D1094A094800215E
:100BA00000F07CFCC0E700F05DFE0028C4D0BBE78D
:100BB000A0090020C8090020D0090020850A0000F3
:100BC0004509000008450300A40900209C090020F5
:100BD00070B5084D2B785BB1074E002433680121B6
:100BE00013F8340000F068FF2B780134A342F5D8E5
:100BF000002070BDA4090020A009002000B585B028
:100C000000230390194644F2010001AAADF8043014
:100C1000029300F003F805B05DF804FB08B501206D
:100C20000949FFF7AFFD03200849FFF7ABFDBFF30C
:100C30004F8F0749074BCA6802F4E0621343CB6049
:100C4000BFF34F8F00BFFDE70C4503001C450300B9
:100C500000ED00E00400FA05F8B5204A204B00251D
:100C6000C2F84051C2F84451C2F84851C2F84C5140
:100C7000C2F80051C2F804511B6813B31949D2F8E5
:100C800004250C68141B1A6824F07F44A2422F46E6
:100C900009D8197CDE69A41A154499B91EB13346E6
:100CA0001A68A242F5D9104B10491A780B789A426B
:100CB0000DD00F490F4A41F823504FF48013C2F86A
:100CC0000031F8BD1F745A6998699047E6E7531CD4
:100CD000DBB2022B08BF00230B70EAE700100140D3
:100CE000DC090020D8090020E0090020E1090020EB
:100CF000F00A002000E100E02DE9F04F7D4A7E4936
:100D0000137809787D48994287B0066800F0E88139
:100D10000133DBB2022B08BF002379491370794AF3
:100D20000291084652F82310036874488A19002576
:100D300022F07F420260AE462846A3B11A688A427A
:100D400000F2D681DC68C3F800E0891A1044DA6941
:100D500034B1871927F07F47DD619C605F601D46D5
:100D60001346002BEAD1029A04931360049C0123DA
:100D70000593654BDFF894811B7801935F4BDFF897
:100D800090C1D3F800A0029B1F680023BB462F46EA
:100D90000093C1461E464FF0010E37B37A68B9681A
:100DA0003D46FF69CAEB020323F07F4363453CD80D
:100DB0000B442B606E60AE6085F810E0EE61002C95
:100DC00067D021688B4242D9204603E011689942DE
:100DD00044D21046C2695B1A002AF7D12B60EA613F
:100DE0002346C5611C46002FD8D198F8003098F8EA
:100DF00001209A4200F08E805A1C03EB430308EB5B
:100E0000C30399F802109D68D2B2914289F800207C
:100E10001A7908BF89F80070022A48D0032A3CD00A
:100E2000012A22D023461C46DDE7C2EB0A0222F04B
:100E30007F428A4202D28B1A2B60BBE72E606E6023
:100E4000AE6085F810E0EE611CB321680023CB1A78
:100E500023602B46EC61AB461C46C4E7C91A1160FF
:100E60002B60EA612346C561BCE72A7C0392002A15
:100E7000D8D1DA686A601969A9605869E8601033E6
:100E80009B68AB61019B002B8CD0039B6B601A4667
:100E900088E72B46AB461C46A5E70CB9C2E71C46C3
:100EA000E3692674002BFAD19B461C469BE754B19C
:100EB000A54200F00881234602E0954207D0134680
:100EC000DA69002AF9D123462E741C468BE7AB421F
:100ED00000F0FA80E9692868D9610029F3D0234637
:100EE0000A6802440A60009A2E749C4218BF0122CC
:100EF0000092EAE7E0090020E1090020D80900207B
:100F0000DC090020F00A0020E2090020E4090020AA
:100F1000FEFF7F00029B9DF80420C3F800B0764BD3
:100F2000C3F800A0754B1A70009B1BB9049BA34229
:100F300000F0D081002C00F03C81714D6E4BD5F853
:100F400004051B686F4ED4F800C03178C21A22F035
:100F50007F420332002952D16B4FDFF8B091DFF8A6
:100F6000B0814FF480314FF4003E0124C5F84413A2
:100F7000C5F80413C7F880E1C7F800E02C602F2102
:100F8000D9F8005000BF00BF00BF00BF00BF00BFC6
:100F900000BF00BF45452FD000BF00BF00BF00BF4E
:100FA00000BF00BF00BF00BF00BF00BF00BF00BF49
:100FB00000BF00BF00BF00BF00BF00BF00BF00BF39
:100FC00000BF00BF00BF00BF00BF00BF00BF00BF29
:100FD00000BF00BF00BF00BF00BF00BF00BF00BF19
:100FE00000BF00BF00BF00BF00BF00BF00BF00BF09
:100FF00000BF00BF00BF00BF0139C3D134706245DC
:101000002CBF9A1803EB0C023D4922F07F43C1F834
:101010004035D1F80425121A1B1A22F07F4223F022
:101020007F4303329A4248D9D1F80435374AC1F890
:101030004035126836492F2300BF00BF00BF00BFF4
:1010400000BF00BF00BF00BF8A422FD000BF00BF5B
:1010500000BF00BF00BF00BF00BF00BF00BF00BF98
:1010600000BF00BF00BF00BF00BF00BF00BF00BF88
:1010700000BF00BF00BF00BF00BF00BF00BF00BF78
:1010800000BF00BF00BF00BF00BF00BF00BF00BF68
:1010900000BF00BF00BF00BF00BF00BF00BF00BF58
:1010A00000BF00BF00BF00BF00BF00BF013BC3D1F6
:1010B000154B4FF40032C3F80021104A002313707F
:1010C00007B0BDE8F08F2246D4F81CB0BBF1000F8A
:1010D00022D0D16910685B4600297FF401AF02E796
:1010E0000C4B02931B680493002505951C4640E6B3
:1010F000521A1A6037E600BFD8090020E209002022
:1011000000100140F80A002000E100E06400002027
:101110000024F400DC0900207549764BC1F808E092
:1011200075492F20096800BF00BF00BF00BF00BF86
:1011300000BF00BF00BF99422FD000BF00BF00BF5B
:1011400000BF00BF00BF00BF00BF00BF00BF00BFA7
:1011500000BF00BF00BF00BF00BF00BF00BF00BF97
:1011600000BF00BF00BF00BF00BF00BF00BF00BF87
:1011700000BF00BF00BF00BF00BF00BF00BF00BF77
:1011800000BF00BF00BF00BF00BF00BF00BF00BF67
:1011900000BF00BF00BF00BF00BF0138C3D1D1698D
:1011A0001068002900F09B800122DA465B4601921C
:1011B00096E64F4A514B504E4E484FF480314FF413
:1011C00000370125C3F88070C2F848132F23C2F8F6
:1011D0000813556031681E4600BF00BF00BF00BF46
:1011E00000BF00BF00BF00BF81422FD000BF00BFC3
:1011F00000BF00BF00BF00BF00BF00BF00BF00BFF7
:1012000000BF00BF00BF00BF00BF00BF00BF00BFE6
:1012100000BF00BF00BF00BF00BF00BF00BF00BFD6
:1012200000BF00BF00BF00BF00BF00BF00BF00BFC6
:1012300000BF00BF00BF00BF00BF00BF00BF00BFB6
:1012400000BF00BF00BF00BF00BF00BF013EC3D151
:1012500095602B4A146000BF00BF00BF00BF00BFF5
:1012600000BF00BF00BF81422FD000BF00BF00BF42
:1012700000BF00BF00BF00BF00BF00BF00BF00BF76
:1012800000BF00BF00BF00BF00BF00BF00BF00BF66
:1012900000BF00BF00BF00BF00BF00BF00BF00BF56
:1012A00000BF00BF00BF00BF00BF00BF00BF00BF46
:1012B00000BF00BF00BF00BF00BF00BF00BF00BF36
:1012C00000BF00BF00BF00BF00BF013BC3D10D4B3B
:1012D0001C70F2E6059B002B3FF4EFAE2AE60123DB
:1012E0001A4601938A468B460B4600922E74ECE513
:1012F000001001400024F4006400002000E100E040
:10130000D8090020F80A00202DE9F041594B5A4A2B
:101310005A4D5B4E4FF480344FF400310120C2F837
:101320008010C3F848432F21C3F8084358602D6844
:101330000C4600BF00BF00BF00BF00BF00BF00BF22
:1013400000BFB5422FD000BF00BF00BF00BF00BF2D
:1013500000BF00BF00BF00BF00BF00BF00BF00BF95
:1013600000BF00BF00BF00BF00BF00BF00BF00BF85
:1013700000BF00BF00BF00BF00BF00BF00BF00BF75
:1013800000BF00BF00BF00BF00BF00BF00BF00BF65
:1013900000BF00BF00BF00BF00BF00BF00BF00BF55
:1013A00000BF00BF00BF013CC3D1364C9860002095
:1013B000206000BF00BF00BF00BF00BF00BF00BF74
:1013C00000BFB5422FD000BF00BF00BF00BF00BFAD
:1013D00000BF00BF00BF00BF00BF00BF00BF00BF15
:1013E00000BF00BF00BF00BF00BF00BF00BF00BF05
:1013F00000BF00BF00BF00BF00BF00BF00BF00BFF5
:1014000000BF00BF00BF00BF00BF00BF00BF00BFE4
:1014100000BF00BF00BF00BF00BF00BF00BF00BFD4
:1014200000BF00BF00BF0139C3D1174D1749DFF816
:101430006080DFF860C0DFF860E028704FF480164D
:10144000E0250B27C8F800008CF800008EF800009B
:10145000087048708F70C2F8806182F8145316606B
:10146000C3F8080582F81153D3F804352360BDE8AA
:10147000F08100BF0010014000E100E064000020A6
:101480000024F400D8090020F80A0020E409002014
:10149000DC090020E0090020E1090020074B9B78CF
:1014A0000BB9082070473AB130B10368187C0028A6
:1014B000F7D159745A61704707207047E40900203A
:1014C0002DE9F041254CA37813B90820BDE8F0813F
:1014D0000028FAD0042902D80720BDE8F08143692A
:1014E000002BF2D0437C0546012B4FF000000CBFCF
:1014F0008846804617460E4600F06CF86378A07860
:1015000021785A1CD2B2904208BF002291421ED0CC
:1015100003EB430304EBC30319464FF0010E41F8FC
:10152000085F0F4883F804E0D0F8040548608E6037
:101530000020C3F814809F61627000F053F8094BDB
:101540004FF48012C3F800210020BDE8F081002094
:1015500000F048F80420BDE8F08100BFE409002055
:101560000010014000E100E070B5184CA3780BB901
:10157000082070BD0028FBD04369002BF8D000255F
:1015800005740646284600F025F86278A078217890
:10159000531CDBB2984208BF2B46994211D002EB94
:1015A000420204EBC2020221284696601171637068
:1015B00000F018F8064B4FF48012C3F800212846BB
:1015C00070BD284600F00EF8042070BDE40900202C
:1015D00000E100E072B6024A1368013313607047FD
:1015E000FC0A0020034A1368013B136003B962B68A
:1015F000704700BFFC0A002010B50C4C23780BB1DB
:10160000852010BD0A4A6360E3601068A36010F093
:101610000100236102D1072100F0FCF84FF0804265
:101620000123C2F818352370002010BD000B0020E4
:1016300000E100E030B51B4DAB78044683B003F009
:10164000FF0073B114B16368012098470020FFF7D1
:10165000C1FFEB6800200133EB60FFF7C3FF03B06D
:1016600030BDFFF7B7FF64B12A6942B1944208D098
:10167000134601E09C4204D01B68002BFAD1226083
:101680002C61EB68002BE4D1074A0849136013680A
:1016900001934FF0804202200123019CC2F8040311
:1016A0000B60D6E7000B002004010040080000405A
:1016B0004FF08043D3F81804C0F30040704700BFD8
:1016C00030B51A4D6B78044683B003F0FF0073B158
:1016D00014B16368002098470020FFF77BFF6B6818
:1016E000002001336B60FFF77DFF03B030BDFFF7D3
:1016F00071FF64B1AA6842B1944208D0134601E078
:101700009C4204D01B68002BFAD12260AC606B684D
:10171000002BE4D1064A1360136801934FF0804315
:1017200001220199C3F804231A60D8E7000B0020B6
:101730000001004008B50020FFF74CFF0C494B6842
:10174000013B4B604B686BB90A4B01221A604FF0AA
:101750008042D2F80C3403F00113B3F1011FF8D02A
:1017600000234B700020BDE80840FFF73BBF00BFDF
:10177000000B0020040000404FF08043D3F80C041D
:1017800000F00110A0F10110B0FA80F0400970479C
:1017900010B51D4B1A6882B0F2B91C4B1A680AB911
:1017A00002B010BD00221A601B6801934FF0804305
:1017B0000222174C0199C3F8082323690122A27061
:1017C000002BEDD01A6822615B68012098472369DD
:1017D000002BF7D102B010BD00221A601B680093E5
:1017E0004FF0804301220A4C0099C3F80823A368F4
:1017F0006270002BD1D01A68A2605B680020984705
:10180000A368002BF7D1C8E70001004004010040A5
:10181000000B0020002810B418DB00F1604303F532
:1018200061434901C9B283F80013C3B24009800083
:1018300000F1604000F5614003F01F020123934076
:10184000C0F8803103605DF8044B7047C3B2044AAE
:1018500003F00F0449012244C9B21176E6E700BF44
:10186000FCEC00E030B51F4C94F8645083B015B127
:10187000082003B030BD4FF0FF33FF2206200721C0
:1018800023636363A363E36323646364A364E36424
:1018900023656365A365E36523606360A360E3601C
:1018A00023616361A361E361236284F86030636252
:1018B000A36284F86230E36284F8633084F86120C4
:1018C000FFF7A8FF084B094A1D601B6801930198A8
:1018D0004FF000430121284684F86410C2F8043315
:1018E00003B030BD140B00207C610040006000405C
:1018F000034B93F86400003018BF0120704700BF0D
:10190000140B0020F0B56A4C251895F93030002BE7
:1019100001DB0820F0BD91F803E09446BEF1000F12
:1019200056D02368013300F0BB80082600256B1CCD
:101930005F4F54F82320013251D0AB1C9E4245D951
:1019400057F8232001324AD0EB1C9E423ED957F86B
:101950002320013243D02B1D9E4237D957F8232034
:1019600001323CD06B1D9E4230D957F823700137AD
:1019700035D0AB1D9E4229D954F823204C4F01325B
:101980002DD0EB1D9E4221D957F82320013226D0BD
:1019900005F108039E4219D957F8232001321ED0C1
:1019A00005F109039E4211D957F82320013216D0C0
:1019B00005F10A039E4209D957F8237001370ED06A
:1019C0000B35AE4202D9E36A013307D00420F0BDE3
:1019D000236A01335CD00C260825A8E70B232618C0
:1019E000DDB244F823C0324686F83050BEF1000F15
:1019F00002D1234483F858008B78DBB91F284A783A
:101A000087BF2C4E00F01F0303464FF0A04603F59E
:101A1000E073920046F82320CB78E3B96AB2083A23
:101A20001444097894F8602042EA811284F8602016
:101A30001846F0BD1F2887BF1E4B00F01F0202464C
:101A40004FF0A04303EB8203D3F8002722F00202F9
:101A5000C3F80027E0E76BB29B0003F1804303F576
:101A6000C0430A78D3F8101521F44F3121F44071A6
:101A7000C3F810151204000202F44031D3F81045E7
:101A800000F47C520A432243C3F810250020F0BD25
:101A9000082685F830603346C4F820C03546A8E7EC
:101AA000002385F83030C4F800C01D46A4E700BF0D
:101AB000140B002000030050F0B43A4D2E1882B0F1
:101AC00096F8302053B2072B20DD2B4493F8583082
:101AD0009B09032B44D0012B0CBF4FF400324FF471
:101AE00040321F2849D900F01F002F4B03EB800024
:101AF000D0F8003723F44033C0F80037D0F800376F
:101B00001A43C0F8002702B0F0BC7047072AFAD881
:101B1000980000F1804000F5C04003F140029200BF
:101B2000D0F8104592B202F18042002744F001043F
:101B300002F5C042C0F810450197019817600029CE
:101B4000E1D096F9302055F82220002ADBD001227E
:101B5000164902FA03F3C1F8043302B0F0BC70472F
:101B60001F280DD9104BD3F8103500F01F00C340CB
:101B7000DB0713D54FF44032B7E74FF0A043B5E78A
:101B80004FF0A0421346D2F81025C24012F0010FC8
:101B90000CBF4FF400324FF44032A7E74FF400324D
:101BA000A3E700BF140B00200003005000600040BA
:101BB0001F288ABF054B4FF0A04300F01F00D3F849
:101BC000103523FA00F000F00100704700030050C8
:101BD0002DE9F04F89B00025B24B029503951A68A4
:101BE000012A00F05081B04B1A68012A00F03D81B3
:101BF000AE4B1A68012A00F02A81AD4B1A68012AFF
:101C000000F01781AB4B1A68012A00F00481AA4B3F
:101C10001A68012A00F0F180A84B1A68012A00F026
:101C2000DE80A74B1A68012A00F0CB80A54B1A680A
:101C3000012A00F0B58015F0FF0F1AD0A24F01263F
:101C40000024A30003F180432E4203F5C0434FEA72
:101C500046060BD0D3F8100557F82420D3F81015FA
:101C6000C0F30520C1F3014102B190470134082CB3
:101C7000E7D1002D02DB09B0BDE8F08F934F0022C1
:101C80004FF0FF33A7F1630904920592069307937F
:101C90008F4C4FF0000A4FF0010814F8013FFF2B62
:101CA00030D0DBB223F0C00008AAC608951903F0B3
:101CB000070215F8081C08FA02F2114222D009EBBB
:101CC000000E99099EF930E059F82EC0BCF1000FC2
:101CD00056D0032956D01F288ABF03F01F06064698
:101CE000DFF8F0E115F818BC98BF4FF0A04E06F5EC
:101CF000E0761BEA020F5EF82650C5F301451AD1C3
:101D0000032D48D0BC42C8D1BAF1000FB3D04FF078
:101D1000A0430299D3F810356E4A9942D2F81025A3
:101D200002D103999142A6D0049805990293039297
:101D300006900791ACE7022DE4D1032904D0BCF151
:101D4000000FDFD0E047DDE74FF440321F288BBFA4
:101D5000604D4FF0A04503F01F03034605EB8303DE
:101D60000AF1010AD3F8005725F44035C3F80057AB
:101D7000D3F800572A435FFA8AFAC3F80027DEE750
:101D80000329BFD10DF1100B1BF806E04EEA020E3D
:101D90000BF806E09FE70329D1D14FF40032D5E7D5
:101DA00000221A601B6801934FF0A042019BD2F8F9
:101DB0001025484B0292D3F81035039345F00045A7
:101DC00039E7454AD2F8042312067FF52FAF0022E7
:101DD0001A601B680093009B45F0800526E73E4A89
:101DE000D2F8042351067FF51CAF00221A601B684D
:101DF0000093009B45F0400513E7374AD2F80423CF
:101E000090067FF509AF00221A601B680093009BC3
:101E100045F0200500E7304AD2F80423D4067FF5C8
:101E2000F6AE00221A601B680093009B45F0100577
:101E3000EDE6294AD2F8042316077FF5E3AE002227
:101E40001A601B680093009B45F00805DAE6224AF9
:101E5000D2F8042357077FF5D0AE00221A601B6822
:101E60000093009B45F00405C7E61B4AD2F8042303
:101E700092077FF5BDAE00221A601B680093009B9D
:101E800045F00205B4E61449D1F8041311F001013C
:101E900005D01D601B680093009B1546A3E60D4608
:101EA000A1E600BF006100400461004008610040FD
:101EB0000C61004010610040146100401861004056
:101EC0001C6100407C610040140B0020770B002057
:101ED000730B002000030050006000400220FEF75A
:101EE000E7BC00BF2DE9F0470D460646FEF718FD9A
:101EF000032804461DD8012D1FD00ED3022D1AD160
:101F00001C4B00EB40041C44657895B11A4B1B68D0
:101F10007BB12846BDE8F04718471848FFF724FB77
:101F20001449174A04EB44030B44155D9B789D420A
:101F3000EBD0BDE8F087BDE8F087DFF838804700D8
:101F40003B1808EB030218F8035053782BB92744C9
:101F500047440B4BBA781A55D7E7DFF82890074863
:101F60004A464FF40041FFF7ABFA0028EFD189F859
:101F70000060ECE7F80B0020AC0B0020B00B002059
:101F8000A40B0020F40B002010B50078FEF7C8FC6D
:101F900003280BD8064B00EB40001844407828B1CA
:101FA000044B1B6813B1BDE81040184710BD00BFBB
:101FB000F80B0020AC0B0020B34B1B68DB0700D4F0
:101FC000704770B5B14EB24D33782C78FBB9172CF1
:101FD0001CD8DFE814F0F10014011401630076004E
:101FE000830096005D0039002C0039002C00A3000E
:101FF000A800A800A800A800A800CE00DE000101EB
:10200000460018001800FEF73DFC2C7070BDA14B77
:102010001B7800203070002B00F00581FEF70AFCD1
:102020000120FEF707FC0320FEF704FCCFE70123A5
:1020300018463370FEF73CFC97484FF4804100226D
:10204000BDE87040FFF73CBA012318463370FEF735
:102050002FFC914840F6CD410022BDE87040FFF7CB
:102060002FBA8C4B1B78002B00F0FE800020FEF76F
:10207000E1FB0120FEF7DEFB0320FEF7DBFB002087
:10208000FEF7C4FB0120FEF7C1FB15232B7070BDCA
:102090000020FEF7BBFB07232B7070BD0020FEF76E
:1020A0009FFB002800F0D3800020FEF7C3FB46F220
:1020B000666103232B7078480022BDE87040FFF76B
:1020C000FFB90020FEF78CFB002800F0C58000203F
:1020D000FEF7B0FB4FF400310423EBE70020FEF7DE
:1020E0007FFB002800F0BD800020FEF7A3FB052346
:1020F0002B70694841F69A110022BDE87040FFF745
:10210000DFB90020FEF7D4FB06232B70624840F6AF
:10211000CD410022BDE87040FFF7D2B9FEF7B2FB17
:102120000C232B7070BD5D48FFF71EFAD4F111042B
:1021300005467BD0002879D1012C13D0C82303FB9E
:1021400004F44FF4FA704FF400430021C3FB040180
:102150004FF47A72002330F075FB2A4601464F484F
:10216000FFF7AEF90220FEF751FB4A4B01221A702D
:1021700070BD484B1B78002B79D00020FEF75AFB2E
:102180000120FEF757FB0320FEF754FB12232B70B0
:1021900070BD404B1B78002B6FD00020FEF74AFB30
:1021A0000120FEF747FB0320FEF744FB0020FEF76B
:1021B0002DFB13232B7070BD364B1B78002B59D091
:1021C0000020FEF737FB0120FEF734FB0320FEF76B
:1021D00031FB00232B7070BD2E4B1B78002B4FD092
:1021E0000020FEF727FB0120FEF724FB0320FEF76B
:1021F00021FB0120FEF70AFB14232B7070BD002089
:10220000FEF7EEFAC8B10020FEF714FB022C4EF2E6
:10221000666118BF4FF400312C701F480022BDE8E2
:102220007040FFF74DB9FEF717FBD0E60220FEF72E
:1022300001FB184B00221A7070BDFEF7E7FA41F659
:102240009A1343F23331022C08BF1946E4E7FEF734
:10225000DDFA41F69A112CE7FEF7D8FA43F2333152
:102260003AE7FEF7D3FA42E7FEF7F6FA07E7FEF79A
:10227000F3FA8BE7FEF7F0FAABE7FEF7EDFA95E736
:10228000FEF7EAFAB5E700BFA00B0020A80B00207C
:10229000D00B00209C0B00207C0B0020D40B0020D6
:1022A00038B5C44B1B6813F0010401D1204638BD7A
:1022B000C14C23780546E3B9172D00F27881DFE899
:1022C00015F00B013101310169007D009100A5007D
:1022D0005B003500280035002800B300BA00BA00C2
:1022E000BA00BA00BA00E300F6001C014200630025
:1022F0006300B24B1B7800202070002B00F0278178
:10230000FEF798FA0120FEF795FA0320FEF792FAFD
:10231000D2E7012318462370FEF7CAFAA8484FF403
:1023200080410022BDE83840FFF7CAB801231846B3
:102330002370FEF7BDFAA24840F6CD410022BDE869
:102340003840FFF7BDB89D4B1B78002B00F0208173
:102350000020FEF76FFA0120FEF76CFA0320FEF76B
:1023600069FA0020FEF752FA0120FEF74FFA954B6A
:1023700015221A70002499E70020FEF747FA914BC6
:1023800007221A70002491E7FEF77CFA8D4B002497
:102390001D708BE70020FEF723FA002800F0E18093
:1023A0000020FEF747FA46F26661864B8448032414
:1023B0001C700022BDE83840FFF782B80020FEF70D
:1023C0000FFA002800F0DC800020FEF733FA4FF40B
:1023D00000317C4B7A4804241C700022BDE8384050
:1023E000FFF76EB80020FEF7FBF9002800F0CD8063
:1023F0000020FEF71FFA734B714805241C7041F64C
:102400009A110022BDE83840FFF75AB80020FEF7C5
:102410004FFA6C4B6A4806241C7040F6CD410022EE
:10242000BDE83840FFF74CB8FEF72CFA654B0C229C
:102430001A7000243AE76448FFF796F8D5F11105C1
:10244000044600F08780002840F08480012D14D0DD
:10245000C82303FB05F54FF4FA704FF40043002145
:10246000C3FB05014FF47A72002330F0EBF92246EA
:1024700001465548FFF724F804460220FEF7C6F946
:102480004E4B01221A7011E74C4B1B78002B00F0C9
:1024900082800020FEF7CEF90120FEF7CBF9032061
:1024A000FEF7C8F9474B12221A700024FEE6434B90
:1024B0001B78002B75D00020FEF7BCF90120FEF739
:1024C000B9F90320FEF7B6F90020FEF79FF93D4B5E
:1024D00013221A700024E9E6384B1B78002B5DD0DC
:1024E0000020FEF7A7F90120FEF7A4F90320FEF76C
:1024F000A1F9344B00241C70D8E6304B1B78002B1C
:1025000052D00020FEF796F90120FEF793F9032040
:10251000FEF790F90120FEF779F92A4B14221A7080
:102520000024C3E60020FEF75BF9F8B10020FEF7B7
:1025300081F9022D4EF2666118BF4FF40031214B34
:102540001F481D700022BDE83840FEF7B9BFFEF7F6
:1025500083F9B1E60220FEF76DF9184B00221A70DC
:10256000A4E6FEF753F941F69A111EE7FEF74EF97D
:1025700041F69A1343F23331022D08BF1946DEE7C4
:10258000FEF744F943F2333123E7FEF73FF932E730
:10259000FEF762F9E5E6FEF75FF983E7FEF75CF91F
:1025A000A7E7FEF759F98FE7FEF756F9B2E70024DF
:1025B0007CE600BFA00B0020A80B00209C0B002095
:1025C0007C0B0020D00B0020D40B0020F0B5214A5A
:1025D000214B1060044610F0020083B0196015D042
:1025E0001E4B1F484FF00E0E0F27102611250421F9
:1025F00040F2666283F800E0DF709E715D72FEF764
:102600008DFAA0B1E3071DD403B0F0BDE20719D4E1
:102610001448154A0021FEF741FF0028F4D1134861
:10262000134A012103B0BDE8F040FEF737BFFEF7C3
:10263000CFFA0028E6D101460E4A0F48FEF72EFFDA
:10264000E10703D50190FEF74DF901980028DFD08E
:1026500003B0F0BDA00B0020AC0B0020F80B002055
:10266000404503003C450300B91F000060450300DE
:10267000DD1E0000891F000038450300020700D45A
:10268000704708B5084605F055F90E4A052812D8D6
:10269000DFE800F00A0A110303030723137018464A
:1026A000BDE80840FFF7FCBD002313701846BDE8E5
:1026B0000840FFF7F5BD062313701846BDE8084033
:1026C000FFF7EEBD120C002008B51C4B1B78032B46
:1026D00027D8DFE803F0211207020120BDE80840F7
:1026E000FEF794B80120FEF7E3F8154840F6CD4117
:1026F0000022BDE80840FEF7E3BE0120FEF770F8B7
:1027000080B90120FEF782F841F69A110C480022A8
:10271000BDE80840FEF7D4BE0120BDE80840FEF742
:1027200089B808BD0120FEF785F846F266610448C5
:102730000022BDE80840FEF7C3BE00BF110C002018
:10274000340C002008B51B78802B00D008BD0D4B41
:10275000072201201A70FEF743F868B10020FEF747
:1027600069F80120FEF766F8074841F69A11002241
:10277000BDE80840FEF7A4BEFEF748F80120FEF7CA
:1027800045F8F1E7100C0020140C002008B52C4A85
:102790001378013BDBB2137083B10120FEF720F800
:1027A000A0B9FEF733F80120FEF730F8254841F6CE
:1027B0009A110022BDE80840FEF782BE224B1B782A
:1027C000032B0DD8DFE803F0121B2B090020FEF7C6
:1027D00031F80120FEF72EF8E8E70120FEF716F8A1
:1027E0001A4B1878BDE80840FFF75ABD0120FEF7E4
:1027F00021F8164B1878BDE80840FFF751BD0120BD
:10280000FDF7EEFFA8B10120FEF714F846F266616D
:102810000F480022FEF754FE0028E1D008BD012039
:10282000FEF746F840F6CD4100220948FEF748FE83
:10283000F2E70120FDF7EAFF41F69A11E8E700BF51
:10284000100C0020140C0020110C0020120C002091
:10285000340C0020F8B51A4E1A4B1B4F00242146A9
:102860000C22054630461C703C70FDF76BFD21467E
:10287000164B1748174A3360FEF710FE044660B146
:10288000284615492A4604F00BFC98B928460C49FD
:1028900004F08AFB40B92046F8BD01460F4A1048B3
:1028A000FEF7FCFD0446EBE70E480F4A0F4BE7210D
:1028B00030F09EFA0B480C4A0D4BE62130F098FAA6
:1028C000040C0020110C0020120C002045270000F1
:1028D00064450300C92600007D2600008D27000006
:1028E000684503006C45030060460300144603007E
:1028F000B4450300020770B504460D4612D4E30642
:1029000005D50F48002282604260C26002612846FD
:1029100005F010F8224603460A490320BDE870403E
:10292000FDF74EBF084605F005F803380228E6D942
:10293000034900228A604A60CA600A61DFE700BF7B
:10294000540C00209446030008B59DF8082003208D
:102950004AB10749FDF724FF064900228A604A6010
:10296000CA600A6108BD0449BDE80840FDF70ABF16
:10297000F8460300540C0020CC46030010B582B08A
:102980009DF8103073B91046144604F0D7FD0DF1D0
:10299000070201460123204604F0D4FD012808D097
:1029A00002B010BD1A4603200949FDF7F9FE02B036
:1029B00010BD9DF80730012BF2D1204604F0BEFD7A
:1029C000411C89B22046034A102304F0BBFDE7E70F
:1029D00020470300580C0020704700BF30B5B5B049
:1029E000032204468DF80F1010A8002111F0FEFFFD
:1029F00010A8022111F0FCFF1F4910A811F0FAFFE6
:102A000010A811F0F9FF204610A911F0F7FF60B3EC
:102A10000DF10F010122054604F092FD48B1024676
:102A200016490320FDF7BCFE284604F083FD35B0AF
:102A300030BD01462C2205A8FDF784FC012241F29D
:102A400033630F498DF8382009A81022ADF83630CD
:102A500030F00CFA05AA009420462946094B11F0E3
:102A6000D2FF0028DBD135B030BD03200649FDF789
:102A700089FE35B030BD00BF404703007C470300EE
:102A8000580C0020492900004847030070B5B4B035
:102A9000032205468DF80F1010A8102111F0A6FF93
:102AA0001F4910A811F0A6FF10A811F0A5FF284695
:102AB00010A911F0A3FF68B30DF10F010122064622
:102AC00004F03EFD044648B1224616490320FDF7B6
:102AD00067FE304604F02EFD34B070BD21462C2236
:102AE00005A8FDF72FFC012241F2336309A90E4826
:102AF0008DF83820ADF8363004F051FB00942346B1
:102B000005AA2846314611F07EFF04460028DBD195
:102B100034B070BD03200549FDF734FE34B070BDFC
:102B2000404703007C470300A447030048470300D5
:102B300030B50F28B3B045D011280FD00E2801D0E2
:102B400033B030BD274C2849201D04F026FB002857
:102B5000F6D120680221FFF741FFF1E7214B012266
:102B60000EA810211C6811F041FF0EA8022111F0DF
:102B70003FFF1E490EA811F03DFF20460EA911F09F
:102B80003DFF05460028DBD000212C2203A8FDF7DD
:102B9000D9FB012241F2336307A915488DF8302093
:102BA000ADF82E3004F0FBFA03AA00942046294623
:102BB000104B11F028FF0028C2D0284604F0BAFCC0
:102BC00033B030BD074B197D186881F001011975CC
:102BD00021B10121FFF75AFF33B030BDFFF756FF97
:102BE00033B030BD540C002084460300AC470300D2
:102BF000A44703007D29000008B5FEF785FB00B956
:102C000008BDBDE80840FDF7F9BF00BF30B40023A0
:102C10004FF4F0304FF0A045032403E0D20748BF43
:102C200045F821400133202B40FA03F203F5E0710F
:102C3000F4D14FF0A0434FF4F0310022C3F808154F
:102C4000C3F80C2530BC704708B503200849FFF7CE
:102C5000BDFC48B9074B1868FFF7FCFD00B908BD7B
:102C6000BDE80840FDF7CABFFDF7C8FFF2E700BFA7
:102C7000312B0000540C002008B505460C460020FE
:102C8000FDF76EFD284621461EF053FC04F0F6F9D0
:102C900000283DD0054600F02BFB04F0BDFE314975
:102CA00002460320FDF77CFD284604F092FD2E49E4
:102CB00002460320FDF774FD28462C492A4604F0FD
:102CC000EFF9002847D128460B2104F0EAFA002842
:102CD0003AD128464AF6CD3104F00AFB68BB2846B3
:102CE000012104F007FA08BB2846012104F0A7FEE1
:102CF000A8B91F4C2560FFF77FFFFFF7A5FFFFF77F
:102D000085FF206804F0D5FC20681EF025FCF8E75C
:102D10001848194A194B4FF4A87130F069F8154852
:102D2000154A174B4FF4AE7130F062F81148124A51
:102D3000144B40F25B1130F05BF80E480E4A124B18
:102D40004FF4AD7130F054F80A480B4A0F4B40F283
:102D5000591130F04DF80748074A0D4B40F2571112
:102D600030F046F8D8470300F4470300F528000088
:102D7000540C0020BC47030070460300CC470300FE
:102D8000CC48030094480300544803001048030053
:102D9000B44503002DE9F84F43001F18DFF880B158
:102DA000FF000BEB07048846E16A0129164644D070
:102DB00034D302293CD1013000EB4000656A0BEBB3
:102DC000C0094FF0000A1DE0126A641BB44223469A
:102DD000A2EB050428BF33469C42D9F8040028BF63
:102DE0001C4622462844414630F040F80BEB0703CE
:102DF00025441A6A954208BF0025361BA244A04408
:102E00005D6217D00BEB0702936AAB4203F1FF340C
:102E1000DAD8126A1344013B5C1BD7E7A16A626AE5
:102E200091429CBF246A091901398A1A964238D9FD
:102E30004FF0000A5046BDE8F88FA16A656AA942C2
:102E400029D90139226AC5EB010A03440BEBC30BF4
:102E50000BF1200BDBF80450314BB24528BFB246D2
:102E6000561B0130B24500EB40003FD303EBC004DA
:102E70004146606832462844C6EB0A052FF0F6FF4B
:102E8000606808EB06012A462FF0F0FFCBF80450EB
:102E90005046BDE8F88F226A8C18013CC5EB040A45
:102EA000D3E703440BEBC30B0BF12007DBF8204007
:102EB000D7F804901A4BC9EB04040130A64200EB8A
:102EC00040001FD303EBC0054146686822464844D2
:102ED000C4EB06092FF0CAFF686808EB04014A46F4
:102EE0002FF0C4FFB246C7F80490A3E703EBC0037A
:102EF000414658685246284455442FF0B7FFCBF856
:102F0000045097E703EBC0034146586832464844F3
:102F10002FF0ACFF06EB09037B60B2468AE700BFE7
:102F200058A800202DE9F04F344C94F800E083B00D
:102F30000546884617461E46BEF1000F2ED023696F
:102F4000DFF8B8A0AB4256D94FF000094846CDF89B
:102F50000490FEF73FFB6DB929460D4404EBC50410
:102F60000C9BE3620020019BFEF73CFB002003B0BA
:102F7000BDE8F08F6B1C690003EB4303DB004A19CB
:102F80000AEBC2020AEB030EC2F828904AF803804B
:102F9000CEF804701662C2F82490DEE7184BDFF812
:102FA0006CB0DFF86C90C4F828E04FF0100C4FF4D0
:102FB000007A0222C4F824E0A361C4F858E0A364B4
:102FC0001049C4F82CE0C4F85CE0C4F854E0C4F83C
:102FD00050C0E01DC4F81CB0C4F820A0C4F84C9048
:102FE0002261626130F01EFB2046074930F01AFB77
:102FF0002023A371A3E74FF0FF30B8E758A80020C3
:103000000849030014490300184903007C0C002000
:103010006C0C0020F8B5134C23780BBB124ADFF878
:1030200058C0124FA3624FF4007E10266362E36221
:10303000A365E365636502250D49A261A264C4F836
:103040001CC0C4F820E0E01DE764266525616561C9
:1030500030F0E8FA2046074930F0E4FA2023A37163
:10306000F8BD00BF58A80020084903006C0C0020E0
:1030700014490300184903007C0C00200649074A44
:10308000074B9B1A03DD043BC858D050FBDC00F013
:1030900013F8FDF7E3F80000C8D803000000002093
:1030A00060090020FEE7FEE7FEE7FEE7FEE7FEE739
:1030B000FEE7FEE7FEE7FEE770B45E4B1B68082BF9
:1030C00019D05D4AD2F8883043F47003C2F88830D2
:1030D000BFF34F8FBFF36F8F4FF01023D3F8002251
:1030E000002A75DBD3F80432002B71DB534B544AB2
:1030F0001A6070BC7047534B19680029E1D14FF03A
:1031000080404FF08052C0F80C114F4BC0F81011A6
:10311000C0F83815D2F80414C3F82015D2F80814F2
:10312000C3F82415D2F80C14C3F82815D2F81014DB
:10313000C3F82C15D2F81414C3F83015D2F81814AB
:10314000C3F83415D2F81C14C3F84015D2F8201473
:10315000C3F84415D2F82414C3F84815D2F828143B
:10316000C3F84C15D2F82C14C3F85015D2F830140B
:10317000C3F85415D2F83414C3F86015D2F83814D3
:10318000C3F86415D2F83C14C3F86815D2F840149B
:10319000C3F86C15D2F844642C4C2D49C3F8706503
:1031A0002C4D2560FB23C1F81835D0F8E43ED2F849
:1031B000581204F50F3423F00F0204F56D7401F07A
:1031C0000F0313434FF40072C0F8E43E226078E727
:1031D000214B0122C3F80425D3F80024002AFBD098
:1031E0004FF0102312221C49C3F80022D1F80034FA
:1031F000002BFBD04FF0102312221749C3F80422F2
:10320000D1F80024144B002AFAD00022C3F8042578
:10321000D3F80024002AFBD0BFF34F8F06490F4B91
:10322000CA6802F4E0621343CB60BFF34F8F00BF64
:10323000FDE700BF3001001000ED00E06400002059
:103240000090D0033401001000C000408C560040B4
:1032500000F000404881030000E001400400FA054E
:103260000EB410B5A3B025AB044653F8042B01935C
:10327000802102A830F066FB02A830F0DBF9236859
:1032800082B21B6802A92046984723B0BDE81040CF
:1032900003B07047B0F80636B0F80826C3F5806171
:1032A0008A42CCBFA0F80A16A0F80A26B0F80A167F
:1032B00021B100F2062018441EF0BEBC7047000089
:1032C00010B50A4B0360044600F20C6000F02EFBC0
:1032D0000023A4F80432A4F80636A4F80836A4F8AB
:1032E0000A361EF097FC204610BD00BF304903008F
:1032F00010B5044C01462046FFF7E2FF024B1C606C
:1033000010BD00BF800E00207C0E002010B5B0F86C
:103310000432C2180446D2780A2A06D1013B9BB275
:10332000A0F80432034400221A71B4F80432E218FF
:10333000D2780D2A06D1013B9BB2A4F80432234473
:1033400000221A7104F20C602346B4F80422211DF5
:1033500002F084FF0020A4F8040210BD2DE9F84318
:103360002A4FDFF8AC80DFF8AC9004468E180D468B
:10337000B542294648D20B780A2B05F1010519D030
:1033800014D8082B2CD0B4F80432B3F5007FEFDA50
:10339000236801221B6820469847B4F804325A1C5F
:1033A000A4F8042215F8012C23442BE00D2B01D0A6
:1033B0007F2BE7E7236802221B683946204698479F
:1033C000B4F804322BB1234400221A712046FFF7CF
:1033D0009DFF236802221B68414620469847C7E7A5
:1033E000B4F80432002BC3D0236803221B6849467B
:1033F00020469847B4F80432013B9BB2A4F804324B
:10340000002223441A71B3E7BDE8F883254903007D
:103410002349030020490300024B0A46014618686D
:10342000FFF79CBF7C0E0020B0F80A360BB9FFF7FF
:1034300031BF704770B5B0F80846C4F58064A4B2D7
:103440009442A8BF14460D466B1A9C420FDDB0F89B
:103450000826B0F8063615F8016B1344C3F30903C8
:103460000344013283F80662A0F80826ECE7FFF770
:10347000DBFF204670BDB0F80A16B0F806260A44F5
:10348000C2F30902A0F80626B0F80826521AA0F8DE
:1034900008260022A0F80A26FFF7FCBE014B186898
:1034A000FFF7E9BF7C0E0020F8B5074E074D074631
:1034B00000243868A259036829465B680C34984791
:1034C000B4F52E7FF5D1F8BD005303000964030065
:1034D000D0F8BC0003F005BED0F8BC0003F0FFBD7F
:1034E00070B505682B680446D0F8BC005E6804F02F
:1034F00041FA054902462846B04720680349036857
:10350000BDE870405B681847B04A0300A94B030050
:1035100070B504680B46216818464D68114620F0C6
:10352000AAF92B46024602492046BDE870401847DA
:10353000096403000068024903685B68184700BF1C
:10354000A94B030030B5044689B06946D0F8BC00E9
:1035500003F0FFFF2068BDF80020036826495B6880
:1035600098472068BDF80220036824495B689847A3
:103570002068BDF80420036821495D68BDF8063065
:10358000A8472068BDF8082003681E495D68BDF89B
:103590000A30A8472068BDF80C2003681A495D6806
:1035A000BDF80E30A8472068BDF810200368174901
:1035B0005D68BDF81230A8472068BDF81420036884
:1035C00013495D68BDF81630A8472068BDF818207B
:1035D000036810495D68BDF81A30A8472068BDF837
:1035E0001C2003680C495D68BDF81E30A8472046C2
:1035F000FFF7A0FF09B030BDAC500300B850030086
:10360000C3500300D5500300E7500300F4500300FB
:10361000015103000E5103001B510300F0B5224E6F
:103620008FB00446002509AAE9B2D4F8BC0004F022
:1036300091F9002833D19DF83630DB072DD520686D
:10364000BDF8341007680691BDF83210BDF8263079
:10365000BDF8242049BA89B20591BDF8301049BAA5
:1036600089B20491BDF82E1049BA89B20391BDF810
:103670002C1049BA89B20291BDF82A1049BA89B210
:103680000191BDF8281049BA89B200915BBA52BACB
:103690007F689BB292B23146B8470135C3E72046F6
:1036A000FFF748FF0FB0F0BD0650030038B50446E1
:1036B00004F0B2F9236805491A68556802461846AD
:1036C000A8472046BDE83840FFF734BF096403002F
:1036D00070B5044659B90068664903685B68984745
:1036E000206865490368BDE870405B681847634916
:1036F00010682FF08DFF002840F0BB80D4F8BC008C
:1037000003F007FF054620682A6803685C495B6888
:10371000984720686A6803685A495B689847206838
:10372000AA68036858495B6898472068EA68036894
:1037300056495B68984720682A69036854495B6862
:10374000984720686A69036852495B68984720680F
:10375000AA69036850495B6898472068EA6903686A
:103760004E495B68984720682A6A03684C495B6841
:10377000984720686A6A03684A495B6898472068E6
:10378000AA6A036848495B6898472068EA6A036840
:1037900046495B68984720682A6B036844495B6820
:1037A00098472068AA6B036842495B68984720687D
:1037B000EA6B036840495B68984720682A6C036895
:1037C0003E495B68984720686A6C03683C495B68BF
:1037D00098472068AA6C03683A495B689847206854
:1037E000EA6C036838495B68984720682A6D03686B
:1037F00036495B68984720686A6D036834495B689E
:1038000098472068AA6D036832495B68984720682A
:10381000EA6D036830495B68984720682A6E036840
:103820002E495B68984720686A6E03682C495B687C
:1038300098472068AA6E03682A495B689847206801
:10384000EA6E036828495B68984720682A6F036816
:1038500026495B68984720686A6F036824495B685B
:1038600098472068AA6F036822495B68BDE87040EA
:10387000184770BDC24C0300A94B0300C84C03009D
:10388000CC4C0300DA4C0300EE4C0300044D030063
:103890001D4D03002F4D03004A4D03005B4D0300F7
:1038A000704D0300834D03009D4D0300AF4D030099
:1038B000C14D0300D44D0300E24D0300F64D03005B
:1038C0000C4E03001D4E0300324E0300454E030014
:1038D0005F4E0300714E03008F4E0300AC4E030099
:1038E000C34E0300DA4E0300FB4E0300194F0300E2
:1038F0002C4F03003F4F030010B50446D0F8BC0026
:1039000004F0E0F823681A68526838B10449184690
:1039100090472046BDE81040FFF70CBE0149F6E78E
:10392000555003005C50030000BA704770B5002585
:1039300004460E4640F8045B29462C22FCF702FDA3
:1039400008232386012363864FF47A73636306F5A5
:10395000C2433C33A363134BE36329462464656489
:10396000A564E564C4F8BC60602204F15000FCF773
:10397000E9FC22460C49304603F092FB2246D4F87B
:10398000BC000A4904F04CF8094BC4F8B030C4F844
:10399000B44004F1B001D4F8BC0003F005FB2046AC
:1039A00070BD00BFCB5A00008163000001640000BD
:1039B000C55900002DE9F041074690460C462FF00E
:1039C00039FE3D1800F001060130B8EB500F12D35C
:1039D000384621460022854221D910F8013BA3F147
:1039E0004107052F0BD8373B1343DBB29EB10B7059
:1039F00000260131EEE74FF0FF30BDE8F081A3F182
:103A00006107052F01D8573BEEE7303BDBB2092BAE
:103A1000F1D81343EAE71B01DAB20126DBE7081B02
:103A2000BDE8F0810A4609B9FFF784BD0068024984
:103A300003685B68184700BFAE49030070B50546D0
:103A40000E46A9B9D0F8BC0004F017F8044628685F
:103A500003685B6844B111499847304601462846DF
:103A6000BDE87040FFF7DEBF0D4998472046F5E7F7
:103A700014680C4920462FF0CBFD28B90121D5F858
:103A8000BC0004F014F8E9E7074920462FF0C0FD18
:103A900001460028F3D00720E0E700BF555003009F
:103AA0005C50030036500300E568030010B503685E
:103AB0000446D0F8BC0003F009FA01462046BDE8F0
:103AC0001040FFF7AFBF000070B5054671B9D0F8E0
:103AD000BC0003F021FB0446286803685B681CB146
:103AE0000F49984700200CE00E49FAE714680E4988
:103AF00020462FF08DFD50B90121D5F8BC0003F010
:103B0000F9FA01462846BDE87040FFF78BBF074928
:103B100020462FF07DFD01460028E3D1EDE700BFF0
:103B2000255003002A500300779F03003150030003
:103B300037B504466946D0F8BC0003F013FF0546CC
:103B400008BB2068009A036812495B6898472068A0
:103B50009DF80420036810495B68984720689DF829
:103B6000052003680D495B68984720689DF806208A
:103B700003680B495B68984720689DF80720036835
:103B800008495B68984729462046FFF74BFF03B07A
:103B900030BD00BF295103003C51030053510300C5
:103BA0004C510300665103002DE9F3410023044604
:103BB0008DF80430002933D1D0F8BC0003F0BDFDEE
:103BC0008DF80400C00704D52068444903685B6889
:103BD00098479DF80430990704D520684049036848
:103BE0005B6898479DF804305A0704D520683D4922
:103BF00003685B6898479DF804301B0704D520686C
:103C0000394903685B6898472068384903685B68EE
:103C100098470021204602B0BDE8F041FFF702BFFF
:103C200016684FF0000EF446F0467746013E1946FE
:103C300018461D4616F8012F5AB36E2A26D018D8FA
:103C4000642A20D02DB19DF804306CF300038DF868
:103C5000043028B19DF804306EF341038DF8043030
:103C600029B19DF8043067F382038DF804300621F2
:103C7000D0E7722A04D0732AE4D101208646D9E71E
:103C80000125AC46D6E701210F46D3E7012398462C
:103C9000D0E72DB19DF804206CF300028DF80420CC
:103CA00028B19DF804206EF341028DF8042029B15B
:103CB0009DF8042067F382028DF804202BB19DF853
:103CC000043068F3C3038DF804309DF80410D4F871
:103CD000BC0003F05DFD01469CE700BFB661030038
:103CE000189B030058B40300A96103005549030061
:103CF00010B50446D0F8BC0003F0D6FC01462046BF
:103D0000BDE81040FFF78EBE2DE9F04186B001AF4F
:103D100004463946D0F8BC0003F039FE0646E0B947
:103D2000206811490368DFF84C805B689847354686
:103D300020687A5D036841465B6801359847082D25
:103D4000F6D12068094903685B6898472068BDF888
:103D50000C20036806495B68984731462046FFF708
:103D600061FE06B0BDE8F081934B030055490300A6
:103D70009E4B0300968E030038B5044671B9D0F807
:103D8000BC0003F0AEFB20B1D4F8BC001DF0AEFCCB
:103D900048BB2068174903685B6828E01568164926
:103DA00028462FF035FC80B91449D4F8BC002246CF
:103DB00003F092FB0121D4F8BC0003F097FB01460D
:103DC0002046BDE83840FFF72DBE28460C492FF0AD
:103DD0001FFC054660B901460246D4F8BC0003F05A
:103DE0007BFB2946E7E72068064903685B6898473C
:103DF0000020E4E7E5510300CC510300015C000022
:103E0000D3510300DB51030070B505460E46A1B93E
:103E1000D0F8BC0003F0E7FC0446286803685B6840
:103E200044B111499847344621462846BDE87040C0
:103E3000FFF7F8BD0D499847F6E716680C4930467C
:103E40002FF0E6FB044628B90121D5F8BC0003F0A9
:103E5000CFFCE9E7074930462FF0DAFB044608B902
:103E60000146F2E70624DFE7DB510300E5510300DA
:103E7000CC510300D351030038B5044600292AD1A0
:103E8000D0F8BC0003F056FD052809D8DFE800F0A3
:103E9000030A0F14191E2068274903685B689847B6
:103EA000002022E02068254903685B68F7E7206866
:103EB000234903685B68F2E72068224903685B686E
:103EC000EDE72068204903685B68E8E720681F4940
:103ED00003685B68E3E715681D4928462FF098FBE7
:103EE00048B9D4F8BC0003F0DBFC01462046BDE82D
:103EF0003840FFF797BD174928462FF089FB28B9AE
:103F00000121D4F8BC0003F0D0FCEEE712492846AA
:103F10002FF07EFB20B9D4F8BC0003F0CBFCE4E723
:103F20000E4928462FF074FB20B9D4F8BC0003F0EA
:103F3000D7FCDAE70620D8E7FA4A0300044B03006F
:103F40000F4B03001A4B0300224B03002B4B0300C3
:103F5000344B03003D4B0300434B03004A4B03002B
:103F6000002938B5044617DD15680C4928462FF09E
:103F70004FFB50B90121D4F8BC0003F060FD0146AD
:103F80002046BDE83840FFF74DBD054928462FF0D3
:103F90003FFB01460028EED00620F0E7C1550300A4
:103FA000BD4C0300F0B50F1E87B00546164628DD50
:103FB0001468174920462FF02BFBB8B9012F20D0E9
:103FC000144B0393144B0193022F144B00934FF0A7
:103FD00000040CBF0246B26804950294104B71684D
:103FE000D5F8BC0012F09AF900210BE00D492046EB
:103FF0002FF00EFB0028F7D1D5F8BC0012F096F98F
:10400000F2E70621284607B0BDE8F040FFF70ABDF9
:10401000C1550300516200007A4B03008A4B030034
:104020006F4B0300BD4C0300F0B5134685B004464A
:10403000E1B96946D0F8BC00154F03F0C0FB064655
:1040400005469DF800202068AB1B9A4203685B6818
:1040500004DD15F8012B39469847F2E70D499847DA
:1040600000212046FFF7DEFC05B0F0BD10226946B6
:104070001868FFF79FFC1028024606D16946D4F85D
:10408000BC0003F0A1FB0146EBE70621E9E700BF16
:10409000968E030055490300F8B505460C4689B9CC
:1040A000D0F8BC0003F095FB2E680A493368102253
:1040B0005F6803463046B84721462846BDE8F840C9
:1040C000FFF7B0BC1168D0F8BC0003F087FB0146D5
:1040D000F3E700BFC55103002DE9F041084E074644
:1040E0000D4690460C46631B984507DD386814F86A
:1040F000012B036831465B689847F4E7BDE8F0811F
:10410000968E03002DE9F041B1F1000886B0054616
:1041100017462CDCD0F8BC0003F0B2F92B681A6803
:10412000526898B13C493D4E18469047002403AA76
:10413000E1B2D5F8BC0003F086F948B1002421466D
:104140002846FFF76FFC06B0BDE8F0813449EAE786
:104150009DF814304BB103A928460822FFF7BCFF95
:104160002868036831465B6898470134DFE71668C2
:104170002C4930462FF04CFAB8B9B8F1010F12D0E3
:10418000082201A97868FFF715FC08280BD101A9BE
:10419000D5F8BC0003F032F901A9D5F8BC0003F052
:1041A0002DF90028CAD00624C9E71F4930462FF050
:1041B0002FFA044620B9D5F8BC0003F03AF9BEE75F
:1041C0001A4930462FF024FA044628B90146D5F89A
:1041D000BC0003F049F9B2E7154930462FF018FA50
:1041E000044608B90121F2E7124930462FF010FACF
:1041F00004460028A2D1B8F1010FD4D0082201A9A9
:104200007868FFF7D7FB0828CDD101A9D5F8BC0005
:1042100003F003F993E700BFDB51030055490300A6
:10422000E55103003B5003003F500300D35103000E
:10423000CC5103004550030037B505460C46A1B9E3
:104240006946D0F8BC0003F047F8082269462846C2
:10425000FFF742FF2868064903685B6898472146D4
:104260002846FFF7DFFB03B030BD0621F8E700BFAB
:104270005549030037B505460C46A1B96946D0F843
:10428000BC0003F02BF8082269462846FFF724FFFC
:104290002868064903685B68984721462846FFF767
:1042A000C1FB03B030BD0621F8E700BF554903004C
:1042B0002DE9F041B1F1000886B00546174639DC1A
:1042C000D0F8BC0003F090F82B681A685268A0B1CF
:1042D0004A494B4E4B4F18469047002403AAE1B27F
:1042E000D5F8BC0003F063F848B100242146284605
:1042F000FFF798FB06B0BDE8F0814349E9E79DF878
:104300001530DA0714D5082203A92846FFF7E4FE82
:104310009DF815309B0706D528689DF91420036881
:1043200039465B6898472868036831465B68984758
:104330000134D3E71668354930462FF069F9044651
:1043400030BBB8F1010F16D0082201A97868FFF739
:1043500031FB08280FD1B8F1020F0ED022462146BA
:10436000B8682FF02DFA01A942B2D5F8BC0002F0CE
:10437000EFFF0028B9D00624B8E701A9D5F8BC00A2
:1043800002F0D7FF01A9D5F8BC0002F0D2FFF0E798
:104390001F4930462FF03CF9044620B9D5F8BC003F
:1043A00002F0FBFFA2E71B4930462FF031F904462B
:1043B00028B90146D5F8BC0003F00AF896E716497B
:1043C00030462FF025F9044608B90121F2E71349D8
:1043D00030462FF01DF90446002886D1B8F1010FB0
:1043E000C9D0082201A97868FFF7E4FA0828C2D1E9
:1043F00001A9D5F8BC0002F0C4FF77E7DB51030048
:104400005549030056B40300E55103003B50030037
:104410003F500300D3510300CC510300455003002B
:1044200037B51346054679B9D0F8BC0002F03EFF17
:10443000082201462846FFF74FFE28680C4903680A
:104440005B689847002107E0082269461868FFF773
:10445000B1FA002805DA06212846FFF7E3FA03B08F
:1044600030BD6946D5F8BC0002F025FFEAE700BF81
:104470005549030037B51346054679B9D0F8BC0055
:1044800003F038F9082201462846FFF725FE286880
:104490000C4903685B689847002107E008226946D9
:1044A0001868FFF787FA002805DA06212846FFF783
:1044B000B9FA03B030BD6946D5F8BC0003F01FF966
:1044C000EAE700BF5549030013B500220C4601A9D5
:1044D0002FF076F9019B20601B78002B14BF06207B
:1044E000002002B010BD0000F7B505460C4681B9AA
:1044F0000668D0F8BC0033685F6802F0CDFE0C4956
:1045000002463046B84721462846FFF78BFA03B0EB
:10451000F0BD01A91068FFF7D7FF04460028F2D1CB
:104520009DF80410D5F8BC0002F0BBFEEBE700BF1D
:10453000A54A03002DE9F04F002989B004469046B2
:1045400040F32F811568984928462FF061F800281C
:1045500031D0964928462FF05BF8002840F099802A
:104560002068934903685B6898472068914903680D
:104570005B6898470126D4F8BC0003F09FF8002739
:104580008246F9B2514580F284800DF108094A460D
:10459000D4F8BC0003F0C5F9054670B1206886491F
:1045A00003685B689847002529462046FFF73AFADA
:1045B00009B0BDE8F08F0646DDE7049B002B63D011
:1045C0002068BDF81A2003685B68002E5ED07B4926
:1045D000DFF840B298472068BDF818200368784992
:1045E0005B6898472068049A036876495B68984737
:1045F0002068059A036873495B68984720689DF8AE
:104600001D20036870495B68984720689DF81C204E
:1046100003686E495B68984720689DF81F2003680F
:104620006B495B6802F00102984720689DF81F20E3
:10463000036867495B68C2F34002984720689DF8A9
:104640001F20036862495B68C2F3800298472068B4
:104650009DF81F2003685E495B68C2F3C00298475B
:1046600020685C4903685B689847206819F8052052
:10467000036859465B6801359847082DF5D12068D5
:10468000554903685B68984701377AE7534998476B
:10469000FAE701A9D8F80000FFF716FF0546002841
:1046A00082D102AF3A46BDF80410D4F8BC0003F042
:1046B00030F9054600287FF477AF2068BDF81A204E
:1046C000036847495B68DFF84C8198472068BDF86C
:1046D0001820036843495B6898472068424903688B
:1046E0005B6898472E462068BA5D036841465B6860
:1046F00001369847082EF6D120682F4903685B6879
:1047000098472068394903685B6898479DF81F30CF
:10471000D80704D52068364903685B6898479DF838
:104720001F30990704D52068324903685B689847B1
:104730009DF81F305A0704D520682F4903685B682D
:1047400098479DF81F301B0704D520682B49036844
:104750005B6898472068184903685B689847206839
:104760009DF81C20036826495B6898472068049AD6
:10477000036824495B6898472068059A03682249C2
:104780005B68984720689DF81D2003681F495B6897
:10479000984720689DF91E2003681D495B6898476B
:1047A00002E7062500E700BFC4570300B94903002C
:1047B000BF490300174A0300554903006F4A03002D
:1047C000764A0300804A0300884A03008F4A0300A8
:1047D000964A0300D0520300004C0300BC52030071
:1047E0009B4A0300AA4A0300934B0300B74A030005
:1047F000B6610300189B030058B40300A9610300CD
:10480000BE4A0300CD4A0300DB4A0300E54A030029
:10481000EF4A0300968E0300F7B505460C4689B9AA
:104820000668D0F8BC0033685F6802F047FF0C49A7
:1048300002463046B847204601462846FFF7F2F8C0
:1048400003B0F0BD01A91068FFF73EFE0028F3D1C8
:104850009DF80410D5F8BC0002F03DFFECE700BF66
:10486000A54A0300F7B505460C4681B90668D0F89D
:10487000BC0033685F6802F033FF0B4902463046E4
:10488000B84721462846FFF7CDF803B0F0BD01A98F
:104890001068FFF719FE04460028F2D10199D5F8F7
:1048A000BC0002F022FFECE7A54A030073B5044602
:1048B00079B90568D0F8BC002B685E6802F0BBFFD0
:1048C0000A4902462846B0472046FEF733FE02B0AA
:1048D00070BD01A91068FFF7F7FD0028F4D1019918
:1048E000D4F8BC0002F0ACFFEEE700BFA54A03001D
:1048F00000291FB504461EDD03A91068FFF7E4FD7B
:10490000D8B9039B012199400E4B009301944FF6B7
:10491000FF730022D4F8BC0003F0D9F868B920680E
:10492000094903685B6898472068084903685B6821
:10493000984704B010BD0021E6E701462046FFF786
:1049400071F8F6E785610000544F0300AD4F030096
:104950004B1E012B2DE9F34105460F46164644D860
:10496000D2F80080234940462EF052FE0446F8B9A2
:10497000012F0BD12E68D5F8BC0033685F6802F0B8
:1049800064FF02461C493046B8470AE001A9706836
:10499000FFF79AFD044620B90199D5F8BC0002F052
:1049A00059FF21462846FFF73DF802B0BDE8F081E7
:1049B000124940462EF02CFE0446C0B9012F07D103
:1049C0002E68D5F8BC0033685F6802F048FFD8E76E
:1049D00001A97068FFF778FD04460028E1D101992C
:1049E000D5F8BC0002F03FFFDBE70624D9E700243E
:1049F000D7E700BFB3510300A54A0300BB51030032
:104A0000F7B505460C4681B90668D0F8BC00336896
:104A10005F6802F0F2FE0C4902463046B847214674
:104A20002846FEF7FFFF03B0F0BD01A91068FFF7AD
:104A30004BFD04460028F2D19DF80410D5F8BC00C7
:104A400002F0E0FEEBE700BFA54A03007FB50E1EB3
:104A50000546144606DC072421462846FEF7E2FFF9
:104A600004B070BD08220DEB02012068FEF7A2FF22
:104A7000002822DB012E11D10DF1030202A9D5F885
:104A8000BC0002F007FD04460028E4D128689DF828
:104A9000032003680A495B689847DDE7606801A95D
:104AA000FFF712FD04460028D6D19DF80420D5F862
:104AB000BC0002A902F0FFFCCEE70624CCE700BF51
:104AC000A54A0300F7B505460C4681B90668D0F83B
:104AD000BC0033685F6802F0CAFE0C4902463046EB
:104AE000B84721462846FEF79DFF03B0F0BD01A957
:104AF0001068FFF7E9FC04460028F2D19DF8041085
:104B0000D5F8BC0002F0B8FEEBE700BFA54A0300F1
:104B1000F7B505460C4681B90668D0F8BC00336885
:104B20005F6802F0E0FB0C4902463046B847214678
:104B30002846FEF777FF03B0F0BD01A91068FFF724
:104B4000C3FC04460028F2D1BDF80410D5F8BC001F
:104B500002F0CEFBEBE700BFB04A0300F7B5054615
:104B60000C4699B90668D0F8BC0033685F6802F05B
:104B7000D6FB4FF47A720D49B0FBF2F23046B847DB
:104B800021462846FEF74EFF03B0F0BD01A910688C
:104B9000FFF79AFC04460028F2D1019BD5F8BC002F
:104BA0004FF47A71594302F0BFFBE9E7A54A0300CD
:104BB000002913B5044610DD01A91068FFF784FC35
:104BC00028B99DF80410D4F8BC0002F064FE014638
:104BD0002046FEF727FF02B010BD0620F7E70000D1
:104BE0002DE9F04F002987B0044640F38B8015680B
:104BF000804928462EF00CFD00282ED07E492846FC
:104C00002EF006FD00287FD120687C4903685B6890
:104C1000984720687A4903685B6898470126DFF85F
:104C20003092DFF830A200270DF104085FFA87FB0D
:104C300042465946D4F8BC0002F0A1FE054670B1C8
:104C40002068704903685B6898470025294620461C
:104C5000FEF7E8FE07B0BDE8F08F0646DFE79DF8F7
:104C60001430D90748D5206803685B68002E45D00A
:104C70009DF80E20DFF8E0B1494698472068BDF85E
:104C80000C20036851465B68984720689DF80F2008
:104C900003685D495B68984720689DF810200368A9
:104CA0005A495B68984720689DF811200368584965
:104CB0005B68984720689DF81220036855495B6837
:104CC000984720689DF81320036853495B6898470C
:104CD0002068524903685B689847206818F80520E7
:104CE000036859465B6801359847082DF5D120685F
:104CF0004B4903685B689847013795E75A4649492D
:104D00009847F9E70625A1E728466946FFF7DCFB47
:104D1000054600289AD101AF3A46BDF80010D4F8F4
:104D2000BC0002F02CFE054600288FD120689DF8BB
:104D3000142003683C495B6802F0010298479DF823
:104D40001430DA0782D520689DF80E2003683749B1
:104D50005B6898472068BDF80C20036834495B689D
:104D6000984720689DF80F20036832495B689202DB
:104D7000984720689DF8142003682F495B68C2F3A8
:104D8000400298479DF814309B077FF55FAF20687D
:104D90002A490368DFF8C0805B6898472E46206880
:104DA000BA5D036841465B6801369847082EF6D124
:104DB0002068144903685B68984720689DF81020B4
:104DC00003681F495B68984720689DF811200368B5
:104DD0001C495B68984720689DF8122003681A49AF
:104DE0005B68984720689DF81320036817495B6843
:104DF00098472BE7C4570300B9490300B04B0300A1
:104E0000054C0300554903005A4C0300614C030054
:104E1000884A0300684C03006F4A0300D052030025
:104E2000004C0300BC5203006F4C03006D510300A3
:104E3000AA4A03007B4C03008C4C0300934B0300F5
:104E4000974C0300A24C0300AF4C0300DB4A030065
:104E5000D4520300764A0300968E0300F7B5054648
:104E60000C4681B90668D0F8BC0033685F6802F070
:104E70003CFD0C4902463046B84721462846FEF71D
:104E8000D1FD03B0F0BD01A91068FFF71DFB04467A
:104E90000028F2D19DF80410D5F8BC0002F02AFDDC
:104EA000EBE700BFA54A0300F7B505460C4681B9FC
:104EB0000668D0F8BC0033685F6802F020FD0E4938
:104EC00002463046B84721462846FEF7ABFD03B000
:104ED000F0BD01A91068FFF7F7FA04460028F2D1E7
:104EE00001994B1EFE2B05D8C9B2D5F8BC0002F0C3
:104EF0000BFDE8E70724E6E7A54A0300F7B50546FA
:104F00000C4681B90668D0F8BC0033685F6802F0CF
:104F1000B8FC0C4902463046B84721462846FEF701
:104F200081FD03B0F0BD01A91068FFF7CDFA04467A
:104F30000028F2D19DF80410D5F8BC0002F0A6FCC0
:104F4000EBE700BFA54A030030B5002985B0044651
:104F500020DD03A91068FFF7B7FAA8B9039B012564
:104F60009D4020680C4903685B68984720680B499E
:104F700003685B6898470094094BD4F8BC00002292
:104F8000294602F0CBFA18B101462046FEF74AFD49
:104F900005B030BD0025E4E7544F0300AD4F0300DA
:104FA000856100002DE9F04F0F1E99B006461446AA
:104FB00040F34381D2F80090B14948462EF028FBD7
:104FC00050B9D6F8BC000FF01AFE01463046FEF785
:104FD00029FD19B0BDE8F08FAA4948462EF018FB0C
:104FE00020B9D6F8BC000FF00FFEEEE7A649484600
:104FF0002EF00EFB98BB022F40F31F81A568A3493A
:1050000028462EF005FBE0B1082210A92846FEF73D
:10501000D1FC082840F0118110ADD4F804809C49DF
:1050200040462EF0F5FA70B9032F00F00681E268D1
:10503000D6F8BC0029460FF0ECFD0028C5D10020B1
:10504000C3E70546E9E7934940462EF0E1FA002818
:10505000F5D12946D6F8BC000FF0E0FDEDE78E490A
:1050600048462EF0D5FA014638B9012FD6F8BC00D3
:1050700018BF61680FF0D7FDA7E7884948462EF0B2
:10508000C7FA30BB042F40F3D88007A96068FFF748
:105090001BFA002899D108A9A068FFF715FA002883
:1050A00093D109A9E068FFF70FFA00288DD110AD60
:1050B0002946206902F073F8002886D1BDF8243013
:1050C0009DF8202000950799D6F8BC000FF0B0FDA0
:1050D0007BE7734948462EF09BFA002837D1052F0D
:1050E00040F3AB8006A96068FFF7EEF900287FF473
:1050F0006CAF07A9A068FFF7E7F900287FF465AF58
:1051000008A9E068FFF7E0F900287FF45EAF09A97D
:105110002069FFF7D9F900287FF457AF10AD294671
:10512000606902F03CF800287FF44FAF5D490291BE
:10513000BDF824100091BDF820309DF81C20039686
:1051400001950699D6F8BC000FF077FD3DE756496A
:1051500048462EF05DFA10BB032F6EDD08A960688B
:10516000FFF7B2F900287FF430AF09A9A068FFF774
:10517000ABF900287FF429AF10A9E06802F00FF81E
:1051800000287FF422AF494B0093BDF82010019610
:1051900010AB099AD6F8BC000FF059FD15E7444949
:1051A00048462EF035FA0546002840F09480DFF896
:1051B00010A1DFF810B14FF00108474540F384809B
:1051C0001F2D00F2418154F828903A4948462EF0AC
:1051D0001FFA60B918AB05F101091D44092305F850
:1051E000203C08F101085FFA88F84D46E5E7514692
:1051F00048462EF00DFA28B918AB05F101091D44F7
:105200000B23ECE7594648462EF002FA28B918ABB2
:1052100005F101091D440823E1E7274948462EF01E
:10522000F7F928B918AB05F101091D441223D6E797
:10523000224948462EF0ECF908B10620C5E608F1EF
:1052400001085FFA88F84745F7DD54F828300593E0
:1052500018462EF0EFF90222013090FBF2F9C5F169
:1052600020024A45C0F0F08010AB5919059B1FFA87
:1052700089F21846FEF79EFB0028DEDBA944B0E762
:10528000C1550300BD4C0300075203000E5203003A
:105290003B5003004550030010520300205203000E
:1052A00029520300E1610000525603001162000020
:1052B0003052030038520300575203006552030076
:1052C000405203004A520300EAB210A9D6F8BC00CB
:1052D0000FF0C5FC79E6674948462EF099F98046FB
:1052E000002840F0B3801A22002109A8FBF72AF811
:1052F000DFF898B102256B1EDBB29F4240F39B8022
:10530000B8F11F0F00F3A08054F823905A49484683
:105310002EF07EF9A8B9AF428FDD9DF83C3054F8ED
:10532000250043F0010308A98DF83C30FFF7CCF8C5
:1053300000287FF44AAE089BADF824300235EDB268
:10534000D9E74E4948462EF063F9A0B9AF427FF73E
:1053500074AF9DF83C3054F8250043F0020308A9CF
:105360008DF83C30FFF7B0F800287FF42EAE089B94
:10537000ADF82630E2E7594648462EF049F9824614
:1053800008BBAF427FF759AF9DF83C3054F82590E9
:1053900043F0040348468DF83C302EF04BF90130C1
:1053A0004FEA5008B8F1100F4ED81FFA88F20DF1ED
:1053B00029014846FEF7FEFA0028FFF63EAF8DF8B9
:1053C0002880D046BAE72E4948462EF021F9A0B9E8
:1053D000AF427FF732AF9DF83C3054F8250043F0E0
:1053E000080308A98DF83C30FFF76EF800287FF419
:1053F000ECAD089BADF83A30A0E7224948462EF0C4
:1054000007F900287FF419AFAF427FF716AF54F8C1
:10541000259048462EF00EF901304FEA5008B8F1B9
:10542000200F11D81FFA88F210A94846FEF7C2FAD9
:10543000002883DA01E75FFA88F310AA09A9D6F8F1
:10544000BC000FF011FCC0E50320BEE50B49484647
:105450002EF0DEF800287FF4F2AD3568D6F8BC00F7
:105460002B685F680FF005FC074902462846B847DD
:10547000E5E500BF6C5203003852030040520300C0
:105480005752030065520300A54A03004A52030025
:10549000F7B505460C4689B90668D0F8BC003368F4
:1054A0005F6802F0BEF90C4902463046B847204614
:1054B00001462846FEF7B6FA03B0F0BD01A9106810
:1054C000FFF702F80028F3D1BDF80410D5F8BC00AE
:1054D00002F0ACF9ECE700BFA54A03002DE9F04764
:1054E00002298AB007468946904644DD01A95068E2
:1054F00001F055FE054698B902240DF1140A4C45F9
:10550000E6B213D0142C10D0694658F82400FEF7E8
:10551000DBFF20B9009B04F80A300134EFE70546B1
:1055200029463846FEF77EFA14E02646D8F80040B1
:10553000124912238DF814302046B31E8DF8153011
:105540002EF066F848B9334605AA01A9D7F8BC0081
:1055500002F06BFA0AB0BDE8F087094920462EF048
:1055600057F80028DCD1334605AA01A9D7F8BC00BA
:1055700002F060FAD4E70625D2E700BF34520300F8
:105580005F56030013B500220C4601A92EF0A2F9C4
:10559000019B20601B78002B14BF0620002002B066
:1055A00010BD0000F7B505460C46A1B90668D0F855
:1055B000BC0033685F6801F0EDFC4FF47A720F496C
:1055C000B0FBF2F23046B847204601462846FEF7C7
:1055D00029FA03B0F0BD01290ED101A91068FFF727
:1055E000D1FF0028F1D1019BD5F8BC004FF47A71AE
:1055F000594301F0D4FCE8E70720E6E7A54A030099
:10560000F7B505460C4681B90668D0F8BC0033688A
:105610005F6802F0FCF80B4902463046B847214665
:105620002846FEF7FFF903B0F0BD01A91068FFF7A7
:10563000A9FF04460028F2D10199D5F8BC0002F078
:10564000EBF8ECE73751030010B5002986B00446AB
:1056500014DD6946106801F0A2FD68B940238DF899
:1056600010309DF81130D4F8BC0043F003036946B4
:105670008DF8113001F05AFD06B010BD0620FBE791
:1056800000291FB504460BDD6946106801F087FD4F
:1056900020B96946D4F8BC0001F04DFD04B010BD3E
:1056A0000620FBE7F0B5054687B016460C460029F4
:1056B00033D1D0F8BC00254E01F033FD04463CB98F
:1056C00000200146284607B0BDE8F040FEF7AAB921
:1056D000E189286863882288076849BA89B20591F8
:1056E000A18949BA89B20491618949BA89B2039101
:1056F000218949BA89B20291E18849BA89B20191F6
:10570000A18849BA89B200915BBA52BA7F689BB24C
:1057100092B23146B8476469D1E717680C493846F8
:105720002DF076FF28B9321D611E2846FFF78CFF49
:10573000C7E7084938462DF06BFF0028C0D1321D5D
:10574000611E2846FFF79CFFBBE700BF514B0300DB
:105750003B5003006B4B030000291FB504460BDDD3
:105760006946106801F01BFD20B96946D4F8BC00F9
:1057700001F0EBFC04B010BD0620FBE700291FB5CB
:1057800004460BDD6946106801F009FD20B9694641
:10579000D4F8BC0001F0DEFC04B010BD0620FBE72D
:1057A00070B505460E4681B9D0F8BC0001F0D7FCB3
:1057B0000446286803685B6824B10F49984734465B
:1057C000204670BD0D499847FAE716680C493046E7
:1057D0002DF01EFF044628B90121D5F8BC0001F0C8
:1057E000C3FCEDE7074930462DF012FF044608B927
:1057F0000146F2E70624E3E7DB510300E55103002D
:10580000CC510300D3510300F0B5054687B01646CE
:105810000C46002933D1D0F8BC002A4E01F090FC90
:1058200004463CB900200146284607B0BDE8F040D8
:10583000FEF7F8B8E189286863882288076849BAC2
:1058400089B20591A18949BA89B20491618949BA9D
:1058500089B20391218949BA89B20291E18849BA92
:1058600089B20191A18849BA89B200915BBA52BA52
:105870007F689BB292B23146B8472469D1E7176876
:10588000114938462DF0C4FE28B9321D611E284644
:10589000FFF762FFC7E70D4938462DF0B9FE28B97A
:1058A000321D611E2846FFF769FFBCE708493846EC
:1058B0002DF0AEFE0028B5D1321D611E2846FFF73F
:1058C0006FFFB0E7514B03003B5003006B4B0300ED
:1058D000E55203002DE9F0471F4688B000230793E7
:1058E0003B78812B05460E4614465DD1D0F80080EA
:1058F000D8F800300846D3F8049002F022FA824625
:10590000304602F04EFA2A49AAEB00024046C84748
:10591000E18B2868638AD0F800E0228A49BA89B20C
:105920000591A18B49BA89B20491618B49BA89B2B8
:105930000391218B49BA89B20291E18A49BA89B2AD
:105940000191A18A49BA89B200915BBA52BADEF8D4
:10595000048018499BB292B2C0472868FA8803684D
:1059600015495F6894F8253052BA92B2B84730466C
:1059700002F017FA07AB01460422304602F05AFA49
:1059800003280CDD2C6823685E681BF0D9FC0746F1
:105990000798FDF7C9FF09493A1A2046B047286819
:1059A000074903685B68984708B0BDE8F08700BF07
:1059B00064500300735003008B500300A150030098
:1059C00055490300FFF786BF37B504461BF0B8FC06
:1059D000FDF7AAFF01210190D4F8BC0001F0CDFB36
:1059E0000546A8B104220DEB020101F0A9FDE8B9BA
:1059F000218E284601F0A0FDC0B90123221D2946B1
:105A0000D4F8BC0001F0D5FA80B9638E013B6386FF
:105A1000638E4BB1656B1BF093FCA564606404F16D
:105A20003801A06B02F0B7FE03B030BD284601F08C
:105A300081FDEDE72DE9F3410F1E0446164642DDD8
:105A400000F13801806B02F02BFE0146002834D1B2
:105A50002C22201DFAF776FC316804F1140007F0BF
:105A6000BFF958BB0823012523864FF47A7384F8C5
:105A70002850658663639846AF4218DD01A956F841
:105A80002500FEF721FDC8B9022D08D0032D09D04D
:105A9000012D18D1019B23860135EDB2ECE7019B66
:105AA0006386F9E7019B08FB03F36363F4E7204691
:105AB000FFF78AFF02B0BDE8F081052001462046CD
:105AC000FDF7B0FFF6E70620F8E7FFF77DBF00001F
:105AD0002DE9F14F044600683E4F03680E465B68AF
