:1000000000000420852C0000AD2C0000AF2C000067
:10001000B12C0000B32C0000B52C00000000000043
:10002000000000000000000000000000B72C0000ED
:10003000B92C000000000000BB2C0000BD2C00000B
:100040005117000081160200E9070200BF2C0000D2
:10005000BF2C0000BF2C0000911B0000BF2C000033
:10006000BF2C0000BF2C0000BF2C0000BF2C0000E4
:10007000BF2C0000BD050200BF2C0000BF2C0000FB
:10008000BF2C0000190C0000BF2C0000BF2C00008A
:10009000B90C0000BF2C0000BF2C0000BF2C0000DA
:1000A000BF2C0000BF2C0000BF2C0000BF2C0000A4
:1000B000BF2C0000BF2C000000000000000000006A
:1000C000BF2C0000BF2C0000BF2C0000BF2C000084
:1000D0000DFF0100BF2C0000BF2C0000BF2C000052
:1000E000BF2C0000BF2C0000BF2C0000BF2C000064
:1000F00000000000BF2C0000000000000000000015
:1001000000000000000000000000000000000000EF
:1001100000000000000000000000000000000000DF
:1001200000000000000000000000000000000000CF
:1001300000000000000000000000000000000000BF
:1001400000000000000000000000000000000000AF
:10015000000000000000000000000000000000009F
:10016000000000000000000000000000000000008F
:10017000000000000000000000000000000000007F
:10018000000000000000000000000000000000006F
:10019000000000000000000000000000000000005F
:1001A000000000000000000000000000000000004F
:1001B000000000000000000000000000000000003F
:1001C000000000000000000000000000000000002F
:1001D000000000000000000000000000000000001F
:1001E000000000000000000000000000000000000F
:1001F00000000000000000000000000000000000FF
:1002000010B5054C237833B9044B13B10448AFF350
:1002100000800123237010BD600900200000000051
:1002200044B80300084B10B51BB108480849AFF3A8
:1002300000800848036803B910BD074B002BFBD0B2
:10024000BDE81040184700BF0000000044B803009C
:1002500064090020C400002000000000154B002BA2
:1002600008BF134B9D46A3F5803A00218B460F46ED
:100270001348144A121A00F065F80F4B002B00D0F7
:1002800098470E4B002B00D0984700200021040017
:100290000D000D48002802D00C48AFF3008000F09C
:1002A0002BF82000290002F045FB00F011F800BFF8
:1002B0000000080000000420000000000000000012
:1002C00060090020A8C3002000000000000000001A
:1002D00008B5074B044613B10021AFF30080054B6E
:1002E0001868836A03B19847204600F033F800BFCE
:1002F000000000002430030070B50E4B0E4CE41AD1
:10030000A41000251E46A54204D056F82530984773
:100310000135F8E732F07AFE084C094BE41AA410D4
:1003200000251E46A54204D056F8253098470135D1
:10033000F8E770BDBC000020BC000020C000002019
:10034000BC00002002440346934202D003F8011B84
:10035000FAE77047FEE700BF2DE9F04F1546C7B03A
:100360001C46002900F01C81002B00F0EF800A23BE
:1003700001930023194606AE519B539A519F03EBFC
:10038000020B019B013B059320258C4601980CEB49
:10039000000304933133F318029306EB0C03002897
:1003A0005FD05A4202F00302824228BF024606286A
:1003B00000F2EC80019A06F80C50012A03F10101C9
:1003C00000F0E280022A5D7003F1020100F0DC809F
:1003D000032A9D7003F1030100F0D680042ADD702A
:1003E00003F1040100F0D080062A1D7103F105011C
:1003F00040F0D3805D71991D9646019890422ED0B1
:10040000C2EB0009A9F104008008013003900598AF
:10041000C2EB000A0398BAF1020F4FEA800812D922
:10042000624401284FF0203C06EB020A46F802C065
:1004300005D00228CAF804C001D0CAF808C0C845CF
:100440004144C6440BD001980D700EF10102904258
:1004500005D90EF1020E70454D7000D98D70019ACC
:100460001344534A0299D2F80080DDF84891DA1C0F
:10047000481C03F1330C0CE002F8035C02F8025C48
:1004800002F8015C0332624500F8015C00F10100F2
:1004900033D0A345F0D9A74295BFE11B509919F875
:1004A0000110095D02F8015C4FEA211E5FFA8EFA25
:1004B000BEF1090F01F00F0ED4BF0AF1300A0AF1A4
:1004C000370ABEF1090F02F803AC94BF0EF1300EEB
:1004D0000EF1370E08EB010A02F802EC9AF801E07F
:1004E00003321EF0970F08BF2E21624500F8011C51
:1004F00004F1010400F10100CBD1029804990D220E
:100500004FF00A0801F14309027480F8118083F862
:10051000305023464FF0000A4C46994606EB0A013C
:100520002246002002F03AFA8244241A10B9B8F1A7
:10053000010801D0002CF1D1CB454C464FF0000C06
:100540003FF624AF204647B0BDE8F08F06AE0B68FB
:10055000184A30464FF4807131F018FE0028F1DB64
:100560000A2307460193284631F086FEC22828BF99
:10057000C220804629460246F01931F075FA08EB90
:10058000070300241946F7E6964636E7002A7FF46B
:1005900012AF19469646019832E74FF0050E2CE748
:1005A00013B1019106AEE7E60194274606AEDAE7FD
:1005B000B8000020283003002DE9F0419046C6B075
:1005C0001F46C1B106AE0B68564A30464FF48071E3
:1005D00031F0DCFD00280ADB4C9B0546062B00F2BF
:1005E0009F80DFE803F042525D6A798A14000020A0
:1005F00046B0BDE8F0814C9B062B00F28F80DFE80F
:1006000003F033424D5A697A0400002506AE07F123
:100610000C017A683B68D7F808C092C9701900923B
:10062000029103944246CDF804C00497C5F5807149
:1006300031F0ACFD0446002CD9DB2C44B4F5807FAE
:10064000D5D80A27002506AE71192246002002F0EF
:10065000A5F90544241A08B9013F01D0002CF3D1B3
:10066000012046B0BDE8F0810025404631F004FE8F
:100670004319FF2B0446DED806AE414670192246C8
:1006800031F0F2F9D7E7002506AE701942463B6813
:10069000C5F5807131F07AFD0446CCE7002506AE41
:1006A0007A683B68009270194246C5F5807131F056
:1006B0006DFD0446BFE7002506AE7A68B9683B6861
:1006C0000092019170194246C5F5807131F05EFDCE
:1006D0000446B0E7002506AE7A68BC68F9683B6856
:1006E00000920194029170194246C5F5807131F073
:1006F0004DFD04469FE7002506AE07F108017A6824
:100700003B6892C970190092019102944246039786
:10071000C5F5807131F03AFD04468CE7002490E77E
:1007200000248AE72830030070B5074C074D237872
:10073000064613B12B78834204D002F06FFA0123EE
:100740002E702370002070BD7D0900207C090020E0
:1007500000487047B9050000004870475903000081
:1007600038B50120FFF7E0FF044638B9FFF7F0FF86
:100770000546FFF7F1FF024B5D619861204638BDE9
:100780008009002010B5054C82B00A46002164693A
:1007900000910B46A04702B010BD00BF80090020A9
:1007A000084B1B5C1F2B8ABF074A4FF0A04203F087
:1007B0001F03D2F80405D84000F0010080F00100CA
:1007C000704700BF3030030000030050074B1B5C34
:1007D0001F2B86BF03F01F0305494FF0A0410122E4
:1007E00002FA03F3C1F80C35704700BF3030030044
:1007F00000030050064B1A5C1F2A86BF02F01F023E
:1008000004494FF0A04101239340C1F808357047D7
:1008100030300300000300504FF0A04310B44FF4F9
:1008200080404FF400544FF400414FF48032C3F83D
:100830000845C3F80805C3F80815C3F808255DF88E
:10084000044B70474FF0A04310B44FF480404FF476
:1008500000544FF400414FF48032C3F80C45C3F804
:100860000C05C3F80C15C3F80C255DF8044B704754
:100870000A4B195C1F298ABF09484FF0A04001F0BC
:100880001F01D0F8043501228A4022EA03011340F7
:10089000C0F80815C0F80C35704700BF30300300B1
:1008A0000003005030B44FF0A04303224FF4005532
:1008B0004FF480444FF400404FF48031C3F83427A4
:1008C000C3F83827C3F83C27C3F84027C3F80855B6
:1008D000C3F80845C3F80805C3F8081530BC7047CD
:1008E0000B2809D00C2809D0182809D0192814BFC2
:1008F0004FF0FF3003207047002070470120704701
:10090000022070474B4B1978002900F091802DE9A7
:10091000F04F87B0DFF828C104910024012504E0DE
:100920000134049BE4B29C4265D227B2DCF800603B
:1009300016F83700A0F1200305FA03F93E4BC0F189
:10094000200ED3E9002325FA0EFE49EA0E0905FA26
:1009500000F808EA020A09EA030B06EBC7015AEAA3
:100960000B0E0591DCD03449CDF810C022EA080204
:1009700023EA0903C1E9002301F0FAF816F8376009
:10098000DDF810C0A6F1200205FA02F201920199E9
:10099000C6F120035FFA80FA25FA03F3A6F12002DC
:1009A00019430AFA02F30393019105FA06F1009143
:1009B000C6F120070399214B2AFA07F7394303911F
:1009C0000AFA06F1D3E900230291DDE900011040A3
:1009D000194002460B46DDE902018B4208BF824204
:1009E0004FF0000B0AD0134B1B7804930134049B87
:1009F000E4B29C4299D307B0BDE8F08F059A5768DE
:100A000052780023A2F10102B2FA82F25209002FB9
:100A1000E9D05B4506BF5245012100213046CDF8A3
:100A200014C0B847034BDDF814C01B78049377E774
:100A3000704700BFA4090020D0090020C809002089
:100A4000A00900202DE9F8430746204800F06CFD7E
:100A5000D0B91F4E0123A7F1200103FA01F5C7F118
:100A60002002D6E9000123FA02F2154303FA07F443
:100A700004EA000205EA0103134307D020EA040454
:100A800021EA0505C6E90045BDE8F883384601F0CE
:100A90006FF8104FD7E9002398B144EA020845EAFD
:100AA0000309D6E9002314431D43C7E90089C6E9B9
:100AB00000450949054809680022BDE8F84300F0EF
:100AC000DFBC22EA040823EA0509EAE7A8090020B6
:100AD000D0090020C80900209C090020F0B5042A94
:100AE00083B0164602D8072003B0F0BD05460F4676
:100AF00000F0DEFE002836D01D4BDFF88CC0DFF89A
:100B00008CE01C481C491D60002200237C1E8CF8D0
:100B10000070CEF80060C0E90023C1E90023E4B210
:100B2000DFB10327002600E01C4623B205EBC30219
:100B300015F833009378114A8DF8053001A98DF826
:100B400004708DF806608DF8076000F0BBFE631E30
:100B50000028C9D1DBB2002CE6D1094A094800219E
:100B600000F07CFCC0E700F05DFE0028C4D0BBE7CD
:100B7000A0090020C8090020D0090020450A000073
:100B80000509000034300300A40900209C0900205E
:100B900070B5084D2B785BB1074E002433680121F6
:100BA00013F8340000F068FF2B780134A342F5D825
:100BB000002070BDA4090020A009002000B585B068
:100BC00000230390194644F2010001AAADF8043055
:100BD000029300F003F805B05DF804FB08B50120AE
:100BE0000949FFF7CFFD03200849FFF7CBFDBFF30D
:100BF0004F8F0749074BCA6802F4E0621343CB608A
:100C0000BFF34F8F00BFFDE73830030048300300CB
:100C100000ED00E00400FA05F8B5204A204B00255D
:100C2000C2F84051C2F84451C2F84851C2F84C5180
:100C3000C2F80051C2F804511B6813B31949D2F825
:100C400004250C68141B1A6824F07F44A2422F4626
:100C500009D8197CDE69A41A154499B91EB1334626
:100C60001A68A242F5D9104B10491A780B789A42AB
:100C70000DD00F490F4A41F823504FF48013C2F8AA
:100C80000031F8BD1F745A6998699047E6E7531C14
:100C9000DBB2022B08BF00230B70EAE70010014013
:100CA000DC090020D8090020E0090020E10900202B
:100CB000F00A002000E100E02DE9F04F7D4A7E4976
:100CC000137809787D48994287B0066800F0E8817A
:100CD0000133DBB2022B08BF002379491370794A34
:100CE0000291084652F82310036874488A190025B7
:100CF00022F07F420260AE462846A3B11A688A42BB
:100D000000F2D681DC68C3F800E0891A1044DA6981
:100D100034B1871927F07F47DD619C605F601D4615
:100D20001346002BEAD1029A04931360049C01231A
:100D30000593654BDFF894811B7801935F4BDFF8D7
:100D400090C1D3F800A0029B1F680023BB462F462A
:100D50000093C1461E464FF0010E37B37A68B9685A
:100D60003D46FF69CAEB020323F07F4363453CD84D
:100D70000B442B606E60AE6085F810E0EE61002CD5
:100D800067D021688B4242D9204603E0116899421E
:100D900044D21046C2695B1A002AF7D12B60EA617F
:100DA0002346C5611C46002FD8D198F8003098F82A
:100DB00001209A4200F08E805A1C03EB430308EB9B
:100DC000C30399F802109D68D2B2914289F80020BD
:100DD0001A7908BF89F80070022A48D0032A3CD04B
:100DE000012A22D023461C46DDE7C2EB0A0222F08C
:100DF0007F428A4202D28B1A2B60BBE72E606E6064
:100E0000AE6085F810E0EE611CB321680023CB1AB8
:100E100023602B46EC61AB461C46C4E7C91A11603F
:100E20002B60EA612346C561BCE72A7C0392002A55
:100E3000D8D1DA686A601969A9605869E860103326
:100E40009B68AB61019B002B8CD0039B6B601A46A7
:100E500088E72B46AB461C46A5E70CB9C2E71C4603
:100E6000E3692674002BFAD19B461C469BE754B1DC
:100E7000A54200F00881234602E0954207D01346C0
:100E8000DA69002AF9D123462E741C468BE7AB425F
:100E900000F0FA80E9692868D9610029F3D0234677
:100EA0000A6802440A60009A2E749C4218BF01220C
:100EB0000092EAE7E0090020E1090020D8090020BB
:100EC000DC090020F00A0020E2090020E4090020EB
:100ED000FEFF7F00029B9DF80420C3F800B0764B14
:100EE000C3F800A0754B1A70009B1BB9049BA3426A
:100EF00000F0D081002C00F03C81714D6E4BD5F894
:100F000004051B686F4ED4F800C03178C21A22F075
:100F10007F420332002952D16B4FDFF8B091DFF8E6
:100F2000B0814FF480314FF4003E0124C5F84413E2
:100F3000C5F80413C7F880E1C7F800E02C602F2142
:100F4000D9F8005000BF00BF00BF00BF00BF00BF06
:100F500000BF00BF45452FD000BF00BF00BF00BF8E
:100F600000BF00BF00BF00BF00BF00BF00BF00BF89
:100F700000BF00BF00BF00BF00BF00BF00BF00BF79
:100F800000BF00BF00BF00BF00BF00BF00BF00BF69
:100F900000BF00BF00BF00BF00BF00BF00BF00BF59
:100FA00000BF00BF00BF00BF00BF00BF00BF00BF49
:100FB00000BF00BF00BF00BF0139C3D1347062451C
:100FC0002CBF9A1803EB0C023D4922F07F43C1F875
:100FD0004035D1F80425121A1B1A22F07F4223F063
:100FE0007F4303329A4248D9D1F80435374AC1F8D1
:100FF0004035126836492F2300BF00BF00BF00BF35
:1010000000BF00BF00BF00BF8A422FD000BF00BF9B
:1010100000BF00BF00BF00BF00BF00BF00BF00BFD8
:1010200000BF00BF00BF00BF00BF00BF00BF00BFC8
:1010300000BF00BF00BF00BF00BF00BF00BF00BFB8
:1010400000BF00BF00BF00BF00BF00BF00BF00BFA8
:1010500000BF00BF00BF00BF00BF00BF00BF00BF98
:1010600000BF00BF00BF00BF00BF00BF013BC3D136
:10107000154B4FF40032C3F80021104A00231370BF
:1010800007B0BDE8F08F2246D4F81CB0BBF1000FCA
:1010900022D0D16910685B4600297FF401AF02E7D6
:1010A0000C4B02931B680493002505951C4640E6F3
:1010B000521A1A6037E600BFD8090020E209002062
:1010C00000100140F80A002000E100E06400002068
:1010D0000024F400DC0900207549764BC1F808E0D3
:1010E00075492F20096800BF00BF00BF00BF00BFC7
:1010F00000BF00BF00BF99422FD000BF00BF00BF9C
:1011000000BF00BF00BF00BF00BF00BF00BF00BFE7
:1011100000BF00BF00BF00BF00BF00BF00BF00BFD7
:1011200000BF00BF00BF00BF00BF00BF00BF00BFC7
:1011300000BF00BF00BF00BF00BF00BF00BF00BFB7
:1011400000BF00BF00BF00BF00BF00BF00BF00BFA7
:1011500000BF00BF00BF00BF00BF0138C3D1D169CD
:101160001068002900F09B800122DA465B4601925C
:1011700096E64F4A514B504E4E484FF480314FF453
:1011800000370125C3F88070C2F848132F23C2F836
:101190000813556031681E4600BF00BF00BF00BF86
:1011A00000BF00BF00BF00BF81422FD000BF00BF03
:1011B00000BF00BF00BF00BF00BF00BF00BF00BF37
:1011C00000BF00BF00BF00BF00BF00BF00BF00BF27
:1011D00000BF00BF00BF00BF00BF00BF00BF00BF17
:1011E00000BF00BF00BF00BF00BF00BF00BF00BF07
:1011F00000BF00BF00BF00BF00BF00BF00BF00BFF7
:1012000000BF00BF00BF00BF00BF00BF013EC3D191
:1012100095602B4A146000BF00BF00BF00BF00BF35
:1012200000BF00BF00BF81422FD000BF00BF00BF82
:1012300000BF00BF00BF00BF00BF00BF00BF00BFB6
:1012400000BF00BF00BF00BF00BF00BF00BF00BFA6
:1012500000BF00BF00BF00BF00BF00BF00BF00BF96
:1012600000BF00BF00BF00BF00BF00BF00BF00BF86
:1012700000BF00BF00BF00BF00BF00BF00BF00BF76
:1012800000BF00BF00BF00BF00BF013BC3D10D4B7B
:101290001C70F2E6059B002B3FF4EFAE2AE601231B
:1012A0001A4601938A468B460B4600922E74ECE553
:1012B000001001400024F4006400002000E100E080
:1012C000D8090020F80A00202DE9F041594B5A4A6C
:1012D0005A4D5B4E4FF480344FF400310120C2F878
:1012E0008010C3F848432F21C3F8084358602D6885
:1012F0000C4600BF00BF00BF00BF00BF00BF00BF63
:1013000000BFB5422FD000BF00BF00BF00BF00BF6D
:1013100000BF00BF00BF00BF00BF00BF00BF00BFD5
:1013200000BF00BF00BF00BF00BF00BF00BF00BFC5
:1013300000BF00BF00BF00BF00BF00BF00BF00BFB5
:1013400000BF00BF00BF00BF00BF00BF00BF00BFA5
:1013500000BF00BF00BF00BF00BF00BF00BF00BF95
:1013600000BF00BF00BF013CC3D1364C98600020D5
:10137000206000BF00BF00BF00BF00BF00BF00BFB4
:1013800000BFB5422FD000BF00BF00BF00BF00BFED
:1013900000BF00BF00BF00BF00BF00BF00BF00BF55
:1013A00000BF00BF00BF00BF00BF00BF00BF00BF45
:1013B00000BF00BF00BF00BF00BF00BF00BF00BF35
:1013C00000BF00BF00BF00BF00BF00BF00BF00BF25
:1013D00000BF00BF00BF00BF00BF00BF00BF00BF15
:1013E00000BF00BF00BF0139C3D1174D1749DFF857
:1013F0006080DFF860C0DFF860E028704FF480168E
:10140000E0250B27C8F800008CF800008EF80000DB
:10141000087048708F70C2F8806182F814531660AB
:10142000C3F8080582F81153D3F804352360BDE8EA
:10143000F08100BF0010014000E100E064000020E6
:101440000024F400D8090020F80A0020E409002054
:10145000DC090020E0090020E1090020074B9B780F
:101460000BB9082070473AB130B10368187C0028E6
:10147000F7D159745A61704707207047E40900207A
:101480002DE9F041254CA37813B90820BDE8F0817F
:101490000028FAD0042902D80720BDE8F08143696A
:1014A000002BF2D0437C0546012B4FF000000CBF0F
:1014B0008846804617460E4600F06CF86378A078A0
:1014C00021785A1CD2B2904208BF002291421ED00D
:1014D00003EB430304EBC30319464FF0010E41F83D
:1014E000085F0F4883F804E0D0F8040548608E6078
:1014F0000020C3F814809F61627000F053F8094B1C
:101500004FF48012C3F800210020BDE8F0810020D4
:1015100000F048F80420BDE8F08100BFE409002095
:101520000010014000E100E070B5184CA3780BB941
:10153000082070BD0028FBD04369002BF8D000259F
:1015400005740646284600F025F86278A0782178D0
:10155000531CDBB2984208BF2B46994211D002EBD4
:10156000420204EBC20202212846966011716370A8
:1015700000F018F8064B4FF48012C3F800212846FB
:1015800070BD284600F00EF8042070BDE40900206C
:1015900000E100E072B6024A13680133136070473D
:1015A000FC0A0020034A1368013B136003B962B6CA
:1015B000704700BFFC0A002010B50C4C23780BB11B
:1015C000852010BD0A4A6360E3601068A36010F0D4
:1015D0000100236102D1072100F0FCF84FF08042A6
:1015E0000123C2F818352370002010BD000B002025
:1015F00000E100E030B51B4DAB78044683B003F04A
:10160000FF0073B114B16368012098470020FFF711
:10161000C1FFEB6800200133EB60FFF7C3FF03B0AD
:1016200030BDFFF7B7FF64B12A6942B1944208D0D8
:10163000134601E09C4204D01B68002BFAD12260C3
:101640002C61EB68002BE4D1074A0849136013684A
:1016500001934FF0804202200123019CC2F8040351
:101660000B60D6E7000B002004010040080000409A
:101670004FF08043D3F81804C0F30040704700BF18
:1016800030B51A4D6B78044683B003F0FF0073B198
:1016900014B16368002098470020FFF77BFF6B6858
:1016A000002001336B60FFF77DFF03B030BDFFF713
:1016B00071FF64B1AA6842B1944208D0134601E0B8
:1016C0009C4204D01B68002BFAD12260AC606B688E
:1016D000002BE4D1064A1360136801934FF0804356
:1016E00001220199C3F804231A60D8E7000B0020F7
:1016F0000001004008B50020FFF74CFF0C494B6883
:10170000013B4B604B686BB90A4B01221A604FF0EA
:101710008042D2F80C3403F00113B3F1011FF8D06A
:1017200000234B700020BDE80840FFF73BBF00BF1F
:10173000000B0020040000404FF08043D3F80C045D
:1017400000F00110A0F10110B0FA80F040097047DC
:1017500010B51D4B1A6882B0F2B91C4B1A680AB951
:1017600002B010BD00221A601B6801934FF0804345
:101770000222174C0199C3F8082323690122A270A1
:10178000002BEDD01A6822615B680120984723691D
:10179000002BF7D102B010BD00221A601B68009325
:1017A0004FF0804301220A4C0099C3F80823A36834
:1017B0006270002BD1D01A68A2605B680020984745
:1017C000A368002BF7D1C8E70001004004010040E6
:1017D000000B0020002810B418DB00F1604303F573
:1017E00061434901C9B283F80013C3B240098000C4
:1017F00000F1604000F5614003F01F0201239340B7
:10180000C0F8803103605DF8044B7047C3B2044AEE
:1018100003F00F0449012244C9B21176E6E700BF84
:10182000FCEC00E030B51F4C94F8645083B015B167
:10183000082003B030BD4FF0FF33FF220620072100
:1018400023636363A363E36323646364A364E36464
:1018500023656365A365E36523606360A360E3605C
:1018600023616361A361E361236284F86030636292
:10187000A36284F86230E36284F8633084F8612004
:10188000FFF7A8FF084B094A1D601B6801930198E8
:101890004FF000430121284684F86410C2F8043355
:1018A00003B030BD140B00207C610040006000409C
:1018B000034B93F86400003018BF0120704700BF4D
:1018C000140B0020F0B56A4C251895F93030002B28
:1018D00001DB0820F0BD91F803E09446BEF1000F53
:1018E00056D02368013300F0BB80082600256B1C0E
:1018F0005F4F54F82320013251D0AB1C9E4245D992
:1019000057F8232001324AD0EB1C9E423ED957F8AB
:101910002320013243D02B1D9E4237D957F8232074
:1019200001323CD06B1D9E4230D957F823700137ED
:1019300035D0AB1D9E4229D954F823204C4F01329B
:101940002DD0EB1D9E4221D957F82320013226D0FD
:1019500005F108039E4219D957F8232001321ED001
:1019600005F109039E4211D957F82320013216D000
:1019700005F10A039E4209D957F8237001370ED0AA
:101980000B35AE4202D9E36A013307D00420F0BD23
:10199000236A01335CD00C260825A8E70B23261800
:1019A000DDB244F823C0324686F83050BEF1000F55
:1019B00002D1234483F858008B78DBB91F284A787A
:1019C00087BF2C4E00F01F0303464FF0A04603F5DF
:1019D000E073920046F82320CB78E3B96AB2083A64
:1019E0001444097894F8602042EA811284F8602057
:1019F0001846F0BD1F2887BF1E4B00F01F0202468D
:101A00004FF0A04303EB8203D3F8002722F0020239
:101A1000C3F80027E0E76BB29B0003F1804303F5B6
:101A2000C0430A78D3F8101521F44F3121F44071E6
:101A3000C3F810151204000202F44031D3F8104527
:101A400000F47C520A432243C3F810250020F0BD65
:101A5000082685F830603346C4F820C03546A8E72C
:101A6000002385F83030C4F800C01D46A4E700BF4D
:101A7000140B002000030050F0B43A4D2E1882B031
:101A800096F8302053B2072B20DD2B4493F85830C2
:101A90009B09032B44D0012B0CBF4FF400324FF4B1
:101AA00040321F2849D900F01F002F4B03EB800064
:101AB000D0F8003723F44033C0F80037D0F80037AF
:101AC0001A43C0F8002702B0F0BC7047072AFAD8C2
:101AD000980000F1804000F5C04003F14002920000
:101AE000D0F8104592B202F18042002744F0010480
:101AF00002F5C042C0F8104501970198176000290F
:101B0000E1D096F9302055F82220002ADBD00122BE
:101B1000164902FA03F3C1F8043302B0F0BC70476F
:101B20001F280DD9104BD3F8103500F01F00C3400B
:101B3000DB0713D54FF44032B7E74FF0A043B5E7CA
:101B40004FF0A0421346D2F81025C24012F0010F08
:101B50000CBF4FF400324FF44032A7E74FF400328D
:101B6000A3E700BF140B00200003005000600040FA
:101B70001F288ABF054B4FF0A04300F01F00D3F889
:101B8000103523FA00F000F0010070470003005008
:101B90002DE9F04F89B00025B24B029503951A68E4
:101BA000012A00F05081B04B1A68012A00F03D81F3
:101BB000AE4B1A68012A00F02A81AD4B1A68012A3F
:101BC00000F01781AB4B1A68012A00F00481AA4B80
:101BD0001A68012A00F0F180A84B1A68012A00F067
:101BE000DE80A74B1A68012A00F0CB80A54B1A684B
:101BF000012A00F0B58015F0FF0F1AD0A24F012680
:101C00000024A30003F180432E4203F5C0434FEAB2
:101C100046060BD0D3F8100557F82420D3F810153A
:101C2000C0F30520C1F3014102B190470134082CF3
:101C3000E7D1002D02DB09B0BDE8F08F934F002201
:101C40004FF0FF33A7F163090492059206930793BF
:101C50008F4C4FF0000A4FF0010814F8013FFF2BA2
:101C600030D0DBB223F0C00008AAC608951903F0F3
:101C7000070215F8081C08FA02F2114222D009EBFB
:101C8000000E99099EF930E059F82EC0BCF1000F02
:101C900056D0032956D01F288ABF03F01F060646D8
:101CA000DFF8F0E115F818BC98BF4FF0A04E06F52C
:101CB000E0761BEA020F5EF82650C5F301451AD103
:101CC000032D48D0BC42C8D1BAF1000FB3D04FF0B9
:101CD000A0430299D3F810356E4A9942D2F81025E4
:101CE00002D103999142A6D00498059902930392D8
:101CF00006900791ACE7022DE4D1032904D0BCF192
:101D0000000FDFD0E047DDE74FF440321F288BBFE4
:101D1000604D4FF0A04503F01F03034605EB83031E
:101D20000AF1010AD3F8005725F44035C3F80057EB
:101D3000D3F800572A435FFA8AFAC3F80027DEE790
:101D40000329BFD10DF1100B1BF806E04EEA020E7D
:101D50000BF806E09FE70329D1D14FF40032D5E715
:101D600000221A601B6801934FF0A042019BD2F839
:101D70001025484B0292D3F81035039345F00045E7
:101D800039E7454AD2F8042312067FF52FAF002227
:101D90001A601B680093009B45F0800526E73E4AC9
:101DA000D2F8042351067FF51CAF00221A601B688D
:101DB0000093009B45F0400513E7374AD2F804230F
:101DC00090067FF509AF00221A601B680093009B04
:101DD00045F0200500E7304AD2F80423D4067FF509
:101DE000F6AE00221A601B680093009B45F01005B8
:101DF000EDE6294AD2F8042316077FF5E3AE002268
:101E00001A601B680093009B45F00805DAE6224A39
:101E1000D2F8042357077FF5D0AE00221A601B6862
:101E20000093009B45F00405C7E61B4AD2F8042343
:101E300092077FF5BDAE00221A601B680093009BDD
:101E400045F00205B4E61449D1F8041311F001017C
:101E500005D01D601B680093009B1546A3E60D4648
:101E6000A1E600BF0061004004610040086100403D
:101E70000C61004010610040146100401861004096
:101E80001C6100407C610040140B0020770B002097
:101E9000730B002000030050006000400220FEF79A
:101EA000E7BC00BF2DE9F0470D460646FEF718FDDA
:101EB000032804461DD8012D1FD00ED3022D1AD1A0
:101EC0001C4B00EB40041C44657895B11A4B1B6811
:101ED0007BB12846BDE8F04718471848FFF724FBB8
:101EE0001449174A04EB44030B44155D9B789D424B
:101EF000EBD0BDE8F087BDE8F087DFF83880470019
:101F00003B1808EB030218F8035053782BB9274409
:101F100047440B4BBA781A55D7E7DFF828900748A3
:101F20004A464FF40041FFF7ABFA0028EFD189F899
:101F30000060ECE7F80B0020AC0B0020B00B002099
:101F4000A40B0020F40B002010B50078FEF7C8FCAD
:101F500003280BD8064B00EB40001844407828B10A
:101F6000044B1B6813B1BDE81040184710BD00BFFB
:101F7000F80B0020AC0B0020B34B1B68DB0700D430
:101F8000704770B5B14EB24D33782C78FBB9172C31
:101F90001CD8DFE814F0F10014011401630076008E
:101FA000830096005D0039002C0039002C00A3004E
:101FB000A800A800A800A800A800CE00DE0001012B
:101FC000460018001800FEF73DFC2C7070BDA14BB8
:101FD0001B7800203070002B00F00581FEF70AFC12
:101FE0000120FEF707FC0320FEF704FCCFE70123E6
:101FF00018463370FEF73CFC97484FF480410022AE
:10200000BDE87040FFF73CBA012318463370FEF775
:102010002FFC914840F6CD410022BDE87040FFF70B
:102020002FBA8C4B1B78002B00F0FE800020FEF7AF
:10203000E1FB0120FEF7DEFB0320FEF7DBFB0020C7
:10204000FEF7C4FB0120FEF7C1FB15232B7070BD0A
:102050000020FEF7BBFB07232B7070BD0020FEF7AE
:102060009FFB002800F0D3800020FEF7C3FB46F260
:10207000666103232B7078480022BDE87040FFF7AB
:10208000FFB90020FEF78CFB002800F0C58000207F
:10209000FEF7B0FB4FF400310423EBE70020FEF71E
:1020A0007FFB002800F0BD800020FEF7A3FB052386
:1020B0002B70694841F69A110022BDE87040FFF785
:1020C000DFB90020FEF7D4FB06232B70624840F6F0
:1020D000CD410022BDE87040FFF7D2B9FEF7B2FB58
:1020E0000C232B7070BD5D48FFF71EFAD4F111046C
:1020F00005467BD0002879D1012C13D0C82303FBDF
:1021000004F44FF4FA704FF400430021C3FB0401C0
:102110004FF47A7200232FF08DF92A4601464F487A
:10212000FFF7AEF90220FEF751FB4A4B01221A706D
:1021300070BD484B1B78002B79D00020FEF75AFB6E
:102140000120FEF757FB0320FEF754FB12232B70F0
:1021500070BD404B1B78002B6FD00020FEF74AFB70
:102160000120FEF747FB0320FEF744FB0020FEF7AB
:102170002DFB13232B7070BD364B1B78002B59D0D1
:102180000020FEF737FB0120FEF734FB0320FEF7AB
:1021900031FB00232B7070BD2E4B1B78002B4FD0D2
:1021A0000020FEF727FB0120FEF724FB0320FEF7AB
:1021B00021FB0120FEF70AFB14232B7070BD0020C9
:1021C000FEF7EEFAC8B10020FEF714FB022C4EF227
:1021D000666118BF4FF400312C701F480022BDE823
:1021E0007040FFF74DB9FEF717FBD0E60220FEF76F
:1021F00001FB184B00221A7070BDFEF7E7FA41F69A
:102200009A1343F23331022C08BF1946E4E7FEF774
:10221000DDFA41F69A112CE7FEF7D8FA43F2333192
:102220003AE7FEF7D3FA42E7FEF7F6FA07E7FEF7DA
:10223000F3FA8BE7FEF7F0FAABE7FEF7EDFA95E776
:10224000FEF7EAFAB5E700BFA00B0020A80B0020BC
:10225000D00B00209C0B00207C0B0020D40B002016
:1022600038B5C44B1B6813F0010401D1204638BDBA
:10227000C14C23780546E3B9172D00F27881DFE8D9
:1022800015F00B013101310169007D009100A500BD
:102290005B003500280035002800B300BA00BA0002
:1022A000BA00BA00BA00E300F6001C014200630065
:1022B0006300B24B1B7800202070002B00F02781B8
:1022C000FEF798FA0120FEF795FA0320FEF792FA3E
:1022D000D2E7012318462370FEF7CAFAA8484FF444
:1022E00080410022BDE83840FFF7CAB801231846F4
:1022F0002370FEF7BDFAA24840F6CD410022BDE8AA
:102300003840FFF7BDB89D4B1B78002B00F02081B3
:102310000020FEF76FFA0120FEF76CFA0320FEF7AB
:1023200069FA0020FEF752FA0120FEF74FFA954BAA
:1023300015221A70002499E70020FEF747FA914B06
:1023400007221A70002491E7FEF77CFA8D4B0024D7
:102350001D708BE70020FEF723FA002800F0E180D3
:102360000020FEF747FA46F26661864B8448032454
:102370001C700022BDE83840FFF782B80020FEF74D
:102380000FFA002800F0DC800020FEF733FA4FF44B
:1023900000317C4B7A4804241C700022BDE8384090
:1023A000FFF76EB80020FEF7FBF9002800F0CD80A3
:1023B0000020FEF71FFA734B714805241C7041F68C
:1023C0009A110022BDE83840FFF75AB80020FEF706
:1023D0004FFA6C4B6A4806241C7040F6CD4100222F
:1023E000BDE83840FFF74CB8FEF72CFA654B0C22DD
:1023F0001A7000243AE76448FFF796F8D5F1110502
:10240000044600F08780002840F08480012D14D01D
:10241000C82303FB05F54FF4FA704FF40043002185
:10242000C3FB05014FF47A7200232FF003F8224614
:1024300001465548FFF724F804460220FEF7C6F986
:102440004E4B01221A7011E74C4B1B78002B00F009
:1024500082800020FEF7CEF90120FEF7CBF90320A1
:10246000FEF7C8F9474B12221A700024FEE6434BD0
:102470001B78002B75D00020FEF7BCF90120FEF779
:10248000B9F90320FEF7B6F90020FEF79FF93D4B9E
:1024900013221A700024E9E6384B1B78002B5DD01C
:1024A0000020FEF7A7F90120FEF7A4F90320FEF7AC
:1024B000A1F9344B00241C70D8E6304B1B78002B5C
:1024C00052D00020FEF796F90120FEF793F9032081
:1024D000FEF790F90120FEF779F92A4B14221A70C1
:1024E0000024C3E60020FEF75BF9F8B10020FEF7F8
:1024F00081F9022D4EF2666118BF4FF40031214B75
:102500001F481D700022BDE83840FEF7B9BFFEF736
:1025100083F9B1E60220FEF76DF9184B00221A701C
:10252000A4E6FEF753F941F69A111EE7FEF74EF9BD
:1025300041F69A1343F23331022D08BF1946DEE704
:10254000FEF744F943F2333123E7FEF73FF932E770
:10255000FEF762F9E5E6FEF75FF983E7FEF75CF95F
:10256000A7E7FEF759F98FE7FEF756F9B2E700241F
:102570007CE600BFA00B0020A80B00209C0B0020D5
:102580007C0B0020D00B0020D40B0020F0B5214A9A
:10259000214B1060044610F0020083B0196015D082
:1025A0001E4B1F484FF00E0E0F2710261125042139
:1025B00040F2666283F800E0DF709E715D72FEF7A4
:1025C0008DFAA0B1E3071DD403B0F0BDE20719D422
:1025D0001448154A0021FEF741FF0028F4D11348A2
:1025E000134A012103B0BDE8F040FEF737BFFEF704
:1025F000CFFA0028E6D101460E4A0F48FEF72EFF1B
:10260000E10703D50190FEF74DF901980028DFD0CE
:1026100003B0F0BDA00B0020AC0B0020F80B002095
:102620006C30030068300300791F00008C30030019
:102630009D1E0000491F000064300300020700D403
:10264000704708B5084605F055FC0E4A052812D813
:10265000DFE800F00A0A110303030723137018468A
:10266000BDE80840FFF7FCBD002313701846BDE825
:102670000840FFF7F5BD062313701846BDE8084073
:10268000FFF7EEBD120C002008B51C4B1B78032B86
:1026900027D8DFE803F0211207020120BDE8084037
:1026A000FEF794B80120FEF7E3F8154840F6CD4157
:1026B0000022BDE80840FEF7E3BE0120FEF770F8F7
:1026C00080B90120FEF782F841F69A110C480022E9
:1026D000BDE80840FEF7D4BE0120BDE80840FEF783
:1026E00089B808BD0120FEF785F846F26661044806
:1026F0000022BDE80840FEF7C3BE00BF110C002059
:10270000340C002008B51B78802B00D008BD0D4B81
:10271000072201201A70FEF743F868B10020FEF787
:1027200069F80120FEF766F8074841F69A11002281
:10273000BDE80840FEF7A4BEFEF748F80120FEF70A
:1027400045F8F1E7100C0020140C002008B52C4AC5
:102750001378013BDBB2137083B10120FEF720F840
:10276000A0B9FEF733F80120FEF730F8254841F60E
:102770009A110022BDE80840FEF782BE224B1B786A
:10278000032B0DD8DFE803F0121B2B090020FEF706
:1027900031F80120FEF72EF8E8E70120FEF716F8E1
:1027A0001A4B1878BDE80840FFF75ABD0120FEF724
:1027B00021F8164B1878BDE80840FFF751BD0120FD
:1027C000FDF7EEFFA8B10120FEF714F846F26661AE
:1027D0000F480022FEF754FE0028E1D008BD01207A
:1027E000FEF746F840F6CD4100220948FEF748FEC4
:1027F000F2E70120FDF7EAFF41F69A11E8E700BF92
:10280000100C0020140C0020110C0020120C0020D1
:10281000340C0020F8B51A4E1A4B1B4F00242146E9
:102820000C22054630461C703C70FDF78BFD21469E
:10283000164B1748174A3360FEF710FE044660B186
:10284000284615492A4604F021FF98B928460C4924
:1028500004F0A5FE40B92046F8BD01460F4A1048D5
:10286000FEF7FCFD0446EBE70E480F4A0F4BE7214D
:102870002FF0B6F80B480C4A0D4BE6212FF0B0F8BC
:10288000040C0020110C0020120C00200527000071
:1028900090300300892600003D2600004D270000EF
:1028A00094300300983003008C3103004031030062
:1028B000E0300300704700BF08B5FEF705FD00B922
:1028C00008BDBDE80840FEF779B900BF30B4002369
:1028D0004FF4F0304FF0A045032403E0D20748BF87
:1028E00045F821400133202B40FA03F203F5E07153
:1028F000F4D14FF0A0434FF4F0310022C3F8081593
:10290000C3F80C2530BC704708B501200021FFF743
:102910003DFE48B9064B1868FFF77CFF00B908BDBB
:10292000BDE80840FEF74AB9FEF748F9F2E700BFF4
:10293000540C002008B505460C460020FDF710FF9A
:10294000284621461DF0A5FB00201FF083FC04F063
:102950008BFEA8B105460D4C00F0D0FA28460521A3
:1029600005F0B2FA2560FFF7A7FFFFF7CDFFFFF7ED
:10297000ADFF206805F07AF920681DF09DFBF8E7AF
:102980000348044A044B3F212FF02AF8540C00203E
:102990009C310300B8310300AC3103002DE9F84F3E
:1029A00043001F18DFF880B1FF000BEB07048846D7
:1029B000E16A0129164644D034D302293CD10130C2
:1029C00000EB4000656A0BEBC0094FF0000A1DE008
:1029D000126A641BB4422346A2EB050428BF3346A7
:1029E0009C42D9F8040028BF1C4622462844414690
:1029F0002FF03AF80BEB070325441A6A954208BFFB
:102A00000025361BA244A0445D6217D00BEB0702E1
:102A1000936AAB4203F1FF34DAD8126A1344013BE4
:102A20005C1BD7E7A16A626A91429CBF246A0919BC
:102A300001398A1A964238D94FF0000A5046BDE84B
:102A4000F88FA16A656AA94229D90139226AC5EBC2
:102A5000010A03440BEBC30B0BF1200BDBF8045012
:102A6000314BB24528BFB246561B0130B24500EB90
:102A700040003FD303EBC00441466068324628441F
:102A8000C6EB0A052EF0F0FF606808EB06012A4647
:102A90002EF0EAFFCBF804505046BDE8F88F226ACA
:102AA0008C18013CC5EB040AD3E703440BEBC30BC2
:102AB0000BF12007DBF82040D7F804901A4BC9EB44
:102AC00004040130A64200EB40001FD303EBC00515
:102AD0004146686822464844C4EB06092EF0C4FF0C
:102AE000686808EB04014A462EF0BEFFB246C7F8FC
:102AF0000490A3E703EBC0034146586852462844BC
:102B000055442EF0B1FFCBF8045097E703EBC00318
:102B100041465868324648442EF0A6FF06EB0903AA
:102B20007B60B2468AE700BF58AA00202DE9F04F2B
:102B3000344C94F800E083B00546884617461E469C
:102B4000BEF1000F2ED02369DFF8B8A0AB4256D9F2
:102B50004FF000094846CDF80490FEF71BFD6DB913
:102B600029460D4404EBC5040C9BE3620020019B45
:102B7000FEF718FD002003B0BDE8F08F6B1C690064
:102B800003EB4303DB004A190AEBC2020AEB030E14
:102B9000C2F828904AF80380CEF804701662C2F892
:102BA0002490DEE7184BDFF86CB0DFF86C90C4F8C7
:102BB00028E04FF0100C4FF4007A0222C4F824E011
:102BC000A361C4F858E0A3641049C4F82CE0C4F829
:102BD0005CE0C4F854E0C4F850C0E01DC4F81CB078
:102BE000C4F820A0C4F84C90226162612FF03CFB35
:102BF000204607492FF038FB2023A371A3E74FF0AD
:102C0000FF30B8E758AA0020CC310300D8310300C8
:102C1000DC310300680C0020580C0020F8B5134C80
:102C200023780BBB124ADFF858C0124FA3624FF44F
:102C3000007E10266362E362A365E3656365022597
:102C40000D49A261A264C4F81CC0C4F820E0E01DD4
:102C5000E7642665256165612FF006FB204607497C
:102C60002FF002FB2023A371F8BD00BF58AA00205B
:102C7000CC310300580C0020D8310300DC310300B4
:102C8000680C00200649074A074B9B1A03DD043BEA
:102C9000C858D050FBDC00F013F8FDF7DFFA000055
:102CA00078B803000000002060090020FEE7FEE77E
:102CB000FEE7FEE7FEE7FEE7FEE7FEE7FEE7FEE7EC
:102CC00070B45E4B1B68082B19D05D4AD2F888306F
:102CD00043F47003C2F88830BFF34F8FBFF36F8F98
:102CE0004FF01023D3F80022002A75DBD3F804320A
:102CF000002B71DB534B544A1A6070BC7047534B26
:102D000019680029E1D14FF080404FF08052C0F89F
:102D10000C114F4BC0F81011C0F83815D2F804143C
:102D2000C3F82015D2F80814C3F82415D2F80C14EF
:102D3000C3F82815D2F81014C3F82C15D2F81414BF
:102D4000C3F83015D2F81814C3F83415D2F81C148F
:102D5000C3F84015D2F82014C3F84415D2F824144F
:102D6000C3F84815D2F82814C3F84C15D2F82C141F
:102D7000C3F85015D2F83014C3F85415D2F83414EF
:102D8000C3F86015D2F83814C3F86415D2F83C14AF
:102D9000C3F86815D2F84014C3F86C15D2F844642F
:102DA0002C4C2D49C3F870652C4D2560FB23C1F8D0
:102DB0001835D0F8E43ED2F8581204F50F3423F059
:102DC0000F0204F56D7401F00F0313434FF400720A
:102DD000C0F8E43E226078E7214B0122C3F80425C5
:102DE000D3F80024002AFBD04FF0102312221C49F4
:102DF000C3F80022D1F80034002BFBD04FF0102391
:102E000012221749C3F80422D1F80024144B002AD7
:102E1000FAD00022C3F80425D3F80024002AFBD0FE
:102E2000BFF34F8F06490F4BCA6802F4E0621343A9
:102E3000CB60BFF34F8F00BFFDE700BF3001001034
:102E400000ED00E0640000200090D0033401001089
:102E500000C000408C56004000F000404881030054
:102E600000E001400400FA05014B186800F0CEBBF9
:102E7000B817002010B5044604F07DFAA31D2360A6
:102E80008023A380204610BD73B504460E4600F093
:102E900057F904F52E7004F07FFA144B009304F2F6
:102EA0006231134B019440F2DC5204F52F7004F0B0
:102EB000CBFA04F53670FFF7DDFF002506F5C241B9
:102EC000234684F8605384F861530A4A343104F588
:102ED000146005F04BFE2346074A2946201D03F0E7
:102EE00065FD1DF04DFC204602B070BD8130000034
:102EF000692E0000D72F0000312F000010B5044CC0
:102F000001462046FFF7C0FF024B1C6010BD00BF0A
:102F1000680E0020B8170020D0F8D82200F2DE2377
:102F20009A4203D100F5146005F043BE70470000DB
:102F3000014B1868FFF7F0BFB8170020F8B504463A
:102F4000051D00F5367600F52E77284603F014FEB1
:102F500050BB94F86033012B1ED009D3022BF4D15F
:102F60003146384604F04EFAF0B984F86003ECE7D5
:102F70003146384604F013FAB0B9284603F072FE21
:102F8000012384F86033284603F073FEC0B9284655
:102F900003F075FE84F86103324694F861133846F5
:102FA00004F006FA0028EED0D4F8D81204F2DE209D
:102FB000091A8BB273B11946BDE8F8401DF0F2BB97
:102FC000284603F082FE204601F072FD022384F8B9
:102FD0006033C5E7F8BDFFF7B1BF00F2DE23C0F8EC
:102FE000D8328023A0F8DC3200F5146005F0E1BD92
:102FF000014B1868FFF7F1BFB8170020034B1B689F
:103000000A46014603F52F7004F02CBAB8170020C9
:10301000F0B50C46A1B01F46164600F017F922463F
:103020001449154D68462FF0E3F868462FF024F94F
:1030300069460246002003F04DFC00246000BC42BB
:10304000204408DA292C06D0325D294668442FF046
:10305000CFF80134F2E7094968442FF005F96846D2
:103060002FF00AF90DF10101421E002003F032FC9D
:1030700021B0F0BDE4310300F8310300FE3103005C
:1030800001480068FFF7C4BFB81700201A2827D8E6
:10309000DFE800F0290E1012261416182626262620
:1030A000261A1C261E202626262626262624220010
:1030B000012070470E2070470B2070470C2070478E
:1030C0000920704703207047022070470420704792
:1030D000112070471220704713207047142070474A
:1030E00000F58040704700207047437C13F0040FC8
:1030F00014BF20200020190748BF40F01000DA0656
:1031000048BF40F00800590648BF40F002009A0648
:1031100048BF40F00400DA0918BF40F0010043F353
:10312000010340EA8310C0B27047FEE7D1F8803057
:103130001843C1F8800001F1700005F03ABD0000AD
:10314000F8B50F460146044641F8897B4FF40072FA
:10315000043003F015FC314B63660025A36604F1CF
:103160007006C82307F5C241A4F86C3025662346D3
:103170002B4A3431304605F0F9FC4FF00043C4F8D7
:103180008030206884F884500B2384F88E32FF232B
:1031900084F88550A4F8865084F8885084F88952C1
:1031A00084F88A5284F88B5284F88C5284F88D52B9
:1031B00084F88F32C4F89052C4F89452C4F89852EC
:1031C000C4F89C52C4F8A052C4F8A452C4F8A8523F
:1031D000C4F8AC52C4F8B052C4F8B45200B9FEE717
:1031E000104B11491C60224604F050FA2246206818
:1031F0000E4904F09FFA2068012104F0A5FA224646
:1032000020680B4904F002FC2946206804F0C2F94A
:10321000304605F0CEFC2046F8BD00BF00F8FF07A1
:103220003D3C0000BC1700202D310000A1570000DC
:103230000933000010B50446043003F076FC20B9D1
:10324000D4F89C320133C4F89C3210BDD0F89032CF
:103250000133C0F89032704710B590B01346044661
:103260000A466846402104F06FF8431E3F2B06D8FB
:1032700082B26946201D03F02EFC10B010BD032061
:10328000FBE70EB403B503AA52F8041B0192FFF743
:10329000E3FF02B05DF804EB03B0704790F88B32A7
:1032A000F7B504460D4643B3071D384603F00EFC40
:1032B00018BB2B792E7A0193712300938022062369
:1032C0000F492046C6F34006FFF7DBFFA8B92A796D
:1032D0002968384603F0FFFB78B995F90620009677
:1032E0006FF07F0307492046FFF7CBFF28B9204640
:1032F00003B0BDE8F040FFF79DBF03B0F0BD00BFD5
:1033000011320300163203000B4601461846FFF740
:10331000C5BF00002DE9FF4100F104080546404605
:103320000C46174603F0D2FB58BB267AC6F340067C
:1033300007B9207901907123009380220623124956
:103340002846FFF79EFFE0B9A7B1E37903936379BD
:10335000029394F906200D498DE8C0006FF07F03B9
:103360002846FFF78EFF60B9284604B0BDE8F0415B
:10337000FFF760BF22792168404603F0ACFB0028CC
:10338000E3D004B0BDE8F081113203001A3203002B
:10339000014B1868FFF7BEBFBC1700202DE9FF41A5
:1033A00004460AA80E4650F8045B0390201D1746F9
:1033B000984603F08BFB88B9CDF800803B46324637
:1033C00008492046FFF75DFF40B9039A2946204689
:1033D000FFF742FF10B92046FFF72CFF04B0BDE80D
:1033E000F08100BF2132030013B500230193074B86
:1033F00000930622302380210446FFF7CFFF10B14F
:10340000012384F8843002B010BD00BF213B0300CB
:1034100010B504468CB0002931D091F83920130141
:1034200003F0F003900648BF43F00103D2064FF0CB
:1034300008020B9248BF43F0080301F119020A92F7
:10344000089301F1080203230992079391F8383099
:1034500006934B8E05934FF6FF730391049391F9F6
:103460003730029391F836300193074B00930722CF
:10347000332380212046FFF791FF0CB010BD0CB024
:10348000BDE81040FFF7B0BF943203000B46014681
:103490001846FFF7BDBF00001FB571B191F90130AB
:1034A00002930B780193074B009307223923802165
:1034B000FFF774FF05B05DF804FB05B05DF804EBA1
:1034C000FFF792BF0D3B03000B4601461846FFF77E
:1034D000E3BF00001FB590F88D12044661B101935F
:1034E0000A4B029200930622002341F08001FFF76D
:1034F00055FF002384F88D32054A94F88E12206817
:1035000004B0BDE8104012F0D4BB00BF2532030068
:103510009133000001480068FFF7DCBFBC170020B2
:103520001FB5029190F98F3201930E4B0093044620
:10353000392306228021FFF731FFFF2384F88F32E1
:1035400094F88E12084A206812F0B3FB002301930E
:10355000064B00930622302380212046FFF71EFFF2
:1035600004B010BD0D3B030091330000213B03006C
:10357000014B1868FFF7D4BFBC17002007B511F046
:10358000300F064B08BF026601920093062200230B
:10359000FFF704FF03B05DF804FB00BF2332030014
:1035A000F0B50C0606460D46BDF814702AD5C1F3D9
:1035B000011484B9144821464FF00C0C0CFB01FE99
:1035C0005EF80040A2420BD001310929F6D1052254
:1035D0002946304600E00622BDE8F040FFF7CEBFA6
:1035E00000EB0E0188684C6810F0010F4FEA600094
:1035F00001D031580C59059729463044A446BDE8FE
:10360000F04060470720F0BD2832030070B588B055
:1036100000238DF8133005930693079307AB0293AD
:1036200006AB1646019305AB009304460DF1130358
:1036300008461F4A314603F0DFFB9DF81310B042E5
:1036400001F00F052ED1BDF81C300093059A069BA2
:103650002046FFF7A5FF94F8883033B19D421EBF86
:10366000D4F898320133C4F898320F2D14BF6B1C74
:10367000012384F8883003280DD165B194F8853092
:103680000BB984F88550012303FA05F5B4F88630A8
:103690001D43A4F88650D4F894320133C4F8943210
:1036A00008B070BD09222046FFF768FFE3E700BFBE
:1036B0000D320300F0B5124CBDF81470964600258B
:1036C0004FF00C0C0CFB05F63259724507D0013552
:1036D000082DF7D10D22BDE8F040FFF74FBF34446D
:1036E000A568646815F0010F4FEA650501D04659D9
:1036F000345905972844A446BDE8F040604700BF10
:10370000AC3A03000022FFF739BF38B50446006821
:1037100003F0DBFF0021206804F073FC0021206827
:1037200003F0E2FF722280212046FFF727FF0546C3
:1037300048B1D4F8803043F00043C4F8803004F13D
:10374000700005F036FA284638BD000070B586B026
:103750000446184606AB002243F80C2DBDF828603D
:1037600005AA019204AA00920D460B4A314603F0C5
:1037700043FBB0420AD1BDF814300093039A049B76
:1037800029462046FFF796FF06B070BD092229465C
:103790002046FFF7F3FEF7E70E32030038B5044684
:1037A00000680D4603F093FFFFF770FC29460246C0
:1037B0002046BDE83840FFF7E1BE0222FFF7DEBE3B
:1037C0000222FFF7DBBE0000F0B5044687B00068B8
:1037D0000E461F4612F0D2F9002830D00023206890
:1037E0000493059312F0E1F9831D0293431D0193A5
:1037F00005AB0093054604AB134ABDF830103846BC
:1038000003F0FAFA00281CDD059A7F2A19D806F081
:103810000F0384F88D3204992A7128682EF024F958
:103820000A4A2068294612F0C6FA30B1FFF72EFC8A
:10383000314602462046FFF7A1FE07B0F0BD0E203C
:10384000F4E70620F2E700BF0C3B0300153500004B
:10385000F0B589B005460F46006800211C4604916A
:1038600005910691079103F089FF064670B307ABF7
:10387000029306AB019305AB00931C4ABDF83810C8
:1038800004AB204603F0B8FABDF814200499304682
:1038900004F0F4F8044620BB0121304604F0E9F8B6
:1038A0003146286803F055FF044680B9D5F8A432A4
:1038B0000133C5F8A4323B0705D0024639462846F5
:1038C000FFF75CFE0446204609B0F0BD0324D5F89E
:1038D000B4320133C5F8B4322046FFF7D7FB0246B5
:1038E000ECE7304604F0BFF8F1E700BF5B3B0300B4
:1038F000F0B589B005460F461C460121002300683B
:10390000049305930693079303F038FF064650B3DC
:1039100007AB029306AB019305AB0093194ABDF8C0
:10392000381004AB204603F067FABDF81420049960
:10393000304604F0A3F8044600BB3146286803F083
:1039400008FF044680B9D5F8A0320133C5F8A0328B
:103950003B0705D0024639462846FFF70FFE0446CE
:10396000204609B0F0BD0324D5F8B4320133C5F8C0
:10397000B4322046FFF78AFB0246ECE7304604F0FB
:1039800072F8F1E75B3B030037B50446184602AB1B
:10399000002203F8012D0D460B4ABDF8181003F064
:1039A0002BFA00280EDD9DF80730012B0CBF0D20EF
:1039B0000720FFF76BFB294602462046FFF7DEFD96
:1039C00003B030BD0620F4E7213B030037B50446C1
:1039D000184602AB002203F8012D0D460D4ABDF832
:1039E000181003F009FA002811DD9DF8073020684F
:1039F00053B910F061FBFFF749FB29460246204608
:103A0000FFF7BCFD03B030BD10F051FBF3E706201B
:103A1000F1E700BF564103000222FFF7AFBD0222CB
:103A2000FFF7ACBD0222FFF7A9BD0222FFF7A6BD3A
:103A30000222FFF7A3BD0222FFF7A0BD0E4BF0B498
:103A4000164600240C2707FB04F5EA58B24206D0BC
:103A50000134732CF7D10D22F0BCFFF78FBD2B443E
:103A60009C685B6814F0010F4FEA640401D00559AB
:103A7000EB582044F0BC1847A832030070B56E4DD7
:103A80000446D4F88030002B68D013DA20681CF08C
:103A9000E5FA082894BF2A5C772280212046FFF7A8
:103AA0006DFD00285AD1D4F8803023F00043C4F8CB
:103AB0008030E6E798050BD5602280212046FFF78D
:103AC000BDFF00284AD1D4F8803023F40073EEE71C
:103AD00013F480660BD0612280212046FFF7AEFFF1
:103AE00000283BD1D4F8803023F48063DFE7190746
:103AF00042D594F88A323BB9432280212046FFF711
:103B00009DFF002833D070BD206804F0F3F9013820
:103B1000012888BF84F88A62206804F0EBF9052840
:103B200007D0492280212046FFF788FF0028E3D0F4
:103B300070BD206804F09DFA0028F2D0D4F88030DF
:103B4000206823F010030021C4F8803004F059FAF3
:103B5000682280212046FFF711FD00B170BD42228E
:103B600080212046FFF76AFF0028DAD070BDD4F824
:103B7000803023F008039AE7DA060BD5482280212B
:103B80002046FFF75BFF0028E8D1D4F8803023F00F
:103B900010038CE79E060BD5472280212046FFF7B5
:103BA0004DFF0028DAD1D4F8803023F020037EE7DF
:103BB00098070BD0632280212046FFF73FFF0028A3
:103BC000CCD1D4F8803023F0030370E713F0C00F9A
:103BD0000BD0522280212046FFF730FF0028BDD1B4
:103BE000D4F8803023F0C00361E7D9050ED541F247
:103BF0000D5280212046FFF721FF0028AED1D4F8D6
:103C0000803023F4807343F0804350E75A000BD593
:103C10005A2280212046FFF711FF00289ED1D4F8B8
:103C2000803023F0804342E713F4C05F3FF429AFB4
:103C300023F4C0533BE700BF01320300FFF71EBF70
:103C400037B50446184602AB002243F8042D0D4652
:103C5000094ABDF8181003F0CFF8002806DD019AD4
:103C600029462046FFF7EAFE03B030BD0922294667
:103C70002046FFF783FCF7E72332030073B50446C1
:103C8000184602AB1646002203F8012D0D461B4ACA
:103C9000BDF8181003F0B0F800282CDD9DF80730AF
:103CA00093B994F88B3213B1206811F076FF00219C
:103CB000206811F054FF80B1FFF7E8F92946024669
:103CC0002046FFF75BFC0DE00121206811F047FF63
:103CD0000028F1D194F88B3233B932462946204678
:103CE000FFF7ACFE02B070BD054A94F88E12206852
:103CF00011F0DFFFDFE70620DEE700BF56410300DB
:103D00009133000073B50446184602AB16460022F4
:103D100003F8012D0D460C4ABDF8181003F06CF89D
:103D200000280BDD9DF90710206803F0E4FD324602
:103D300029462046FFF782FE02B070BD09222946BF
:103D40002046FFF71BFCF7E77948030073B50446EC
:103D5000184602AB1646002243F8042D0D46184AB9
:103D6000BDF8181003F048F8002827DD9DF804106E
:103D7000206803F09EFDC8B9019B84F88E3220684C
:103D800011F0FCFE30B9324629462046FFF756FEB8
:103D900002B070BD94F88B32002BF4D0094A94F82D
:103DA0008E12206811F085FF0028ECD0FFF76EF925
:103DB000024629462046FFF7E1FBE9E70922F8E73A
:103DC000233203009133000073B50446184602AB5A
:103DD0001646002203F8012D0D46114ABDF81810B1
:103DE00003F00AF800280FDD9DF8071011B1022931
:103DF00010D8012120681CF02BFA324629462046B3
:103E0000FFF71CFE02B070BD092229462046FFF7CD
:103E1000B5FBF7E70720FFF739F90246F5E700BFE2
:103E2000213B0300F8B50546BDF81800013B00260C
:103E30004FF0010E60B113F8014F1F2C0EDC6F6EB6
:103E40000EFA04F43C4209D00138264380B2F1E76F
:103E5000AE662846BDE8F840FFF7F0BD0720FFF743
:103E600015F902462846BDE8F840FFF787BB000079
:103E700073B50446184602AB1646B4F86C2023F816
:103E8000022D0D460B4ABDF8181002F0B5FF0028B0
:103E90000ADDBDF80630A4F86C30324629462046CB
:103EA000FFF7CCFD02B070BD092229462046FFF77E
:103EB00065FBF7E7113B030073B50446184602ABF8
:103EC000164694F88A2203F8012D0D460B4ABDF8D8
:103ED000181002F091FF00280ADD9DF8073084F8E1
:103EE0008A32324629462046FFF7A8FD02B070BD4F
:103EF000092229462046FFF741FBF7E75641030018
:103F000073B504460D461846164601AB0E4ABDF879
:103F1000181002F071FF002813DD0199206803F0EA
:103F2000D2FC30B9324629462046FFF787FD02B061
:103F300070BDFFF7ABF8024629462046FFF71EFB8F
:103F4000F5E70922F8E700BFAC45030073B5044666
:103F5000184602AB1646002203F8012D0D46174AFB
:103F6000BDF8181002F048FF002825DD206811F088
:103F700005FE50B99DF8073084F88B323246294649
:103F80002046FFF75BFD02B070BD9DF807307BB1A6
:103F90000B4A94F88E12206811F08BFE0028E9D0AD
:103FA000FFF774F8294602462046FFF7E7FAEAE7EA
:103FB000206811F0F2FDF1E70620F1E75641030019
:103FC0009133000073B50446184602AB1646002232
:103FD00003F8012D0D460E4ABDF8181002F00CFF33
:103FE00000280CDD9DF80710206803F07DFB38B930
:103FF000324629462046FFF721FD02B070BD06205B
:10400000FFF744F8294602462046FFF7B7FAF4E7DF
:1040100056410300F7B50446184602AB1646002287
:1040200003F8012D0D46164ABDF8201002F0E4FEFB
:10403000002822DD20689DF8077003F05BFF10F177
:10404000FF3018BF0120B84206D13246294620462B
:10405000FFF7F4FC03B0F0BD9DF8071001B101219A
:10406000206803F0CEFF0028EFD0FFF70FF82946B5
:1040700002462046FFF782FAECE70620F5E700BF8C
:104080005641030073B50446184602AB164600229B
:1040900043F8042D0D46184ABDF8181002F0ACFE86
:1040A000002826DD019B032B07D8DFE803F002156B
:1040B0000D11206803F0D4FE98B9324629462046F7
:1040C000FFF7BCFC02B070BD206803F0D3FEF3E73D
:1040D000206803F0E5FEEFE70021206803F0C5FE4D
:1040E000EAE7FEF7D3FF024629462046FFF746FAE5
:1040F000E8E70922F8E700BF2332030073B504465E
:10410000184602AB1646002243F8042D0D460F4A0E
:10411000BDF8181002F070FE002814DD019991B16D
:10412000206803F04FFE30B9324629462046FFF79B
:1041300085FC02B070BDFEF7A9FF02462946204665
:10414000FFF71CFAF5E70922F8E700BF263B03005A
:104150007FB50446184604AB1646002243F8082DE6
:1041600003AA00920D460D4ABDF8201002F044FE4D
:1041700000280DDD039B082B0AD10299206803F06B
:104180009BFD324629462046FFF758FC04B070BD1F
:10419000092229462046FFF7F1F9F7E7E47F0300FB
:1041A0007FB50446184604AB1646002243F8082D96
:1041B00003AA00920D46104ABDF8201002F01CFE22
:1041C000002817DD039A632A14D8D2B20299206816
:1041D00003F0DFFD30B9324629462046FFF72EFCBA
:1041E00004B070BDFEF752FF024629462046FFF795
:1041F000C5F9F5E70922F8E7E47F030073B5044643
:10420000184602AB1646002243F8042D0D460C4A10
:10421000BDF8181002F0F0FD00280ADD01992068B1
:1042200003F0F8FD324629462046FFF707FC02B0AE
:1042300070BD092229462046FFF7A0F9F7E700BF25
:104240006E3B030073B50446184602AB16460022C7
:1042500043F8042D0D460C4ABDF8181002F0CCFDB1
:1042600000280ADD0199206803F0DDFD3246294669
:104270002046FFF7E3FB02B070BD09222946204625
:10428000FFF77CF9F7E700BF6E3B030073B5044608
:10429000184602AB1646002203F8012D0D460E4AC1
:1042A000BDF8181002F0A8FD00280BDD9DF80710DE
:1042B000206803F09BFD324629462046FFF7BEFBEF
:1042C00002B070BD0620FEF7E1FE294602462046F8
:1042D000FFF754F9F4E700BF213B0300F8B5174698
:1042E000BDF81820072A05460E4611DD194600685C
:1042F00003F05EFD3A46044631462846FFF79EFB32
:104300003CB93A4631462846BDE8F840FFF796BB2F
:1043100006242046FEF7BAFE314602462846BDE88E
:10432000F840FFF72BB9000073B50446184602ABFE
:104330001646002203F8012D0D460C4ABDF8181050
:1043400002F05AFD00280BDD9DF80710206803F0ED
:1043500021F9324629462046FFF770FB02B070BDB6
:10436000092229462046FFF709F9F7E756410300DD
:1043700073B50446184602AB1646002203F8012D19
:104380000D460D4ABDF8181002F036FD00280DDD6F
:104390009DF80710206881F0010103F0D5F932463D
:1043A00029462046FFF74AFB02B070BD0922294684
:1043B0002046FFF7E3F8F7E7564103002DE9F74FF2
:1043C000884602A90024054601F8034D0068BDF89F
:1043D000306091461F4603F0EBF982469DF80500D8
:1043E000A0B9DFF888A0F8B1FEF750FE41460246BA
:1043F0002846FFF7C3F8064624B14A4680212846DE
:10440000FFF71CFB304603B0BDE8F08F3AF81410FC
:10441000286803F0C8F90028E3D19DF80530013B76
:1044200001348DF80530D9E7012E18DD0DF10603B2
:1044300052463146384602F0DFFCB0F1000B0CDD8D
:10444000BDF80610286803F0A9F90028CCD1A6EB26
:104450000B065F44B6B20134E6E70620C4E74A46DD
:1044600041462846FFF7EAFA0646CBE7113B030030
:10447000F7B50446184602AB1746002203F8012D93
:104480000E46134ABDF8201002F0B6FC002815DDD8
:1044900094F889529DF807300DB183F0010531463B
:1044A00084F889323A462046FFF7C8FA064615B125
:1044B000206803F0C6FB304603B0F0BD0620FEF7CF
:1044C000E5FD314602462046FFF758F80646F2E77A
:1044D0005641030073B504460D46184616460DF1C5
:1044E00007030C4ABDF8181002F086FC00280BDD0B
:1044F0009DF80710206803F06FFC324629462046DD
:10450000FFF79CFA02B070BD092229462046FFF74A
:1045100035F8F7E7564103002DE9F04F85B0044622
:104520000068BDF83850DFF8A4B0884617461E462C
:1045300003F03BFA002D3DD0002303930DF10B0354
:1045400000934FF07F0903AB1F4A8DF80B9029466B
:10455000304602F051FCB0F1000A19DC03AB5A46B8
:10456000294630468DF80B9002F046FCB0F1000A67
:104570000EDC0620FEF78AFD414602462046FEF785
:10458000FDFF3A46054680212046FFF757FA17E01F
:104590009DF90B20039920687F2A08D103F0D1F9F7
:1045A000A5EB0A055644ADB20028C3D0E2E703F0FC
:1045B000D7F9F5E73A4641462046FFF73FFA054668
:1045C000284605B0BDE8F08F133B03001A3B0300FB
:1045D00073B504460D46184616460DF107030C4AFE
:1045E000BDF8181002F008FC00280BDD9DF807103C
:1045F000206803F0F5F9324629462046FFF71EFAF7
:1046000002B070BD092229462046FEF7B7FFF7E742
:104610005641030073B504460D46184616460DF183
:1046200007030F4ABDF8181002F0E6FB002814DD5E
:104630009DF80710206811F0C0FA30B932462946BB
:104640002046FFF7FBF902B070BDFEF71FFD0246E2
:1046500029462046FEF792FFF5E70922F8E700BF5A
:104660005641030073B50446184602AB16460022B5
:1046700003F8012D0D46174ABDF8181002F0BCFBD7
:10468000002824DD9DF807302068C3F3C0024FF0F6
:10469000000162F30001C3F3800262F34101C3F33E
:1046A000400262F3820163F3C30103F056FB30B9A9
:1046B000324629462046FFF7C1F902B070BDFEF729
:1046C000E5FC024629462046FEF758FFF5E7092299
:1046D000F8E700BF213B030073B50446184602AB60
:1046E0001646002203F8012D0D460C4ABDF818109D
:1046F00002F082FB00280BDD9DF80710206803F014
:10470000C7FA324629462046FFF798F902B070BD35
:10471000092229462046FEF731FFF7E7213B030037
:1047200073B50446184602AB1646002243F8042D22
:104730000D460C4ABDF8181002F05EFB00280ADD99
:104740000199206803F0AEFA324629462046FFF769
:1047500075F902B070BD092229462046FEF70EFF0A
:10476000F7E700BF6E3B030073B50446184602AB83
:104770001646002203F8012D0D460C4ABDF818100C
:1047800002F03AFB00280BDD9DF80710206803F0CB
:104790005DFB324629462046FFF750F902B070BD56
:1047A000092229462046FEF7E9FEF7E7213B0300F0
:1047B00073B50446184602AB1646002203F8012DD5
:1047C0000D460C4ABDF8181002F016FB00280BDD50
:1047D0009DF80710206803F06DFB324629462046FD
:1047E000FFF72CF902B070BD092229462046FEF7DA
:1047F000C5FEF7E7213B030073B50446184602AB3C
:104800001646002203F8012D0D460C4ABDF818107B
:1048100002F0F2FA00280BDD9DF80710206803F083
:1048200053FB324629462046FFF708F902B070BD17
:10483000092229462046FEF7A1FEF7E7213B0300A7
:1048400073B50446184602AB1646002243F8042D01
:104850000D460C4ABDF8181002F0CEFA00280ADD09
:104860000199206803F0CCFA324629462046FFF72A
:10487000E5F802B070BD092229462046FEF77EFE0B
:10488000F7E700BF6E3B030073B50446184602AB62
:104890001646002203F8012D0D460C4ABDF81810EB
:1048A00002F0AAFA00280BDD9DF80710206803F03B
:1048B000C3FA324629462046FFF7C0F802B070BD61
:1048C000092229462046FEF759FEF7E7213B03005F
:1048D000F0B5124CBDF81470964600254FF00C0C44
:1048E0000CFB05F63259724507D001352F2DF7D153
:1048F0000D22BDE8F040FEF741BE3444A56864686F
:1049000015F0010F4FEA650501D046593459059756
:104910002844A446BDE8F040604700BF0C380300BF
:1049200070B586B00446184606AB002243F80C2D3D
:10493000BDF8286005AA019204AA00920D460B4A10
:10494000314602F059FAB0420AD1BDF81430009352
:10495000039A049B29462046FFF7BAFF06B070BDB4
:10496000092229462046FEF709FEF7E70E3203002A
:10497000F0B5124CBDF81470964600254FF00C0CA3
:104980000CFB05F63259724507D00135092DF7D1D8
:104990000D22BDE8F040FEF7F1BD3444A56864681F
:1049A00015F0010F4FEA650501D0465934590597B6
:1049B0002844A446BDE8F040604700BF403A0300E9
:1049C00070B586B00446184606AB002243F80C2D9D
:1049D000BDF8286005AA019204AA00920D460B4A70
:1049E000314602F009FAB0420AD1BDF81430009302
:1049F000039A049B29462046FFF7BAFF06B070BD14
:104A0000092229462046FEF7B9FDF7E70E320300DA
:104A100073B504460D46184616460DF106030F4AB7
:104A2000BDF8181002F0E8F9002814DDBDF80610F2
:104A3000206811F0A7F830B9324629462046FEF723
:104A4000FDFF02B070BDFEF721FB0246294620465D
:104A5000FEF794FDF5E70922F8E700BF113B0300DC
:104A600073B504460D46184616460DF106030F4A67
:104A7000BDF8181002F0C0F9002814DDBDF80610CA
:104A8000206802F042FF30B9324629462046FEF740
:104A9000D5FF02B070BDFEF7F9FA0246294620465E
:104AA000FEF76CFDF5E70922F8E700BF113B0300B4
:104AB00037B50446012594F8851099B10B2241F0D1
:104AC00080012046FEF75AFD70BB94F88530B4F89B
:104AD000862005FA03F122EA0102A4F88620BAB979
:104AE00084F8852094F8843063B1002301930F4B40
:104AF00000930622302380212046FEF74FFC98B910
:104B000084F88400204603B0BDE83040FEF7B6BF0D
:104B10000E2BDABF0133DBB2012342FA03F1C907DE
:104B2000F6D584F88530C6E703B030BD213B0300DD
:104B300007B5036E0193044B009313460622FEF75C
:104B40002DFC03B05DF804FB233203001FB50223E4
:104B5000029304230193044B009313460622FEF7AD
:104B60001DFC05B05DF804FB2232030007B50323EA
:104B70000193044B009313460622FEF70FFC03B08B
:104B80005DF804FB2332030007B500230193044BB7
:104B9000009313460622FEF701FC03B05DF804FB08
:104BA0002332030073B5164604460D4603F020FA7F
:104BB000054B019000930622334629462046FEF716
:104BC000EDFB02B070BD00BF263B030007B501231B
:104BD0000193044B009313460622FEF7DFFB03B05C
:104BE0005DF804FB213B030007B504230193044B4C
:104BF000009313460622FEF7D1FB03B05DF804FBD9
:104C0000213B0300F0B585B002AD04460E460068B6
:104C10002946174602F068FE054B009301953B4676
:104C2000062231462046FEF7B9FB05B0F0BD00BFB5
:104C3000AC45030073B50446006816460D4610F0F7
:104C40009DFF054B019000930622334629462046DE
:104C5000FEF7A4FB02B070BD56410300F7B5054650
:104C600000680E46174602F01FFED8B10A2811DC74
:104C70004FF4FA64604300F55C2000F534600B4BA0
:104C80000190009306223B4631462846FEF786FBFC
:104C900003B0F0BD192807DC054B41F2883202FB56
:104CA0000030ECE70348EAE70020E8E76E3B03004A
:104CB000B0DB2300CC3F0D0073B5044600681646F8
:104CC0000D4602F0F1FD054B01900093062233469C
:104CD00029462046FEF762FB02B070BD213B03006F
:104CE00073B50446006816460D461BF0ABFA054B3B
:104CF000019000930622334629462046FEF74EFBDC
:104D000002B070BD7948030073B5044600681646CA
:104D10000D4602F0EBFD054B019000930622334651
:104D200029462046FEF73AFB02B070BD79480300E1
:104D3000F7B504460068124F0D46164610F01EFFE8
:104D400078B194F98F325A1C0CBF002302230193CF
:104D500000973346062229462046FEF71FFB03B084
:104D6000F0BD206802F068FE08B10123EFE720687B
:104D700002F074FE08B10223E9E70190E8E700BF02
:104D8000213B030007B5B0F86C300193044B00934E
:104D900013460622FEF702FB03B05DF804FB00BFDA
:104DA000113B030073B50446006816460D4602F039
:104DB000A7FD054B01900093062233462946204665
:104DC000FEF7ECFA02B070BD113B030073B5044668
:104DD000006816460D461BF039FA002814BF02235E
:104DE00000230193044B00930622334629462046B4
:104DF000FEF7D4FA02B070BD7948030073B50446DB
:104E0000006816460D4602F097FD054B0190009391
:104E10000622334629462046FEF7C0FA02B070BD8E
:104E2000113B030073B50446006816460D4602F0B8
:104E300045FD054B01900093062233462946204646
:104E4000FEF7ACFA02B070BDAC450300FFF7EABF55
:104E500007B590F88B320193044B0093134606225A
:104E6000FEF79CFA03B05DF804FB00BF5641030057
:104E700073B50446006816460D4602F06BFB054B01
:104E8000019000930622334629462046FEF786FA13
:104E900002B070BD5641030073B504460068164663
:104EA0000D4602F033FC054B019000930622334679
:104EB00029462046FEF772FA02B070BD5641030043
:104EC00073B50446006816460D4603F013F810F15A
:104ED000FF3018BF0120054B019000930622334696
:104EE00029462046FEF75AFA02B070BD564103002B
:104EF00073B50446006816460D4602F0FBFF033802
:104F0000C0B2022896BF074B0020185C064B0190E8
:104F100000930622334629462046FEF73FFA02B0A8
:104F200070BD00BF0A320300213B030073B5044685
:104F3000006816460D4602F040FF054B01900093B5
:104F40000622334629462046FEF728FA02B070BDF5
:104F5000263B03007FB50446006816460D4602F066
:104F6000A6FE08230293054B0190009306223346C8
:104F700029462046FEF712FA04B070BDE47F030014
:104F800070B586B00D4606A90023044601F8013D20
:104F90000068164602F0F8FE9DF817300293054BA4
:104FA000019000930622334629462046FEF7F6F983
:104FB00006B070BDE47F030073B504460068164672
:104FC0000D4602F022FF054B019000930622334666
:104FD00029462046FEF7E2F902B070BD6E3B0300A1
:104FE00073B50446006816460D4602F0A3FF054B54
:104FF000019000930622334629462046FEF7CEF95B
:1050000002B070BD6E3B030073B5044600681646DF
:105010000D4602F004FF054B019000930622334633
:1050200029462046FEF7BAF902B070BD6E3B030078
:1050300073B50446006816460D4602F007FE054BA0
:10504000019000930622334629462046FEF7A6F932
:1050500002B070BD213B030073B5044600681646DC
:105060000D4602F0FBFD054B0190009306223346EE
:1050700029462046FEF792F902B070BD213B03009D
:1050800073B50446006816460D4602F043FF054B13
:10509000019000930622334629462046FEF77EF90A
:1050A00002B070BD213B030073B50446006816468C
:1050B0000D4602F096FE054B019000930622334602
:1050C00029462046FEF76AF902B070BD213B030075
:1050D00073B50446006816460D4602F023FF054BE3
:1050E000019000930622334629462046FEF756F9E2
:1050F00002B070BD213B0300F0B587B002AE04469C
:105100000D4600683146174602F0F4FD50B9094BD0
:10511000009301963B46062229462046FEF73EF9BB
:1051200007B0F0BDFDF7B2FF294602462046FEF764
:1051300025FAF5E7D96E0300F0B58BB005AE04464D
:105140000D4600683146174602F00DFF68B9BDF8FC
:105150001C300293094B009301963B4606222946D8
:105160002046FEF71BF90BB0F0BDFDF78FFF294677
:1051700002462046FEF702FAF5E700BF103B0300A7
:1051800007B590F889320193044B00931346062229
:10519000FEF704F903B05DF804FB00BF56410300BD
:1051A00073B50446006816460D4602F010FE054B26
:1051B000019000930622334629462046FEF7EEF87A
:1051C00002B070BD56410300F0B5054689B00068D5
:1051D0000E46174602F0E7FD0146A0B10068496897
:1051E00004AB00221C4603C407920692019340229E
:1051F000094B0292009306223B4631462846FEF7B1
:10520000CDF809B0F0BD054B009306223B46314670
:105210002846FEF7C3F8F4E7203B0300A63203005C
:1052200073B50446006816460D4602F0AEF9054B0C
:10523000019000930622334629462046FEF7AEF839
:1052400002B070BD5641030073B5044600681646AF
:105250000D4602F074FA80F00100C0B2054B0190D7
:1052600000930622334629462046FEF797F802B0FF
:1052700070BD00BF5641030073B5054600680E4679
:10528000144602F0C8FB00B9FEE740F265539C42A9
:1052900000F08E8037D8B4F5A16F7DD01CD840F2D5
:1052A00004539C4272D010D840F202539C4269D001
:1052B0006AD840F201539C4258D007223146284612
:1052C00002B0BDE87040FEF759B940F206539C4267
:1052D00060D05DD9006A4AE040F20C539C4261D034
:1052E00006D840F20A539C425AD057D9006B3EE090
:1052F00040F20E539C4259D056D340F264539C4224
:10530000DBD1806B33E040F26D539C4260D014D807
:1053100040F269539C4251D008D840F267539C42F6
:105320004AD0B4F5AD6F45D3006D20E040F26B5329
:105330009C4247D044D9406E19E040F271539C42E0
:105340004CD008D840F26F539C4245D0B4F5AE6FB4
:1053500040D3406F0BE040F273539C4236D033D3BE
:1053600040F274539C42A8D1006C00E000681C4BD2
:10537000019000930622234631462846FEF70EF898
:1053800002B070BDC068F2E70069F0E74069EEE77F
:105390008069ECE7C069EAE7406AE8E7806AE6E727
:1053A000C06AE4E74068E2E78068E0E7406BDEE778
:1053B000406CDCE7806CDAE7C06CD8E7406DD6E77C
:1053C000806DD4E7C06DD2E7006ED0E7C06BCEE74A
:1053D000806ECCE7C06ECAE7006FC8E7806FC6E793
:1053E0006E3B0300134607B540F2CC52934245D0C2
:1053F00018D840F2C95293423AD008D8B3F5B96FE1
:105400002BD0072203B05DF804EBFEF7B7B840F2EB
:10541000CA5293422FD040F2CB529342F1D1D0F8EE
:10542000A8221CE040F22D6293422DD00AD840F20F
:10543000CD52934225D040F22C629342E1D1D0F874
:105440009C220CE040F22E62934220D040F22F6268
:105450009342D6D1D0F8982201E0D0F8A022019250
:105460000C4A00920622FDF799FF03B05DF804FB99
:10547000D0F8A422F3E7D0F8B422F0E7D0F8AC22B9
:10548000EDE7D0F8B022EAE7D0F89422E7E7D0F8C9
:105490009022E4E76E3B030073B5044600681646AD
:1054A0000D4602F0A9FA054B0190009306223346FF
:1054B00029462046FDF772FF02B070BD5641030039
:1054C000F7B50546006817460E4602F01BFC10F0C3
:1054D000010F0CBF00240824810748BF44F00404D6
:1054E000420748BF44F00204030748BF44F00104E8
:1054F000054B009301943B46062231462846FDF7B2
:105500004DFF03B0F0BD00BF213B030073B504465F
:10551000006816460D4602F0AEFB054B0190009365
:105520000622334629462046FDF738FF02B070BDFB
:10553000213B030073B50446006816460D4602F091
:10554000ACFB054B019000930622334629462046CA
:10555000FDF724FF02B070BD6E3B030073B5044637
:10556000006816460D4602F0F9FC054B01900093C9
:105570000622334629462046FDF710FF02B070BDD3
:10558000113B030073B50446006816460D4602F051
:1055900058FC054B019000930622334629462046CD
:1055A000FDF7FCFE02B070BD213B030073B504465D
:1055B000006816460D4602F078FC054B01900093FA
:1055C0000622334629462046FDF7E8FE02B070BDAC
:1055D000213B030073B50446006816460D4602F0F1
:1055E0006EFC054B01900093062233462946204667
:1055F000FDF7D4FE02B070BD213B030073B5044635
:10560000006816460D4602F0F6FB054B019000932C
:105610000622334629462046FDF7C0FE02B070BD83
:105620006E3B030073B50446006816460D4602F053
:10563000FEFB054B01900093062233462946204687
:10564000FDF7ACFE02B070BD213B030007B590F83A
:105650008A320193044B009313460622FDF79EFE07
:1056600003B05DF804FB00BF56410300F0B585B000
:105670000446154E184604AB1746002203F8012DC8
:105680000D463246BDF8281001F0B6FB002819DDA2
:105690009DF80F10206802F0AFFC58B99DF80F304C
:1056A000019300963B46062229462046FDF776FEEA
:1056B00005B0F0BDFDF7EAFC024629462046FDF79D
:1056C0005DFFF5E70922F8E7213B030073B50446C7
:1056D00000680D46164602F061FB50B1094B01907F
:1056E00000930622334629462046FDF757FE02B0B6
:1056F00070BD054B00930622334629462046FDF730
:105700004DFEF4E7D96E0300A63203002DE9F34104
:10571000044608460D4602F0AAF90646284602F05D
:10572000A4F9271D8046384601F0D0F978BB002E39
:1057300014BF722373238DE80801802206231749C2
:105740002046FDF79EFD10BB2946384601F0D8F9EA
:10575000E8B92046FDF76EFD60B10E22802120469B
:10576000FDF70CFFD4F8B0320133C4F8B03202B008
:10577000BDE8F0812EB1D4F8A8320133C4F8A832C4
:10578000F5E7D4F8AC320133C4F8AC32EFE7002DC2
:10579000E3D0284602F067F9DFE700BF11320300CB
:1057A0000B4601461846FFF7B1BF00002DE9F3474D
:1057B000051D04462846884691469A460A9EBDF82D
:1057C0002C7001F083F9A0B9CDF800A04B464246F9
:1057D00009492046FDF755FD58B93A463146284655
:1057E00001F079F928B9204602B0BDE8F047FDF78D
:1057F00021BD02B0BDE8F087213203002DE9F04F52
:1058000085B004460068BDF838900F469246984629
:1058100010F0FEF90146C8B9DFF860B04D464646C3
:10582000012D1ED90DF10E035A462946304601F0CE
:10583000E3FA002813DD2D1ABDF80E100644206887
:1058400010F0C6F9ADB201460028E9D0FDF71EFC04
:1058500080B1024639462046FDF790FE09E0092056
:10586000F7E78DE800035346062239462046FFF746
:105870009DFF0146084605B0BDE8F08F113B0300CF
:105880002DE9F04F85B004460068BDF838900F460A
:105890009246984610F0C7F90146B8B9DFF85CB0F7
:1058A0004D464646072D1CD903AB5A46294630467D
:1058B00001F0A2FA002812DD2D1A0399064420688F
:1058C00010F08EF9ADB201460028EBD0FDF7DEFBFB
:1058D00080B1024639462046FDF750FE09E0092016
:1058E000F7E78DE800035346062239462046FFF7C6
:1058F0005DFF0146084605B0BDE8F08FAC450300EA
:10590000F0B585B00446184604AB1646002243F8AD
:10591000042D0D460F4ABDF8281001F06DFA00283D
:1059200012DD039880B11CF06BFD07462CF0A4FC3F
:10593000013080B201900097334606222946204666
:10594000FFF734FF05B0F0BD092229462046FDF7D8
:1059500015FEF7E7263B03002DE9FF41BDF828704F
:105960001E4604460D4690460DF10E03124A394676
:10597000304601F041FA00281CDDBDF80E10206809
:1059800010F026F9014640B1FDF780FB024668B1F0
:1059900029462046FDF7F2FD07E08DE8C0004346AA
:1059A000072229462046FFF701FF0146084604B0BA
:1059B000BDE8F0810922EBE7113B03002DE9FF412F
:1059C0001E46BDF8287004AB9046002243F8042D13
:1059D00004460D46124A3946304601F00DFA0028B9
:1059E0001BDD0399206810F0FBF8014640B1FDF77C
:1059F0004DFB024668B129462046FDF7BFFD07E092
:105A00008DE8C0004346072229462046FFF7CEFE18
:105A10000146084604B0BDE8F0810922EBE700BF6B
:105A2000AC4503002DE9F0438FB01E4607ABBDF82F
:105A30005870029306AB01930DF1130300930446D3
:105A40000D46904605AB234A3946304601F0D4F95D
:105A500000283DDD059B08AA03F11009944618684B
:105A600059689646AEE8030008334B457246F6D1B6
:105A70009DF813308DF83030069B20681A1C9DF875
:105A8000313018BF012262F30003079A003218BFB9
:105A9000012262F3410361468DF8313001F040FE8E
:105AA000014640B1FDF7F2FA024668B129462046A8
:105AB000FDF764FD07E08DE8C00043460722294654
:105AC0002046FFF773FE014608460FB0BDE8F0839D
:105AD0000922EBE76B3B03002DE9F04104468CB053
