:1000000000000420B1300000D9300000DB300000D7
:10001000DD300000DF300000E130000000000000B3
:10002000000000000000000000000000E3300000BD
:10003000E530000000000000E7300000E93000007B
:1000400091170000952B0200191D0200EB300000F3
:10005000EB300000EB300000D11B0000EB30000063
:10006000EB300000EB300000EB300000EB30000024
:10007000EB300000ED1A0200EB300000EB30000026
:10008000EB300000590C0000EB300000EB300000BA
:10009000F90C0000EB300000EB300000EB3000000A
:1000A000EB300000EB300000EB300000EB300000E4
:1000B000EB300000EB30000000000000000000000A
:1000C000EB300000EB300000EB300000EB300000C4
:1000D0007D140200EB300000EB300000EB3000003C
:1000E000EB300000EB300000EB300000EB300000A4
:1000F00000000000EB3000000000000000000000E5
:1001000000000000000000000000000000000000EF
:1001100000000000000000000000000000000000DF
:1001200000000000000000000000000000000000CF
:1001300000000000000000000000000000000000BF
:1001400000000000000000000000000000000000AF
:10015000000000000000000000000000000000009F
:10016000000000000000000000000000000000008F
:10017000000000000000000000000000000000007F
:10018000000000000000000000000000000000006F
:10019000000000000000000000000000000000005F
:1001A000000000000000000000000000000000004F
:1001B000000000000000000000000000000000003F
:1001C000000000000000000000000000000000002F
:1001D000000000000000000000000000000000001F
:1001E000000000000000000000000000000000000F
:1001F00000000000000000000000000000000000FF
:1002000010B5054C237833B9044B13B10448AFF350
:1002100000800123237010BD900900200000000021
:100220000CD90300084B10B51BB108480849AFF3BF
:1002300000800848036803B910BD074B002BFBD0B2
:10024000BDE81040184700BF000000000CD90300B3
:1002500094090020F000002000000000154B002B46
:1002600008BF134B9D46A3F5803A00218B460F46ED
:100270001348144A121A00F065F80F4B002B00D0F7
:1002800098470E4B002B00D0984700200021040017
:100290000D000D48002802D00C48AFF3008000F09C
:1002A0002BF82000290002F091FC00F011F800BFAB
:1002B0000000080000000420000000000000000012
:1002C0009009002000C20020000000000000000093
:1002D00008B5074B044613B10021AFF30080054B6E
:1002E0001868836A03B19847204600F033F800BFCE
:1002F000000000009445030070B50E4B0E4CE41A4C
:10030000A41000251E46A54204D056F82530984773
:100310000135F8E734F030F9084C094BE41AA41021
:1003200000251E46A54204D056F8253098470135D1
:10033000F8E770BDE8000020E8000020EC00002095
:10034000E800002002440346934202D003F8011B58
:10035000FAE77047FEE700BF2DE9F04F1546C7B03A
:100360001C46002900F01C81002B00F0EF800A23BE
:1003700001930023194606AE519B539A519F03EBFC
:10038000020B019B013B059320258C4601980CEB49
:10039000000304933133F318029306EB0C03002897
:1003A0005FD05A4202F00302824228BF024606286A
:1003B00000F2EC80019A06F80C50012A03F10101C9
:1003C00000F0E280022A5D7003F1020100F0DC809F
:1003D000032A9D7003F1030100F0D680042ADD702A
:1003E00003F1040100F0D080062A1D7103F105011C
:1003F00040F0D3805D71991D9646019890422ED0B1
:10040000C2EB0009A9F104008008013003900598AF
:10041000C2EB000A0398BAF1020F4FEA800812D922
:10042000624401284FF0203C06EB020A46F802C065
:1004300005D00228CAF804C001D0CAF808C0C845CF
:100440004144C6440BD001980D700EF10102904258
:1004500005D90EF1020E70454D7000D98D70019ACC
:100460001344534A0299D2F80080DDF84891DA1C0F
:10047000481C03F1330C0CE002F8035C02F8025C48
:1004800002F8015C0332624500F8015C00F10100F2
:1004900033D0A345F0D9A74295BFE11B509919F875
:1004A0000110095D02F8015C4FEA211E5FFA8EFA25
:1004B000BEF1090F01F00F0ED4BF0AF1300A0AF1A4
:1004C000370ABEF1090F02F803AC94BF0EF1300EEB
:1004D0000EF1370E08EB010A02F802EC9AF801E07F
:1004E00003321EF0970F08BF2E21624500F8011C51
:1004F00004F1010400F10100CBD1029804990D220E
:100500004FF00A0801F14309027480F8118083F862
:10051000305023464FF0000A4C46994606EB0A013C
:100520002246002002F050FC8244241A10B9B8F18F
:10053000010801D0002CF1D1CB454C464FF0000C06
:100540003FF624AF204647B0BDE8F08F06AE0B68FB
:10055000184A30464FF4807133F068F80028F1DB18
:100560000A2307460193284633F0B2F8C22828BF71
:10057000C220804629460246F01932F0C5FC08EB3D
:10058000070300241946F7E6964636E7002A7FF46B
:1005900012AF19469646019832E74FF0050E2CE748
:1005A00013B1019106AEE7E60194274606AEDAE7FD
:1005B000E4000020984503002DE9F0419046C6B0C4
:1005C0001F46C1B106AE0B68564A30464FF48071E3
:1005D00033F02CF800280ADB4C9B0546062B00F272
:1005E0009F80DFE803F042525D6A798A14000020A0
:1005F00046B0BDE8F0814C9B062B00F28F80DFE80F
:1006000003F033424D5A697A0400002506AE07F123
:100610000C017A683B68D7F808C092C9701900923B
:10062000029103944246CDF804C00497C5F5807149
:1006300032F0FCFF0446002CD9DB2C44B4F5807F5B
:10064000D5D80A27002506AE71192246002002F0EF
:10065000BBFB0544241A08B9013F01D0002CF3D19B
:10066000012046B0BDE8F0810025404633F030F867
:100670004319FF2B0446DED806AE414670192246C8
:1006800032F042FCD7E7002506AE701942463B68BF
:10069000C5F5807132F0CAFF0446CCE7002506AEEE
:1006A0007A683B68009270194246C5F5807132F055
:1006B000BDFF0446BFE7002506AE7A68B9683B680F
:1006C0000092019170194246C5F5807132F0AEFF7B
:1006D0000446B0E7002506AE7A68BC68F9683B6856
:1006E00000920194029170194246C5F5807132F072
:1006F0009DFF04469FE7002506AE07F108017A68D2
:100700003B6892C970190092019102944246039786
:10071000C5F5807132F08AFF04468CE7002490E72B
:1007200000248AE79845030070B5074C074D2378ED
:10073000064613B12B78834204D002F085FC0123D6
:100740002E702370002070BDAD090020AC09002080
:1007500000487047B9050000004870475903000081
:1007600038B50120FFF7E0FF044638B9FFF7F0FF86
:100770000546FFF7F1FF024B5D619861204638BDE9
:10078000B009002010B5054C82B00A46002164690A
:1007900000910B46A04702B010BD00BFB009002079
:1007A00030B585B004AB054C43F8042D01250A464D
:1007B000646900950021A04705B030BDB009002054
:1007C00030B5064C85B00225029203930A4664694F
:1007D0000095002102ABA04705B030BDB009002054
:1007E000084B1B5C1F2B8ABF074A4FF0A04203F047
:1007F0001F03D2F80405D84000F0010080F001008A
:10080000704700BFA045030000030050074B1B5C6E
:100810001F2B86BF03F01F0305494FF0A0410122A3
:1008200002FA03F3C1F80C35704700BFA04503007E
:1008300000030050064B1A5C1F2A86BF02F01F02FD
:1008400004494FF0A04101239340C1F80835704797
:10085000A0450300000300504FF0A04310B44FF434
:1008600080404FF400544FF400414FF48032C3F8FD
:100870000845C3F80805C3F80815C3F808255DF84E
:10088000044B70474FF0A04310B44FF480404FF436
:1008900000544FF400414FF48032C3F80C45C3F8C4
:1008A0000C05C3F80C15C3F80C255DF8044B704714
:1008B0000A4B195C1F298ABF09484FF0A04001F07C
:1008C0001F01D0F8043501228A4022EA03011340B7
:1008D000C0F80815C0F80C35704700BFA0450300EC
:1008E0000003005030B44FF0A04303224FF40055F2
:1008F0004FF480444FF400404FF48031C3F8342764
:10090000C3F83827C3F83C27C3F84027C3F8085575
:10091000C3F80845C3F80805C3F8081530BC70478C
:100920000B2809D00C2809D0182809D0192814BF81
:100930004FF0FF30032070470020704701207047C0
:10094000022070474B4B1978002900F091802DE967
:10095000F04F87B0DFF828C104910024012504E09E
:100960000134049BE4B29C4265D227B2DCF80060FB
:1009700016F83700A0F1200305FA03F93E4BC0F149
:10098000200ED3E9002325FA0EFE49EA0E0905FAE6
:1009900000F808EA020A09EA030B06EBC7015AEA63
:1009A0000B0E0591DCD03449CDF810C022EA0802C4
:1009B00023EA0903C1E9002301F0FAF816F83760C9
:1009C000DDF810C0A6F1200205FA02F201920199A9
:1009D000C6F120035FFA80FA25FA03F3A6F120029C
:1009E00019430AFA02F30393019105FA06F1009103
:1009F000C6F120070399214B2AFA07F739430391DF
:100A00000AFA06F1D3E900230291DDE90001104062
:100A1000194002460B46DDE902018B4208BF8242C3
:100A20004FF0000B0AD0134B1B7804930134049B46
:100A3000E4B29C4299D307B0BDE8F08F059A57689D
:100A400052780023A2F10102B2FA82F25209002F79
:100A5000E9D05B4506BF5245012100213046CDF863
:100A600014C0B847034BDDF814C01B78049377E734
:100A7000704700BFD4090020000A0020F8090020B8
:100A8000D00900202DE9F8430746204800F06CFD0E
:100A9000D0B91F4E0123A7F1200103FA01F5C7F1D8
:100AA0002002D6E9000123FA02F2154303FA07F403
:100AB00004EA000205EA0103134307D020EA040414
:100AC00021EA0505C6E90045BDE8F883384601F08E
:100AD0006FF8104FD7E9002398B144EA020845EABD
:100AE0000309D6E9002314431D43C7E90089C6E979
:100AF00000450949054809680022BDE8F84300F0AF
:100B0000DFBC22EA040823EA0509EAE7D809002045
:100B1000000A0020F8090020CC090020F0B5042AC2
:100B200083B0164602D8072003B0F0BD05460F4635
:100B300000F0DEFE002836D01D4BDFF88CC0DFF859
:100B40008CE01C481C491D60002200237C1E8CF890
:100B50000070CEF80060C0E90023C1E90023E4B2D0
:100B6000DFB10327002600E01C4623B205EBC302D9
:100B700015F833009378114A8DF8053001A98DF8E6
:100B800004708DF806608DF8076000F0BBFE631EF0
:100B90000028C9D1DBB2002CE6D1094A094800215E
:100BA00000F07CFCC0E700F05DFE0028C4D0BBE78D
:100BB000D0090020F8090020000A0020850A000062
:100BC00045090000A4450300D4090020CC090020F9
:100BD00070B5084D2B785BB1074E002433680121B6
:100BE00013F8340000F068FF2B780134A342F5D8E5
:100BF000002070BDD4090020D009002000B585B0C8
:100C000000230390194644F2010001AAADF8043014
:100C1000029300F003F805B05DF804FB08B501206D
:100C20000949FFF7AFFD03200849FFF7ABFDBFF30C
:100C30004F8F0749074BCA6802F4E0621343CB6049
:100C4000BFF34F8F00BFFDE7A8450300B845030081
:100C500000ED00E00400FA05F8B5204A204B00251D
:100C6000C2F84051C2F84451C2F84851C2F84C5140
:100C7000C2F80051C2F804511B6813B31949D2F8E5
:100C800004250C68141B1A6824F07F44A2422F46E6
:100C900009D8197CDE69A41A154499B91EB13346E6
:100CA0001A68A242F5D9104B10491A780B789A426B
:100CB0000DD00F490F4A41F823504FF48013C2F86A
:100CC0000031F8BD1F745A6998699047E6E7531CD4
:100CD000DBB2022B08BF00230B70EAE700100140D3
:100CE0000C0A0020080A0020100A0020110A002027
:100CF000200B002000E100E02DE9F04F7D4A7E4905
:100D0000137809787D48994287B0066800F0E88139
:100D10000133DBB2022B08BF002379491370794AF3
:100D20000291084652F82310036874488A19002576
:100D300022F07F420260AE462846A3B11A688A427A
:100D400000F2D681DC68C3F800E0891A1044DA6941
:100D500034B1871927F07F47DD619C605F601D46D5
:100D60001346002BEAD1029A04931360049C0123DA
:100D70000593654BDFF894811B7801935F4BDFF897
:100D800090C1D3F800A0029B1F680023BB462F46EA
:100D90000093C1461E464FF0010E37B37A68B9681A
:100DA0003D46FF69CAEB020323F07F4363453CD80D
:100DB0000B442B606E60AE6085F810E0EE61002C95
:100DC00067D021688B4242D9204603E011689942DE
:100DD00044D21046C2695B1A002AF7D12B60EA613F
:100DE0002346C5611C46002FD8D198F8003098F8EA
:100DF00001209A4200F08E805A1C03EB430308EB5B
:100E0000C30399F802109D68D2B2914289F800207C
:100E10001A7908BF89F80070022A48D0032A3CD00A
:100E2000012A22D023461C46DDE7C2EB0A0222F04B
:100E30007F428A4202D28B1A2B60BBE72E606E6023
:100E4000AE6085F810E0EE611CB321680023CB1A78
:100E500023602B46EC61AB461C46C4E7C91A1160FF
:100E60002B60EA612346C561BCE72A7C0392002A15
:100E7000D8D1DA686A601969A9605869E8601033E6
:100E80009B68AB61019B002B8CD0039B6B601A4667
:100E900088E72B46AB461C46A5E70CB9C2E71C46C3
:100EA000E3692674002BFAD19B461C469BE754B19C
:100EB000A54200F00881234602E0954207D0134680
:100EC000DA69002AF9D123462E741C468BE7AB421F
:100ED00000F0FA80E9692868D9610029F3D0234637
:100EE0000A6802440A60009A2E749C4218BF0122CC
:100EF0000092EAE7100A0020110A0020080A0020E8
:100F00000C0A0020200B0020120A0020140A0020E6
:100F1000FEFF7F00029B9DF80420C3F800B0764BD3
:100F2000C3F800A0754B1A70009B1BB9049BA34229
:100F300000F0D081002C00F03C81714D6E4BD5F853
:100F400004051B686F4ED4F800C03178C21A22F035
:100F50007F420332002952D16B4FDFF8B091DFF8A6
:100F6000B0814FF480314FF4003E0124C5F84413A2
:100F7000C5F80413C7F880E1C7F800E02C602F2102
:100F8000D9F8005000BF00BF00BF00BF00BF00BFC6
:100F900000BF00BF45452FD000BF00BF00BF00BF4E
:100FA00000BF00BF00BF00BF00BF00BF00BF00BF49
:100FB00000BF00BF00BF00BF00BF00BF00BF00BF39
:100FC00000BF00BF00BF00BF00BF00BF00BF00BF29
:100FD00000BF00BF00BF00BF00BF00BF00BF00BF19
:100FE00000BF00BF00BF00BF00BF00BF00BF00BF09
:100FF00000BF00BF00BF00BF0139C3D134706245DC
:101000002CBF9A1803EB0C023D4922F07F43C1F834
:101010004035D1F80425121A1B1A22F07F4223F022
:101020007F4303329A4248D9D1F80435374AC1F890
:101030004035126836492F2300BF00BF00BF00BFF4
:1010400000BF00BF00BF00BF8A422FD000BF00BF5B
:1010500000BF00BF00BF00BF00BF00BF00BF00BF98
:1010600000BF00BF00BF00BF00BF00BF00BF00BF88
:1010700000BF00BF00BF00BF00BF00BF00BF00BF78
:1010800000BF00BF00BF00BF00BF00BF00BF00BF68
:1010900000BF00BF00BF00BF00BF00BF00BF00BF58
:1010A00000BF00BF00BF00BF00BF00BF013BC3D1F6
:1010B000154B4FF40032C3F80021104A002313707F
:1010C00007B0BDE8F08F2246D4F81CB0BBF1000F8A
:1010D00022D0D16910685B4600297FF401AF02E796
:1010E0000C4B02931B680493002505951C4640E6B3
:1010F000521A1A6037E600BF080A0020120A0020C0
:1011000000100140280B002000E100E090000020CA
:101110000024F4000C0A00207549764BC1F808E061
:1011200075492F20096800BF00BF00BF00BF00BF86
:1011300000BF00BF00BF99422FD000BF00BF00BF5B
:1011400000BF00BF00BF00BF00BF00BF00BF00BFA7
:1011500000BF00BF00BF00BF00BF00BF00BF00BF97
:1011600000BF00BF00BF00BF00BF00BF00BF00BF87
:1011700000BF00BF00BF00BF00BF00BF00BF00BF77
:1011800000BF00BF00BF00BF00BF00BF00BF00BF67
:1011900000BF00BF00BF00BF00BF0138C3D1D1698D
:1011A0001068002900F09B800122DA465B4601921C
:1011B00096E64F4A514B504E4E484FF480314FF413
:1011C00000370125C3F88070C2F848132F23C2F8F6
:1011D0000813556031681E4600BF00BF00BF00BF46
:1011E00000BF00BF00BF00BF81422FD000BF00BFC3
:1011F00000BF00BF00BF00BF00BF00BF00BF00BFF7
:1012000000BF00BF00BF00BF00BF00BF00BF00BFE6
:1012100000BF00BF00BF00BF00BF00BF00BF00BFD6
:1012200000BF00BF00BF00BF00BF00BF00BF00BFC6
:1012300000BF00BF00BF00BF00BF00BF00BF00BFB6
:1012400000BF00BF00BF00BF00BF00BF013EC3D151
:1012500095602B4A146000BF00BF00BF00BF00BFF5
:1012600000BF00BF00BF81422FD000BF00BF00BF42
:1012700000BF00BF00BF00BF00BF00BF00BF00BF76
:1012800000BF00BF00BF00BF00BF00BF00BF00BF66
:1012900000BF00BF00BF00BF00BF00BF00BF00BF56
:1012A00000BF00BF00BF00BF00BF00BF00BF00BF46
:1012B00000BF00BF00BF00BF00BF00BF00BF00BF36
:1012C00000BF00BF00BF00BF00BF013BC3D10D4B3B
:1012D0001C70F2E6059B002B3FF4EFAE2AE60123DB
:1012E0001A4601938A468B460B4600922E74ECE513
:1012F000001001400024F4009000002000E100E014
:10130000080A0020280B00202DE9F041594B5A4AC9
:101310005A4D5B4E4FF480344FF400310120C2F837
:101320008010C3F848432F21C3F8084358602D6844
:101330000C4600BF00BF00BF00BF00BF00BF00BF22
:1013400000BFB5422FD000BF00BF00BF00BF00BF2D
:1013500000BF00BF00BF00BF00BF00BF00BF00BF95
:1013600000BF00BF00BF00BF00BF00BF00BF00BF85
:1013700000BF00BF00BF00BF00BF00BF00BF00BF75
:1013800000BF00BF00BF00BF00BF00BF00BF00BF65
:1013900000BF00BF00BF00BF00BF00BF00BF00BF55
:1013A00000BF00BF00BF013CC3D1364C9860002095
:1013B000206000BF00BF00BF00BF00BF00BF00BF74
:1013C00000BFB5422FD000BF00BF00BF00BF00BFAD
:1013D00000BF00BF00BF00BF00BF00BF00BF00BF15
:1013E00000BF00BF00BF00BF00BF00BF00BF00BF05
:1013F00000BF00BF00BF00BF00BF00BF00BF00BFF5
:1014000000BF00BF00BF00BF00BF00BF00BF00BFE4
:1014100000BF00BF00BF00BF00BF00BF00BF00BFD4
:1014200000BF00BF00BF0139C3D1174D1749DFF816
:101430006080DFF860C0DFF860E028704FF480164D
:10144000E0250B27C8F800008CF800008EF800009B
:10145000087048708F70C2F8806182F8145316606B
:10146000C3F8080582F81153D3F804352360BDE8AA
:10147000F08100BF0010014000E100E0900000207A
:101480000024F400080A0020280B0020140A002081
:101490000C0A0020100A0020110A0020074B9B783C
:1014A0000BB9082070473AB130B10368187C0028A6
:1014B000F7D159745A61704707207047140A002009
:1014C0002DE9F041254CA37813B90820BDE8F0813F
:1014D0000028FAD0042902D80720BDE8F08143692A
:1014E000002BF2D0437C0546012B4FF000000CBFCF
:1014F0008846804617460E4600F06CF86378A07860
:1015000021785A1CD2B2904208BF002291421ED0CC
:1015100003EB430304EBC30319464FF0010E41F8FC
:10152000085F0F4883F804E0D0F8040548608E6037
:101530000020C3F814809F61627000F053F8094BDB
:101540004FF48012C3F800210020BDE8F081002094
:1015500000F048F80420BDE8F08100BF140A002024
:101560000010014000E100E070B5184CA3780BB901
:10157000082070BD0028FBD04369002BF8D000255F
:1015800005740646284600F025F86278A078217890
:10159000531CDBB2984208BF2B46994211D002EB94
:1015A000420204EBC2020221284696601171637068
:1015B00000F018F8064B4FF48012C3F800212846BB
:1015C00070BD284600F00EF8042070BD140A0020FB
:1015D00000E100E072B6024A1368013313607047FD
:1015E0002C0B0020034A1368013B136003B962B659
:1015F000704700BF2C0B002010B50C4C23780BB1AA
:10160000852010BD0A4A6360E3601068A36010F093
:101610000100236102D1072100F0FCF84FF0804265
:101620000123C2F818352370002010BD300B0020B4
:1016300000E100E030B51B4DAB78044683B003F009
:10164000FF0073B114B16368012098470020FFF7D1
:10165000C1FFEB6800200133EB60FFF7C3FF03B06D
:1016600030BDFFF7B7FF64B12A6942B1944208D098
:10167000134601E09C4204D01B68002BFAD1226083
:101680002C61EB68002BE4D1074A0849136013680A
:1016900001934FF0804202200123019CC2F8040311
:1016A0000B60D6E7300B002004010040080000402A
:1016B0004FF08043D3F81804C0F30040704700BFD8
:1016C00030B51A4D6B78044683B003F0FF0073B158
:1016D00014B16368002098470020FFF77BFF6B6818
:1016E000002001336B60FFF77DFF03B030BDFFF7D3
:1016F00071FF64B1AA6842B1944208D0134601E078
:101700009C4204D01B68002BFAD12260AC606B684D
:10171000002BE4D1064A1360136801934FF0804315
:1017200001220199C3F804231A60D8E7300B002086
:101730000001004008B50020FFF74CFF0C494B6842
:10174000013B4B604B686BB90A4B01221A604FF0AA
:101750008042D2F80C3403F00113B3F1011FF8D02A
:1017600000234B700020BDE80840FFF73BBF00BFDF
:10177000300B0020040000404FF08043D3F80C04ED
:1017800000F00110A0F10110B0FA80F0400970479C
:1017900010B51D4B1A6882B0F2B91C4B1A680AB911
:1017A00002B010BD00221A601B6801934FF0804305
:1017B0000222174C0199C3F8082323690122A27061
:1017C000002BEDD01A6822615B68012098472369DD
:1017D000002BF7D102B010BD00221A601B680093E5
:1017E0004FF0804301220A4C0099C3F80823A368F4
:1017F0006270002BD1D01A68A2605B680020984705
:10180000A368002BF7D1C8E70001004004010040A5
:10181000300B0020002810B418DB00F1604303F502
:1018200061434901C9B283F80013C3B24009800083
:1018300000F1604000F5614003F01F020123934076
:10184000C0F8803103605DF8044B7047C3B2044AAE
:1018500003F00F0449012244C9B21176E6E700BF44
:10186000FCEC00E030B51F4C94F8645083B015B127
:10187000082003B030BD4FF0FF33FF2206200721C0
:1018800023636363A363E36323646364A364E36424
:1018900023656365A365E36523606360A360E3601C
:1018A00023616361A361E361236284F86030636252
:1018B000A36284F86230E36284F8633084F86120C4
:1018C000FFF7A8FF084B094A1D601B6801930198A8
:1018D0004FF000430121284684F86410C2F8043315
:1018E00003B030BD440B00207C610040006000402C
:1018F000034B93F86400003018BF0120704700BF0D
:10190000440B0020F0B56A4C251895F93030002BB7
:1019100001DB0820F0BD91F803E09446BEF1000F12
:1019200056D02368013300F0BB80082600256B1CCD
:101930005F4F54F82320013251D0AB1C9E4245D951
:1019400057F8232001324AD0EB1C9E423ED957F86B
:101950002320013243D02B1D9E4237D957F8232034
:1019600001323CD06B1D9E4230D957F823700137AD
:1019700035D0AB1D9E4229D954F823204C4F01325B
:101980002DD0EB1D9E4221D957F82320013226D0BD
:1019900005F108039E4219D957F8232001321ED0C1
:1019A00005F109039E4211D957F82320013216D0C0
:1019B00005F10A039E4209D957F8237001370ED06A
:1019C0000B35AE4202D9E36A013307D00420F0BDE3
:1019D000236A01335CD00C260825A8E70B232618C0
:1019E000DDB244F823C0324686F83050BEF1000F15
:1019F00002D1234483F858008B78DBB91F284A783A
:101A000087BF2C4E00F01F0303464FF0A04603F59E
:101A1000E073920046F82320CB78E3B96AB2083A23
:101A20001444097894F8602042EA811284F8602016
:101A30001846F0BD1F2887BF1E4B00F01F0202464C
:101A40004FF0A04303EB8203D3F8002722F00202F9
:101A5000C3F80027E0E76BB29B0003F1804303F576
:101A6000C0430A78D3F8101521F44F3121F44071A6
:101A7000C3F810151204000202F44031D3F81045E7
:101A800000F47C520A432243C3F810250020F0BD25
:101A9000082685F830603346C4F820C03546A8E7EC
:101AA000002385F83030C4F800C01D46A4E700BF0D
:101AB000440B002000030050F0B43A4D2E1882B0C1
:101AC00096F8302053B2072B20DD2B4493F8583082
:101AD0009B09032B44D0012B0CBF4FF400324FF471
:101AE00040321F2849D900F01F002F4B03EB800024
:101AF000D0F8003723F44033C0F80037D0F800376F
:101B00001A43C0F8002702B0F0BC7047072AFAD881
:101B1000980000F1804000F5C04003F140029200BF
:101B2000D0F8104592B202F18042002744F001043F
:101B300002F5C042C0F810450197019817600029CE
:101B4000E1D096F9302055F82220002ADBD001227E
:101B5000164902FA03F3C1F8043302B0F0BC70472F
:101B60001F280DD9104BD3F8103500F01F00C340CB
:101B7000DB0713D54FF44032B7E74FF0A043B5E78A
:101B80004FF0A0421346D2F81025C24012F0010FC8
:101B90000CBF4FF400324FF44032A7E74FF400324D
:101BA000A3E700BF440B002000030050006000408A
:101BB0001F288ABF054B4FF0A04300F01F00D3F849
:101BC000103523FA00F000F00100704700030050C8
:101BD0002DE9F04F89B00025B24B029503951A68A4
:101BE000012A00F05081B04B1A68012A00F03D81B3
:101BF000AE4B1A68012A00F02A81AD4B1A68012AFF
:101C000000F01781AB4B1A68012A00F00481AA4B3F
:101C10001A68012A00F0F180A84B1A68012A00F026
:101C2000DE80A74B1A68012A00F0CB80A54B1A680A
:101C3000012A00F0B58015F0FF0F1AD0A24F01263F
:101C40000024A30003F180432E4203F5C0434FEA72
:101C500046060BD0D3F8100557F82420D3F81015FA
:101C6000C0F30520C1F3014102B190470134082CB3
:101C7000E7D1002D02DB09B0BDE8F08F934F0022C1
:101C80004FF0FF33A7F1630904920592069307937F
:101C90008F4C4FF0000A4FF0010814F8013FFF2B62
:101CA00030D0DBB223F0C00008AAC608951903F0B3
:101CB000070215F8081C08FA02F2114222D009EBBB
:101CC000000E99099EF930E059F82EC0BCF1000FC2
:101CD00056D0032956D01F288ABF03F01F06064698
:101CE000DFF8F0E115F818BC98BF4FF0A04E06F5EC
:101CF000E0761BEA020F5EF82650C5F301451AD1C3
:101D0000032D48D0BC42C8D1BAF1000FB3D04FF078
:101D1000A0430299D3F810356E4A9942D2F81025A3
:101D200002D103999142A6D0049805990293039297
:101D300006900791ACE7022DE4D1032904D0BCF151
:101D4000000FDFD0E047DDE74FF440321F288BBFA4
:101D5000604D4FF0A04503F01F03034605EB8303DE
:101D60000AF1010AD3F8005725F44035C3F80057AB
:101D7000D3F800572A435FFA8AFAC3F80027DEE750
:101D80000329BFD10DF1100B1BF806E04EEA020E3D
:101D90000BF806E09FE70329D1D14FF40032D5E7D5
:101DA00000221A601B6801934FF0A042019BD2F8F9
:101DB0001025484B0292D3F81035039345F00045A7
:101DC00039E7454AD2F8042312067FF52FAF0022E7
:101DD0001A601B680093009B45F0800526E73E4A89
:101DE000D2F8042351067FF51CAF00221A601B684D
:101DF0000093009B45F0400513E7374AD2F80423CF
:101E000090067FF509AF00221A601B680093009BC3
:101E100045F0200500E7304AD2F80423D4067FF5C8
:101E2000F6AE00221A601B680093009B45F0100577
:101E3000EDE6294AD2F8042316077FF5E3AE002227
:101E40001A601B680093009B45F00805DAE6224AF9
:101E5000D2F8042357077FF5D0AE00221A601B6822
:101E60000093009B45F00405C7E61B4AD2F8042303
:101E700092077FF5BDAE00221A601B680093009B9D
:101E800045F00205B4E61449D1F8041311F001013C
:101E900005D01D601B680093009B1546A3E60D4608
:101EA000A1E600BF006100400461004008610040FD
:101EB0000C61004010610040146100401861004056
:101EC0001C6100407C610040440B0020A70B0020F7
:101ED000A30B002000030050006000400220FEF72A
:101EE000E7BC00BF2DE9F0470D460646FEF718FD9A
:101EF000032804461DD8012D1FD00ED3022D1AD160
:101F00001C4B00EB40041C44657895B11A4B1B68D0
:101F10007BB12846BDE8F04718471848FFF724FB77
:101F20001449174A04EB44030B44155D9B789D420A
:101F3000EBD0BDE8F087BDE8F087DFF838804700D8
:101F40003B1808EB030218F8035053782BB92744C9
:101F500047440B4BBA781A55D7E7DFF82890074863
:101F60004A464FF40041FFF7ABFA0028EFD189F859
:101F70000060ECE7280C0020DC0B0020E00B0020C8
:101F8000D40B0020240C002010B50078FEF7C8FC0C
:101F900003280BD8064B00EB40001844407828B1CA
:101FA000044B1B6813B1BDE81040184710BD00BFBB
:101FB000280C0020DC0B0020B34B1B68DB0700D48F
:101FC000704770B5B14EB24D33782C78FBB9172CF1
:101FD0001CD8DFE814F0F10014011401630076004E
:101FE000830096005D0039002C0039002C00A3000E
:101FF000A800A800A800A800A800CE00DE000101EB
:10200000460018001800FEF73DFC2C7070BDA14B77
:102010001B7800203070002B00F00581FEF70AFCD1
:102020000120FEF707FC0320FEF704FCCFE70123A5
:1020300018463370FEF73CFC97484FF4804100226D
:10204000BDE87040FFF73CBA012318463370FEF735
:102050002FFC914840F6CD410022BDE87040FFF7CB
:102060002FBA8C4B1B78002B00F0FE800020FEF76F
:10207000E1FB0120FEF7DEFB0320FEF7DBFB002087
:10208000FEF7C4FB0120FEF7C1FB15232B7070BDCA
:102090000020FEF7BBFB07232B7070BD0020FEF76E
:1020A0009FFB002800F0D3800020FEF7C3FB46F220
:1020B000666103232B7078480022BDE87040FFF76B
:1020C000FFB90020FEF78CFB002800F0C58000203F
:1020D000FEF7B0FB4FF400310423EBE70020FEF7DE
:1020E0007FFB002800F0BD800020FEF7A3FB052346
:1020F0002B70694841F69A110022BDE87040FFF745
:10210000DFB90020FEF7D4FB06232B70624840F6AF
:10211000CD410022BDE87040FFF7D2B9FEF7B2FB17
:102120000C232B7070BD5D48FFF71EFAD4F111042B
:1021300005467BD0002879D1012C13D0C82303FB9E
:1021400004F44FF4FA704FF400430021C3FB040180
:102150004FF47A72002330F0C3FB2A4601464F4801
:10216000FFF7AEF90220FEF751FB4A4B01221A702D
:1021700070BD484B1B78002B79D00020FEF75AFB2E
:102180000120FEF757FB0320FEF754FB12232B70B0
:1021900070BD404B1B78002B6FD00020FEF74AFB30
:1021A0000120FEF747FB0320FEF744FB0020FEF76B
:1021B0002DFB13232B7070BD364B1B78002B59D091
:1021C0000020FEF737FB0120FEF734FB0320FEF76B
:1021D00031FB00232B7070BD2E4B1B78002B4FD092
:1021E0000020FEF727FB0120FEF724FB0320FEF76B
:1021F00021FB0120FEF70AFB14232B7070BD002089
:10220000FEF7EEFAC8B10020FEF714FB022C4EF2E6
:10221000666118BF4FF400312C701F480022BDE8E2
:102220007040FFF74DB9FEF717FBD0E60220FEF72E
:1022300001FB184B00221A7070BDFEF7E7FA41F659
:102240009A1343F23331022C08BF1946E4E7FEF734
:10225000DDFA41F69A112CE7FEF7D8FA43F2333152
:102260003AE7FEF7D3FA42E7FEF7F6FA07E7FEF79A
:10227000F3FA8BE7FEF7F0FAABE7FEF7EDFA95E736
:10228000FEF7EAFAB5E700BFD00B0020D80B00201C
:10229000000C0020CC0B0020AC0B0020040C002014
:1022A00038B5C44B1B6813F0010401D1204638BD7A
:1022B000C14C23780546E3B9172D00F27881DFE899
:1022C00015F00B013101310169007D009100A5007D
:1022D0005B003500280035002800B300BA00BA00C2
:1022E000BA00BA00BA00E300F6001C014200630025
:1022F0006300B24B1B7800202070002B00F0278178
:10230000FEF798FA0120FEF795FA0320FEF792FAFD
:10231000D2E7012318462370FEF7CAFAA8484FF403
:1023200080410022BDE83840FFF7CAB801231846B3
:102330002370FEF7BDFAA24840F6CD410022BDE869
:102340003840FFF7BDB89D4B1B78002B00F0208173
:102350000020FEF76FFA0120FEF76CFA0320FEF76B
:1023600069FA0020FEF752FA0120FEF74FFA954B6A
:1023700015221A70002499E70020FEF747FA914BC6
:1023800007221A70002491E7FEF77CFA8D4B002497
:102390001D708BE70020FEF723FA002800F0E18093
:1023A0000020FEF747FA46F26661864B8448032414
:1023B0001C700022BDE83840FFF782B80020FEF70D
:1023C0000FFA002800F0DC800020FEF733FA4FF40B
:1023D00000317C4B7A4804241C700022BDE8384050
:1023E000FFF76EB80020FEF7FBF9002800F0CD8063
:1023F0000020FEF71FFA734B714805241C7041F64C
:102400009A110022BDE83840FFF75AB80020FEF7C5
:102410004FFA6C4B6A4806241C7040F6CD410022EE
:10242000BDE83840FFF74CB8FEF72CFA654B0C229C
:102430001A7000243AE76448FFF796F8D5F11105C1
:10244000044600F08780002840F08480012D14D0DD
:10245000C82303FB05F54FF4FA704FF40043002145
:10246000C3FB05014FF47A72002330F039FA22469B
:1024700001465548FFF724F804460220FEF7C6F946
:102480004E4B01221A7011E74C4B1B78002B00F0C9
:1024900082800020FEF7CEF90120FEF7CBF9032061
:1024A000FEF7C8F9474B12221A700024FEE6434B90
:1024B0001B78002B75D00020FEF7BCF90120FEF739
:1024C000B9F90320FEF7B6F90020FEF79FF93D4B5E
:1024D00013221A700024E9E6384B1B78002B5DD0DC
:1024E0000020FEF7A7F90120FEF7A4F90320FEF76C
:1024F000A1F9344B00241C70D8E6304B1B78002B1C
:1025000052D00020FEF796F90120FEF793F9032040
:10251000FEF790F90120FEF779F92A4B14221A7080
:102520000024C3E60020FEF75BF9F8B10020FEF7B7
:1025300081F9022D4EF2666118BF4FF40031214B34
:102540001F481D700022BDE83840FEF7B9BFFEF7F6
:1025500083F9B1E60220FEF76DF9184B00221A70DC
:10256000A4E6FEF753F941F69A111EE7FEF74EF97D
:1025700041F69A1343F23331022D08BF1946DEE7C4
:10258000FEF744F943F2333123E7FEF73FF932E730
:10259000FEF762F9E5E6FEF75FF983E7FEF75CF91F
:1025A000A7E7FEF759F98FE7FEF756F9B2E70024DF
:1025B0007CE600BFD00B0020D80B0020CC0B002005
:1025C000AC0B0020000C0020040C0020F0B5214AC8
:1025D000214B1060044610F0020083B0196015D042
:1025E0001E4B1F484FF00E0E0F27102611250421F9
:1025F00040F2666283F800E0DF709E715D72FEF764
:102600008DFAA0B1E3071DD403B0F0BDE20719D4E1
:102610001448154A0021FEF741FF0028F4D1134861
:10262000134A012103B0BDE8F040FEF737BFFEF7C3
:10263000CFFA0028E6D101460E4A0F48FEF72EFFDA
:10264000E10703D50190FEF74DF901980028DFD08E
:1026500003B0F0BDD00B0020DC0B0020280C0020C4
:10266000DC450300D8450300B91F0000FC4503000A
:10267000DD1E0000891F0000D4450300020700D4BE
:10268000704708B5084605F071F90E4A052812D8BA
:10269000DFE800F00A0A110303030723137018464A
:1026A000BDE80840FFF7FCBD002313701846BDE8E5
:1026B0000840FFF7F5BD062313701846BDE8084033
:1026C000FFF7EEBD420C002008B51C4B1B78032B16
:1026D00027D8DFE803F0211207020120BDE80840F7
:1026E000FEF794B80120FEF7E3F8154840F6CD4117
:1026F0000022BDE80840FEF7E3BE0120FEF770F8B7
:1027000080B90120FEF782F841F69A110C480022A8
:10271000BDE80840FEF7D4BE0120BDE80840FEF742
:1027200089B808BD0120FEF785F846F266610448C5
:102730000022BDE80840FEF7C3BE00BF410C0020E8
:10274000640C002008B51B78802B00D008BD0D4B11
:10275000072201201A70FEF743F868B10020FEF747
:1027600069F80120FEF766F8074841F69A11002241
:10277000BDE80840FEF7A4BEFEF748F80120FEF7CA
:1027800045F8F1E7400C0020440C002008B52C4A25
:102790001378013BDBB2137083B10120FEF720F800
:1027A000A0B9FEF733F80120FEF730F8254841F6CE
:1027B0009A110022BDE80840FEF782BE224B1B782A
:1027C000032B0DD8DFE803F0121B2B090020FEF7C6
:1027D00031F80120FEF72EF8E8E70120FEF716F8A1
:1027E0001A4B1878BDE80840FFF75ABD0120FEF7E4
:1027F00021F8164B1878BDE80840FFF751BD0120BD
:10280000FDF7EEFFA8B10120FEF714F846F266616D
:102810000F480022FEF754FE0028E1D008BD012039
:10282000FEF746F840F6CD4100220948FEF748FE83
:10283000F2E70120FDF7EAFF41F69A11E8E700BF51
:10284000400C0020440C0020410C0020420C0020D1
:10285000640C0020F8B51A4E1A4B1B4F0024214679
:102860000C22054630461C703C70FDF76BFD21467E
:10287000164B1748174A3360FEF710FE044660B146
:10288000284615492A4604F025FC98B928460C49E3
:1028900004F0A4FB40B92046F8BD01460F4A104899
:1028A000FEF7FCFD0446EBE70E480F4A0F4BE7210D
:1028B00030F0ECFA0B480C4A0D4BE62130F0E6FA0A
:1028C000340C0020410C0020420C00204527000061
:1028D00000460300C92600007D2600008D27000069
:1028E0000446030008460300FC460300B04603000C
:1028F000504603000B4B1B794FF0A04233B94FF405
:102900000041C2F80815C2F80C357047D2F80435FA
:10291000D94301F4004103F40043C2F80815C2F89A
:102920000C357047640000202DE9F0410746A6B041
:1029300008460C461646984612F08FF838B12046E5
:1029400012F08BF8102802D026B0BDE8F0812046A6
:1029500012F087F803280546F6D1304604F006FE4B
:102960000DF1070201460123304604F003FE012861
:1029700003D028462D49FDF705FF9DF80730012BB0
:1029800049D03ED3022B2ED0204612F066F8002804
:10299000DAD14422202102A812F044F8204612F095
:1029A00062F8014602A812F055F8204612F063F8CA
:1029B0000546204612F05BF82946024602A812F0AE
:1029C00033F8384602A912F058F804460028BBD064
:1029D00038464246214612F064F80028B4D020461A
:1029E00004F0C0FDB0E74FF0A042D2F80435D9435F
:1029F00001F4803103F48033C2F80815C2F80C35B5
:102A0000C2E74FF0A0434FF480310022C3F808150D
:102A1000C3F80C25B8E74FF0A0434FF480310022F3
:102A2000C3F80C15C3F80825AEE700BF2447030020
:102A3000112817D138B50C4C0123256823711EF0DD
:102A4000CDFC00F59C53083304F10C012846A3602B
:102A500012F01DF82A4605484FF42031BDE83840F1
:102A6000FEF72EBD704700BF64000020840C0020DC
:102A70002DE9F0410746B0B008460C461E4611F05D
:102A8000ECFF1028054602D030B0BDE8F0812046AA
:102A900011F0E7FF01288046F6D10FCE0DF1040EAC
:102AA000AEE80F000FCEAEE80F0096E807008EE804
:102AB000070000212A4601A8FDF744FC29464522CB
:102AC0000CA88DF8038011F0ADFF204611F0D3FF64
:102AD0000646204611F0CBFF314602460CA811F005
:102AE000A3FF0CA811F0B4FF38460CA911F0C5FFE4
:102AF00004460028C8D042460DF1030104F038FD19
:102B000018B1204604F02EFDBEE7384604F079FEE9
:102B10002A460146204604F02BFD0028F1D101AAE7
:102B20003846214611F0BDFF02460028E9D1064B88
:102B3000384603F10C011A719A6011F0ADFF034899
:102B4000FEF712FDA0E700BF64000020840C002007
:102B500008B5064B002203F10C011A719A6011F0BE
:102B60009BFF0348BDE80840FEF7FEBC6400002060
:102B7000840C0020030770B504460D460AD428468D
:102B800004F0F4FE224603460C490320BDE87040E1
:102B9000FDF716BE084604F0E9FE03380228EED918
:102BA000074B0022284603F10C011A719A6011F0BC
:102BB00073FF0448FEF7D8FCE1E700BF4C47030071
:102BC00064000020840C0020704700BF08B5054653
:102BD0000C460020FDF7C4FD284621461EF0F7FCF8
:102BE00004F066FA002800F0BD80054600F09AFB6C
:102BF00004F02EFF5F4902460320FDF7D1FD284671
:102C000004F004FE5C4902460320FDF7C9FD284696
:102C10005A492A4604F05EFA002840F09C80284673
:102C20000B2104F056FB002840F08E8028464AF61F
:102C3000CD3104F075FB00287FD12846012104F036
:102C400073FA002872D12846012104F014FF0028ED
:102C500065D14B4C284625606562656111F012FF15
:102C6000002855D1284604F11C0111F010FF00285E
:102C700047D1FEF749FB002840D1424A4248002193
:102C8000FEF70CFC01214148414AFEF707FC0320F6
:102C90004049FFF79BFC70BB2068FFF7DBFD38BBAA
:102CA00000234FF4F0314FF0A045032007E041FA34
:102CB00003F2D20744BF03F5E07245F82200013366
:102CC000202BF4D14FF0A04300214FF4F032C3F891
:102CD00008253148C3F80C150A4640F6CD41FEF7E9
:102CE000EFFB206804F0FDFC20681EF083FCF8E791
:102CF000FDF784FFD4E7FDF781FFCDE7FDF77EFF09
:102D0000BBE72648264A274B4FF4C57130F0BEF882
:102D10002248234A244B40F2891130F0B7F81F486B
:102D2000224A234B40F27F1130F0B0F81B481F4A73
:102D3000204B4FF4BF7130F0A9F818481B4A1E4BC6
:102D400040F27D1130F0A2F81448184A1B4B4FF4A2
:102D5000BE7130F09BF81148144A194B4FF4BD7105
:102D600030F094F80D48114A164B40F2731130F0D0
:102D70008DF800BFA0470300BC470300752B00007F
:102D800064000020512B00007C4903000C47030025
:102D9000F5280000312A0000A40C0020844703001D
:102DA0006C49030004490300D048030010470300A6
:102DB000944803005C4803001C480300D847030004
:102DC00050460300944703002DE9F84F43001F18B5
:102DD000DFF880B1FF000BEB07048846E16A0129A8
:102DE000164644D034D302293CD1013000EB4000D8
:102DF000656A0BEBC0094FF0000A1DE0126A641B04
:102E0000B4422346A2EB050428BF33469C42D9F8BE
:102E1000040028BF1C4622462844414630F074F87E
:102E20000BEB070325441A6A954208BF0025361BA1
:102E3000A244A0445D6217D00BEB0702936AAB4239
:102E400003F1FF34DAD8126A1344013B5C1BD7E765
:102E5000A16A626A91429CBF246A091901398A1ADF
:102E6000964238D94FF0000A5046BDE8F88FA16A63
:102E7000656AA94229D90139226AC5EB010A0344CE
:102E80000BEBC30B0BF1200BDBF80450314BB245BD
:102E900028BFB246561B0130B24500EB40003FD37D
:102EA00003EBC0044146606832462844C6EB0A057D
:102EB00030F02AF8606808EB06012A4630F024F862
:102EC000CBF804505046BDE8F88F226A8C18013CBC
:102ED000C5EB040AD3E703440BEBC30B0BF120074C
:102EE000DBF82040D7F804901A4BC9EB04040130FA
:102EF000A64200EB40001FD303EBC00541466868C3
:102F000022464844C4EB06092FF0FEFF686808EB30
:102F100004014A462FF0F8FFB246C7F80490A3E731
:102F200003EBC003414658685246284455442FF0ED
:102F3000EBFFCBF8045097E703EBC003414658681A
:102F4000324648442FF0E0FF06EB09037B60B246AF
:102F50008AE700BFB0A800202DE9F04F344C94F868
:102F600000E083B00546884617461E46BEF1000FB6
:102F70002ED02369DFF8B8A0AB4256D94FF0000934
:102F80004846CDF80490FEF725FB6DB929460D445F
:102F900004EBC5040C9BE3620020019BFEF722FBBF
:102FA000002003B0BDE8F08F6B1C690003EB430306
:102FB000DB004A190AEBC2020AEB030EC2F82890A2
:102FC0004AF80380CEF804701662C2F82490DEE757
:102FD000184BDFF86CB0DFF86C90C4F828E04FF0C5
:102FE000100C4FF4007A0222C4F824E0A361C4F864
:102FF00058E0A3641049C4F82CE0C4F85CE0C4F8BD
:1030000054E0C4F850C0E01DC4F81CB0C4F820A0BF
:10301000C4F84C902261626130F052FB20460749AF
:1030200030F04EFB2023A371A3E74FF0FF30B8E749
:10303000B0A80020804903008C4903009049030098
:10304000D40C0020C40C0020F8B5134C23780BBB23
:10305000124ADFF858C0124FA3624FF4007E1026C8
:103060006362E362A365E365636502250D49A261BE
:10307000A264C4F81CC0C4F820E0E01DE764266523
:103080002561656130F01CFB2046074930F018FBD4
:103090002023A371F8BD00BFB0A800208049030021
:1030A000C40C00208C49030090490300D40C00207C
:1030B0000649074A074B9B1A03DD043BC858D0500A
:1030C000FBDC00F013F8FDF7C9F8000040D903005D
:1030D0000000002090090020FEE7FEE7FEE7FEE783
:1030E000FEE7FEE7FEE7FEE7FEE7FEE770B45E4BB5
:1030F0001B68082B19D05D4AD2F8883043F470035E
:10310000C2F88830BFF34F8FBFF36F8F4FF010239B
:10311000D3F80022002A75DBD3F80432002B71DBD0
:10312000534B544A1A6070BC7047534B19680029BE
:10313000E1D14FF080404FF08052C0F80C114F4B5E
:10314000C0F81011C0F83815D2F80414C3F82015CF
:10315000D2F80814C3F82415D2F80C14C3F82815B3
:10316000D2F81014C3F82C15D2F81414C3F8301583
:10317000D2F81814C3F83415D2F81C14C3F840154B
:10318000D2F82014C3F84415D2F82414C3F8481513
:10319000D2F82814C3F84C15D2F82C14C3F85015E3
:1031A000D2F83014C3F85415D2F83414C3F86015AB
:1031B000D2F83814C3F86415D2F83C14C3F8681573
:1031C000D2F84014C3F86C15D2F844642C4C2D4945
:1031D000C3F870652C4D2560FB23C1F81835D0F875
:1031E000E43ED2F8581204F50F3423F00F0204F530
:1031F0006D7401F00F0313434FF40072C0F8E43E06
:10320000226078E7214B0122C3F80425D3F800247B
:10321000002AFBD04FF0102312221C49C3F80022D1
:10322000D1F80034002BFBD04FF0102312221749A5
:10323000C3F80422D1F80024144B002AFAD000224B
:10324000C3F80425D3F80024002AFBD0BFF34F8F26
:1032500006490F4BCA6802F4E0621343CB60BFF328
:103260004F8F00BFFDE700BF3001001000ED00E010
:10327000900000200090D0033401001000C00040F6
:103280008C56004000F000404881030000E00140FF
:103290000400FA050EB410B5A3B025AB044653F8EC
:1032A000042B0193802102A830F09AFB02A830F091
:1032B0000FFA236882B21B6802A92046984723B000
:1032C000BDE8104003B07047B0F80636B0F80826E5
:1032D000C3F580618A42CCBFA0F80A16A0F80A267E
:1032E000B0F80A1621B100F2062018441EF0F2BC14
:1032F0007047000010B50A4B0360044600F20C60F2
:1033000000F02EFB0023A4F80432A4F80636A4F83B
:103310000836A4F80A361EF0CBFC204610BD00BFCC
:10332000A849030010B5044C01462046FFF7E2FF10
:10333000024B1C6010BD00BFD80E0020D40E002030
:1033400010B5B0F80432C2180446D2780A2A06D161
:10335000013B9BB2A0F80432034400221A71B4F876
:103360000432E218D2780D2A06D1013B9BB2A4F8B0
:103370000432234400221A7104F20C602346B4F88C
:103380000422211D02F084FF0020A4F8040210BDD5
:103390002DE9F8432A4FDFF8AC80DFF8AC90044603
:1033A0008E180D46B542294648D20B780A2B05F1F6
:1033B000010519D014D8082B2CD0B4F80432B3F579
:1033C000007FEFDA236801221B6820469847B4F893
:1033D00004325A1CA4F8042215F8012C23442BE0D3
:1033E0000D2B01D07F2BE7E7236802221B683946AB
:1033F00020469847B4F804322BB1234400221A71B6
:103400002046FFF79DFF236802221B6841462046A5
:103410009847C7E7B4F80432002BC3D023680322CF
:103420001B68494620469847B4F80432013B9BB2DA
:10343000A4F80432002223441A71B3E7BDE8F883EC
:103440009D4903009B49030098490300024B0A462B
:1034500001461868FFF79CBFD40E0020B0F80A366A
:103460000BB9FFF731BF704770B5B0F80846C4F527
:103470008064A4B29442A8BF14460D466B1A9C42C5
:103480000FDDB0F80826B0F8063615F8016B1344C6
:10349000C3F309030344013283F80662A0F8082647
:1034A000ECE7FFF7DBFF204670BDB0F80A16B0F876
:1034B00006260A44C2F30902A0F80626B0F8082638
:1034C000521AA0F808260022A0F80A26FFF7FCBE30
:1034D000014B1868FFF7E9BFD40E0020F8B5074E7E
:1034E000074D074600243868A259036829465B68DF
:1034F0000C349847B4F52E7FF5D1F8BD785303000E
:1035000081640300D0F8BC0003F005BED0F8BC0015
:1035100003F0FFBD70B505682B680446D0F8BC0009
:103520005E6804F043FA054902462846B047206821
:1035300003490368BDE870405B681847284B0300E7
:10354000214C030070B504680B46216818464D688D
:10355000114620F0DEF92B46024602492046BDE81E
:1035600070401847816403000068024903685B6883
:10357000184700BF214C030030B5044689B06946A6
:10358000D0F8BC0003F0FDFF2068BDF80020036800
:1035900026495B6898472068BDF8022003682449E3
:1035A0005B6898472068BDF80420036821495D687E
:1035B000BDF80630A8472068BDF8082003681E49FA
:1035C0005D68BDF80A30A8472068BDF80C20036884
:1035D0001A495D68BDF80E30A8472068BDF8102074
:1035E000036817495D68BDF81230A8472068BDF828
:1035F0001420036813495D68BDF81630A847206899
:10360000BDF81820036810495D68BDF81A30A84756
:103610002068BDF81C2003680C495D68BDF81E30A9
:10362000A8472046FFF7A0FF09B030BD2451030092
:10363000305103003B5103004D5103005F51030023
:103640006C5103007951030086510300935103002C
:10365000F0B5224E8FB00446002509AAE9B2D4F88D
:10366000BC0004F093F9002833D19DF83630DB0715
:103670002DD52068BDF8341007680691BDF83210CA
:10368000BDF82630BDF8242049BA89B20591BDF8AD
:10369000301049BA89B20491BDF82E1049BA89B2E6
:1036A0000391BDF82C1049BA89B20291BDF82A10D5
:1036B00049BA89B20191BDF8281049BA89B200917E
:1036C0005BBA52BA7F689BB292B23146B8470135B5
:1036D000C3E72046FFF748FF0FB0F0BD7E50030060
:1036E00038B5044604F0B4F9236805491A685568EA
:1036F00002461846A8472046BDE83840FFF734BFC9
:103700008164030070B5044659B9006866490368CE
:103710005B689847206865490368BDE870405B684E
:103720001847634910682FF0C1FF002840F0BB80A4
:10373000D4F8BC0003F005FF054620682A6803683A
:103740005C495B68984720686A6803685A495B6807
:1037500098472068AA68036858495B6898472068BA
:10376000EA68036856495B68984720682A690368D5
:1037700054495B68984720686A69036852495B68E6
:1037800098472068AA69036850495B689847206891
:10379000EA6903684E495B68984720682A6A0368AB
:1037A0004C495B68984720686A6A03684A495B68C5
:1037B00098472068AA6A036848495B689847206868
:1037C000EA6A036846495B68984720682A6B036881
:1037D00044495B6898472068AA6B036842495B6864
:1037E00098472068EA6B036840495B6898472068FF
:1037F0002A6C03683E495B68984720686A6C0368D6
:103800003C495B6898472068AA6C03683A495B6842
:1038100098472068EA6C036838495B6898472068D5
:103820002A6D036836495B68984720686A6D0368AB
:1038300034495B6898472068AA6D036832495B6821
:1038400098472068EA6D036830495B6898472068AC
:103850002A6E03682E495B68984720686A6E036881
:103860002C495B6898472068AA6E03682A495B6800
:1038700098472068EA6E036828495B689847206883
:103880002A6F036826495B68984720686A6F036857
:1038900024495B6898472068AA6F036822495B68DF
:1038A000BDE87040184770BD3A4D0300214C03003D
:1038B000404D0300444D0300524D0300664D03008C
:1038C0007C4D0300954D0300A74D0300C24D03003E
:1038D000D34D0300E84D0300FB4D0300154E0300DC
:1038E000274E0300394E03004C4E03005A4E03008E
:1038F0006E4E0300844E0300954E0300AA4E030053
:10390000BD4E0300D74E0300E94E0300074F0300EE
:10391000244F03003B4F0300524F0300734F03003B
:10392000914F0300A44F0300B74F030010B50446A6
:10393000D0F8BC0004F0E2F823681A68526838B185
:103940000449184690472046BDE81040FFF70CBEDA
:103950000149F6E7CD500300D450030000BA704788
:1039600070B5002504460E4640F8045B29462C221B
:10397000FCF7E8FC08232386012363864FF47A735F
:10398000636306F5C2433C33A363134BE3632946E9
:1039900024646564A564E564C4F8BC60602204F135
:1039A0005000FCF7CFFC22460C49304603F092FB56
:1039B0002246D4F8BC000A4904F04EF8094BC4F87A
:1039C000B030C4F8B44004F1B001D4F8BC0003F046
:1039D00005FB204670BD00BFFF5A0000B563000024
:1039E00035640000F95900002DE9F0410746904682
:1039F0000C462FF06DFE3D1800F001060130B8EBCB
:103A0000500F12D3384621460022854221D910F8A2
:103A1000013BA3F14107052F0BD8373B1343DBB222
:103A20009EB10B7000260131EEE74FF0FF30BDE88C
:103A3000F081A3F16107052F01D8573BEEE7303B3A
:103A4000DBB2092BF1D81343EAE71B01DAB20126F6
:103A5000DBE7081BBDE8F0810A4609B9FFF784BD22
:103A60000068024903685B68184700BF264A0300E4
:103A700070B505460E46A9B9D0F8BC0004F019F897
:103A80000446286803685B6844B11149984730468A
:103A900001462846BDE87040FFF7DEBF0D49984754
:103AA0002046F5E714680C4920462FF0FFFD28B9A1
:103AB0000121D5F8BC0004F016F8E9E707492046D3
:103AC0002FF0F4FD01460028F3D00720E0E700BF07
:103AD000CD500300D4500300AE5003005D690300D5
:103AE00010B503680446D0F8BC0003F009FA01469B
:103AF0002046BDE81040FFF7AFBF000070B5054697
:103B000071B9D0F8BC0003F021FB044628680368B3
:103B10005B681CB10F49984700200CE00E49FAE79A
:103B200014680E4920462FF0C1FD50B90121D5F887
:103B3000BC0003F0F9FA01462846BDE87040FFF7E3
:103B40008BBF074920462FF0B1FD01460028E3D185
:103B5000EDE700BF9D500300A2500300EF9F03005C
:103B6000A950030037B504466946D0F8BC0003F0FD
:103B700015FF054608BB2068009A036812495B6878
:103B8000984720689DF80420036810495B689847AF
:103B900020689DF8052003680D495B6898472068F8
:103BA0009DF8062003680B495B68984720689DF8DC
:103BB0000720036808495B68984729462046FFF7B5
:103BC0004BFF03B030BD00BFA1510300B45103004F
:103BD000CB510300C4510300DE5103002DE9F34132
:103BE000002304468DF80430002933D1D0F8BC00FE
:103BF00003F0BBFD8DF80400C00704D520684449DC
:103C000003685B6898479DF80430990704D52068DD
:103C1000404903685B6898479DF804305A0704D50B
:103C200020683D4903685B6898479DF804301B078E
:103C300004D52068394903685B689847206838498B
:103C400003685B6898470021204602B0BDE8F04158
:103C5000FFF702BF16684FF0000EF446F0467746B5
:103C6000013E194618461D4616F8012F5AB36E2A12
:103C700026D018D8642A20D02DB19DF804306CF3DA
:103C800000038DF8043028B19DF804306EF3410331
:103C90008DF8043029B19DF8043067F382038DF864
:103CA00004300621D0E7722A04D0732AE4D101201F
:103CB0008646D9E70125AC46D6E701210F46D3E772
:103CC00001239846D0E72DB19DF804206CF3000243
:103CD0008DF8042028B19DF804206EF341028DF880
:103CE000042029B19DF8042067F382028DF8042096
:103CF0002BB19DF8043068F3C3038DF804309DF8B0
:103D00000410D4F8BC0003F05BFD01469CE700BF43
:103D10002E620300909B0300D0B4030021620300D5
:103D2000CD49030010B50446D0F8BC0003F0D4FC24
:103D300001462046BDE81040FFF78EBE2DE9F04158
:103D400086B001AF04463946D0F8BC0003F03BFE14
:103D50000646E0B9206811490368DFF84C805B68CB
:103D60009847354620687A5D036841465B680135AF
:103D70009847082DF6D12068094903685B68984781
:103D80002068BDF80C20036806495B6898473146F7
:103D90002046FFF761FE06B0BDE8F0810B4C030042
:103DA000CD490300164C03000E8F030038B50446BE
:103DB00071B9D0F8BC0003F0ACFB20B1D4F8BC0062
:103DC0001DF0E2FC48BB2068174903685B6828E0E7
:103DD0001568164928462FF069FC80B91449D4F8B3
:103DE000BC00224603F090FB0121D4F8BC0003F094
:103DF00095FB01462046BDE83840FFF72DBE28461A
:103E00000C492FF053FC054660B901460246D4F830
:103E1000BC0003F079FB2946E7E720680649036800
:103E20005B6898470020E4E75D52030044520300BA
:103E3000355C00004B5203005352030070B5054639
:103E40000E46A1B9D0F8BC0003F0EAFC044628688D
:103E500003685B6844B111499847344621462846B7
:103E6000BDE87040FFF7F8BD0D499847F6E71668C2
:103E70000C4930462FF01AFC044628B90121D5F828
:103E8000BC0003F0D2FCE9E7074930462FF00EFCF6
:103E9000044608B90146F2E70624DFE7535203005F
:103EA0005D520300445203004B52030038B50446F0
:103EB00000292AD1D0F8BC0003F058FD052809D804
:103EC000DFE800F0030A0F14191E20682749036871
:103ED0005B689847002022E02068254903685B68FA
:103EE000F7E72068234903685B68F2E72068224906
:103EF00003685B68EDE72068204903685B68E8E7D2
:103F000020681F4903685B68E3E715681D49284678
:103F10002FF0CCFB48B9D4F8BC0003F0DEFC01461E
:103F20002046BDE83840FFF797BD174928462FF0D7
:103F3000BDFB28B90121D4F8BC0003F0D3FCEEE7A7
:103F4000124928462FF0B2FB20B9D4F8BC0003F088
:103F5000CEFCE4E70E4928462FF0A8FB20B9D4F8A0
:103F6000BC0003F0DAFCDAE70620D8E7724B030066
:103F70007C4B0300874B0300924B03009A4B0300DA
:103F8000A34B0300AC4B0300B54B0300BB4B03003A
:103F9000C24B0300002938B5044617DD15680C49EB
:103FA00028462FF083FB50B90121D4F8BC0003F060
:103FB00062FD01462046BDE83840FFF74DBD05498A
:103FC00028462FF073FB01460028EED00620F0E7CC
:103FD00039560300354D0300F0B50F1E87B0054676
:103FE000164628DD1468174920462FF05FFBB8B944
:103FF000012F20D0144B0393144B0193022F144B29
:1040000000934FF000040CBF0246B268049502947E
:10401000104B7168D5F8BC0012F0CEF900210BE00E
:104020000D4920462FF042FB0028F7D1D5F8BC00FF
:1040300012F0CAF9F2E70621284607B0BDE8F040C1
:10404000FFF70ABD3956030085620000F24B0300FA
:10405000024C0300E74B0300354D0300F0B5134657
:1040600085B00446E1B96946D0F8BC00154F03F0AD
:10407000BEFB064605469DF800202068AB1B9A4211
:1040800003685B6804DD15F8012B39469847F2E7B1
:104090000D49984700212046FFF7DEFC05B0F0BD32
:1040A000102269461868FFF79FFC1028024606D1C7
:1040B0006946D4F8BC0003F09FFB0146EBE70621FC
:1040C000E9E700BF0E8F0300CD490300F8B50546B0
:1040D0000C4689B9D0F8BC0003F098FB2E680A4959
:1040E000336810225F6803463046B84721462846A9
:1040F000BDE8F840FFF7B0BC1168D0F8BC0003F091
:104100008AFB0146F3E700BF3D5203002DE9F04171
:10411000084E07460D4690460C46631B984507DD42
:10412000386814F8012B036831465B689847F4E758
:10413000BDE8F0810E8F03002DE9F041B1F10008D8
:1041400086B0054617462CDCD0F8BC0003F0B0F969
:104150002B681A68526898B13C493D4E1846904702
:10416000002403AAE1B2D5F8BC0003F084F948B1F9
:10417000002421462846FFF76FFC06B0BDE8F08119
:104180003449EAE79DF814304BB103A928460822C8
:10419000FFF7BCFF2868036831465B689847013425
:1041A000DFE716682C4930462FF080FAB8B9B8F12D
:1041B000010F12D0082201A97868FFF715FC082822
:1041C0000BD101A9D5F8BC0003F030F901A9D5F84D
:1041D000BC0003F02BF90028CAD00624C9E71F4908
:1041E00030462FF063FA044620B9D5F8BC0003F03E
:1041F00038F9BEE71A4930462FF058FA044628B974
:104200000146D5F8BC0003F047F9B2E7154930463E
:104210002FF04CFA044608B90121F2E71249304662
:104220002FF044FA04460028A2D1B8F1010FD4D0EF
:10423000082201A97868FFF7D7FB0828CDD101A98A
:10424000D5F8BC0003F001F993E700BF5352030017
:10425000CD4903005D520300B3500300B750030083
:104260004B52030044520300BD50030037B50546CE
:104270000C46A1B96946D0F8BC0003F045F8082205
:1042800069462846FFF742FF2868064903685B68CD
:10429000984721462846FFF7DFFB03B030BD0621D3
:1042A000F8E700BFCD49030037B505460C46A1B974
:1042B0006946D0F8BC0003F029F808226946284670
:1042C000FFF724FF2868064903685B689847214682
:1042D0002846FFF7C1FB03B030BD0621F8E700BF59
:1042E000CD4903002DE9F041B1F1000886B0054643
:1042F000174639DCD0F8BC0003F08EF82B681A683A
:104300005268A0B14A494B4E4B4F18469047002483
:1043100003AAE1B2D5F8BC0003F061F848B100246B
:1043200021462846FFF798FB06B0BDE8F0814349D7
:10433000E9E79DF81530DA0714D5082203A92846C5
:10434000FFF7E4FE9DF815309B0706D528689DF918
:104350001420036839465B6898472868036831462B
:104360005B6898470134D3E71668354930462FF02B
:104370009DF9044630BBB8F1010F16D0082201A9FF
:104380007868FFF731FB08280FD1B8F1020F0ED083
:1043900022462146B8682FF061FA01A942B2D5F849
:1043A000BC0002F0EDFF0028B9D00624B8E701A94F
:1043B000D5F8BC0002F0D5FF01A9D5F8BC0002F089
:1043C000D0FFF0E71F4930462FF070F9044620B9BE
:1043D000D5F8BC0002F0F9FFA2E71B4930462FF0E8
:1043E00065F9044628B90146D5F8BC0003F008F881
:1043F00096E7164930462FF059F9044608B90121CD
:10440000F2E7134930462FF051F90446002886D1CF
:10441000B8F1010FC9D0082201A97868FFF7E4FAC2
:104420000828C2D101A9D5F8BC0002F0C2FF77E785
:1044300053520300CD490300CEB403005D52030084
:10444000B3500300B75003004B5203004452030023
:10445000BD50030037B51346054679B9D0F8BC0006
:1044600002F03CFF082201462846FFF74FFE28686D
:104470000C4903685B689847002107E008226946F9
:104480001868FFF7B1FA002805DA06212846FFF779
:10449000E3FA03B030BD6946D5F8BC0002F023FF53
:1044A000EAE700BFCD49030037B51346054679B9A1
:1044B000D0F8BC0003F036F9082201462846FFF781
:1044C00025FE28680C4903685B689847002107E0CF
:1044D000082269461868FFF787FA002805DA0621DE
:1044E0002846FFF7B9FA03B030BD6946D5F8BC00DD
:1044F00003F01DF9EAE700BFCD49030013B5002220
:104500000C4601A92FF0AAF9019B20601B78002B13
:1045100014BF0620002002B010BD0000F7B505460C
:104520000C4681B90668D0F8BC0033685F6802F0B9
:10453000CBFE0C4902463046B84721462846FFF7D5
:104540008BFA03B0F0BD01A91068FFF7D7FF04464E
:104550000028F2D19DF80410D5F8BC0002F0B9FE95
:10456000EBE700BF1D4B03002DE9F04F002989B098
:104570000446904640F32F811568984928462FF04D
:1045800095F8002831D0964928462FF08FF800285A
:1045900040F099802068934903685B6898472068D9
:1045A000914903685B6898470126D4F8BC0003F082
:1045B0009DF800278246F9B2514580F284800DF1C2
:1045C00008094A46D4F8BC0003F0C8F9054670B1A2
:1045D0002068864903685B6898470025294620467D
:1045E000FFF73AFA09B0BDE8F08F0646DDE7049B15
:1045F000002B63D02068BDF81A2003685B68002E8A
:104600005ED07B49DFF840B298472068BDF818209B
:10461000036878495B6898472068049A036876497C
:104620005B6898472068059A036873495B689847F8
:1046300020689DF81D20036870495B6898472068D2
:104640009DF81C2003686E495B68984720689DF8B8
:104650001F2003686B495B6802F0010298472068DD
:104660009DF81F20036867495B68C2F340029847C2
:1046700020689DF81F20036862495B68C2F38002CE
:10468000984720689DF81F2003685E495B68C2F365
:10469000C002984720685C4903685B6898472068B7
:1046A00019F80520036859465B6801359847082DBD
:1046B000F5D12068554903685B68984701377AE768
:1046C00053499847FAE701A9D8F80000FFF716FF09
:1046D0000546002882D102AF3A46BDF80410D4F84E
:1046E000BC0003F033F9054600287FF477AF20685B
:1046F000BDF81A20036847495B68DFF84C8198478A
:104700002068BDF81820036843495B689847206813
:10471000424903685B6898472E462068BA5D036883
:1047200041465B6801369847082EF6D120682F492C
:1047300003685B6898472068394903685B68984755
:104740009DF81F30D80704D52068364903685B6898
:1047500098479DF81F30990704D5206832490368AF
:104760005B6898479DF81F305A0704D520682F4989
:1047700003685B6898479DF81F301B0704D52068C5
:104780002B4903685B6898472068184903685B6891
:10479000984720689DF81C20036826495B68984765
:1047A0002068049A036824495B6898472068059A42
:1047B000036822495B68984720689DF81D200368BC
:1047C0001F495B68984720689DF91E2003681D49B2
:1047D0005B68984702E7062500E700BF3C580300E6
:1047E000314A0300374A03008F4A0300CD490300D2
:1047F000E74A0300EE4A0300F84A0300004B0300B7
:10480000074B03000E4B030048530300784C030092
:1048100034530300134B0300224B03000B4C0300E3
:104820002F4B03002E620300909B0300D0B40300C3
:1048300021620300364B0300454B0300534B03003A
:104840005D4B0300674B03000E8F0300F7B5054671
:104850000C4689B90668D0F8BC0033685F6802F07E
:1048600045FF0C4902463046B847204601462846D7
:10487000FFF7F2F803B0F0BD01A91068FFF73EFEA4
:104880000028F3D19DF80410D5F8BC0002F03BFFDE
:10489000ECE700BF1D4B0300F7B505460C4681B998
:1048A0000668D0F8BC0033685F6802F031FF0B493E
:1048B00002463046B84721462846FFF7CDF803B0F8
:1048C000F0BD01A91068FFF719FE04460028F2D1D7
:1048D0000199D5F8BC0002F020FFECE71D4B030066
:1048E00073B5044679B90568D0F8BC002B685E68DA
:1048F00002F0BEFF0A4902462846B0472046FEF7AE
:1049000033FE02B070BD01A91068FFF7F7FD002863
:10491000F4D10199D4F8BC0002F0AFFFEEE700BF7C
:104920001D4B030000291FB504461EDD03A91068B6
:10493000FFF7E4FDD8B9039B012199400E4B00938A
:1049400001944FF6FF730022D4F8BC0003F0DBF8AB
:1049500068B92068094903685B6898472068084976
:1049600003685B68984704B010BD0021E6E7014684
:104970002046FFF771F8F6E7B9610000CC4F03005D
:10498000255003004B1E012B2DE9F34105460F4630
:10499000164644D8D2F80080234940462EF086FEC1
:1049A0000446F8B9012F0BD12E68D5F8BC00336846
:1049B0005F6802F067FF02461C493046B8470AE0CC
:1049C00001A97068FFF79AFD044620B90199D5F84E
:1049D000BC0002F05CFF21462846FFF73DF802B01C
:1049E000BDE8F081124940462EF060FE0446C0B991
:1049F000012F07D12E68D5F8BC0033685F6802F03C
:104A00004BFFD8E701A97068FFF778FD044600283E
:104A1000E1D10199D5F8BC0002F042FFDBE70624A2
:104A2000D9E70024D7E700BF2B5203001D4B03003A
:104A300033520300F7B505460C4681B90668D0F835
:104A4000BC0033685F6802F0F5FE0C490246304650
:104A5000B84721462846FEF7FFFF03B0F0BD01A985
:104A60001068FFF74BFD04460028F2D19DF80410B2
:104A7000D5F8BC0002F0E3FEEBE700BF1D4B0300DE
:104A80007FB50E1E0546144606DC0724214628463F
:104A9000FEF7E2FF04B070BD08220DEB02012068B2
:104AA000FEF7A2FF002822DB012E11D10DF1030237
:104AB00002A9D5F8BC0002F005FD04460028E4D1A7
:104AC00028689DF8032003680A495B689847DDE77A
:104AD000606801A9FFF712FD04460028D6D19DF8B1
:104AE0000420D5F8BC0002A902F0FDFCCEE70624A4
:104AF000CCE700BF1D4B0300F7B505460C4681B956
:104B00000668D0F8BC0033685F6802F0CDFE0C493F
:104B100002463046B84721462846FEF79DFF03B0BF
:104B2000F0BD01A91068FFF7E9FC04460028F2D1A6
:104B30009DF80410D5F8BC0002F0BBFEEBE700BF07
:104B40001D4B0300F7B505460C4681B90668D0F841
:104B5000BC0033685F6802F0DEFB0C490246304659
:104B6000B84721462846FEF777FF03B0F0BD01A9FC
:104B70001068FFF7C3FC04460028F2D1BDF804100A
:104B8000D5F8BC0002F0CCFBEBE700BF284B0300DC
:104B9000F7B505460C4699B90668D0F8BC003368ED
:104BA0005F6802F0D4FB4FF47A720D49B0FBF2F269
:104BB0003046B84721462846FEF74EFF03B0F0BD09
:104BC00001A91068FFF79AFC04460028F2D1019B66
:104BD000D5F8BC004FF47A71594302F0BDFBE9E708
:104BE0001D4B0300002913B5044610DD01A9106810
:104BF000FFF784FC28B99DF80410D4F8BC0002F03B
:104C000067FE01462046FEF727FF02B010BD0620D2
:104C1000F7E700002DE9F04F002987B0044640F384
:104C20008B801568804928462EF040FD00282ED044
:104C30007E4928462EF03AFD00287FD120687C4925
:104C400003685B68984720687A4903685B689847FF
:104C50000126DFF83092DFF830A200270DF10408BA
:104C60005FFA87FB42465946D4F8BC0002F0A3FE27
:104C7000054670B12068704903685B689847002555
:104C800029462046FEF7E8FE07B0BDE8F08F06464D
:104C9000DFE79DF81430D90748D5206803685B68C2
:104CA000002E45D09DF80E20DFF8E0B14946984728
:104CB0002068BDF80C20036851465B68984720685F
:104CC0009DF80F2003685D495B68984720689DF850
:104CD000102003685A495B68984720689DF81120A6
:104CE000036858495B68984720689DF8122003685C
:104CF00055495B68984720689DF81320036853491D
:104D00005B6898472068524903685B689847206849
:104D100018F80520036859465B6801359847082D47
:104D2000F5D120684B4903685B689847013795E7E0
:104D30005A4649499847F9E70625A1E728466946B2
:104D4000FFF7DCFB054600289AD101AF3A46BDF8D3
:104D50000010D4F8BC0002F02EFE054600288FD1CA
:104D600020689DF8142003683C495B6802F001024A
:104D700098479DF81430DA0782D520689DF80E20F8
:104D8000036837495B6898472068BDF80C200368C2
:104D900034495B68984720689DF80F2003683249C2
:104DA0005B689202984720689DF8142003682F4999
:104DB0005B68C2F3400298479DF814309B077FF56B
:104DC0005FAF20682A490368DFF8C0805B689847B6
:104DD0002E462068BA5D036841465B6801369847F5
:104DE000082EF6D12068144903685B68984720684C
:104DF0009DF8102003681F495B68984720689DF85C
:104E0000112003681C495B68984720689DF81220B0
:104E100003681A495B68984720689DF81320036867
:104E200017495B6898472BE73C580300314A030059
:104E3000284C03007D4C0300CD490300D24C0300F5
:104E4000D94C0300004B0300E04C0300E74A030089
:104E500048530300784C030034530300E74C03002D
:104E6000E5510300224B0300F34C0300044D030003
:104E70000B4C03000F4D03001A4D0300274D030098
:104E8000534B03004C530300EE4A03000E8F030004
:104E9000F7B505460C4681B90668D0F8BC00336802
:104EA0005F6802F03FFD0C4902463046B847214694
:104EB0002846FEF7D1FD03B0F0BD01A91068FFF749
:104EC0001DFB04460028F2D19DF80410D5F8BC0063
:104ED00002F02DFDEBE700BF1D4B0300F7B50546C3
:104EE0000C4681B90668D0F8BC0033685F6802F0F0
:104EF00023FD0E4902463046B84721462846FEF7B4
:104F0000ABFD03B0F0BD01A91068FFF7F7FA044646
:104F10000028F2D101994B1EFE2B05D8C9B2D5F855
:104F2000BC0002F00EFDE8E70724E6E71D4B030096
:104F3000F7B505460C4681B90668D0F8BC00336861
:104F40005F6802F0BBFC0C4902463046B847214678
:104F50002846FEF781FD03B0F0BD01A91068FFF7F8
:104F6000CDFA04460028F2D19DF80410D5F8BC0013
:104F700002F0A9FCEBE700BF1D4B030030B5002990
:104F800085B0044620DD03A91068FFF7B7FAA8B979
:104F9000039B01259D4020680C4903685B68984786
:104FA00020680B4903685B6898470094094BD4F864
:104FB000BC000022294602F0C9FA18B10146204679
:104FC000FEF74AFD05B030BD0025E4E7CC4F0300F5
:104FD00025500300B96100002DE9F04F0F1E99B074
:104FE0000646144640F34381D2F80090B149484642
:104FF0002EF05CFB50B9D6F8BC000FF04EFE014617
:105000003046FEF729FD19B0BDE8F08FAA494846A1
:105010002EF04CFB20B9D6F8BC000FF043FEEEE7B3
:10502000A64948462EF042FB98BB022F40F31F8151
:10503000A568A34928462EF039FBE0B1082210A943
:105040002846FEF7D1FC082840F0118110ADD4F8B5
:1050500004809C4940462EF029FB70B9032F00F0D4
:105060000681E268D6F8BC0029460FF020FE002831
:10507000C5D10020C3E70546E9E7934940462EF035
:1050800015FB0028F5D12946D6F8BC000FF014FE18
:10509000EDE78E4948462EF009FB014638B9012F4D
:1050A000D6F8BC0018BF61680FF00BFEA7E788496F
:1050B00048462EF0FBFA30BB042F40F3D88007A9F6
:1050C0006068FFF71BFA002899D108A9A068FFF7CC
:1050D00015FA002893D109A9E068FFF70FFA002814
:1050E0008DD110AD2946206902F071F8002886D1D3
:1050F000BDF824309DF8202000950799D6F8BC0013
:105100000FF0E4FD7BE7734948462EF0CFFA002804
:1051100037D1052F40F3AB8006A96068FFF7EEF9A1
:1051200000287FF46CAF07A9A068FFF7E7F9002813
:105130007FF465AF08A9E068FFF7E0F900287FF485
:105140005EAF09A92069FFF7D9F900287FF457AFAE
:1051500010AD2946606902F03AF800287FF44FAF9D
:105160005D490291BDF824100091BDF820309DF8F2
:105170001C20039601950699D6F8BC000FF0ABFDF4
:105180003DE7564948462EF091FA10BB032F6EDDDD
:1051900008A96068FFF7B2F900287FF430AF09A9C9
:1051A000A068FFF7ABF900287FF429AF10A9E068E9
:1051B00002F00DF800287FF422AF494B0093BDF8B0
:1051C0002010019610AB099AD6F8BC000FF08DFDA7
:1051D00015E7444948462EF069FA0546002840F094
:1051E0009480DFF810A1DFF810B14FF001084745B7
:1051F00040F384801F2D00F2418154F828903A49F1
:1052000048462EF053FA60B918AB05F101091D4468
:10521000092305F8203C08F101085FFA88F84D469B
:10522000E5E7514648462EF041FA28B918AB05F19A
:1052300001091D440B23ECE7594648462EF036FA87
:1052400028B918AB05F101091D440823E1E72749F6
:1052500048462EF02BFA28B918AB05F101091D4478
:105260001223D6E7224948462EF020FA08B106203C
:10527000C5E608F101085FFA88F84745F7DD54F8FC
:105280002830059318462EF023FA0222013090FBB5
:10529000F2F9C5F120024A45C0F0F08010AB59196F
:1052A000059B1FFA89F21846FEF79EFB0028DEDBFD
:1052B000A944B0E739560300354D03007F5203007F
:1052C00086520300B3500300BD5003008852030010
:1052D00098520300A152030015620000CA56030051
:1052E00045620000A8520300B0520300CF520300F1
:1052F000DD520300B8520300C2520300EAB210A903
:10530000D6F8BC000FF0F9FC79E6674948462EF064
:10531000CDF98046002840F0B3801A22002109A868
:10532000FBF710F8DFF898B102256B1EDBB29F4245
:1053300040F39B80B8F11F0F00F3A08054F8239036
:105340005A4948462EF0B2F9A8B9AF428FDD9DF810
:105350003C3054F8250043F0010308A98DF83C3097
:10536000FFF7CCF800287FF44AAE089BADF8243054
:105370000235EDB2D9E74E4948462EF097F9A0B96B
:10538000AF427FF774AF9DF83C3054F8250043F0EE
:10539000020308A98DF83C30FFF7B0F800287FF42D
:1053A0002EAE089BADF82630E2E7594648462EF06F
:1053B0007DF9824608BBAF427FF759AF9DF83C307C
:1053C00054F8259043F0040348468DF83C302EF005
:1053D0007FF901304FEA5008B8F1100F4ED81FFA8C
:1053E00088F20DF129014846FEF7FEFA0028FFF683
:1053F0003EAF8DF82880D046BAE72E4948462EF0B9
:1054000055F9A0B9AF427FF732AF9DF83C3054F860
:10541000250043F0080308A98DF83C30FFF76EF82B
:1054200000287FF4ECAD089BADF83A30A0E72249A4
:1054300048462EF03BF900287FF419AFAF427FF7C2
:1054400016AF54F8259048462EF042F901304FEA45
:105450005008B8F1200F11D81FFA88F210A9484659
:10546000FEF7C2FA002883DA01E75FFA88F310AA90
:1054700009A9D6F8BC000FF045FCC0E50320BEE545
:105480000B4948462EF012F900287FF4F2AD35683A
:10549000D6F8BC002B685F680FF039FC074902465C
:1054A0002846B847E5E500BFE4520300B0520300C8
:1054B000B8520300CF520300DD5203001D4B03001E
:1054C000C2520300F7B505460C4689B90668D0F804
:1054D000BC0033685F6802F0C1F90C4902463046EF
:1054E000B847204601462846FEF7B6FA03B0F0BD9D
:1054F00001A91068FFF702F80028F3D1BDF80410E5
:10550000D5F8BC0002F0AFF9ECE700BF1D4B03007B
:105510002DE9F04702298AB007468946904644DDC6
:1055200001A9506801F053FE054698B902240DF117
:10553000140A4C45E6B213D0142C10D0694658F822
:105540002400FEF7DBFF20B9009B04F80A30013489
:10555000EFE7054629463846FEF77EFA14E0264670
:10556000D8F80040124912238DF814302046B31E9B
:105570008DF815302EF09AF848B9334605AA01A9DE
:10558000D7F8BC0002F06DFA0AB0BDE8F08709490F
:1055900020462EF08BF80028DCD1334605AA01A95D
:1055A000D7F8BC0002F062FAD4E70625D2E700BFC4
:1055B000AC520300D756030013B500220C4601A9D4
:1055C0002EF0D6F9019B20601B78002B14BF06201B
:1055D000002002B010BD0000F7B505460C46A1B989
:1055E0000668D0F8BC0033685F6801F0EDFC4FF44A
:1055F0007A720F49B0FBF2F23046B84720460146B6
:105600002846FEF729FA03B0F0BD01290ED101A901
:105610001068FFF7D1FF0028F1D1019BD5F8BC003D
:105620004FF47A71594301F0D4FCE8E70720E6E72C
:105630001D4B0300F7B505460C4681B90668D0F846
:10564000BC0033685F6802F0FFF80B490246304641
:10565000B84721462846FEF7FFF903B0F0BD01A97F
:105660001068FFF7A9FF04460028F2D10199D5F888
:10567000BC0002F0EEF8ECE7AF51030010B50029D2
:1056800086B0044614DD6946106801F0A0FD68B9D3
:1056900040238DF810309DF81130D4F8BC0043F051
:1056A000030369468DF8113001F05AFD06B010BDB4
:1056B0000620FBE700291FB504460BDD694610688C
:1056C00001F085FD20B96946D4F8BC0001F04DFD1C
:1056D00004B010BD0620FBE7F0B5054687B01646BE
:1056E0000C46002933D1D0F8BC00254E01F033FD23
:1056F00004463CB900200146284607B0BDE8F0400A
:10570000FEF7AAB9E189286863882288076849BA40
:1057100089B20591A18949BA89B20491618949BACE
:1057200089B20391218949BA89B20291E18849BAC3
:1057300089B20191A18849BA89B200915BBA52BA83
:105740007F689BB292B23146B8476469D1E7176867
:105750000C4938462DF0AAFF28B9321D611E284693
:10576000FFF78CFFC7E7084938462DF09FFF002858
:10577000C0D1321D611E2846FFF79CFFBBE700BF6A
:10578000C94B0300B3500300E34B030000291FB5CE
:1057900004460BDD6946106801F019FD20B9694621
:1057A000D4F8BC0001F0EBFC04B010BD0620FBE710
:1057B00000291FB504460BDD6946106801F007FD9E
:1057C00020B96946D4F8BC0001F0DEFC04B010BD7D
:1057D0000620FBE770B505460E4681B9D0F8BC003F
:1057E00001F0D7FC0446286803685B6824B10F49C0
:1057F00098473446204670BD0D499847FAE7166829
:105800000C4930462DF052FF044628B90121D5F845
:10581000BC0001F0C3FCEDE7074930462DF046FF20
:10582000044608B90146F2E70624E3E753520300B1
:105830005D520300445203004B520300F0B505468D
:1058400087B016460C46002933D1D0F8BC002A4E4A
:1058500001F090FC04463CB900200146284607B000
:10586000BDE8F040FEF7F8B8E1892868638822882F
:10587000076849BA89B20591A18949BA89B20491E8
:10588000618949BA89B20391218949BA89B20291E1
:10589000E18849BA89B20191A18849BA89B20091D7
:1058A0005BBA52BA7F689BB292B23146B84724695C
:1058B000D1E71768114938462DF0F8FE28B9321D96
:1058C000611E2846FFF762FFC7E70D4938462DF0F5
:1058D000EDFE28B9321D611E2846FFF769FFBCE7BF
:1058E000084938462DF0E2FE0028B5D1321D611E70
:1058F0002846FFF76FFFB0E7C94B0300B350030022
:10590000E34B03005D5303002DE9F0471F4688B0C9
:10591000002307933B78812B05460E4614465DD144
:10592000D0F80080D8F800300846D3F8049002F090
:1059300024FA8246304602F050FA2A49AAEB0002C5
:105940004046C847E18B2868638AD0F800E0228A85
:1059500049BA89B20591A18B49BA89B20491618B88
:1059600049BA89B20391218B49BA89B20291E18A7D
:1059700049BA89B20191A18A49BA89B200915BBA48
:1059800052BADEF8048018499BB292B2C047286828
:10599000FA88036815495F6894F8253052BA92B2C4
:1059A000B847304602F019FA07AB014604223046E8
:1059B00002F05CFA03280CDD2C6823685E681BF09B
:1059C0000DFD07460798FDF7C9FF09493A1A204619
:1059D000B0472868074903685B68984708B0BDE886
:1059E000F08700BFDC500300EB50030003510300BD
:1059F00019510300CD490300FFF786BF37B50446B0
:105A00001BF0ECFCFDF7AAFF01210190D4F8BC00CB
:105A100001F0CDFB0546A8B104220DEB020101F017
:105A2000A7FDE8B9218E284601F09EFDC0B90123EB
:105A3000221D2946D4F8BC0001F0D5FA80B9638E46
:105A4000013B6386638E4BB1656B1BF0C7FCA5649D
:105A5000606404F13801A06B02F0B9FE03B030BD00
:105A6000284601F07FFDEDE72DE9F3410F1E0446C6
:105A7000164642DD00F13801806B02F02DFE014632
:105A8000002834D12C22201DFAF75CFC316804F187
:105A9000140007F0C1F958BB0823012523864FF4F1
:105AA0007A7384F82850658663639846AF4218DDA0
:105AB00001A956F82500FEF721FDC8B9022D08D02E
:105AC000032D09D0012D18D1019B23860135EDB29C
:105AD000ECE7019B6386F9E7019B08FB03F3636333
