:1000000000000420653100008D3100008F310000B8
:100010009131000093310000953100000000000094
:100020000000000000000000000000009731000008
:1000300099310000000000009B3100009D3100005C
:100040009117000061320100352701009F31000047
:100050009F3100009F310000D11B00009F31000044
:100060009F3100009F3100009F3100009F31000050
:100070009F310000712501009F3100009F31000079
:100080009F310000590C00009F3100009F3100009B
:10009000F90C00009F3100009F3100009F310000EB
:1000A0009F3100009F3100009F3100009F31000010
:1000B0009F3100009F3100000000000000000000A0
:1000C0009F3100009F3100009F3100009F310000F0
:1000D000811F01009F3100009F3100009F3100000F
:1000E0009F3100009F3100009F3100009F310000D0
:1000F000000000009F310000000000000000000030
:1001000000000000000000000000000000000000EF
:1001100000000000000000000000000000000000DF
:1001200000000000000000000000000000000000CF
:1001300000000000000000000000000000000000BF
:1001400000000000000000000000000000000000AF
:10015000000000000000000000000000000000009F
:10016000000000000000000000000000000000008F
:10017000000000000000000000000000000000007F
:10018000000000000000000000000000000000006F
:10019000000000000000000000000000000000005F
:1001A000000000000000000000000000000000004F
:1001B000000000000000000000000000000000003F
:1001C000000000000000000000000000000000002F
:1001D000000000000000000000000000000000001F
:1001E000000000000000000000000000000000000F
:1001F00000000000000000000000000000000000FF
:1002000010B5054C237833B9044B13B10448AFF350
:1002100000800123237010BD600900200000000051
:10022000DCBF0200084B10B51BB108480849AFF30A
:1002300000800848036803B910BD074B002BFBD0B2
:10024000BDE81040184700BF00000000DCBF0200FE
:1002500064090020C000002000000000154B002BA6
:1002600008BF134B9D46A3F5803A00218B460F46ED
:100270001348144A121A00F065F80F4B002B00D0F7
:1002800098470E4B002B00D0984700200021040017
:100290000D000D48002802D00C48AFF3008000F09C
:1002A0002BF82000290002F02DFD00F011F800BF0E
:1002B0000000080000000420000000000000000012
:1002C0006009002028A500200000000000000000B8
:1002D00008B5074B044613B10021AFF30080054B6E
:1002E0001868836A03B19847204600F033F800BFCE
:1002F000000000005C45020070B50E4B0E4CE41A85
:10030000A41000251E46A54204D056F82530984773
:100310000135F8E724F014F9084C094BE41AA4104D
:1003200000251E46A54204D056F8253098470135D1
:10033000F8E770BDB8000020B8000020BC00002025
:10034000B800002002440346934202D003F8011B88
:10035000FAE77047FEE700BF2DE9F04F1546C7B03A
:100360001C46002900F01C81002B00F0EF800A23BE
:1003700001930023194606AE519B539A519F03EBFC
:10038000020B019B013B059320258C4601980CEB49
:10039000000304933133F318029306EB0C03002897
:1003A0005FD05A4202F00302824228BF024606286A
:1003B00000F2EC80019A06F80C50012A03F10101C9
:1003C00000F0E280022A5D7003F1020100F0DC809F
:1003D000032A9D7003F1030100F0D680042ADD702A
:1003E00003F1040100F0D080062A1D7103F105011C
:1003F00040F0D3805D71991D9646019890422ED0B1
:10040000C2EB0009A9F104008008013003900598AF
:10041000C2EB000A0398BAF1020F4FEA800812D922
:10042000624401284FF0203C06EB020A46F802C065
:1004300005D00228CAF804C001D0CAF808C0C845CF
:100440004144C6440BD001980D700EF10102904258
:1004500005D90EF1020E70454D7000D98D70019ACC
:100460001344534A0299D2F80080DDF84891DA1C0F
:10047000481C03F1330C0CE002F8035C02F8025C48
:1004800002F8015C0332624500F8015C00F10100F2
:1004900033D0A345F0D9A74295BFE11B509919F875
:1004A0000110095D02F8015C4FEA211E5FFA8EFA25
:1004B000BEF1090F01F00F0ED4BF0AF1300A0AF1A4
:1004C000370ABEF1090F02F803AC94BF0EF1300EEB
:1004D0000EF1370E08EB010A02F802EC9AF801E07F
:1004E00003321EF0970F08BF2E21624500F8011C51
:1004F00004F1010400F10100CBD1029804990D220E
:100500004FF00A0801F14309027480F8118083F862
:10051000305023464FF0000A4C46994606EB0A013C
:100520002246002002F0AAFC8244241A10B9B8F135
:10053000010801D0002CF1D1CB454C464FF0000C06
:100540003FF624AF204647B0BDE8F08F06AE0B68FB
:10055000184A30464FF4807123F06AF90028F1DB25
:100560000A2307460193284623F0B4F9C22828BF7E
:10057000C220804629460246F01922F0C7FD08EB4A
:10058000070300241946F7E6964636E7002A7FF46B
:1005900012AF19469646019832E74FF0050E2CE748
:1005A00013B1019106AEE7E60194274606AEDAE7FD
:1005B000B4000020604502002DE9F0419046C6B02D
:1005C0001F46C1B106AE0B68564A30464FF48071E3
:1005D00023F02EF900280ADB4C9B0546062B00F27F
:1005E0009F80DFE803F042525D6A798A14000020A0
:1005F00046B0BDE8F0814C9B062B00F28F80DFE80F
:1006000003F033424D5A697A0400002506AE07F123
:100610000C017A683B68D7F808C092C9701900923B
:10062000029103944246CDF804C00497C5F5807149
:1006300023F0FEF80446002CD9DB2C44B4F5807F6F
:10064000D5D80A27002506AE71192246002002F0EF
:1006500015FC0544241A08B9013F01D0002CF3D140
:10066000012046B0BDE8F0810025404623F032F974
:100670004319FF2B0446DED806AE414670192246C8
:1006800022F044FDD7E7002506AE701942463B68CC
:10069000C5F5807123F0CCF80446CCE7002506AE02
:1006A0007A683B68009270194246C5F5807123F064
:1006B000BFF80446BFE7002506AE7A68B9683B6814
:1006C0000092019170194246C5F5807123F0B0F88F
:1006D0000446B0E7002506AE7A68BC68F9683B6856
:1006E00000920194029170194246C5F5807123F081
:1006F0009FF804469FE7002506AE07F108017A68D7
:100700003B6892C970190092019102944246039786
:10071000C5F5807123F08CF804468CE7002490E73F
:1007200000248AE76045020070B5074C074D237826
:10073000064613B12B78834204D002F0DFFC01237C
:100740002E702370002070BD7D0900207C090020E0
:1007500000487047B9050000004870475903000081
:1007600038B50120FFF7E0FF044638B9FFF7F0FF86
:100770000546FFF7F1FF024B5D619861204638BDE9
:100780008009002010B5054C82B00A46002164693A
:1007900000910B46A04702B010BD00BF80090020A9
:1007A00030B585B004AB054C43F8042D01250A464D
:1007B000646900950021A04705B030BD8009002084
:1007C00030B5064C85B00225029203930A4664694F
:1007D0000095002102ABA04705B030BD8009002084
:1007E000084B1B5C1F2B8ABF074A4FF0A04203F047
:1007F0001F03D2F80405D84000F0010080F001008A
:10080000704700BF6845020000030050074B1B5CA7
:100810001F2B86BF03F01F0305494FF0A0410122A3
:1008200002FA03F3C1F80C35704700BF68450200B7
:1008300000030050064B1A5C1F2A86BF02F01F02FD
:1008400004494FF0A04101239340C1F80835704797
:1008500068450200000300504FF0A04310B44FF46D
:1008600080404FF400544FF400414FF48032C3F8FD
:100870000845C3F80805C3F80815C3F808255DF84E
:10088000044B70474FF0A04310B44FF480404FF436
:1008900000544FF400414FF48032C3F80C45C3F8C4
:1008A0000C05C3F80C15C3F80C255DF8044B704714
:1008B0000A4B195C1F298ABF09484FF0A04001F07C
:1008C0001F01D0F8043501228A4022EA03011340B7
:1008D000C0F80815C0F80C35704700BF6845020025
:1008E0000003005030B44FF0A04303224FF40055F2
:1008F0004FF480444FF400404FF48031C3F8342764
:10090000C3F83827C3F83C27C3F84027C3F8085575
:10091000C3F80845C3F80805C3F8081530BC70478C
:100920000B2809D00C2809D0182809D0192814BF81
:100930004FF0FF30032070470020704701207047C0
:10094000022070474B4B1978002900F091802DE967
:10095000F04F87B0DFF828C104910024012504E09E
:100960000134049BE4B29C4265D227B2DCF80060FB
:1009700016F83700A0F1200305FA03F93E4BC0F149
:10098000200ED3E9002325FA0EFE49EA0E0905FAE6
:1009900000F808EA020A09EA030B06EBC7015AEA63
:1009A0000B0E0591DCD03449CDF810C022EA0802C4
:1009B00023EA0903C1E9002301F0FAF816F83760C9
:1009C000DDF810C0A6F1200205FA02F201920199A9
:1009D000C6F120035FFA80FA25FA03F3A6F120029C
:1009E00019430AFA02F30393019105FA06F1009103
:1009F000C6F120070399214B2AFA07F739430391DF
:100A00000AFA06F1D3E900230291DDE90001104062
:100A1000194002460B46DDE902018B4208BF8242C3
:100A20004FF0000B0AD0134B1B7804930134049B46
:100A3000E4B29C4299D307B0BDE8F08F059A57689D
:100A400052780023A2F10102B2FA82F25209002F79
:100A5000E9D05B4506BF5245012100213046CDF863
:100A600014C0B847034BDDF814C01B78049377E734
:100A7000704700BFA4090020D0090020C809002049
:100A8000A00900202DE9F8430746204800F06CFD3E
:100A9000D0B91F4E0123A7F1200103FA01F5C7F1D8
:100AA0002002D6E9000123FA02F2154303FA07F403
:100AB00004EA000205EA0103134307D020EA040414
:100AC00021EA0505C6E90045BDE8F883384601F08E
:100AD0006FF8104FD7E9002398B144EA020845EABD
:100AE0000309D6E9002314431D43C7E90089C6E979
:100AF00000450949054809680022BDE8F84300F0AF
:100B0000DFBC22EA040823EA0509EAE7A809002075
:100B1000D0090020C80900209C090020F0B5042A53
:100B200083B0164602D8072003B0F0BD05460F4635
:100B300000F0DEFE002836D01D4BDFF88CC0DFF859
:100B40008CE01C481C491D60002200237C1E8CF890
:100B50000070CEF80060C0E90023C1E90023E4B2D0
:100B6000DFB10327002600E01C4623B205EBC302D9
:100B700015F833009378114A8DF8053001A98DF8E6
:100B800004708DF806608DF8076000F0BBFE631EF0
:100B90000028C9D1DBB2002CE6D1094A094800215E
:100BA00000F07CFCC0E700F05DFE0028C4D0BBE78D
:100BB000A0090020C8090020D0090020850A0000F3
:100BC000450900006C450200A40900209C09002092
:100BD00070B5084D2B785BB1074E002433680121B6
:100BE00013F8340000F068FF2B780134A342F5D8E5
:100BF000002070BDA4090020A009002000B585B028
:100C000000230390194644F2010001AAADF8043014
:100C1000029300F003F805B05DF804FB08B501206D
:100C20000949FFF7AFFD03200849FFF7ABFDBFF30C
:100C30004F8F0749074BCA6802F4E0621343CB6049
:100C4000BFF34F8F00BFFDE77045020080450200F3
:100C500000ED00E00400FA05F8B5204A204B00251D
:100C6000C2F84051C2F84451C2F84851C2F84C5140
:100C7000C2F80051C2F804511B6813B31949D2F8E5
:100C800004250C68141B1A6824F07F44A2422F46E6
:100C900009D8197CDE69A41A154499B91EB13346E6
:100CA0001A68A242F5D9104B10491A780B789A426B
:100CB0000DD00F490F4A41F823504FF48013C2F86A
:100CC0000031F8BD1F745A6998699047E6E7531CD4
:100CD000DBB2022B08BF00230B70EAE700100140D3
:100CE000DC090020D8090020E0090020E1090020EB
:100CF000F00A002000E100E02DE9F04F7D4A7E4936
:100D0000137809787D48994287B0066800F0E88139
:100D10000133DBB2022B08BF002379491370794AF3
:100D20000291084652F82310036874488A19002576
:100D300022F07F420260AE462846A3B11A688A427A
:100D400000F2D681DC68C3F800E0891A1044DA6941
:100D500034B1871927F07F47DD619C605F601D46D5
:100D60001346002BEAD1029A04931360049C0123DA
:100D70000593654BDFF894811B7801935F4BDFF897
:100D800090C1D3F800A0029B1F680023BB462F46EA
:100D90000093C1461E464FF0010E37B37A68B9681A
:100DA0003D46FF69CAEB020323F07F4363453CD80D
:100DB0000B442B606E60AE6085F810E0EE61002C95
:100DC00067D021688B4242D9204603E011689942DE
:100DD00044D21046C2695B1A002AF7D12B60EA613F
:100DE0002346C5611C46002FD8D198F8003098F8EA
:100DF00001209A4200F08E805A1C03EB430308EB5B
:100E0000C30399F802109D68D2B2914289F800207C
:100E10001A7908BF89F80070022A48D0032A3CD00A
:100E2000012A22D023461C46DDE7C2EB0A0222F04B
:100E30007F428A4202D28B1A2B60BBE72E606E6023
:100E4000AE6085F810E0EE611CB321680023CB1A78
:100E500023602B46EC61AB461C46C4E7C91A1160FF
:100E60002B60EA612346C561BCE72A7C0392002A15
:100E7000D8D1DA686A601969A9605869E8601033E6
:100E80009B68AB61019B002B8CD0039B6B601A4667
:100E900088E72B46AB461C46A5E70CB9C2E71C46C3
:100EA000E3692674002BFAD19B461C469BE754B19C
:100EB000A54200F00881234602E0954207D0134680
:100EC000DA69002AF9D123462E741C468BE7AB421F
:100ED00000F0FA80E9692868D9610029F3D0234637
:100EE0000A6802440A60009A2E749C4218BF0122CC
:100EF0000092EAE7E0090020E1090020D80900207B
:100F0000DC090020F00A0020E2090020E4090020AA
:100F1000FEFF7F00029B9DF80420C3F800B0764BD3
:100F2000C3F800A0754B1A70009B1BB9049BA34229
:100F300000F0D081002C00F03C81714D6E4BD5F853
:100F400004051B686F4ED4F800C03178C21A22F035
:100F50007F420332002952D16B4FDFF8B091DFF8A6
:100F6000B0814FF480314FF4003E0124C5F84413A2
:100F7000C5F80413C7F880E1C7F800E02C602F2102
:100F8000D9F8005000BF00BF00BF00BF00BF00BFC6
:100F900000BF00BF45452FD000BF00BF00BF00BF4E
:100FA00000BF00BF00BF00BF00BF00BF00BF00BF49
:100FB00000BF00BF00BF00BF00BF00BF00BF00BF39
:100FC00000BF00BF00BF00BF00BF00BF00BF00BF29
:100FD00000BF00BF00BF00BF00BF00BF00BF00BF19
:100FE00000BF00BF00BF00BF00BF00BF00BF00BF09
:100FF00000BF00BF00BF00BF0139C3D134706245DC
:101000002CBF9A1803EB0C023D4922F07F43C1F834
:101010004035D1F80425121A1B1A22F07F4223F022
:101020007F4303329A4248D9D1F80435374AC1F890
:101030004035126836492F2300BF00BF00BF00BFF4
:1010400000BF00BF00BF00BF8A422FD000BF00BF5B
:1010500000BF00BF00BF00BF00BF00BF00BF00BF98
:1010600000BF00BF00BF00BF00BF00BF00BF00BF88
:1010700000BF00BF00BF00BF00BF00BF00BF00BF78
:1010800000BF00BF00BF00BF00BF00BF00BF00BF68
:1010900000BF00BF00BF00BF00BF00BF00BF00BF58
:1010A00000BF00BF00BF00BF00BF00BF013BC3D1F6
:1010B000154B4FF40032C3F80021104A002313707F
:1010C00007B0BDE8F08F2246D4F81CB0BBF1000F8A
:1010D00022D0D16910685B4600297FF401AF02E796
:1010E0000C4B02931B680493002505951C4640E6B3
:1010F000521A1A6037E600BFD8090020E209002022
:1011000000100140F80A002000E100E06400002027
:101110000024F400DC0900207549764BC1F808E092
:1011200075492F20096800BF00BF00BF00BF00BF86
:1011300000BF00BF00BF99422FD000BF00BF00BF5B
:1011400000BF00BF00BF00BF00BF00BF00BF00BFA7
:1011500000BF00BF00BF00BF00BF00BF00BF00BF97
:1011600000BF00BF00BF00BF00BF00BF00BF00BF87
:1011700000BF00BF00BF00BF00BF00BF00BF00BF77
:1011800000BF00BF00BF00BF00BF00BF00BF00BF67
:1011900000BF00BF00BF00BF00BF0138C3D1D1698D
:1011A0001068002900F09B800122DA465B4601921C
:1011B00096E64F4A514B504E4E484FF480314FF413
:1011C00000370125C3F88070C2F848132F23C2F8F6
:1011D0000813556031681E4600BF00BF00BF00BF46
:1011E00000BF00BF00BF00BF81422FD000BF00BFC3
:1011F00000BF00BF00BF00BF00BF00BF00BF00BFF7
:1012000000BF00BF00BF00BF00BF00BF00BF00BFE6
:1012100000BF00BF00BF00BF00BF00BF00BF00BFD6
:1012200000BF00BF00BF00BF00BF00BF00BF00BFC6
:1012300000BF00BF00BF00BF00BF00BF00BF00BFB6
:1012400000BF00BF00BF00BF00BF00BF013EC3D151
:1012500095602B4A146000BF00BF00BF00BF00BFF5
:1012600000BF00BF00BF81422FD000BF00BF00BF42
:1012700000BF00BF00BF00BF00BF00BF00BF00BF76
:1012800000BF00BF00BF00BF00BF00BF00BF00BF66
:1012900000BF00BF00BF00BF00BF00BF00BF00BF56
:1012A00000BF00BF00BF00BF00BF00BF00BF00BF46
:1012B00000BF00BF00BF00BF00BF00BF00BF00BF36
:1012C00000BF00BF00BF00BF00BF013BC3D10D4B3B
:1012D0001C70F2E6059B002B3FF4EFAE2AE60123DB
:1012E0001A4601938A468B460B4600922E74ECE513
:1012F000001001400024F4006400002000E100E040
:10130000D8090020F80A00202DE9F041594B5A4A2B
:101310005A4D5B4E4FF480344FF400310120C2F837
:101320008010C3F848432F21C3F8084358602D6844
:101330000C4600BF00BF00BF00BF00BF00BF00BF22
:1013400000BFB5422FD000BF00BF00BF00BF00BF2D
:1013500000BF00BF00BF00BF00BF00BF00BF00BF95
:1013600000BF00BF00BF00BF00BF00BF00BF00BF85
:1013700000BF00BF00BF00BF00BF00BF00BF00BF75
:1013800000BF00BF00BF00BF00BF00BF00BF00BF65
:1013900000BF00BF00BF00BF00BF00BF00BF00BF55
:1013A00000BF00BF00BF013CC3D1364C9860002095
:1013B000206000BF00BF00BF00BF00BF00BF00BF74
:1013C00000BFB5422FD000BF00BF00BF00BF00BFAD
:1013D00000BF00BF00BF00BF00BF00BF00BF00BF15
:1013E00000BF00BF00BF00BF00BF00BF00BF00BF05
:1013F00000BF00BF00BF00BF00BF00BF00BF00BFF5
:1014000000BF00BF00BF00BF00BF00BF00BF00BFE4
:1014100000BF00BF00BF00BF00BF00BF00BF00BFD4
:1014200000BF00BF00BF0139C3D1174D1749DFF816
:101430006080DFF860C0DFF860E028704FF480164D
:10144000E0250B27C8F800008CF800008EF800009B
:10145000087048708F70C2F8806182F8145316606B
:10146000C3F8080582F81153D3F804352360BDE8AA
:10147000F08100BF0010014000E100E064000020A6
:101480000024F400D8090020F80A0020E409002014
:10149000DC090020E0090020E1090020074B9B78CF
:1014A0000BB9082070473AB130B10368187C0028A6
:1014B000F7D159745A61704707207047E40900203A
:1014C0002DE9F041254CA37813B90820BDE8F0813F
:1014D0000028FAD0042902D80720BDE8F08143692A
:1014E000002BF2D0437C0546012B4FF000000CBFCF
:1014F0008846804617460E4600F06CF86378A07860
:1015000021785A1CD2B2904208BF002291421ED0CC
:1015100003EB430304EBC30319464FF0010E41F8FC
:10152000085F0F4883F804E0D0F8040548608E6037
:101530000020C3F814809F61627000F053F8094BDB
:101540004FF48012C3F800210020BDE8F081002094
:1015500000F048F80420BDE8F08100BFE409002055
:101560000010014000E100E070B5184CA3780BB901
:10157000082070BD0028FBD04369002BF8D000255F
:1015800005740646284600F025F86278A078217890
:10159000531CDBB2984208BF2B46994211D002EB94
:1015A000420204EBC2020221284696601171637068
:1015B00000F018F8064B4FF48012C3F800212846BB
:1015C00070BD284600F00EF8042070BDE40900202C
:1015D00000E100E072B6024A1368013313607047FD
:1015E000FC0A0020034A1368013B136003B962B68A
:1015F000704700BFFC0A002010B50C4C23780BB1DB
:10160000852010BD0A4A6360E3601068A36010F093
:101610000100236102D1072100F0FCF84FF0804265
:101620000123C2F818352370002010BD000B0020E4
:1016300000E100E030B51B4DAB78044683B003F009
:10164000FF0073B114B16368012098470020FFF7D1
:10165000C1FFEB6800200133EB60FFF7C3FF03B06D
:1016600030BDFFF7B7FF64B12A6942B1944208D098
:10167000134601E09C4204D01B68002BFAD1226083
:101680002C61EB68002BE4D1074A0849136013680A
:1016900001934FF0804202200123019CC2F8040311
:1016A0000B60D6E7000B002004010040080000405A
:1016B0004FF08043D3F81804C0F30040704700BFD8
:1016C00030B51A4D6B78044683B003F0FF0073B158
:1016D00014B16368002098470020FFF77BFF6B6818
:1016E000002001336B60FFF77DFF03B030BDFFF7D3
:1016F00071FF64B1AA6842B1944208D0134601E078
:101700009C4204D01B68002BFAD12260AC606B684D
:10171000002BE4D1064A1360136801934FF0804315
:1017200001220199C3F804231A60D8E7000B0020B6
:101730000001004008B50020FFF74CFF0C494B6842
:10174000013B4B604B686BB90A4B01221A604FF0AA
:101750008042D2F80C3403F00113B3F1011FF8D02A
:1017600000234B700020BDE80840FFF73BBF00BFDF
:10177000000B0020040000404FF08043D3F80C041D
:1017800000F00110A0F10110B0FA80F0400970479C
:1017900010B51D4B1A6882B0F2B91C4B1A680AB911
:1017A00002B010BD00221A601B6801934FF0804305
:1017B0000222174C0199C3F8082323690122A27061
:1017C000002BEDD01A6822615B68012098472369DD
:1017D000002BF7D102B010BD00221A601B680093E5
:1017E0004FF0804301220A4C0099C3F80823A368F4
:1017F0006270002BD1D01A68A2605B680020984705
:10180000A368002BF7D1C8E70001004004010040A5
:10181000000B0020002810B418DB00F1604303F532
:1018200061434901C9B283F80013C3B24009800083
:1018300000F1604000F5614003F01F020123934076
:10184000C0F8803103605DF8044B7047C3B2044AAE
:1018500003F00F0449012244C9B21176E6E700BF44
:10186000FCEC00E030B51F4C94F8645083B015B127
:10187000082003B030BD4FF0FF33FF2206200721C0
:1018800023636363A363E36323646364A364E36424
:1018900023656365A365E36523606360A360E3601C
:1018A00023616361A361E361236284F86030636252
:1018B000A36284F86230E36284F8633084F86120C4
:1018C000FFF7A8FF084B094A1D601B6801930198A8
:1018D0004FF000430121284684F86410C2F8043315
:1018E00003B030BD140B00207C610040006000405C
:1018F000034B93F86400003018BF0120704700BF0D
:10190000140B0020F0B56A4C251895F93030002BE7
:1019100001DB0820F0BD91F803E09446BEF1000F12
:1019200056D02368013300F0BB80082600256B1CCD
:101930005F4F54F82320013251D0AB1C9E4245D951
:1019400057F8232001324AD0EB1C9E423ED957F86B
:101950002320013243D02B1D9E4237D957F8232034
:1019600001323CD06B1D9E4230D957F823700137AD
:1019700035D0AB1D9E4229D954F823204C4F01325B
:101980002DD0EB1D9E4221D957F82320013226D0BD
:1019900005F108039E4219D957F8232001321ED0C1
:1019A00005F109039E4211D957F82320013216D0C0
:1019B00005F10A039E4209D957F8237001370ED06A
:1019C0000B35AE4202D9E36A013307D00420F0BDE3
:1019D000236A01335CD00C260825A8E70B232618C0
:1019E000DDB244F823C0324686F83050BEF1000F15
:1019F00002D1234483F858008B78DBB91F284A783A
:101A000087BF2C4E00F01F0303464FF0A04603F59E
:101A1000E073920046F82320CB78E3B96AB2083A23
:101A20001444097894F8602042EA811284F8602016
:101A30001846F0BD1F2887BF1E4B00F01F0202464C
:101A40004FF0A04303EB8203D3F8002722F00202F9
:101A5000C3F80027E0E76BB29B0003F1804303F576
:101A6000C0430A78D3F8101521F44F3121F44071A6
:101A7000C3F810151204000202F44031D3F81045E7
:101A800000F47C520A432243C3F810250020F0BD25
:101A9000082685F830603346C4F820C03546A8E7EC
:101AA000002385F83030C4F800C01D46A4E700BF0D
:101AB000140B002000030050F0B43A4D2E1882B0F1
:101AC00096F8302053B2072B20DD2B4493F8583082
:101AD0009B09032B44D0012B0CBF4FF400324FF471
:101AE00040321F2849D900F01F002F4B03EB800024
:101AF000D0F8003723F44033C0F80037D0F800376F
:101B00001A43C0F8002702B0F0BC7047072AFAD881
:101B1000980000F1804000F5C04003F140029200BF
:101B2000D0F8104592B202F18042002744F001043F
:101B300002F5C042C0F810450197019817600029CE
:101B4000E1D096F9302055F82220002ADBD001227E
:101B5000164902FA03F3C1F8043302B0F0BC70472F
:101B60001F280DD9104BD3F8103500F01F00C340CB
:101B7000DB0713D54FF44032B7E74FF0A043B5E78A
:101B80004FF0A0421346D2F81025C24012F0010FC8
:101B90000CBF4FF400324FF44032A7E74FF400324D
:101BA000A3E700BF140B00200003005000600040BA
:101BB0001F288ABF054B4FF0A04300F01F00D3F849
:101BC000103523FA00F000F00100704700030050C8
:101BD0002DE9F04F89B00025B24B029503951A68A4
:101BE000012A00F05081B04B1A68012A00F03D81B3
:101BF000AE4B1A68012A00F02A81AD4B1A68012AFF
:101C000000F01781AB4B1A68012A00F00481AA4B3F
:101C10001A68012A00F0F180A84B1A68012A00F026
:101C2000DE80A74B1A68012A00F0CB80A54B1A680A
:101C3000012A00F0B58015F0FF0F1AD0A24F01263F
:101C40000024A30003F180432E4203F5C0434FEA72
:101C500046060BD0D3F8100557F82420D3F81015FA
:101C6000C0F30520C1F3014102B190470134082CB3
:101C7000E7D1002D02DB09B0BDE8F08F934F0022C1
:101C80004FF0FF33A7F1630904920592069307937F
:101C90008F4C4FF0000A4FF0010814F8013FFF2B62
:101CA00030D0DBB223F0C00008AAC608951903F0B3
:101CB000070215F8081C08FA02F2114222D009EBBB
:101CC000000E99099EF930E059F82EC0BCF1000FC2
:101CD00056D0032956D01F288ABF03F01F06064698
:101CE000DFF8F0E115F818BC98BF4FF0A04E06F5EC
:101CF000E0761BEA020F5EF82650C5F301451AD1C3
:101D0000032D48D0BC42C8D1BAF1000FB3D04FF078
:101D1000A0430299D3F810356E4A9942D2F81025A3
:101D200002D103999142A6D0049805990293039297
:101D300006900791ACE7022DE4D1032904D0BCF151
:101D4000000FDFD0E047DDE74FF440321F288BBFA4
:101D5000604D4FF0A04503F01F03034605EB8303DE
:101D60000AF1010AD3F8005725F44035C3F80057AB
:101D7000D3F800572A435FFA8AFAC3F80027DEE750
:101D80000329BFD10DF1100B1BF806E04EEA020E3D
:101D90000BF806E09FE70329D1D14FF40032D5E7D5
:101DA00000221A601B6801934FF0A042019BD2F8F9
:101DB0001025484B0292D3F81035039345F00045A7
:101DC00039E7454AD2F8042312067FF52FAF0022E7
:101DD0001A601B680093009B45F0800526E73E4A89
:101DE000D2F8042351067FF51CAF00221A601B684D
:101DF0000093009B45F0400513E7374AD2F80423CF
:101E000090067FF509AF00221A601B680093009BC3
:101E100045F0200500E7304AD2F80423D4067FF5C8
:101E2000F6AE00221A601B680093009B45F0100577
:101E3000EDE6294AD2F8042316077FF5E3AE002227
:101E40001A601B680093009B45F00805DAE6224AF9
:101E5000D2F8042357077FF5D0AE00221A601B6822
:101E60000093009B45F00405C7E61B4AD2F8042303
:101E700092077FF5BDAE00221A601B680093009B9D
:101E800045F00205B4E61449D1F8041311F001013C
:101E900005D01D601B680093009B1546A3E60D4608
:101EA000A1E600BF006100400461004008610040FD
:101EB0000C61004010610040146100401861004056
:101EC0001C6100407C610040140B0020770B002057
:101ED000730B002000030050006000400220FEF75A
:101EE000E7BC00BF2DE9F0470D460646FEF718FD9A
:101EF000032804461DD8012D1FD00ED3022D1AD160
:101F00001C4B00EB40041C44657895B11A4B1B68D0
:101F10007BB12846BDE8F04718471848FFF724FB77
:101F20001449174A04EB44030B44155D9B789D420A
:101F3000EBD0BDE8F087BDE8F087DFF838804700D8
:101F40003B1808EB030218F8035053782BB92744C9
:101F500047440B4BBA781A55D7E7DFF82890074863
:101F60004A464FF40041FFF7ABFA0028EFD189F859
:101F70000060ECE7F80B0020AC0B0020B00B002059
:101F8000A40B0020F40B002010B50078FEF7C8FC6D
:101F900003280BD8064B00EB40001844407828B1CA
:101FA000044B1B6813B1BDE81040184710BD00BFBB
:101FB000F80B0020AC0B0020B34B1B68DB0700D4F0
:101FC000704770B5B14EB24D33782C78FBB9172CF1
:101FD0001CD8DFE814F0F10014011401630076004E
:101FE000830096005D0039002C0039002C00A3000E
:101FF000A800A800A800A800A800CE00DE000101EB
:10200000460018001800FEF73DFC2C7070BDA14B77
:102010001B7800203070002B00F00581FEF70AFCD1
:102020000120FEF707FC0320FEF704FCCFE70123A5
:1020300018463370FEF73CFC97484FF4804100226D
:10204000BDE87040FFF73CBA012318463370FEF735
:102050002FFC914840F6CD410022BDE87040FFF7CB
:102060002FBA8C4B1B78002B00F0FE800020FEF76F
:10207000E1FB0120FEF7DEFB0320FEF7DBFB002087
:10208000FEF7C4FB0120FEF7C1FB15232B7070BDCA
:102090000020FEF7BBFB07232B7070BD0020FEF76E
:1020A0009FFB002800F0D3800020FEF7C3FB46F220
:1020B000666103232B7078480022BDE87040FFF76B
:1020C000FFB90020FEF78CFB002800F0C58000203F
:1020D000FEF7B0FB4FF400310423EBE70020FEF7DE
:1020E0007FFB002800F0BD800020FEF7A3FB052346
:1020F0002B70694841F69A110022BDE87040FFF745
:10210000DFB90020FEF7D4FB06232B70624840F6AF
:10211000CD410022BDE87040FFF7D2B9FEF7B2FB17
:102120000C232B7070BD5D48FFF71EFAD4F111042B
:1021300005467BD0002879D1012C13D0C82303FB9E
:1021400004F44FF4FA704FF400430021C3FB040180
:102150004FF47A72002320F0C5FC2A4601464F480E
:10216000FFF7AEF90220FEF751FB4A4B01221A702D
:1021700070BD484B1B78002B79D00020FEF75AFB2E
:102180000120FEF757FB0320FEF754FB12232B70B0
:1021900070BD404B1B78002B6FD00020FEF74AFB30
:1021A0000120FEF747FB0320FEF744FB0020FEF76B
:1021B0002DFB13232B7070BD364B1B78002B59D091
:1021C0000020FEF737FB0120FEF734FB0320FEF76B
:1021D00031FB00232B7070BD2E4B1B78002B4FD092
:1021E0000020FEF727FB0120FEF724FB0320FEF76B
:1021F00021FB0120FEF70AFB14232B7070BD002089
:10220000FEF7EEFAC8B10020FEF714FB022C4EF2E6
:10221000666118BF4FF400312C701F480022BDE8E2
:102220007040FFF74DB9FEF717FBD0E60220FEF72E
:1022300001FB184B00221A7070BDFEF7E7FA41F659
:102240009A1343F23331022C08BF1946E4E7FEF734
:10225000DDFA41F69A112CE7FEF7D8FA43F2333152
:102260003AE7FEF7D3FA42E7FEF7F6FA07E7FEF79A
:10227000F3FA8BE7FEF7F0FAABE7FEF7EDFA95E736
:10228000FEF7EAFAB5E700BFA00B0020A80B00207C
:10229000D00B00209C0B00207C0B0020D40B0020D6
:1022A00038B5C44B1B6813F0010401D1204638BD7A
:1022B000C14C23780546E3B9172D00F27881DFE899
:1022C00015F00B013101310169007D009100A5007D
:1022D0005B003500280035002800B300BA00BA00C2
:1022E000BA00BA00BA00E300F6001C014200630025
:1022F0006300B24B1B7800202070002B00F0278178
:10230000FEF798FA0120FEF795FA0320FEF792FAFD
:10231000D2E7012318462370FEF7CAFAA8484FF403
:1023200080410022BDE83840FFF7CAB801231846B3
:102330002370FEF7BDFAA24840F6CD410022BDE869
:102340003840FFF7BDB89D4B1B78002B00F0208173
:102350000020FEF76FFA0120FEF76CFA0320FEF76B
:1023600069FA0020FEF752FA0120FEF74FFA954B6A
:1023700015221A70002499E70020FEF747FA914BC6
:1023800007221A70002491E7FEF77CFA8D4B002497
:102390001D708BE70020FEF723FA002800F0E18093
:1023A0000020FEF747FA46F26661864B8448032414
:1023B0001C700022BDE83840FFF782B80020FEF70D
:1023C0000FFA002800F0DC800020FEF733FA4FF40B
:1023D00000317C4B7A4804241C700022BDE8384050
:1023E000FFF76EB80020FEF7FBF9002800F0CD8063
:1023F0000020FEF71FFA734B714805241C7041F64C
:102400009A110022BDE83840FFF75AB80020FEF7C5
:102410004FFA6C4B6A4806241C7040F6CD410022EE
:10242000BDE83840FFF74CB8FEF72CFA654B0C229C
:102430001A7000243AE76448FFF796F8D5F11105C1
:10244000044600F08780002840F08480012D14D0DD
:10245000C82303FB05F54FF4FA704FF40043002145
:10246000C3FB05014FF47A72002320F03BFB2246A8
:1024700001465548FFF724F804460220FEF7C6F946
:102480004E4B01221A7011E74C4B1B78002B00F0C9
:1024900082800020FEF7CEF90120FEF7CBF9032061
:1024A000FEF7C8F9474B12221A700024FEE6434B90
:1024B0001B78002B75D00020FEF7BCF90120FEF739
:1024C000B9F90320FEF7B6F90020FEF79FF93D4B5E
:1024D00013221A700024E9E6384B1B78002B5DD0DC
:1024E0000020FEF7A7F90120FEF7A4F90320FEF76C
:1024F000A1F9344B00241C70D8E6304B1B78002B1C
:1025000052D00020FEF796F90120FEF793F9032040
:10251000FEF790F90120FEF779F92A4B14221A7080
:102520000024C3E60020FEF75BF9F8B10020FEF7B7
:1025300081F9022D4EF2666118BF4FF40031214B34
:102540001F481D700022BDE83840FEF7B9BFFEF7F6
:1025500083F9B1E60220FEF76DF9184B00221A70DC
:10256000A4E6FEF753F941F69A111EE7FEF74EF97D
:1025700041F69A1343F23331022D08BF1946DEE7C4
:10258000FEF744F943F2333123E7FEF73FF932E730
:10259000FEF762F9E5E6FEF75FF983E7FEF75CF91F
:1025A000A7E7FEF759F98FE7FEF756F9B2E70024DF
:1025B0007CE600BFA00B0020A80B00209C0B002095
:1025C0007C0B0020D00B0020D40B0020F0B5214A5A
:1025D000214B1060044610F0020083B0196015D042
:1025E0001E4B1F484FF00E0E0F27102611250421F9
:1025F00040F2666283F800E0DF709E715D72FEF764
:102600008DFAA0B1E3071DD403B0F0BDE20719D4E1
:102610001448154A0021FEF741FF0028F4D1134861
:10262000134A012103B0BDE8F040FEF737BFFEF7C3
:10263000CFFA0028E6D101460E4A0F48FEF72EFFDA
:10264000E10703D50190FEF74DF901980028DFD08E
:1026500003B0F0BDA00B0020AC0B0020F80B002055
:10266000A4450200A0450200B91F0000C4450200B5
:10267000DD1E0000891F00009C450200020700D4F7
:10268000704708B5084600F093FF0E4A052812D897
:10269000DFE800F00A0A110303030723137018464A
:1026A000BDE80840FFF7FCBD002313701846BDE8E5
:1026B0000840FFF7F5BD062313701846BDE8084033
:1026C000FFF7EEBD120C002008B51C4B1B78032B46
:1026D00027D8DFE803F0211207020120BDE80840F7
:1026E000FEF794B80120FEF7E3F8154840F6CD4117
:1026F0000022BDE80840FEF7E3BE0120FEF770F8B7
:1027000080B90120FEF782F841F69A110C480022A8
:10271000BDE80840FEF7D4BE0120BDE80840FEF742
:1027200089B808BD0120FEF785F846F266610448C5
:102730000022BDE80840FEF7C3BE00BF110C002018
:10274000340C002008B51B78802B00D008BD0D4B41
:10275000072201201A70FEF743F868B10020FEF747
:1027600069F80120FEF766F8074841F69A11002241
:10277000BDE80840FEF7A4BEFEF748F80120FEF7CA
:1027800045F8F1E7100C0020140C002008B52C4A85
:102790001378013BDBB2137083B10120FEF720F800
:1027A000A0B9FEF733F80120FEF730F8254841F6CE
:1027B0009A110022BDE80840FEF782BE224B1B782A
:1027C000032B0DD8DFE803F0121B2B090020FEF7C6
:1027D00031F80120FEF72EF8E8E70120FEF716F8A1
:1027E0001A4B1878BDE80840FFF75ABD0120FEF7E4
:1027F00021F8164B1878BDE80840FFF751BD0120BD
:10280000FDF7EEFFA8B10120FEF714F846F266616D
:102810000F480022FEF754FE0028E1D008BD012039
:10282000FEF746F840F6CD4100220948FEF748FE83
:10283000F2E70120FDF7EAFF41F69A11E8E700BF51
:10284000100C0020140C0020110C0020120C002091
:10285000340C0020F8B51A4E1A4B1B4F00242146A9
:102860000C22054630461C703C70FDF76BFD21467E
:10287000164B1748174A3360FEF710FE044660B146
:10288000284615492A4600F0D7FD98B928460C4934
:1028900000F05AFD40B92046F8BD01460F4A1048E5
:1028A000FEF7FCFD0446EBE70E480F4A0F4BE7210D
:1028B00020F0EEFB0B480C4A0D4BE62120F0E8FB24
:1028C000040C0020110C0020120C002045270000F1
:1028D000C8450200C92600007D2600008D270000A3
:1028E000CC450200D0450200C446020078460200F2
:1028F00018460200020770B504460D4612D4E306DE
:1029000005D50F48002282604260C26002612846FD
:1029100000F04EFE224603460A490320BDE87040FF
:10292000FDF74EBF084600F043FE03380228E6D903
:10293000034900228A604A60CA600A61DFE700BF7B
:10294000540C0020F846020038B50D4C9DF810508C
:10295000206842F2107100F0C3FD55B12A460320F1
:102960000849FDF71DFF0022A2606260E26022615B
:1029700038BD03200449BDE83840FDF703BF00BF60
:10298000540C00205C4702003047020070B582B052
:10299000164E9DF81840306842F21071154600F04E
:1029A0009FFD6CB9284600F0A2FD0DF1070201461B
:1029B0000123284600F09FFD012808D002B070BD19
:1029C000224603200A49FDF7EBFE02B070BD9DF8D8
:1029D0000730012BF2D1284600F089FD411C89B255
:1029E0002846321D102300F086FDE7E7540C002036
:1029F00084470200704700BF30B5B5B003220446DB
:102A00008DF80F1010A800210AF07BFB10A80221FE
:102A10000AF079FB1F4910A80AF077FB10A80AF00A
:102A200076FB204610A90AF074FB60B30DF10F018C
:102A30000122054600F05DFD48B10246164903201B
:102A4000FDF7AEFE284600F050FD35B030BD014622
:102A50002C2205A8FDF776FC012241F233630F49D1
:102A60008DF8382009A81022ADF8363020F04EFB42
:102A700005AA009420462946094B0AF04FFB00287E
:102A8000DBD135B030BD03200649FDF77BFE35B004
:102A900030BD00BFA4470200E0470200580C0020F0
:102AA00049290000AC47020070B5B4B003220546C6
:102AB0008DF80F1010A810210AF023FB1F4910A851
:102AC0000AF023FB10A80AF022FB284610A90AF0FE
:102AD00020FB68B30DF10F010122064600F009FD4D
:102AE000044648B1224616490320FDF759FE3046F8
:102AF00000F0FBFC34B070BD21462C2205A8FDF788
:102B000021FC012241F2336309A90E488DF83820D7
:102B1000ADF8363000F0C3FC0094234605AA2846E1
:102B200031460AF0FBFA04460028DBD134B070BD10
:102B300003200549FDF726FE34B070BDA44702000E
:102B4000E047020008480200AC47020070B50E38AA
:102B5000B2B0032838D8DFE800F0645839023F4C9F
:102B600001220EA8102125680AF0CBFA0EA8022136
:102B70000AF0C9FA3A490EA80AF0C7FA28460EA97F
:102B80000AF0C7FA0646D0B100212C2203A8FDF7AF
:102B9000D9FB012241F2336307A932488DF8302076
:102BA000ADF82E3000F07BFC03AA00952846314694
:102BB0002D4B0AF0B3FA10B1304600F096FC2068B5
:102BC0004FF4FA7100F08CFC32B070BD234C2068D9
:102BD00000F0A7FC014611F001004FF0A0424FF4B5
:102BE000004333D1C2F80C350123C2F8080563F362
:102BF0000001206800F0C0FC0028E5D01B481C4AFA
:102C00001C4B40F2531120F043FA144B197D186805
:102C100081F001011975A9B10121FFF745FF32B01B
:102C200070BD0E4C1449201D00F037FC0028CBD19C
:102C300020680221FFF7E0FE20684FF4FA7100F0EF
:102C40004FFCC1E7FFF730FF32B070BD0020C2F883
:102C500008350346C2F80C05C9E700BF540C002034
:102C600064480200084802008D2900001048020054
:102C7000E446020020480200D446020008B5FEF7F0
:102C800043FB00B908BDBDE80840FDF7B7BF00BF72
:102C900030B400234FF4F0304FF0A045032403E09C
:102CA000D20748BF45F821400133202B40FA03F2F8
:102CB00003F5E071F4D14FF0A0434FF4F03100225E
:102CC000C3F80815C3F80C2530BC704708B50320BD
:102CD0000849FFF77BFC48B9074B1868FFF7BAFDB6
:102CE00000B908BDBDE80840FDF788BFFDF786FFC5
:102CF000F2E700BF4D2B0000540C0020704700BFCE
:102D0000704700BF00B5054683B00C460020FDF7B4
:102D100027FD284621460FF0CAF900F07BFB054647
:102D200000285FD000F054FC474902460320FDF71D
:102D300037FD284600F037FC444902460320FDF7E2
:102D40002FFD284642492A4600F076FB044600281B
:102D500072D1214601A80122FDF7F4FA9DF8043052
:102D600064F30003DBB243F00203194628468DF8F2
:102D7000043000F001FC002857D1284642F21071BF
:102D800000F0AEFB2846282100F0C6FB28460B21A8
:102D900000F08AFB002841D128464AF6CD3100F0E8
:102DA00088FB002833D12846012100F064FB38BBA2
:102DB0002846012100F010FCD8B9264C2560FFF709
:102DC0005DFFFFF783FFFFF763FF206800F09AFBCA
:102DD00020680FF07FF9206800F099FB0028F4D1FB
:102DE00020BFF2E71C481D4A1D4B4FF4B57120F07F
:102DF0004FF91948194A1B4B4FF4BE7120F048F99E
:102E00001548164A184B40F27B1120F041F9124840
:102E1000124A164B4FF4BD7120F03AF90E480F4A92
:102E2000134B40F2791120F033F90B480B4A114B48
:102E300040F2751120F02CF90748084A0E4B40F279
:102E40006F1120F025F900BF804802009C48020065
:102E5000F5280000540C002010480200EC49020044
:102E600074480200B0490200784902003849020063
:102E7000F4480200B8480200184602002DE9F84F55
:102E800043001F18DFF880B1FF000BEB07048846F2
:102E9000E16A0129164644D034D302293CD10130DD
:102EA00000EB4000656A0BEBC0094FF0000A1DE023
:102EB000126A641BB4422346A2EB050428BF3346C2
:102EC0009C42D9F8040028BF1C46224628444146AB
:102ED00020F01CF90BEB070325441A6A954208BF42
:102EE0000025361BA244A0445D6217D00BEB0702FD
:102EF000936AAB4203F1FF34DAD8126A1344013B00
:102F00005C1BD7E7A16A626A91429CBF246A0919D7
:102F100001398A1A964238D94FF0000A5046BDE866
:102F2000F88FA16A656AA94229D90139226AC5EBDD
:102F3000010A03440BEBC30B0BF1200BDBF804502D
:102F4000314BB24528BFB246561B0130B24500EBAB
:102F500040003FD303EBC00441466068324628443A
:102F6000C6EB0A0520F0D2F8606808EB06012A4695
:102F700020F0CCF8CBF804505046BDE8F88F226A18
:102F80008C18013CC5EB040AD3E703440BEBC30BDD
:102F90000BF12007DBF82040D7F804901A4BC9EB5F
:102FA00004040130A64200EB40001FD303EBC00530
:102FB0004146686822464844C4EB060920F0A6F85A
:102FC000686808EB04014A4620F0A0F8B246C7F84A
:102FD0000490A3E703EBC0034146586852462844D7
:102FE000554420F093F8CBF8045097E703EBC00367
:102FF000414658683246484420F088F806EB0903F9
:103000007B60B2468AE700BFD88B00202DE9F04FE5
:10301000344C94F800E083B00546884617461E46B7
:10302000BEF1000F2ED02369DFF8B8A0AB4256D90D
:103030004FF000094846CDF80490FEF7CBFA6DB981
:1030400029460D4404EBC5040C9BE3620020019B60
:10305000FEF7C8FA002003B0BDE8F08F6B1C6900D2
:1030600003EB4303DB004A190AEBC2020AEB030E2F
:10307000C2F828904AF80380CEF804701662C2F8AD
:103080002490DEE7184BDFF86CB0DFF86C90C4F8E2
:1030900028E04FF0100C4FF4007A0222C4F824E02C
:1030A000A361C4F858E0A3641049C4F82CE0C4F844
:1030B0005CE0C4F854E0C4F850C0E01DC4F81CB093
:1030C000C4F820A0C4F84C902261626120F0FAFBA1
:1030D0002046074920F0F6FB2023A371A3E74FF019
:1030E000FF30B8E7D88B0020004A02000C4A0200EB
:1030F000104A02007C0C00206C0C0020F8B5134C28
:1031000023780BBB124ADFF858C0124FA3624FF46A
:10311000007E10266362E362A365E36563650225B2
:103120000D49A261A264C4F81CC0C4F820E0E01DEF
:10313000E76426652561656120F0C4FB20460749E8
:1031400020F0C0FB2023A371F8BD00BFD88B002066
:10315000004A02006C0C00200C4A0200104A0200D7
:103160007C0C00200649074A074B9B1A03DD043BF1
:10317000C858D050FBDC00F013F8FDF76FF80000E2
:1031800010C002000000002060090020FEE7FEE7FA
:10319000FEE7FEE7FEE7FEE7FEE7FEE7FEE7FEE707
:1031A00070B45E4B1B68082B19D05D4AD2F888308A
:1031B00043F47003C2F88830BFF34F8FBFF36F8FB3
:1031C0004FF01023D3F80022002A75DBD3F8043225
:1031D000002B71DB534B544A1A6070BC7047534B41
:1031E00019680029E1D14FF080404FF08052C0F8BB
:1031F0000C114F4BC0F81011C0F83815D2F8041458
:10320000C3F82015D2F80814C3F82415D2F80C140A
:10321000C3F82815D2F81014C3F82C15D2F81414DA
:10322000C3F83015D2F81814C3F83415D2F81C14AA
:10323000C3F84015D2F82014C3F84415D2F824146A
:10324000C3F84815D2F82814C3F84C15D2F82C143A
:10325000C3F85015D2F83014C3F85415D2F834140A
:10326000C3F86015D2F83814C3F86415D2F83C14CA
:10327000C3F86815D2F84014C3F86C15D2F844644A
:103280002C4C2D49C3F870652C4D2560FB23C1F8EB
:103290001835D0F8E43ED2F8581204F50F3423F074
:1032A0000F0204F56D7401F00F0313434FF4007225
:1032B000C0F8E43E226078E7214B0122C3F80425E0
:1032C000D3F80024002AFBD04FF0102312221C490F
:1032D000C3F80022D1F80034002BFBD04FF01023AC
:1032E00012221749C3F80422D1F80024144B002AF3
:1032F000FAD00022C3F80425D3F80024002AFBD01A
:10330000BFF34F8F06490F4BCA6802F4E0621343C4
:10331000CB60BFF34F8F00BFFDE700BF300100104F
:1033200000ED00E0640000200090D00334010010A4
:1033300000C000408C56004000F00040488103006F
:1033400000E001400400FA0500F50150043002F0ED
:10335000BEBB00F0DCB904F066B9000037B500234D
:103360000446024600F124011360536093600C325E
:103370008A42F9D104F500556362A362E3622363D4
:103380006363A3633C3504F13C0000F0BDFE2846B6
:1033900002F0F0FC04F5C2402946783009F0D0FD77
:1033A00004F5F140214608300BF02EF9074B00934D
:1033B00004F5015104F5F140054B41F2336210313F
:1033C000383000F041F9204603B030BD53330000DF
:1033D0005733000038B5044610F022FC04F5D940FC
:1033E000143006F022FA204600F014F980B10121D1
:1033F000204600F040F8054650B90121204600F073
:10340000EBF828B129462046BDE8384000F033B833
:1034100038BD000038B5064C23683BB9054D284639
:10342000FFF79CFF28462560FFF7D4FF206838BDD2
:1034300080870020800E0020036830B40D469BB1C9
:10344000C36800F10C018BB1836900F118017BB9ED
:1034500002230C246343C418C55000F5C2406260C7
:10346000783030BC03F052BF0146F2E70123F0E7A9
:10347000032030BC704747F68C03C35C29B153B9B5
:1034800000F5C240783009F0E9BD23B900F5C2402B
:10349000783009F006BE0E20704703F0D7BB0B460C
:1034A0000146184603F0E2BB00F5D040343000F08E
:1034B000ADBF38B54FF6FF73994204460D4605D1AE
:1034C00000F5D940143006F089F838B104F5D04041
:1034D00029463430BDE8384000F09CBE0E2038BD8F
:1034E00000F5D740443004F02DBE00F0AFB900F035
:1034F000D9B900F0B9BA10B51C461346224600F0FF
:103500001AFA10BD00F5C240343000F0E3BD00F5FA
:10351000C240343000F0D9BD00F5D940143007F076
:10352000B8B907B500F5D940143006F0BBF8002350
:103530008DF80430030744BF01238DF804304107A0
:1035400042BF9DF8043043F002038DF80430820737
:1035500042BF9DF8043043F004038DF80430C307E4
:1035600042BF9DF8043043F008038DF804309DF805
:10357000040003B05DF804FB11F0010F0CBF002341
:1035800008238A0748BF43F004034A0748BF43F0B3
:1035900002030A0748BF43F0010300F5D94019466A
:1035A000143007F07FBD00F5D040343000F01CBE71
:1035B00000F5D94008B5143006F010F80138C0B253
:1035C00003289ABF014B185C012008BD184A02006D
:1035D000004870471C4A020010B5044681B100F54E
:1035E000D040343000F014FE4FF6FF7398420FD0F5
:1035F00004F5D94001211430BDE8104007F0EEBCBD
:1036000000F5D94001211430BDE8104006F015B88E
:103610000E2010BD1FB501230024ADF80E300DF1B2
:103620000E03009322460DF10D0306218DF80D4087
:1036300010F038FB08B18DF80D409DF80D000030FA
:1036400018BF012004B010BD70B504461E461546D3
:1036500003F073FF049BE3630023A663A4F84050C8
:103660006364204670BD10B586B004461022002168
:1036700001A8FCF767FE00238DF8163001A9B4F805
:103680004030ADF8143020460BF0BAF806B010BD4B
:103690000BF0C8B8426C13461BB18B4205D0DB68F7
:1036A000FAE7CA604164184670471A20704703F071
:1036B000B4BF10B503F0B1FF044610B1002100F013
:1036C0002AFC204610BD836B184770B50B7813F0A9
:1036D000300FA4B00446164615D168460BF063FEC1
:1036E000694620460BF06AF8054670B1014632463D
:1036F0002046FFF7E8FF044610B1284600F0A6F880
:10370000204624B070BD0724FAE70324F8E72DE92A
:10371000F0430024ADB00E4680462146174601A86E
:103720001C220094FCF70EFE2246314608A80BF03E
:1037300031FC88B99DF8A010304600F0B5F808A813
:103740000BF0A7FD6C466D464FF02F09E0B10388E2
:103750000B2B04D00C2B13D02DB0BDE8F083AC4262
:1037600016BF631C2B4684F80090EA1A44881F3267
:103770009442F1D22246416818461FF0C7FC044427
:1037800008A80BF088FDE1E72070D8F84440002C31
:10379000E2D02946206820F08BF830B96568A0682F
:1037A0003B46324608A9A847D6E7E468EFE744F26B
:1037B0000402835833B11968815000221A600288CC
:1037C000013A02801846704710B500F58043043373
:1037D00041B11A680C680A600288196001320280DF
:1037E0002146F5E7084610BD4A680AB9CA6802B121
:1037F000FEE78A680AB90B6903B1FEE7FFF7E4BF89
:103800000029008804DB8142CCBF032000207047E0
:1038100000207047F8B506460F4605464C24BC42CA
:1038200029680CDA19B17C34A4B22D68F7E7706905
:10383000FFF7BDFF28600028F5D10320F8BD002464
:103840002C607069FFF7C0FF2046F8BD0146406953
:10385000FFF7CABFC08B704738B5838B0C46CA18B8
:10386000C18B92B24C2A0B449BB288BFA2F14D018E
:10387000054691BF00217C2091FBF0F101314C2BDA
:1038800005D94D3B7C2093FBF0F30133C91A6869DD
:10389000FFF7B6FF28B911462846FFF7BBFF00B96E
:1038A000EC8338BD008C7047038CC28B1944914265
:1038B00000DDFEE789B28A42018400DAFEE70020DB
:1038C0007047C38B994200DDFEE7018400207047FA
:1038D00090F8300000F00300704790F83000C0F31B
:1038E0008200704790F8303061F3840380F8303004
:1038F000704790F8300000F01403042B06D000F05D
:103900000C00A0F10803584258417047012070474D
:10391000C38B994200DDFEE75B1AC383038C828B65
:1039200099420A44ACBF0023591A8283B4BF018470
:10393000038400207047F8B51546C28B91420646B5
:1039400041DA6818B48B8242D8BF551A21448CB230
:10395000D8BFADB24B2C16D8C4F14C07BFB2AF42A2
:10396000A8BF2F4606F13401214418463A461FF0FD
:10397000CDFBED1B0346ADB23B4400217B293668ED
:103980001DD92EB9FEE7A4F14C0189B20027F5E755
:103990007C3989B2F2E7C1F17C04A4B2AC42A8BF81
:1039A0002C46301D0144224618461FF0AFFB2D1B4C
:1039B000034627443668ADB2BFB2234400211DB18F
:1039C000002EE8D1FEE700273846F8BD2DE9F0418A
:1039D0001E46C38B15468A189A42074600DDFEE74D
:1039E000848BA8BF5D1A21448CB2A8BFADB24B2C0A
:1039F00016D8C4F14C081FFA88F8A845A8BFA846F5
:103A00003430314642462044A5EB08051FF07EFBCA
:103A1000ADB2464400207B283F681ED937B9FEE787
:103A2000A4F14C0080B24FF00008F4E77C3880B27B
:103A3000F1E7C0F17C04A4B2AC42A8BF2C463B1D08
:103A40003146224618441FF061FB2D1BA0443F68FD
:103A5000ADB21FFA88F82644002015B1002FE8D136
:103A6000FEE74046BDE8F0812DE9F041C78B88466E
:103A7000B91889B206461446FFF7EEFE054640B96E
:103A80004346224639463046FFF7A0FFA04200D009
:103A9000FEE72846BDE8F081F8B504460D46164617
:103AA00000F13407A38B9E4214DD6069FFF77FFEAF
:103AB00030B323680360A38B20604B2B06D83430CF
:103AC000C3F14C02F91818441FF020FBA38B7C3380
:103AD000A383E7E79B1BE28BA383238C324433440D
:103AE00092B29BB29342E28300DDFEE723842DB1C4
:103AF0002B46324600212046FFF768FF0020F8BD24
:103B00000320F8BD2DE9F043814685B0884617466D
:103B10001D460026CDB1102D2C4628BF102422466C
:103B200041466B464846FFF706FFA0442246394609
:103B30002D1B27446B460C983444FFF747FF1FFAB0
:103B400088F8BFB2ADB2A6B2E4E7304605B0BDE832
:103B5000F083408C7047418470473F2900D9FEE7CD
:103B600000EBD10001F007038021194190F82430C7
:103B7000194380F82410704700F1240200F12C034F
:103B800012F8010B10B99A42FAD170470120704720
:103B9000C08D7047C185704790F82E00704780F83F
:103BA0002E10704790F82C00704780F82C1070474A
:103BB00090F92D00704780F82D10704790F8300074
:103BC000C0F34010704790F830306FF3451380F821
:103BD0003030704790F8303043F0200380F83030B8
:103BE000704790F83000C0F38010704790F8303084
:103BF00061F3861380F830307047F8B507461D46EC
:103C00000846D118FB8B994200DDFEE7BC8B1444BB
:103C1000A4B24B2C13D8C4F14C06B6B2AE42A8BF26
:103C20002E4607F134012144324602F0F2F8AD1B72
:103C3000ADB200247B2C3F6815D91FB9FEE74C3C80
:103C4000A4B2F7E77C3CFBE7C4F17C06B6B2AE4217
:103C5000A8BF2E46391D2144324602F0DAF8AD1BCA
:103C60003F68ADB2002415B1002FEDD1FEE7F8BDDD
:103C700000220260704702EB810370B55C680CB9EA
:103C8000DC6804B1FEE705681DB95A60DA600260BD
:103C900070BD8E0035446C685C6004EB810405687F
:103CA000DD60E260036833445A60F0E702EB8103B1
:103CB00030B55C680CB1DC6804B9FEE70568AA425F
:103CC00005D1A24208BF0022046008BF0260DA6882
:103CD000586802EB810250605A68D86802EB810292
:103CE000D0600022DA605A6030BD006800B18068A0
:103CF00070470022026042608260C260704738B53F
:103D0000044600F58040251D0830FFF7F2FF4FF410
:103D1000804200212846FCF715FB44F20403E21818
:103D2000E55004F18403934203D043F8803C803390
:103D3000F9E743F684730022E25080232380204673
:103D400038BD0B4650F8232022B92BB1013BDBB222
:103D50009942F7D1104670470323F9E708B50321CC
:103D6000FFF7EFFF00B1806808BD0321FFF7E9BF4F
:103D700010B590F831305B070446806906D548B12C
:103D8000FFF7F3FFA04204D0A06810BD10B1006897
:103D9000F8E7002010BDF8B592F8315005F00305A2
:103DA0000F46294606461446FFF7CBFF3BB260B1EB
:103DB0009B00C21823445168596001EB8701D86009
:103DC000CC60546046F82540F8BD04EB83035C608A
:103DD000DC60F7E738B58C690D46A4B9A86191F8A5
:103DE000313064F3820381F831300A460121FFF754
:103DF00042FF686900F580402A4621460830FFF7F7
:103E0000CAFF204638BD1A2038BD70B592F831403F
:103E100004F003048E1C50F824309A420DD102EBBA
:103E200086035B689A4218D093F8315005F0030579
:103E3000A54218BF002340F8243002EB81025368EA
:103E4000D06803EB86035860D368506803EB8103A6
:103E5000586000235360D36070BD0023EBE738B592
:103E600091F83140C4F380040D46BCB98B69984287
:103E700014D10A460121FFF719FF686900F5804057
:103E80002A4621460830FFF7C0FF95F83130AC6173
:103E900064F3820385F83130204638BD192038BDDF
:103EA00038B58D690C46A5B9A06191F8313043F061
:103EB000040381F831300A460121FFF76CFF606985
:103EC00000F58040224629460830FFF764FF284667
:103ED00038BD1A2038BD91F831305B0710B50C465B
:103EE00017D58B69984214D10A460121FFF78DFF3F
:103EF000606900F58040224600210830FFF785FF09
:103F000094F83130002060F38203A06184F83130EE
:103F100010BD192010BD0329F8B505460E4635DC45
:103F200087693FB990F8313061F3010380F831308F
:103F30000020F8BD90F8310000F003039942F7D05B
:103F4000C0F3800484B129463846FFF7C4FF3C46DD
:103F500095F8313066F3010385F831306CB12946AC
:103F60002046FFF79DFFE3E7686900F580402A4699
:103F700021460830FFF749FFEAE7686900F580400D
:103F80002A4621460830FFF706FFD1E70720F8BD93
:103F9000F8B505460F461646FFF709FC0446E0B1A2
:103FA00080220021FCF7CEF994F83030656167F388
:103FB0000103DBB243F040030221A68384F83030D2
:103FC0002046FFF7A8FF00212046FFF745FC20B15F
:103FD00021462846FFF708FC00242046F8BD73B5AB
:103FE0000E4690F83010828B054601F003014069BF
:103FF000FFF7CEFF044678B33146FFF72DFC0246AB
:1040000068BB3346014600942846FFF77BFD2B8CA6
:10401000E28B934200DDFEE7238495F92D3084F88E
:104020002D3095F8303094F83020C3F3820363F3D9
:10403000840284F8302095F83110204601F0030105
:10404000FFF769FF95F8303094F83020C3F3801300
:1040500063F3861284F83020204602B070BD2046FB
:10406000FFF7F4FB0024F7E710B580E80E0000230B
:10407000C36010BD002202604260704710B5446802
:104080008C4212D0CB6883B95CB90160416008688A
:10409000A0F58140783802F0DAFCFEF7ABFC204650
:1040A00010BDE1604160184610BD1A2010BD0146E8
:1040B0000068FFF7E3BF03682BB1DA68026002B95A
:1040C00042600022DA60184670470068003018BF6E
:1040D0000120704770B5466805462846FFF7EBFF9C
:1040E000044680B1436880689847A642F5D12B68A2
:1040F0004BB13068A0F58140783802F0A8FCBDE8EB
:104100007040FEF777BC70BD10B54FF40051044607
:1041100011F004FB204610BD00BA704738B50446C4
:104120000D460DF0DDFE2561E06021462068BDE80A
:1041300038400BF0E7B910B590F86C30022B04460C
:1041400014D1006B08F0D9FF0EF07AF87F2807D061
:1041500094F988307F2B01D0984201DD84F88800E3
:1041600004F18C00BDE81040FFF7A1BF10BDFFF7C0
:10417000E2BF836E8B4201D08A6802B1FEE71BB9B1
:1041800041668166002070479960FAE790F86F00F9
:1041900070473430704737B5002304460D46CA1DBA
:1041A00012F801190DF803100133082BF8D1206B18
:1041B00008F0A3FF69460DF0E1FF2868696804F183
:1041C000340303C303B030BD808F704710B50C4675
:1041D0008187006B08F091FF21460DF0D2FF00208F
:1041E00010BD90F8400070474230704738B5054622
:1041F00008460C461FF06EFB102807D810222146F7
:1042000005F142001FF088FB002038BD072038BDB3
:10421000C08F704710B50446C187006B08F06DFF72
:10422000E18F0DF09FFF002010BD533070470B68E9
:10423000C0F853304B68C0F857300020704700007A
:10424000F8B5044608460E4603F06FF80025504BBB
:10425000636000F582402060E5602561656130465D
:10426000A46003F062F84B4BE36100F58240A0616B
:104270006562A562E56226633046246203F055F864
:1042800000F581412346444A783104F18C00FFF760
:10429000EBFE04F19C0003F01EFC04F1A80008F002
:1042A00064FF04F2E91008F03EFF0B23FF2284F8BC
:1042B000743084F840304FF6FF7384F86C5084F803
:1042C0006F5084F8705084F8715084F8725084F8FC
:1042D0007350A267A4F87C50C4F88050C4F884508E
:1042E0007F22E56525666566A56684F84150E3870B
:1042F00004F134054FF6FE7384F88820A38704F197
:104300003C072E460EF00AF905F8010BBD42F9D123
:1043100094F8343023F0010343F0020384F834307E
:104320007C22002104F54470FCF70CF81B49204660
:10433000FFF77DFF1A492046FFF758FFE18F20461F
:10434000FFF768FF31462046FFF725FF4FF6FE7165
:104350002046FFF73BFF0EF0E1F884F86D000EF009
:10436000DDF8002584F86E00C4F8A050C4F8A4500D
:10437000206B08F0C2FE0DF029FF206B08F0BDFE97
:104380000DF05AFFC4F88C53C4F80C032046F8BD56
:104390005F530000B54600006F4100006E4A020006
:1043A000634A020010B590F86C30013B012B0446C3
:1043B00008D8006B08F0A1FE94F87410BDE8104016
:1043C0000DF01BBF90F86F305BB900F118018069E8
:1043D0000BF01DF828B9206B08F08FFE0DF034FFAC
:1043E00028B1206B08F089FE94F84010E6E7206BB6
:1043F00008F083FEBDE810400DF0F2BE90F86C307E
:1044000080F86F100BB9FFF7CDBF704708B590F873
:104410006C3080F840100BB9FFF7C4FF002008BDD6
:1044200070B504984C1E451E073114F8016F05F84D
:10443000016F8C42F9D1110E0172110C4172110AF7
:104440008172C272037370BD10B50C46002240F633
:104450000301204601F054FA4FF6FF71204601F0A7
:10446000A7F84FF6FF71204601F0D0F8204607214B
:10447000BDE8104001F0E0BA2DE9F7430E460546CD
:1044800000224FF44041304601F03AFAE98F3046BD
:1044900001F006F905F13401304601F05FF93046CC
:1044A00001F07FFA4FF0FF33037000238370C37075
:1044B0000323037120230F22437142700446286BAB
:1044C0000DF1070100F20C6002F07CFC9DF8072062
:1044D000637912B343F0010305F1420863711021BF
:1044E00040461FF02BFAA71D8146102200213846B6
:1044F000FBF728FF4A46414638461EF007FE55F8AE
:10450000533FC4F816306B68C4F81A301E21304689
:1045100001F0BFFA03B0BDE8F08323F00103DBE74D
:104520002DE9F043E1B00C46054607A80BF057FA19
:10453000204601F00CF8002877D00DF10A01204642
:1045400001F05BF99DF80A30082B74D0102B00F0B5
:104550008F80002B40F0A180286B00F5C26003F033
:1045600092FA8046286B00F5C26003F09DFA064679
:10457000286B00F5C26003F09AFA05F134090DF1D9
:104580000901204601F02CF903AF3146204601F025
:104590004DF99DF809300097324628464946FFF705
:1045A0003FFF1022414607A80BF069F8204601F0B2
:1045B0008DF902388DF80B00204601F048FA0546C7
:1045C000204601F059FA0D229DF80B300192294640
:1045D0000246009707A80BF059F8204601F0DFF9D2
:1045E0000546204601F033FA2946024607A80BF09B
:1045F000FDF8204601F0D5F90546204601F0D1F935
:104600000646204601F038FA012332462946009337
:10461000034607A80BF02FF9204601F048FA0DF1E8
:104620000B02014607A80BF0B2F907A80BF0E4F95A
:1046300061B0BDE8F083286B00F5C26003F0EAF9D1
:104640008046286B00F5C26003F0F9F90646286B36
:1046500000F5C26003F0F9F9286B00F5C26003F0C1
:1046600082F900F07F010131204601F01DF984E755
:10467000D5F88C63094BDFF8289018680390731CF9
:10468000C5F88C3303A9204601F0E8F8FF21204645
:1046900001F00AF9DFF80C8071E7FEE7574A0200E3
:1046A0005B4A0200764A020090F86C300BB9FFF7C3
:1046B00079BE7047FFF7F8BF2DE9F0430C46E7B02D
:1046C00006460DA8984617460BF089F9237A6FF332
:1046D00000032372204600F03AFF002800F0D48047
:1046E00003A9204601F07CF804A9204601F092F8C5
:1046F0000DF10D01204601F080F89DF80D50082DB8
:104700000CD0102D00F0F38035B9306B00F5C2608D
:1047100003F0B9F98146C0BB0824B6E0B8F1000F38
:10472000FAD00DF10F01204601F0ACF89DF80F50C2
:10473000306B013DEDB200F5C2608DF80F5003F013
:1047400012F900F07F008542306B40F0A58000F543
:10475000C26003F008F90546306B00F5C26003F053
:1047600059F998F81C3003F00703062B81460CD149
:10477000D8F818309D42CFD307D1049BD8F80C202D
:1047800001339342C8D300F0B780B91C05AF9DF840
:104790000C30049A00973046FFF742FE204601F0A5
:1047A00095F80238494610228DF80E000DA80AF03F
:1047B00066FF204601F04BF98146204601F05CF986
:1047C0000D229DF80E3001924946024600970DA831
:1047D0000AF05CFF204601F0E2F80746204601F0AF
:1047E00036F9394602460DA80BF000F8204601F0D4
:1047F000D8F80746204601F0D4F88146204601F05B
:104800003BF9002300934A46034639460DA80BF0B6
:1048100032F80DF10E0209A90DA80BF0B8F82046E8
:1048200001F045F99DF80E20014609A81EF05EFC36
:1048300000287FF471AF9DF80D30082B20D198F837
:104840001C3003F00703062B1AD1D8F818309D420C
:10485000049B18BFC8F8100003F10103C8F80C301E
:10486000306B18BFC8F8185000F5C26003F07BF831
:10487000854205D9306B294600F5C26003F076F811
:10488000237A43F00103237200240DA80BF0B4F83F
:10489000204667B0BDE8F08300F5C2609DF80F5078
:1048A00003F061F8013800F07F008542306B0BD1D6
:1048B00000F5C26003F057F8451E306B294600F53D
:1048C000C26003F0ABF84CE700F5C2609DF80F50F2
:1048D00003F049F8013000F07F0085427FF41CAFFF
:1048E000306B00F5C26003F03EF8451CE5E7034974
:1048F000DFF80C90002549E71F24C6E75B4A020059
:10490000764A020008B5006B08F0F7FB0DF09AFC40
:1049100010F00C0F14BF0120002008BD08B5006B7B
:1049200008F0EBFB0DF08EFCC0F3800008BD0C29F5
:10493000F8B504460D46D0F80C630ED001D861B12D
:10494000FEE7102902D0112907D0F9E7FFF7E6FFAB
:1049500018B994F87130032B5AD9002384F87130B8
:1049600084F87030304600F0F7FDE8B1D4F81C331D
:104970000133C4F81C3325B9D4F820330133C4F80B
:10498000203394F86C30032B14D0042B1CD0012B53
:104990003DD1D4F83433B4F87C100133C4F8343347
:1049A0002046FFF7BBFBF8BDD4F824330133C4F82D
:1049B0002433E6E7D4F830330133C4F830332046EB
:1049C000BDE8F84000F05AB904F11801A0690AF0F6
:1049D0001EFDB0B1D4F82C330133C4F82C33E36D91
:1049E000DA68E26502B922660022DA6094F86E2085
:1049F000013284F86E205F6898682A463146B847CD
:104A0000DDE7D4F828330133C4F82833E7E7FEE7BD
:104A1000013384F87130204600F0DEF8D4F83C33DE
:104A20000133C4F83C33F8BDF0B5044685B00F46F9
:104A30000146006816461D460AF00FFDD4F81033F3
:104A40000133C4F8103301A9384600F0BBFDBDF8AE
:104A500006204FF6FF739A420BBFD4F81833D4F8F0
:104A60001433013301330CBFC4F81833C4F81433C2
:104A70000C2D02BFD4F844330133C4F8443320462C
:104A8000FFF740FF28B9112D03D194F87030032BA4
:104A900017D9002384F8703094F86C30032B0AD0B7
:104AA000042B02D0012B06D0FEE726B1642104F1CD
:104AB0001800FFF733FB29462046FFF738FF05B003
:104AC000F0BD013384F87030204600F085F8D4F84A
:104AD00040330133C4F84033F1E770B5B0F870608B
:104AE000D0F80C5304463EBB90F94130AB7190F8BE
:104AF0006C30032B28D0042B32D0012B3CD1006B1F
:104B000008F0FBFA4FF6FF710DF02CFB94F87430AF
:104B10006B7129462046FFF797FC3146284600F086
:104B20002FFD29462046FFF7FBFC94F9413095F90B
:104B300006209A42C8BFAB71206B08F0DEFA697993
:104B40000DF05BFBC8B1FEE790F840306B71294671
:104B5000FFF792FC94F86D104B1C84F86D30DDE784
:104B600090F840306B71C36D29461A689868904779
:104B700040BB94F86E10D1E7FEE7206B08F0BDFA59
:104B800029460DF042FB00B1FEE7284600F0E4FCA8
:104B900030B1206B08F0B1FA0DF054FBC3070CD50F
:104BA000D4F8A020BAB12B7A43F002032B72D4F8C8
:104BB000A4102846BDE87040104710212046FFF79A
:104BC000ADFAEDE73246D4F80C1320460C23BDE8CD
:104BD0007040FFF729BF70BD30B587B00546FFF7BD
:104BE00091FE20B12846FFF778FF07B030BD95F859
:104BF000703095F871401C4403340DF08FFC052C87
:104C000028BF05240123A340013B18404FF4A074A2
:104C1000444302A80DF080F94FF47A73B4FBF3F328
:104C2000C3EB4310049303EB8003A4EBC303286B93
:104C3000ADF8143008F061FA0095034B04AA02A9FC
:104C40000DF076F9D1E700BF6D520000036E8B4284
:104C500010B511D0CA687AB9C26D5AB9C16590F859
:104C60006C40016624B9042380F86C30FFF7B4FF70
:104C7000002010BDD960F2E71A2010BD90F8733003
:104C8000012B10B5044607D1002280F8732084F868
:104C90006C30FFF7A1FF06E0022B09D1002380F85A
:104CA000733000F014F82046BDE81040FFF77ABBDF
:104CB00090F8723023B1002380F872300323E6E7C6
:104CC000C36D0BB10423E2E780F86C30EBE70223FD
:104CD00010B580F86C300446006B08F00EFA0DF049
:104CE000B1FA830710D47F2384F88830B4F87C109D
:104CF0002046FFF713FA04F18C00FFF7D8F920469D
:104D0000BDE81040FFF74EBB206B08F0F6F9B4F891
:104D10007C2094F874100DF0B7FA50B1D4F88000EC
:104D2000D4F88430002198472046BDE81040FFF7B2
:104D3000A5BF10BD7F2913B504460BD090F8743081
:104D40008DF804308DF80510D0F88430D0F880004C
:104D500001A99847A26F94F8743001335208DBB26E
:104D600014D1A26784F87430206B08F0C6F994F867
:104D700040100DF042FAD4F88000D4F884300021BD
:104D800098472046FFF77AFF02B010BD1A2BE8D8EB
:104D9000D107E2D5A26784F874302046FFF797FF69
:104DA000F2E747F68C03C35C23B100F5F14008300D
:104DB00009F067BC00F5D0403430FFF7BBBF38B511
:104DC00090F86C40651E012D31D990F8735075BB79
:104DD000002A08BF4FF0FF32002B08BF4FF4967334
:104DE000A0F87C300B23049DC0F88050DA4080F896
:104DF00074308267836FDA0707D45B08836790F8A3
:104E00007430013380F87430F4E764B9012905D1B6
:104E100080F86C10FFF7E0FE204638BD0229FBD178
:104E2000FFF755FFF8E780F873100024F4E7052436
:104E3000F2E737B51D46069B009313460A4601214B
:104E40000446FFF7BCFF08B9C4F8845003B030BD76
:104E500037B51D46069B009313460A4602210446B9
:104E6000FFF7ADFF08B9C4F8845003B030BD13B5E7
:104E7000044608460DF1070100F0D2FD9DF8073009
:104E8000042B16D0072B1CD1D4F860330133C4F89F
:104E90006033012384F8723094F86C303BB90322FC
:104EA00084F86C2084F872302046FFF795FE0220CB
:104EB00005E0D4F858330133C4F85833002002B069
:104EC00010BDD4F864330133C4F86433F6E700004E
:104ED0002DE9F041D0F8483301330446C0F8483397
:104EE00088B00D461046002A40F07B81002900F072
:104EF00051810B7A62F300030B72D4F8A0303BB1FE
:104F00000A7A60F341020A72D4F8A410284698473E
:104F1000284600F0B3FA002840F0638102A9284631
:104F200000F0E0FB206B02A900F61C3007F066F9E8
:104F30009DF80830022B06467ED0082B02D0002BAD
:104F400040F0348104F13408082241460DF10A0092
:104F50001EF0CCF8002800F029819DF808305BB1E4
:104F600004F1A807384608F00FF9002840F02A811C
:104F70009DF80830002B76D105A9284600F022FBC9
:104F80009DF81470022F00F08380082F00F0A2809B
:104F9000BDF816204FF6FF739A4240F0AE80D4F869
:104FA00050330133C4F85033334602AA2946204611
:104FB000FFF782FB002840F014812EB306F11E009B
:104FC00095F9062004F19C0102F000FE284600F04D
:104FD000BEFAC8B1337F03F00703052B04D0062BBC
:104FE00012D0012B40F0DC80284600F0ABFA0328F9
:104FF00048D10DF10501284600F012FD002841D1ED
:105000009DF80530042B3DD194F86C30012B7AD1FA
:10501000284600F097FA002840F0AA80D4F85C33C4
:10502000D4F880000133C4F85C332946D4F88430C6
:10503000984708B0BDE8F081002800F0B18008234F
:105040008DF808300368CDF80A304368CDF80E308B
:1050500078E701AA384608F0B5F8002888D19DF80D
:105060000430AB7184E704F2E917384608F066F8BB
:10507000002881D00DF10A01384608F062F80028B6
:105080003FF47AAFD4F888330133C4F88833D0E7DB
:105090000DF10601284600F07EFABDF806304FF605
:1050A000FF72934202D0E28F9A420DD194F86F20A2
:1050B000BDF8163022B14FF6FF7293423FF46FAF46
:1050C000A28F93423FF464AFD4F86C330133C4F839
:1050D0006C33AEE70DF10601284600F05CFAE28F72
:1050E000BDF806309A42EFD13A4641460DF116001E
:1050F0001DF0FCFF0028E7D14AE7D4F84C33013318
:10510000C4F84C3350E794F86F3063B99DF814300D
:105110004BB104F11801A0690AF09FF9206B07F068
:10512000ECFF0DF05DF8284600F00CFA012819D0CC
:1051300012D303281CD129462046FFF798FE0228E7
:105140003FF477AF646E002C3FF473AF2368606860
:1051500029469847A468F6E7D4F85C330133C4F8CD
:105160005C33EFE7D4F854330133C4F85433E9E740
:10517000D4F864330133C4F864335AE7D4F8803385
:105180000133C4F8803354E7D4F884330133C4F8CE
:1051900084334EE7D4F874330133C4F8743348E7EA
:1051A000D4F878330133C4F8783342E7D4F87C3349
:1051B0000133C4F87C333CE7D4F870330133C4F8CE
:1051C000703336E70DF10A01384607F0E0FF01467B
:1051D00000287FF43EAFD4F868330133C4F8683355
:1051E00027E7083817283FF64DAF01A353F820F002
:1051F0007D51000085500000855000008550000062
:10520000855000008550000085500000855000004A
:105210008550000085500000855000008951000035
:1052200095510000A1510000AD510000D751000080
:10523000C9500000855000008550000085500000D6
:10524000855000008550000085500000B9510000D5
:1052500047F68C03C35C23B100F5F140083009F038
:10526000F1B900F5D0403430FFF732BEFFF735BC5E
:1052700010B447F68C04045D34B100F5F1400830F9
:105280005DF8044B09F03ABA00F5D04034305DF8CF
:10529000044BFFF7C9BB1FB590F86C30022B0446D6
:1052A00030D0042B33D0012B58D1826F90F874305A
:1052B00001335208DBB21AD1A26784F87430206B34
:1052C00007F01BFF94F840100CF097FF206B07F0DD
:1052D00014FFE18F0CF046FFD4F88000D4F884303E
:1052E000002198472046FFF7C9FC04B010BD1A2BD7
:1052F000E2D8D107DCD5A26784F874302046FFF7E6
:105300006BFCF2E790F98810FFF714FDEDE7006BF6
:1053100007F0F3FE94F840100CF06FFFD4F8103350
:10532000D4F80C030133C4F8103301A900F04AF992
:10533000BDF806204FF6FF739A420BBFD4F818331E
:10534000D4F81433013301330CBFC4F81833C4F854
:10535000143310212046FFF7EAFAC6E7FEE7FFF70D
:105360009ABF38B50446D0F864030D46FEF7D4FE64
:10537000D4F87433C5F80200D4F878030344D4F8A1
:105380007C030344D4F880030344D4F88403034427
:10539000D4F888031844FEF7BFFEC5F80600D4F819
:1053A0004003FEF7B9FEC5F80A00D4F84C03FEF737
:1053B000B3FEC5F80E00D4F85003FEF7ADFED4F8E6
:1053C0006C33C5F81200D4F868031844D4F870336D
:1053D0001844FEF7A1FEC5F81600D4F81403FEF732
:1053E0009BFEC5F81A00D4F81803FEF795FE0023BB
:1053F000C5F81E0085F8223085F8233085F8243062
:1054000085F8253038BD7C22002100F54470FAF77C
:1054100099BF10B5006B0C4607F06FFE2146BDE842
:1054200010400CF013BF13B50B78022B0C4607D1BC
:10543000006B07F062FE61880CF00BFF02B010BD3C
:105440000934002314F801290DF803200133082B37
:10545000F8D1006B07F051FE69460CF00BFFEDE749
:1054600010B50446084601F099FB036823604368C1
:105470006360237883F00203237010BD10B50179B7
:1054800002295DDD00684378027842EA032202F4D3
:105490004063B3F5006F06D0B3F5406F37D0002BF3
:1054A0004ED1032300E0072302F44044B4F5004F3B
:1054B0002FD0B4F5404F33D0002C41D1140739D54B
:1054C000C05C00F01804102C30D0182C30D0082C00
:1054D00014BF0533063300F007040120A04010F08C
:1054E000880FDBB228D110F0440F27D110F0220F23
:1054F00014BF0620022002F00702032A04BF013372
:10550000DBB203449942B4BF0620002010BD0D2336
:10551000CAE754065CBF0233DBB20233DBB2CDE72D
:1055200054065CBF0233DBB20833F7E70A33D2E735
:105530000E33D0E70220DEE71220DCE70A20DAE7AC
:10554000062010BD0368187800F007007047036854
:105550001878C0F3C000704703681878C0F3401093
:10556000704703681878C0F30010704703681A7812
:1055700019B142F010021A70704722F01002FAE7D7
:1055800003689970704703685878000210F440600F
:1055900018BFD81C704708B5FFF7F5FF30B1427847
:1055A000037843EA02230B80002008BD062008BDD3
:1055B00008B5FFF7E8FF00B9FEE701700912417076
:1055C000002008BD03685A78120202F44062B2F566
:1055D000006F05D0B2F5406F0BD000230B7006E0D2
:1055E00002220A709A795B7943EA02234B800020F9
:1055F0007047082201F8022B03F10D02053312F85F
:10560000010D01F8010B9A42F9D1F0E702685378D5
:105610001B0203F44063B3F5006F00D0FEE7517145
:10562000091291710020704703685A78120202F43F
:105630004062B2F5406F00D0FEE7CA1D0433013965
:1056400012F8010903F8010F8A42F9D100207047CE
:1056500002685178137843EA012313F44C4010D0C8
:10566000590602F103000CD403F44063B3F5006F54
:1056700003D0B3F5406F02D07047D01D704702F1E0
:105680000D00704710B50C46FFF7E2FF30B14278CD
:10569000037843EA02232380002010BD062010BDBA
:1056A00010B50C46FFF7D4FF20B1047024124470EB
:1056B000002010BD062010BD00684278037843EA40
:1056C000022303F44062B2F5006F07D0B2F5406FD9
:1056D00006D003305B0658BF023070470730F9E749
:1056E0000D30F7E710B50446FFF7E6FF08B323686F
:1056F0005B781B0203F44043B3F5004F05D0B3F5CC
:10570000404F0BD00020087010BD02230B70427870
:10571000037843EA02234B80002010BD082301F8E0
:10572000023BC31813F8012D01F8012B8342F9D174
:10573000F2E7062010BD08B503685B781B0203F48E
:105740004043B3F5004F00D0FEE7FFF7B5FF00B9C7
:10575000FEE7017009124170002008BD08B503681A
:105760005B781B0203F44043B3F5404F00D0FEE7E3
:10577000FFF7A2FF00B9FEE7CB1D0138013913F88E
:10578000012900F8012F8B42F9D1002008BD0268E1
:105790005178137843EA012313F008001FD003F473
:1057A0004061B1F5006F0CD0B1F5406F0BD0D01C4B
:1057B00003F44042B2F5004F08D0B2F5404F0AD092
:1057C0007047D01DF4E702F10D00F1E75A0658BF0B
:1057D0000230023070475B0658BF02300830704715
:1057E00010B50C46FFF7D3FF28B1037803F0070389
:1057F0002370002010BD062010BD10B50C46FFF729
:10580000C6FF28B1037803F018032370002010BDF1
:10581000062010BD10B50C46FFF7B9FF20B1D0F837
:1058200001302360002010BD062010BD10B50C46CD
:10583000FFF7ADFF00B9FEE7230A44708370230C25
:10584000240EC3700471002010BD102804D0182845
:105850000CBF0820002070470420704710B50C468C
:10586000FFF795FF00B9FEE7034613F8050B00F0BC
:105870001800FFF7EAFF21460246BDE8104018462F
:105880001DF044BC10B50C46FFF781FF034648B13C
:10589000007800F01800FFF7D8FF18444379237010
:1058A000002010BD062010BD10B50C46FFF76FFF9D
:1058B000034600B9FEE7007800F01800FFF7C5FFC7
:1058C00018444471002010BD0079704708B5FFF7F7
:1058D0005EFF78B1037803F007020123934013F0D1
:1058E000880F09D113F0440F08D113F0220F0CBF19
:1058F00000200420023008BD1020FBE70820F9E753
:1059000038B5036805460812587001F44060B0F5D8
:10591000006F197004D0B0F5406F0ED058B1FEE79B
:10592000072401F44040B0F5004F08D0B0F5404FD7
:105930002BD050B1FEE70324F3E70D24F1E748062E
:105940005CBF0234E4B20234E4B208070FD51A5542
:10595000530718BF053402F0180218BFE4B2102A2A
:1059600019D0182A19D0082A01D10134E4B201F063
:105970000701032908BF0134284608BFE4B2FFF736
:10598000A5FF20442871002038BD48065CBF0234C2
:10599000E4B20834D8E70534E8E70934E6E70068FC
:1059A000704700684278037843EA022303F44062B8
:1059B000B2F5006F20D0B2F5406F1FD072BB03303C
:1059C00003F44042B2F5004F1AD0B2F5404F1CD05C
:1059D00022BB1A070AD5027802F01802102A19D041
:1059E000182A19D0082A14BF0530063003F007031F
:1059F000032B14D1013070470730E1E70D30DFE7AA
:105A00005A0658BF02300230E3E7590658BF023049
:105A10000830DEE70A30E9E70E30E7E7002070479C
:105A200010B50C46FFF7BDFF20B110F8013C237004
:105A3000002010BD062010BD10B50C46FFF7B1FFC9
:105A400018B100F8014C002010BD062010BD10B5A3
:105A50000446FFF7A6FF2368C01AC0B210BD38B5D0
:105A60000546FFF7F4FF04462846FFF72FFF2044C2
:105A7000C0F17F00C0B238BD38B50546FFF7E7FF7B
:105A800004462846FFF722FF2B792044181AC0B29B
:105A900038BD70B506460C46FFF7D9FF05463046BF
:105AA000FFF714FF284404443471002070BD10B582
:105AB0000446FFF70BFF2379181A2368184410BD1A
:105AC0000022026001228280827181607047026838
:105AD00013461BB18B4205D09B68FAE78A600160D0
