:020000040000FA
:10000000C0220020E5020000ED0200001502000001
:10001000F1020000F3020000F50200000000000001
:10002000000000000000000000000000F7020000D7
:10003000F902000000000000FB020000FD020000C9
:1000400067060000FF02000085080000FF020000B4
:10005000FF020000FF02000001040000FF02000098
:10006000FF020000FF020000FF020000FF0200008C
:10007000FF020000FF020000FF020000FF0200007C
:10008000FF02000075060000FF020000FF020000F2
:1000900099060000FF020000FF020000FF020000BE
:1000A000FF020000FF020000FF020000FF0200004C
:1000B000FF020000FF02000000000000000000003E
:1000C000FF020000FF020000FF020000FF0200002C
:1000D000FF020000FF020000FF020000FF0200001C
:1000E000FF020000FF020000FF020000FF0200000C
:1000F00000000000FF0200000000000000000000FF
:1001000000000000000000000000000000000000EF
:1001100000000000000000000000000000000000DF
:1001200000000000000000000000000000000000CF
:1001300000000000000000000000000000000000BF
:1001400000000000000000000000000000000000AF
:10015000000000000000000000000000000000009F
:10016000000000000000000000000000000000008F
:10017000000000000000000000000000000000007F
:10018000000000000000000000000000000000006F
:10019000000000000000000000000000000000005F
:1001A000000000000000000000000000000000004F
:1001B000000000000000000000000000000000003F
:1001C000000000000000000000000000000000002F
:1001D000000000000000000000000000000000001F
:1001E000000000000000000000000000000000000F
:1001F00000000000000000000000000000000000FF
:10020000DFF80CD000F0EAF800480047690F000062
:10021000C0220020094B1EF0040F1CBFEFF3098021
:100220001847EFF308800649064A884201D89042F1
:1002300002D88D464FF0000018470000C5050000A9
:10024000C0220020C002002030B4044654E8000F51
:100250000D4644E80053002BF8D1156030BC7047C0
:1002600030B4044654E8000F40EA010544E8005366
:10027000002BF7D1156030BC704730B4044654E809
:10028000000F00EA010544E80053002BF7D1156088
:1002900030BC704730B4044654E8000F80EA0105D2
:1002A00044E80053002BF7D1156030BC704730B4E0
:1002B000044654E8000F00EB010544E80053002B0E
:1002C000F7D1156030BC704730B4044654E8000FD5
:1002D000A0EB010544E80053002BF7D1156030BCBA
:1002E000704700000648804706480047FEE7FEE7E3
:1002F000FEE7FEE7FEE7FEE7FEE7FEE7FEE7FEE7D6
:100300009D060000010200002DE9F05F0546002077
:1003100092469B4688460646814640241BE0284676
:1003200041464746224600F048F853465A46C01A0E
:10033000914110D311461846224600F016F82D1AA6
:1003400067EB01084F4622460120002100F00DF81E
:1003500017EB00094E41201EA4F10104DFDC4846E2
:1003600031462A464346BDE8F09F202A04DB203A66
:1003700000FA02F1002070479140C2F1200320FAF8
:1003800003F319439040704740EA01039B0703D0F1
:1003900009E008C9121F08C0042AFAD203E011F8C4
:1003A000013B00F8013B521EF9D27047421C10F885
:1003B000011B0029FBD1801A7047202A04DB203A58
:1003C00021FA02F00021704721FA02F3D040C2F175
:1003D000200291400843194670470000064C074D23
:1003E00006E0E06840F0010394E807009847103405
:1003F000AC42F6D3FFF708FFF02D0000102E0000EE
:100400002DE9F04F00268FB0DFF8B081B14602969B
:100410004FF48075012437460396284601F016FCF8
:1004200038B1D8F80403204203D0284601F004FC78
:1004300026432D1D64007F1CADB2082FEDD34FF471
:10044000BE74204601F002FC48B1204601F0F4FBE6
:1004500046F0004602AA0221002001F0B3FB584CEE
:1004600016F0FF0F15D00127002537420DD008EBFD
:100470008501D1F81005D1F81015C0F3052054F806
:100480002520C1F3014102B190477F006D1C082D6A
:10049000EBD3002E7DDA0020CDF82890411E0DF11F
:1004A000080B08AACDF82C9042F82010401C914669
:1004B0000228F9D300252E46A01910F8607F90F984
:1004C000000027F0C008401C49D008A9404600F0B1
:1004D000AFFD88B34FEA971A404600F0E7FB54F8A7
:1004E00020701FB1BAF1030F03D00FE0BAF1030F70
:1004F00035D10AA84FEAD80208F00703815C4FF013
:10050000010C0CFA03FC41EA0C01815406A8CDF859
:10051000188001F0D1FA069900EB8100D0F80007AD
:1005200002A9C0F301400690404600F081FD00287A
:10053000069802D0022802D011E003280FD1BAF1A8
:10054000030F08D10698022832D00221404601F05C
:1005500066FA6D1CEDB217B151464046B847761C9D
:10056000042EA9D3002D20D004AA0221002001F0DE
:1005700029FB00205A4604A952F8206051F8203087
:10058000B34217D000200AAE4FEA090351F8207099
:1005900000E00AE042F8207056F8207043F820701E
:1005A000401C0228F2D3002D84D10FB0BDE8F08F9B
:1005B0000321CBE7401C0228DED3F6E700600040B1
:1005C0000C0100200449086004490968C90700D0EB
:1005D00000BE00F005F8000040000020F0ED00E053
:1005E000BFF34F8F05480168054A01F4E0611143EC
:1005F0000160BFF34F8F00BFFDE700000CED00E08E
:100600000400FA0500F01F0201219140400980001A
:1006100000F1E020C0F88012704700F01F020121B5
:1006200091404009800000F1E020C0F800117047BF
:1006300000F01F02012191404009800000F1E020FC
:10064000C0F8001270474907090E002806DA00F0CA
:100650000F0000F1E02080F8141D704700F1E02049
:1006600080F80014704710B500F0C0FDBDE81040E0
:1006700000F044BE07480021C0F84011C0F8441102
:10068000C0F84811C0F84C11C0F80011C0F80411AE
:1006900002F05AB90010014002F0A8B830B54FF08E
:1006A00080500022D0F830110123082902D1D0F85F
:1006B000344114B1082909D00BE04FF08041C1F852
:1006C0000C21C1F8102161490A6005E0D0F83441DD
:1006D00014B1082957D059E05D4909685D4C216083
:1006E0005B49091D0968241D2160594908310968C1
:1006F000241D216056490C310968241D216054498C
:1007000010310968241D2160514914310968241DE4
:1007100021604F49183109684E4C203421604C4902
:100720001C310968241D2160494920310968241DB4
:100730002160474924310968241D2160444928313A
:100740000968241D216042492C310968241D21605B
:100750003F49303109683F4C403421603C493431D5
:100760000968241D21603A4938310968241D216037
:1007700037493C310968241D2160354940310968F9
:10078000241D216005E0D0F8344114B1082904D0BB
:1007900006E0324C3049216005E0D0F8344114B114
:1007A000082904D006E02E4CFB21216005E0D0F89A
:1007B000344114B1082908D00EE090F85842294875
:1007C000016864F30301016002E0D0F8340118B954
:1007D00025494FF4007008602448016841F4700115
:1007E0000160BFF34F8FBFF36F8F4FF01021D1F82F
:1007F0000002002803DBD1F80402002822DA1C4C96
:1008000023601C480368002BFCD01223C1F800327F
:100810000568002DFCD0C1F8043201680029FCD025
:10082000226001680029FCD0BFF34F8F0F487C384D
:100830000168114A01F4E06111430160BFF34F8F79
:1008400000BFFDE70E490D48086030BD3805004087
:100850000404001020C50040488103008C5600406D
:1008600018F50040E40E00404096024088ED00E09C
:1008700004E5014000E401400400FA050090D003C3
:10088000440000200448017F04480029024901D0A7
:1008900002F0ABB902F01AB9740100200020004048
:1008A00002E008C8121F08C1002AFAD17047704739
:1008B000002001E001C1121F002AFBD1704700F0A7
:1008C0000DB80EB5ADF80010CDE901206A46002143
:1008D00044F20100FFF7F3FF0EBD000008B501234D
:1008E0008DF800309DF80030144B186059609A6004
:1008F0006FF48041401807D001280FD1DA60D86822
:1009000000889861D86807E01A61186980685861A2
:1009100018690088986118694068D8611868586833
:100920009868D868186958699869D86972B600BF1C
:100930009DF800000028FBD162B608BD940100209C
:10094000074B9B7823B12AB120B10068037C1BB10F
:1009500008207047072070474174426100207047AB
:10096000B401002070B501F035FE104800240B21C1
:10097000047044700E4D817014206C602C706C708B
:10098000FFF740FE07211420FFF75DFE1420FFF75C
:1009900044FE0848046007211120FFF754FE054873
:1009A000001F0068A860002070BD0000B401002096
:1009B00028000020081501402DE9F843DFF8709069
:1009C00099F802305BB350B3052902D20720BDE885
:1009D000F88343691BB3437C012B22D000270446D4
:1009E000002588461646284600F036F8684602F08C
:1009F00075F9C0B1012101700E4944600968C0E970
:100A00000218C0E904769DF8000089F80100002072
:100A100000F050F81420FFF70BFE2846D7E7082017
:100A2000D5E70F46DBE70425002000F043F8F4E7A4
:100A3000B4010020041501400649897839B130B16C
:100A4000416921B100210174022101F05DBF08203C
:100A500070470000B401002010B501F027FD012807
:100A600003D004A1282000F0B9F8BDE8104000F040
:100A70004FB800002E2E5C2E2E5C2E2E5C2E2E5C8F
:100A80002E2E5C2E2E5C636F6D706F6E656E7473B0
:100A90005C6C69627261726965735C7574696C5CC7
:100AA0006170705F7574696C5F706C6174666F7291
:100AB0006D2E630010B501F0F9FC012803D004A1EC
:100AC000362000F08BF8BDE8104000F029B8000097
:100AD0002E2E5C2E2E5C2E2E5C2E2E5C2E2E5C2E50
:100AE0002E5C636F6D706F6E656E74735C6C6962A3
:100AF0007261726965735C7574696C5C6170705F5A
:100B00007574696C5F706C6174666F726D2E6300D2
:100B100072B602480168491C016070473C00002021
:100B200003490868401E086000D162B670470000A3
:100B30003C00002070B5054608680C46411C04D0F6
:100B400001F022F8206800F060FF6068411C02D0CC
:100B5000002100F051FF28791F4901EB401029685E
:100B6000007F0028A069C1F8240523D0607D227D84
:100B700029681043C1F86C05D4E900122868C0F850
:100B80000C15C0F8142522E0A068411C02D00021F9
:100B900000F032FFE068411C04D000F0F5FFE0688F
:100BA00000F033FFD4E902122868C0F80825C0F825
:100BB000101570BD607D217D2A680843C2F86C0560
:100BC000D4E900122868C0F81425C0F80C15207D5F
:100BD0000128D9D070BD0000740100201CB56A4600
:100BE000ADF800000191002144F20200FFF767FE1A
:100BF0001CBD00007CB50024064E25460022305D59
:100C0000032300951146019500F0C4FE641C042CDA
:100C1000F4D37CBD9C2D000010B50446042803D3FA
:100C200005A12820FFF7DAFF0F480121005DBDE88C
:100C3000104000F0B3BF00002E2E5C2E2E5C2E2E36
:100C40005C2E2E5C2E2E5C2E2E5C636F6D706F6E94
:100C5000656E74735C626F617264735C626F617203
:100C600064732E6300000000982D00007CB5002402
:100C7000084E25460122305D00950023114601955E
:100C800000F088FE641C042CF4D3BDE87C4000F026
:100C900003B80000982D000010B500242046FFF78F
:100CA000BBFF641C042CF9D310BD000002490844AA
:100CB00090F93000704700000C01002070B5084C1E
:100CC000050009D010342168002907D00868206089
:100CD000496828468847F6E70834F4E770BD000005
:100CE000F80000202DE9F05F26484168F1B3DFF8F5
:100CF00098B00E688146DBF8004087688078E11B79
:100D000021F07F45ED1CB0B9DFF880804FF48030D2
:100D1000C8F84403C8F804031120FFF773FC11203E
:100D2000FFF77BFC4FF0010AC8F800A02F2000F06D
:100D300097F989F802A0B54200D23546124BE8195E
:100D40003C3320F07F401860DBF800105A46091B46
:100D500021F07F41001B20F07F40C91C81420FD948
:100D6000106818602F2000F07BF900E004E0BDE877
:100D7000F05F1120FFF75CBCBDE8F05F01F02ABC1A
:100D8000BDE8F09F2800002004150140001001403C
:100D90000E4910B50A784C780023A24212D0521C9A
:100DA000D2B20A70022A00D10B70084A0B780C32BA
:100DB00052F8232002608868104420F07F40886049
:100DC000012010BD0360002010BD0000280000209D
:100DD00082681268D268002A00D01047704700006D
:100DE00070B50E460446007918494FF4A27501EB20
:100DF0004010017F2068A1B14FF4887101F050FBD1
:100E00004FF49071206801F04BFB4FF49271206811
:100E100001F046FB2946206801F042FB0C4920689E
:100E200009E04FF48E7101F02AFB2946206801F099
:100E300026FB08492068C0F80413206800F02AFA4D
:100E40003146BDE8704000F0FDB90000740100209B
:100E500010030200800002000268134602E08A428A
:100E600004D01268002AFAD10B60016070470000BC
:100E70002DE9F047394E002780463D46DFF8E090E7
:100E8000D6F804A057E003D00446D0F81C8035E023
:100E900099F8002002EB4201521CD2B289F80020DE
:100EA00009EBC10199F80230091D9A4201D189F874
:100EB000005048680A780446012A12D0022A02D05B
:100EC000032A3BD108E001F0EFFC00B101272574B3
:100ED00034E00574C06900E070680028F9D17060E2
:100EE0002CE0207C50BB88686060C868A0600869FE
:100EF000E0604869A061F07800B165606268B1683F
:100F0000184B501A20F07F40984202D2A168084442
:100F100006E0881AA16820F07F40814202D9081AB1
:100F2000206000E0256065600120A56020742046F7
:100F3000E56101F09BFCB8F10000A4D199F8001024
:100F400099F801008142A3D117B97168514502D0C7
:100F50000120BDE8F0870020FBE70000280000200A
:100F6000B4010020FFFF7F001CB500F0BFF818B1EE
:100F700029A24F21FFF7A5FC002000F097F918B136
:100F800025A25121FFF79DFC002000F0D1F8FFF7CA
:100F9000E9FC18B120A25521FFF793FCFFF766FE8C
:100FA000FFF728FE204AA2F1200101F1340001F0F0
:100FB000BFF818B118A25B21FFF783FC1B48FFF7AD
:100FC000F5F902464FF0FF3000901748002317490B
:100FD000143001F0C7F918B10FA26421FFF771FCBA
:100FE0004FF47A74002510480023012201A914301F
:100FF000009401F031F90028F5D10B4800230122BB
:1010000001A91430009501F0ADF907480021143012
:1010100001F016F8E7E700002E2E5C2E2E5C2E2E37
:101020005C6D61696E2E63002C2D000000000020B5
:10103000C20800F007030120895C9840084070470F
:1010400000F180400068002800D00120704708B5FA
:1010500000F18040002101600068009008BD0000A0
:1010600000283ED01F49204A096800BF00BF00BFCA
:1010700000BF00BF00BF00BF00BF91422FD000BF24
:1010800000BF00BF00BF00BF00BF00BF00BF00BF68
:1010900000BF00BF00BF00BF00BF00BF00BF00BF58
:1010A00000BF00BF00BF00BF00BF00BF00BF00BF48
:1010B00000BF00BF00BF00BF00BF00BF00BF00BF38
:1010C00000BF00BF00BF00BF00BF00BF00BF00BF28
:1010D00000BF00BF00BF00BF00BF00BF00BF401E79
:1010E000C3D17047440000200024F40070B50E4CBA
:1010F0000025207808B1852513E00021A1606160FA
:101100002161E1604FF0E020D0F80001012610F0ED
:10111000010F03D10721002000F094F80348066076
:101120002670284670BD0000F80000201805004019
:1011300070B51C4C0546207818B91BA1E120FFF7BB
:101140004DFDA07838B115B16968012088470020AD
:10115000FFF782FC15E00020FFF77EFC25B1114867
:1011600029461030FFF778FEE06850B94FF48270DE
:10117000FFF76DFF02204107C1F804031A4901205F
:101180000860E068401CE0600020FFF793FCE06826
:10119000002805D1BDE8704003A1FD20FFF71EBD6A
:1011A00070BD0000F80000202E2E5C2E2E5C2E2E2E
:1011B0005C2E2E5C2E2E5C2E2E5C636F6D706F6E1F
:1011C000656E74735C647269766572735F6E726665
:1011D0005C636C6F636B5C6E72665F6472765F6398
:1011E0006C6F636B2E630000080000402DE9F04136
:1011F0004FF480773846FFF723FF0124104EA507F0
:1012000048B13846FFF723FF0120C5F80803747082
:101210000020FFF753FD4FF482773846FFF710FFA9
:1012200000280BD03846FFF712FF0220C5F808034C
:10123000B470BDE8F0410120FFF740BDBDE8F0818A
:10124000F800002070B50D460446082904D3104963
:101250004FF48470FFF7C2FC6807000E002C06DA1A
:1012600004F00F0101F1E02181F8140D03E004F115
:10127000E02181F8000404F01F0101208840610989
:10128000890001F1E021C1F88002C1F8000170BDC0
:10129000AC2D0000000B40B270470121B1EB507F34
:1012A00001D10120704700207047000070B5104C3C
:1012B000217809B1852070BD00B90E480E4A017829
:1012C000C1F3400111600C490078083900F00100B9
:1012D00008604FF0E020D0F80001012510F0010F68
:1012E00003D107210020FFF7ADFF2570002070BD5E
:1012F00018000020A82D00008005004070B54FF0B8
:101300008040D0F80453354C68070DD54FF48470F5
:1013100000F02AFD40B1606820B931A140F24910C7
:10132000FFF75CFC60688047A8060ED54FF48A7012
:1013300000F01AFD48B1A06820B929A140F251106F
:10134000FFF74CFCA1680020884768060ED54FF4D3
:101350008C7000F009FD48B1A06820B920A14FF4BD
:10136000AC70FFF73BFCA1680120884728060ED52A
:101370004FF48E7000F0F8FC48B1E06820B918A175
:1013800040F26110FFF72AFCE16800208847E80579
:101390000ED54FF4907000F0E7FC48B1E06820B93A
:1013A0000FA14FF4B470FFF719FCE16801208847E2
:1013B000A80511D54FF4927000F0D6FC00280BD090
:1013C000E06820B906A140F26F10FFF707FCE16862
:1013D000BDE870400220084770BD000018000020E2
:1013E0002E2E5C2E2E5C2E2E5C2E2E5C2E2E5C2E37
:1013F0002E5C636F6D706F6E656E74735C64726982
:10140000766572735F6E72665C706F7765725C6E24
:1014100072665F6472765F706F7765722E6300002C
:101420002DE9F04190460D00064603D118A1EE20AB
:10143000FFF7D4FB3079264F07EB4014E07E10B164
:101440000820BDE8F081687F207729463046FFF705
:1014500071FB5FEA080060602969216003D0297F81
:101460003046FFF7BDFC307907EB4010007F0028C5
:10147000306801D0082100E00421C0F800150020E8
:10148000E0752076A0750121E176A076D9E700000D
:101490002E2E5C2E2E5C2E2E5C2E2E5C2E2E5C2E86
:1014A0002E5C636F6D706F6E656E74735C647269D1
:1014B000766572735F6E72665C756172745C6E7273
:1014C000665F6472765F756172742E63000000005F
:1014D000740100202DE9F04105460079304E174691
:1014E00006EB40148846E07E012804D02DA140F28E
:1014F0003920FFF773FB27B92AA140F23A20FFF702
:101500006DFB287906EB4010007F18B14046FFF7CD
:10151000C4FE80B1626800234FF404704FF401717F
:1015200072B12A7906EB4212127F002A2A6805D08E
:10153000C2F8080304E01020BDE8F081C2F80813E7
:10154000E27DB2B1227E7AB162685AB12A7906EBA5
:101550004212127F1AB12968C1F8040302E0286818
:10156000C0F804131120E7E7C4F8108001232776A0
:1015700005E0E7750020C4F80C80607620762879B5
:101580003A4606EB40104146007F0028284603D02B
:10159000BDE8F04100F0CCB8BDE8F04100F074B80F
:1015A000740100202E2E5C2E2E5C2E2E5C2E2E5CC6
:1015B0002E2E5C2E2E5C636F6D706F6E656E747375
:1015C0005C647269766572735F6E72665C75617277
:1015D000745C6E72665F6472765F756172742E639E
:1015E000000000000179084A02EB411101220B7F43
:1015F00001680BB14A6070474FF40173C1F80833BA
:1016000000684260704700007401002070B5044615
:1016100000790C4D05EB4010017F31B1BDE8704001
:1016200009A140F29620FFF7D9BA807E002807D1A1
:10163000204601F012F82179012005EB411188764E
:1016400070BD0000740100202E2E5C2E2E5C2E2E0C
:101650005C2E2E5C2E2E5C2E2E5C636F6D706F6E7A
:10166000656E74735C647269766572735F6E7266C0
:101670005C756172745C6E72665F6472765F7561D0
:1016800072742E63000000002DE9F05F04460079BB
:10169000264901EB4015A87E184302D1204600F0F0
:1016A000DCFF68680028206806D04FF40171C0F89C
:1016B00004130020BDE8F09F4FF4A276314600F0FD
:1016C000DEFEB1464FF4927A4FF4847B5146206897
:1016D00000F0D0FE06465946206800F0CBFE80465A
:1016E0004946206800F0C6FE074648EA0700304336
:1016F000ECD056EA070007D12946206800F088FFA1
:10170000E87D697E8842E1D80020E8750EB10320AB
:10171000D0E70FB10F20CDE7A97E01200029216875
:1017200001D00860C5E74860C3E7000074010020ED
:101730002DE9F05F894604464FF488759A46904635
:1017400000260068294600F0ABFE4FF4A277394628
:10175000206800F0A5FE2068C0F83495C0F83885F0
:101760002068BAF1000F14D0D0F8001241F0200127
:10177000C0F800122179DFF8648008EB411040685E
:1017800050B120684FF40471C0F804133046BDE82E
:10179000F09F01210160EDE7AA46B9464FF4927B24
:1017A0005146206800F077FE07464946206800F061
:1017B00072FE05465946206800F06DFE014647EA74
:1017C00005000843ECD02379002208EB4310C275D2
:1017D00001B10326002DD9D00F26D7E774010020D0
:1017E0000179074A006802EB4111097F11B1D0F875
:1017F000100101E0D0F80801002800D00120704756
:10180000740100202DE9F0470E460179DFF82881A8
:10181000044608EB41151746E87E012804D047A18D
:1018200040F27B10FFF7DAF927B944A14FF4BE70FC
:10183000FFF7D4F926B941A140F27D10FFF7CEF9A8
:10184000217908EB4110007F18B13046FFF725FDE4
:1018500030B1204600F092F820B11120BDE8F087A9
:101860001020FBE7AF750027AE60AF8221793E46BE
:1018700008EB41154FF00108287F0028206825D08B
:101880004FF49079494600F00BFE4FF4AC7A514684
:10189000206800F005FE2068A97DAA68C0F84425EC
:1018A000C0F848152068C0F808806868F0B9494653
:1018B000206800F0F0FD80465146206800F0EBFD06
:1018C00058EA0001F3D058BBAF750FE04FF48E7AA1
:1018D000514600F0D4FD2068C0F8088029462068F1
:1018E00001F06CF869684FF4807089B13046B5E753
:1018F0005146206800F0BEFD10B9A88A4845F7D1CE
:10190000A88A484505D02946206801F057F800E02C
:101910008146A88AA97D8842EAD3A88A484501D190
:101920000F26D1E75146206800F0A4FD0028F9D029
:101930002068C0F80C80C7E7740100202E2E5C2EB2
:101940002E5C2E2E5C2E2E5C2E2E5C2E2E5C636F5B
:101950006D706F6E656E74735C64726976657273B8
:101960005F6E72665C756172745C6E72665F6472E3
:10197000765F756172742E6300000000007904497F
:1019800001EB4010807D002800D00120704700004E
:10199000740100202DE9FF411C46DDE90A78154657
:1019A0000E46684600F054F846EA450141EA8401D3
:1019B00041EA072242EA0841009A00EB8200C0F89F
:1019C0000017BDE8FF812DE9FF411C46DDE90A78DB
:1019D00015460E46684600F0A3F846EA450141EA7E
:1019E000840141EA072242EA0841009A00EB8200A2
:1019F000C0F80017BDE8FF811CB500220B4600921D
:101A000011460192FFF7DFFF1CBD1CB500210091BC
:101A10000B46012201911146FFF7D5FF1CBD13B5FE
:101A20000C46684600F048F8009900EB8101D1F8B7
:101A3000002722F44032C1F80027009900EB810012
:101A4000D0F8001741EA0441C0F800171CBD00009F
:101A500010B504460068302804D308A14FF4DA70AA
:101A6000FFF7BCF82068202802D24FF0A04010BD3C
:101A700000F01F0020600F4810BD00002E2E5C2ECD
:101A80002E5C2E2E5C2E2E5C2E2E5C2E2E5C636F1A
:101A90006D706F6E656E74735C6472697665727377
:101AA0005F6E72665C68616C5C6E72665F677069BF
:101AB0006F2E68000003005010B5044600683028FF
:101AC00004D308A14FF4DA70FFF788F820682028C3
:101AD00002D24FF0A04010BD00F01F0020600F4860
:101AE00010BD00002E2E5C2E2E5C2E2E5C2E2E5C49
:101AF0002E2E5C2E2E5C636F6D706F6E656E747330
:101B00005C647269766572735F6E72665C68616C44
:101B10005C6E72665F6770696F2E6800000300502C
:101B200010B504460068302804D308A14FF4DA70D9
:101B3000FFF754F82068202802D24FF0A04010BDD3
:101B400000F01F0020600F4810BD00002E2E5C2EFC
:101B50002E5C2E2E5C2E2E5C2E2E5C2E2E5C636F49
:101B60006D706F6E656E74735C64726976657273A6
:101B70005F6E72665C68616C5C6E72665F677069EE
:101B80006F2E68000003005001B56846FFF7C8FFDC
:101B9000009A01219140C0F8081508BD38B501240C
:101BA0000090684631B1FFF753FF00998C40C0F8B0
:101BB000084538BDFFF74CFF00998C40C0F80C4534
:101BC00038BD00007CB5154604460C4A6618022E46
:101BD000D2E90002CDE9000204D909A14FF4337023
:101BE000FEF7FCFF694605E051F82400D0F8100527
:101BF000641C01C5A642F7D87CBD0000A02D0000E2
:101C00002E2E5C2E2E5C2E2E5C2E2E5C2E2E5C2E0E
:101C10002E5C636F6D706F6E656E74735C64726959
:101C2000766572735F6E72665C68616C5C6E72661C
:101C30005F6770696F2E6800034908B5084400218A
:101C400001600068009008BD0060004002494058F3
:101C5000012800D0002070470060004010B504004B
:101C600003D104A14B20FEF7B9FF00202060BFF391
:101C70005F8F10BD2E2E5C2E2E5C2E2E5C2E2E5CC9
:101C80002E2E5C2E2E5C636F6D706F6E656E74739E
:101C90005C6C69627261726965735C6D757465789C
:101CA0005C6E72665F6D74782E68000038B5040053
:101CB00003D107A15320FEF791FF204601216A4678
:101CC000FEF7C2FA08B1002038BD012038BD00007F
:101CD0002E2E5C2E2E5C2E2E5C2E2E5C2E2E5C2E3E
:101CE0002E5C636F6D706F6E656E74735C6C696291
:101CF0007261726965735C6D757465785C6E72662D
:101D00005F6D74782E68000010B5040003D108A13F
:101D10005C20FEF763FF2068012803D004A15D204A
:101D2000FEF75CFF00202060BFF35F8F10BD000056
:101D30002E2E5C2E2E5C2E2E5C2E2E5C2E2E5C2EDD
:101D40002E5C636F6D706F6E656E74735C6C696230
:101D50007261726965735C6D757465785C6E7266CC
:101D60005F6D74782E68000000F1804108680022E1
:101D700010B101200A6070471046704710B504008A
:101D800004D105A14FF4D270FEF728FF204600F0E1
:101D900025F9A168081A10BD2E2E5C2E2E5C2E2E61
:101DA0005C2E2E5C2E2E5C2E2E5C636F6D706F6E23
:101DB000656E74735C6C69627261726965735C7183
:101DC000756575655C6E72665F71756575652E63A8
:101DD0000000000070B514460E46050004D113A1A2
:101DE00040F20710FEF7FAFE26B910A14FF48470F6
:101DF000FEF7F4FE4FF00000002C12D0FEF72CFE90
:101E0000287C78B12846FFF7B9FF844200D3044606
:101E100022463146284600F095FB0020FEF74AFE98
:101E2000204670BDA868A042F2D8F0E72E2E5C2EA6
:101E30002E5C2E2E5C2E2E5C2E2E5C2E2E5C636F66
:101E40006D706F6E656E74735C6C696272617269DD
:101E500065735C71756575655C6E72665F717565DD
:101E600075652E630000000010B5040004D107A1C1
:101E70004FF4CE70FEF7B2FE2168086849688842C8
:101E800001D1012010BD002010BD00002E2E5C2EBF
:101E90002E5C2E2E5C2E2E5C2E2E5C2E2E5C636F06
:101EA0006D706F6E656E74735C6C6962726172697D
:101EB00065735C71756575655C6E72665F7175657D
:101EC00075652E630000000070B50C46050003D157
:101ED00005491B20FEF782FEA868A04201D9601CBC
:101EE00070BD002070BD0000981D000070B5144644
:101EF0000D46060004D110A140F26D10FEF76EFEF3
:101F000025B90DA14FF4B770FEF768FE4FF0000041
:101F1000002C10D0FEF7A0FD304600F007FB8442F5
:101F200000D3044622462946304600F0CCFA002071
:101F3000FEF7C0FD204670BD2E2E5C2E2E5C2E2E90
:101F40005C2E2E5C2E2E5C2E2E5C636F6D706F6E81
:101F5000656E74735C6C69627261726965735C71E1
:101F6000756575655C6E72665F71756575652E6306
:101F70000000000010B5040004D109A140F2831054
:101F8000FEF72CFE0020FEF767FD206800210160AF
:101F900041608160BDE810400846FEF78BBD00003F
:101FA0002E2E5C2E2E5C2E2E5C2E2E5C2E2E5C2E6B
:101FB0002E5C636F6D706F6E656E74735C6C6962BE
:101FC0007261726965735C71756575655C6E726668
:101FD0005F71756575652E630000000010B5040023
:101FE00004D108A140F28F10FEF7F8FD0020FEF7A3
:101FF00033FD204600F09AFA04460020FEF75AFD11
:10200000204610BD2E2E5C2E2E5C2E2E5C2E2E5CBD
:102010002E2E5C2E2E5C636F6D706F6E656E74730A
:102020005C6C69627261726965735C717565756516
:102030005C6E72665F71756575652E6300000000E9
:10204000F8B50D46040004D12AA140F2DD10FEF7D8
:10205000C5FDA068016821B1027B920703D4082066
:10206000F8BD8020F8BD097881B3001DFFF71EFE82
:1020700088B100200090681C0FD06B462A4620468D
:10208000E16800F08DFB060007D0A068001DFFF797
:102090003BFE3046F8BD1120F8BDA06800684068DE
:1020A0004068FFF7E1FE18B12046FFF767FC58B122
:1020B0000026204600F06AFB9DF800000028ECD0C6
:1020C0009DF8000018B108E00126F9E70FE06D1C4B
:1020D00003D0E0680068FEF7AFFCA068001DFFF7C2
:1020E00013FE26B99DF8000008B10D20F8BD0020B0
:1020F000F8BD00002E2E5C2E2E5C2E2E5C2E2E5C4B
:102100002E2E5C2E2E5C636F6D706F6E656E747319
:102110005C6C69627261726965735C736572696136
:102120006C5C6E72665F73657269616C2E63000031
:1021300070B588B015460E46040001D006B11DB931
:1021400035A1A220FEF74AFDA068006810B18520E5
:1021500008B070BD287838B1686808B1A86818B9A7
:102160002DA1AC20FEF73AFD202231466846FEF74D
:102170000BF904942878022827D000208DF81D0040
:10218000287820B3334A69462046FFF749F90028EA
:10219000DED1A0680560686840B14068FFF7EAFEDC
:1021A000A068006840680068FFF7E4FEA068083097
:1021B000FFF754FDA068001DFFF750FDA168032044
:1021C00008730098401C04D006E00120D6E70022E6
:1021D000D9E7A068012101730198401CA06814D0C0
:1021E00000680078022807D02046FFF70FFAA068A1
:1021F000006800780028ABD0A06800688068427A48
:1022000041682046FFF766F9A2E7017B21F0010152
:10221000017300209CE700002E2E5C2E2E5C2E2EDB
:102220005C2E2E5C2E2E5C2E2E5C636F6D706F6E9E
:10223000656E74735C6C69627261726965735C73FC
:10224000657269616C5C6E72665F73657269616C00
:102250002E630000F92900002DE9F8439946DDF8C6
:10226000208016460F46050004D12FA14FF4C370FD
:10227000FEF7B4FCA8680168D9B1017BC9071AD080
:10228000D6B30830FFF712FDB8B100200090B8F1C6
:10229000FF3F14D06B4642462846296900F080FA79
:1022A00004000CD0A8680830FFF72EFD2046BDE8DA
:1022B000F8838020FBE70820F9E71120F7E7344690
:1022C00022463946284600F0D8F9241A074409D096
:1022D0009DF8000088B1A8680068007810B1284611
:1022E000FFF780F9B9F1000F02D0311BC9F80010D7
:1022F0009DF8000028B10BE014E0284600F046FAF3
:10230000DEE7B8F1FF3F03D028690068FEF794FBD1
:10231000A8680830FFF7F8FC24B19DF8000008B168
:102320000D20C4E70020C2E72E2E5C2E2E5C2E2E40
:102330005C2E2E5C2E2E5C2E2E5C636F6D706F6E8D
:10234000656E74735C6C69627261726965735C73EB
:10235000657269616C5C6E72665F73657269616CEF
:102360002E6300002DE9F8439946DDF820801746DA
:102370000D46060004D130A140F22F10FEF72EFCCE
:10238000B068016829B1027B920704D40820BDE837
:10239000F8838020FBE7EFB301220024B2EB557FE6
:1023A00002D00978022915D0001DFFF77FFC98B1F3
:1023B0000094B8F1FF3F11D06B4642463046F168B9
:1023C00000F0EEF9040009D0B068001DFFF79CFC96
:1023D0002046DCE71020DAE71120D8E73C46224609
:1023E0002946304600F074F9241A054406D03046D8
:1023F00000F0CCF99DF800000028F0D0B9F1000FF2
:1024000002D0391BC9F800109DF8000040B9B8F19E
:10241000FF3F00E00EE003D0F0680068FEF70CFB21
:10242000B068001DFFF770FC24B19DF8000008B1F2
:102430000D20ACE70020AAE72E2E5C2E2E5C2E2E5F
:102440005C2E2E5C2E2E5C2E2E5C636F6D706F6E7C
:10245000656E74735C6C69627261726965735C73DA
:10246000657269616C5C6E72665F73657269616CDE
:102470002E6300004058002800D00120704708B5A6
:10248000002242504058009008BDD0F80403084094
:1024900000D0012070474058002800D0012070472C
:1024A00008B5002242504058009008BDEFF3058067
:1024B000C005C00D01D001207047EFF3148040F338
:1024C0000000401C70472DE9F041044600681746A3
:1024D000884605684068854201D8461B02E0A0682E
:1024E000461B761CE2686068B74205FB02010CD807
:1024F0007A434046FDF748FFA168E819884200D9B1
:10250000002021680860BDE8F08102FB06F52A463C
:102510004046FDF739FFE268BE1B724308EB050039
:102520006168FDF731FF20680660ECE701680A6822
:102530004968914201D3881A70478068801A08441C
:10254000401C70472DE9F047164689460446FFF7C0
:1025500015FC80462068A168426840688F1A61684F
:10256000E2687F1C00FB0210BE420FD8724349464E
:10257000FDF70AFF20684168A2683144914202D801
:102580004168314400E00021416018E002FB07F59A
:102590002A464946FDF7F8FEE268F71B7A4309EB45
:1025A00005016068FDF7F0FE20684760B04506D27F
:1025B000206841682046FFF787FC216808602046B4
:1025C000FFF7B4FF21688A68824200D28860BDE8C4
:1025D000F087000070B5012670044FF0E02100255F
:1025E000C1F88001084C4010C4F84803C4F808033F
:1025F00066602F20FEF734FDA660044C2F20A560F6
:10260000FEF72EFDA57070BD0010014028000020CF
:1026100070B50546C87D0C4600284FF484712846E5
:102620000AD0FFF72CFFD5F81805627EE1688854C0
:10263000607E401C607670BDFFF721FFD5F818055D
:1026400070BD1FB501238DF800308DF80810019280
:10265000D0E90012684690471FBD10B504460068D7
:102660004FF49271FFF70BFF4FF484712068FFF76E
:1026700006FF20680121016010BD2DE9F0410746E9
:1026800080680E460068017831B1406831460068C4
:10269000BDE8F041FFF72ABCFF2A01D2154600E051
:1026A000FF252C4607E0012231463846FEF712FF8F
:1026B00038B9641E761C3846FFF792F808B1002C32
:1026C000F1D1281BBDE8F0810121017070470000A5
:1026D0002DE9F041054680680068037863B14368DE
:1026E00084685E683046FFF775FB07462846FFF7AB
:1026F00045F9002825D10FE0FF2A00D3FF22144618
:10270000D2B22846FFF77EF818B10FA14C20FEF791
:1027100065FA2046BDE8F081227A30462168FFF74D
:10272000E5FB060003D108A15B20FEF757FAF2B2E1
:1027300028462168FFF766F818B103A15D20FEF76F
:102740004DFA3846E6E700002E2E5C2E2E5C2E2E2B
:102750005C2E2E5C2E2E5C2E2E5C636F6D706F6E69
:10276000656E74735C6C69627261726965735C73C7
:10277000657269616C5C6E72665F73657269616CCB
:102780002E63000020BF40BF20BF704780680068F4
:102790000178002903D00069002800D00047704765
:1027A00070B50E46510CD0034FF4FA7280181D46D6
:1027B00041F1000152000023FDF7A6FD0446052863
:1027C00003D201202870002070BD074A0021304646
:1027D000FEF7B6F80028F7D12A4621463068BDE852
:1027E0007040FEF7E9B80000C92600002DE9F84F57
:1027F0001D4C00256846D4E901A6FEF7C9FA00275A
:1028000038B30023009A61681CE0D1F800C0084684
:10281000944503D9ACEB02020A6015E0A2EB0C026E
:1028200063440760D0F80CC0C1698146BCF1000F59
:1028300008D006EB030828F07F48C0E9018CC9F8EE
:102840001C5005460029E0D128466160FEF710FBC8
:1028500003E02846FEF70CFB10B15046FEF742FAA3
:10286000E770BDE8F88F0000280000200D4B10B580
:10287000596831B102680C68A24204D8A21A0A60F1
:10288000C161586010BD0B4603E00B46C969121BBD
:1028900021B10C689442F8D3A41A0C600260C161A3
:1028A000D86110BD280000202DE9F041144E776852
:1028B0003D462C4603E0844204D02546E469002CC2
:1028C000F9D11BE0D4B1A5420BD1F869706040B9D1
:1028D0000C49012088600021B160F0702F20FEF7C4
:1028E000BFFB2168E069E86110B102681144016032
:1028F0007068874202D00120BDE8F0810020FBE72C
:102900002800002000100140F8B5064600240D46BE
:102910002046FEF7A1F8684600F0E0F968B10570BE
:10292000084946609DF8000048700020FEF7C2F894
:102930001420FDF77DFE2046F8BD04240020FEF79C
:10294000B9F8F8E7B40100202DE9F041194D6C68A1
:10295000002C2CD0184800270068A968B846401AF7
:1029600020F07F462068B0420CD82146361A074432
:10297000E469087C20B181F810808869496988473A
:10298000002CEFD129786878814206D1401CC0B272
:102990006870022801D185F80180064869780C30FA
:1029A00040F82170BDE8F0411420FDF741BEBDE8BC
:1029B000F0810000280000200415014070B50C468D
:1029C00005464FF48E71FFF75AFDA18AA068415C5D
:1029D000A08A401CA082C5F81C1570BD1FB500223E
:1029E0008DF800208DF80810816801918275D0E97A
:1029F0000012684690471FBD70B5054600780C462A
:102A000038B3012803D0022840D102210BE0A0688E
:102A10002A7A6968006840680068FFF7DBF9297A5C
:102A2000814205D903212046BDE87040FEF7D0B9A8
:102A300001212046FEF7CCF9A06800688068427A40
:102A400041682046FEF746FD00281FD010A17E20D9
:102A500018E0A06800684168856820464E6800213B
:102A6000FEF7B6F92A7A30462968FFF73FFA0028C0
:102A70000CD0C2B220462968FEF7C4FE002805D05B
:102A800003A19520BDE87040FEF7A8B870BD000016
:102A90002E2E5C2E2E5C2E2E5C2E2E5C2E2E5C2E70
:102AA0002E5C636F6D706F6E656E74735C6C6962C3
:102AB0007261726965735C73657269616C5C6E7278
:102AC000665F73657269616C2E6300002DE9FF47D4
:102AD0000C4605464FF40071FFF7D7FC01274FF471
:102AE0000178002618B34FF4927949462846FFF73B
:102AF000C1FCE0B149462846FFF7C1FCC5F8088390
:102B0000A07E00B96F6002208DF80000D5F8800427
:102B1000C5F880040390E07D8DF80800E06801901E
:102B2000E6752676D4E900126846904727E004212E
:102B30002846FFF7AAFC10B34FF484712846FFF72C
:102B400099FCE0B121462846FFF762FDE07D617EF9
:102B5000884214D1207E38B1617EE268E075206938
:102B6000E0602676667607E0A07E00B96F60C5F863
:102B70000883E675617EE2682046FFF762FD4FF448
:102B80008E7841462846FFF775FC88B1A08AA17D62
:102B9000884204D221462846FFF710FF08E041464C
:102BA0002846FFF76CFCA17D11B12046FFF716FF08
:102BB0004FF4A27841462846FFF75CFC002812D06B
:102BC00041462846FFF75BFCA07E00B12F60E07D08
:102BD000002808D0E675617EE26804B02046BDE8B2
:102BE000F047FFF72EBDBDE8FF872DE9FF410C46FA
:102BF0004FF4927705463946FFF74DFC0026C0B1E9
:102C000039462846FFF74CFC02208DF80000D5F825
:102C10008004C5F880040390D5F83C058DF80800C1
:102C2000E0680190E6752676D4E900126846904780
:102C300024E04FF4887739462846FFF72CFCE8B1AA
:102C400039462846FFF72CFCD5F83C05C1B2E07D9B
:102C5000884213D1207E60B1E268D5F8000220F0EE
:102C60002000C5F80002207EE0752069E06026762D
:102C700001E0E675E2682046FFF7E3FC4FF4A27737
:102C800039462846FFF707FC68B139462846FFF762
:102C900007FCE07D38B1E675D5F83C05E268C1B2C5
:102CA0002046FFF7CEFC4FF4907631462846FFF7DA
:102CB000F2FB00280FD031462846FFF7F1FBA07D3C
:102CC000002808D0D5F84C0504B0C1B22046BDE8B4
:102CD000F041FFF783BEBDE8FF8100000A494A7852
:102CE0008B78521CD2B2934200D100220B789342CF
:102CF00001D1002070470270487800EB400001EBE2
:102D0000C000001D70470000B40100200600000054
:102D1000080000000700000005000000000000009F
:102D2000010000000000D6010700000001000000C3
:102D30007C2D0000842D000000000000852700008D
:102D40000020004000000000E8000020942D00005A
:102D5000902D0000AC000020880000202000000022
:102D60000100000001000000DC000020B80000208D
:102D7000200000000100000001000000542D0000B0
:102D8000682D000014000020150000200101000043
:102D900048000020680000200D0E0F100B0C1819C1
:102DA0000000005000030050000000002E2E5C2E9A
:102DB0002E5C2E2E5C2E2E5C2E2E5C2E2E5C636FD7
:102DC0006D706F6E656E74735C6472697665727334
:102DD0005F6E72665C636F6D6D6F6E5C6E72665F68
:102DE0006472765F636F6D6D6F6E2E63000000001E
:102DF000102E00000000002048000000A008000085
:102E0000582E00004800002078220000B008000082
:102E100048656C6C6F206E72665F73657269616C79
:102E2000210A0D000000000000000000000000006A
:102E30000000000000000000000000000000000092
:102E40000000000000000000000000000000000082
:082E5000000000000090D00317
:0400000500000201F4
:00000001FF
